:020000040800F2
:100000008010002055110008812B000829110008DC
:10001000291100082911000829110008000000001A
:100020000000000000000000000000003D0E00087D
:100030002911000800000000E90D00083D1C00081F
:10004000ED0E0008ED0E0008ED0E0008ED0E0008A4
:10005000ED0E0008ED0E0008ED0E0008ED0E000894
:10006000ED0E0008ED0E0008ED0E0008ED0E000884
:10007000ED0E0008ED0E0008ED0E0008ED0E000874
:10008000ED0E0008ED0E0008ED0E0008ED0E000864
:10009000ED0E0008ED0E0008ED0E0008ED0E000854
:1000A000ED0E0008ED0E0008ED0E0008ED0E000844
:1000B000ED0E0008ED0E0008ED0E0008ED0E000834
:1000C000ED0E0008ED0E0008ED0E0008ED0E000824
:1000D000ED0E0008ED0E0008ED0E0008ED0E000814
:1000E000ED0E0008ED0E0008ED0E0008ED0E000804
:1000F000ED0E0008ED0E0008ED0E0008ED0E0008F4
:10010000ED0E0008ED0E0008ED0E0008ED0E0008E3
:10011000ED0E0008ED0E0008ED0E0008ED0E0008D3
:10012000ED0E0008ED0E0008ED0E0008ED0E0008C3
:10013000ED0E0008ED0E0008ED0E0008ED0E0008B3
:10014000ED0E0008ED0E0008ED0E0008ED0E0008A3
:10015000ED0E0008ED0E0008ED0E0008ED0E000893
:10016000ED0E0008ED0E0008ED0E0008ED0E000883
:10017000ED0E0008ED0E0008ED0E0008ED0E000873
:10018000ED0E0008ED0E0008ED0E0008ED0E000863
:10019000ED0E0008ED0E0008ED0E0008ED0E000853
:1001A000ED0E0008ED0E0008ED0E0008ED0E000843
:1001B000ED0E0008ED0E0008ED0E0008ED0E000833
:1001C000ED0E0008ED0E0008ED0E0008ED0E000823
:0801D000ED0E0008ED0E000821
:1001D80053B94AB9002908BF00281CBF4FF0FF31A6
:1001E8004FF0FF3000F00CB8ADF1080C6DE904CE0B
:1001F80000F008F8DDF804E0DDE9022304B07047F8
:10020800704700BF2DE9F04786468C460846089E91
:10021800154674461946002B40F0C2808542B2FA52
:1002280082F245D94AB1C2F1200300FA02FC2EFA43
:1002380003F3954043EA0C0C94404FEA154EA8B2DC
:10024800BCFBFEF8230C0EFB18CC08FB00F943EAB4
:100258000C43994528D9EB1808F1FF3704D2994582
:1002680002D9A8F102072B44A3EB0903A4B2B3FBFC
:10027800FEFC0EFB1C330CFB00F044EA0344A042D6
:1002880014D92C190CF1FF3304D2A04202D9ACF1D5
:1002980002032C44241A43EA07401EB1D440002329
:1002A80034607360BDE8F0874746DDE76346F1E7F1
:1002B80092BB431B01214FEA154EAFB2B3FBFEFCC4
:1002C800200C0EFB1C330CFB07F840EA034398454F
:1002D80062D9EB180CF1FF3004D2984502D9ACF181
:1002E80002002B44A3EB0803A4B2B3FBFEFC0EFBF5
:1002F8001C330CFB07F744EA0344A7424ED92C19D8
:100308000CF1FF3304D2A74202D9ACF102032C440A
:10031800E41B43EA0040C0E7C2F1200320FA03F1DE
:10032800954090402EFA03F303434FEA154EAFB2BF
:10033800B1FBFEFC0EFB1C10190C0CFB07F841EA84
:100348000041884504FA02F422D969180CF1FF30FB
:1003580004D2884502D9ACF102002944A1EB080176
:100368009BB2B1FBFEFC0EFB1C110CFB07F743EA2A
:1003780001439F420ED9EB180CF1FF3104D29F4282
:1003880002D9ACF102012B44DB1B41EA004192E7A0
:100398006046E3E76146F7E76046A3E76346B7E7E9
:1003A800834206D916B9002108467BE7C6E900E072
:1003B800F9E7B3FA83F78FB9834201D3724508D8B6
:1003C800BEEB020460EB030301209C461EB900212A
:1003D80068E73846FAE7C6E9004CF8E7C7F1200CA9
:1003E800BB4022FA0CF41C432EFA0CF120FA0CF351
:1003F800B84001434FEA14490EFA07F5B3FBF9F880
:100408001FFA84FE09FB18300B0C08FB0EFA43EAAE
:1004180000439A4502FA07F240D9E31808F1FF3081
:1004280004D29A4502D9A8F102002344A3EB0A0397
:1004380089B2B3FBF9F809FB183308FB0EFE41EA51
:1004480003418E452CD9611808F1FF3304D28E453B
:1004580002D9A8F10203214443EA0040A0FB029814
:10046800A1EB0E014145CE46434602D306D14D4588
:1004780004D2B9EB020E68EB04030138002EA6D0B3
:10048800B5EB0E0261EB030101FA0CFC22FA07F34B
:100498004CEA0303F940C6E9003198E74046C5E74E
:1004A8004346D9E738B5104C204602F00BFEC8B1D8
:1004B8002269A568136823F0200313602B684FF4A2
:1004C800202205212046984700280BDB20216B6954
:1004D80020469847002805DB002142F2107002F000
:1004E800E3F8F3E738BD00BFB0330008014B1B68E1
:1004F800184700BF00000020014B1860704700BF7C
:100508000000002007B50B46002102460091034871
:1005180000F006F803B05DF804FB00BFF50400081E
:100528002DE9F04F814695B08B4617461C460025AD
:10053800387808B9284658E37B1C2528039306D049
:100548005946C8470028C0F250830135FBE11822FC
:1005580000210EA802F032FB7B78252B7DD00023EA
:10056800781C98469E469C461E46014610F8012B6C
:100578002B2A00F0A18000F29880202A00F09F80AA
:10058800232A00F09F802BB19DF8403043F04003B0
:100598008DF84030B8F1000F05D09DF8403043F099
:1005A80020038DF84030BEF1000F05D09DF8403093
:1005B80043F010038DF84030BCF1000F05D09DF8D2
:1005C800403043F008038DF840302EB19DF840309C
:1005D80043F004038DF840309DF8403003F04400A8
:1005E800442803D16FF386138DF840309DF84030CE
:1005F8002A2A43F080038DF840307FD19DF84120AE
:1006080042F001024B1C8DF841201A782E2A9DF8E1
:1006180041200CBF0121002161F341028DF84120E6
:1006280078D15A782A2A6ED0013300224FF00A0C6A
:10063800194611F8010BA0F13006092E40F29580F9
:100648009DF840101292C1F3400040EAD2700A4669
:1006580060F341028DF840205CE0BA1C03928DF8EB
:1006680043309DF84130DA0740F12E8154F8048B6D
:10067800B8F1000F07DA9DF8402042F004028DF827
:100688004020C8F100085E0740F1278154F804AB08
:10069800BAF1000F80F226819DF841306FF34103D3
:1006A8008DF841304FF0FF3A1CE12D2A0DD0302A49
:1006B8007FF469AF012358E74FF0010C55E74FF07D
:1006C800010E52E74FF001084FE701264DE70EFBF8
:1006D8000262303A0346184610F8016BA6F1300C56
:1006E800BCF1090FF3D999428FD09DF840101192AF
:1006F800D20F62F341018DF8401086E70B460022C5
:100708004FF00A0EE7E79DF8412042F004028DF809
:10071800412002331A786C2A47D02BD8682A31D066
:100728006A2A4BD04C2A51D01A4612F8013B039240
:10073800782B9DF841208DF8433000F2BE806D2B58
:1007480051D8692B00F2B980572B67D8412B03D0B9
:10075800453B022B00F2B1809DF84230042262F33F
:1007680002038DF84230012373E00CFB0202303A99
:100778000B465DE7742A25D07A2AD5D19DF8412009
:1007880006210CE05A78682A9DF8412006D10121FB
:1007980061F3C6028DF841200233C5E7022161F3F7
:1007A800C6028DF841200133BEE75A786C2A9DF8BD
:1007B800412001D10421EBE70321F0E79DF8412016
:1007C8000521ECE79DF841200721E8E7BDF8402026
:1007D80022F4F04222F0020242F4804242F0020285
:1007E800ADF84020DFE76E3BD9B201238B4040F2E1
:1007F80082410B4237D113F0240F51D1D8075CD571
:100808009DF84230032161F302038DF8423002F073
:100818007803A3F140014B424B411AE0A3F1580180
:10082800C9B2012000FA01F111F4624F94D140F6E7
:10083800010631421DD111F4043F3ED09DF84230EB
:1008480060F3020302F07802402A8DF8423034D077
:1008580000239DF84020C2F340010B4363F341029B
:100868008DF84020FDE69DF84230022161F3020335
:10087800E8E79DF84210022002F0780260F30201D6
:10088800402A8DF8421002BF9DF8401041F0010146
:100898008DF84010632BDBD1131E18BF0123D8E756
:1008A8009DF84230032161F3020312F0780F8DF8AE
:1008B800423014BF01230023CBE79DF8403043F0BA
:1008C80001038DF84030C3E79DF94020002AB4BFEA
:1008D800DDF844804FF0FF38D5E698077FF5E2AEA3
:1008E800DDF848A09DF841100023CDE911339DF8AB
:1008F800423003F00703012BC1F3C30133D1CB1EF0
:10090800042B04D8DFE803F02146462121002368A0
:1009180001294FEAE372CDE90E321CD19DF9383036
:10092800DA17CDE90E3204349DF8403013F003068F
:1009380050D0039B3A465946484602F0F9F8002839
:10094800C0F253810544039FF2E554F8043BDA17DB
:10095800CDE90E32E8E70229E5D11AB243F3C033F4
:10096800CDE90E23DFE7022B24D1CB1E042B04D8BC
:10097800DFE803F0181010181800012954F8043B98
:100988004FF0000214D00229CDE90E32CCD19BB22F
:100998000E93C9E7073424F00704F4E80223CDE9ED
:1009A8000E23C1E754F8043B0E9300230F93BBE7D3
:1009B800DBB2CDE7042B08D1073424F00704D4E9CF
:1009C80000230834CDE90E23AEE7032BACD154F84D
:1009D800043BDDE79DF843007828B4D862281CD88A
:1009E80025283FF4ADAD5828ADD10DF1360300935D
:1009F800DDE90E0108AB10AA02F054F8BAF1000FB5
:100A0800074680F29A80002F9DD00DF13603D81B3F
:100A1800002E00F0C1800130BEE06338152892D85E
:100A280001A252F820F000BF050B0008170B0008C0
:100A38004F0900084F0900084F0900084F0900082E
:100A4800170B00084F0900084F0900084F09000854
:100A58004F090008A50B00083D0B0008630B0008B0
:100A68004F0900084F090008890A00084F090008C3
:100A78003D0B00084F0900084F0900083D0B00080E
:100A8800BAF1000F0E9F35DB5146384602F082F866
:100A980007EB000A002F3FF456AF00269DF84230BE
:100AA80013F01002059200F0938002305B06119A51
:100AB80048BF129B0492104448BFC018B8F1000FF9
:100AC80040F3A0809DF84020A8EB0008C2F3800303
:100AD8005007069300F19680510640F189803EB197
:100AE80059463046C84700287FDB069B01351E461D
:100AF80030227EE0384602F046F8C9E70E9B8DF8B2
:100B08002030002608AF0DF1210A0120C6E7190799
:100B18005CBFC3F300135E01DDE90E2348BF2B263B
:100B2800002BBFF662AF524263EB4303CDE90E23BD
:100B38002D265AE7002658E700269DF840200DF19B
:100B48003603DB1B6FF386129A458DF840207FF63B
:100B58005AAFAAEB0303119355E70E9890B30DF122
:100B68003603009310AA08AB002101F09BFFBDF8E3
:100B7800423003F0EF0343F4F04343F01003BAF1BB
:100B8800000F0746ADF84230D6DA00283FF4DBAE56
:100B98000DF13603181A00269A467FE70E9B07299F
:100BA8003FF6D1AEDFE801F00C04060C08080C0C87
:100BB8001D70C8E61D80C6E6EA17C3E90052C2E602
:100BC8001D60C0E62E4F064607F1050A052065E7B9
:100BD8001A0748BF013069E707931046069259463D
:100BE800C8470028DDE9062304DA15B0BDE8F08F10
:100BF800202243461946002903F1FF33ECDC454423
:100C08006D1A98462EB159463046C8470028ECDB85
:100C180001359DF84230DA0601D41B0705D559463F
:100C28003020C8470028E0DB0135059B33B19DF82B
:100C380043005946C8470028D7DB0135049E2E4497
:100C480005E059463020C8470028CEDB0135731B24
:100C5800002BF6DC53463A465946484601F068FFF1
:100C68000028C2DB0544A844A8EB0503002B7FF746
:100C78006AAE59462020C8470028B6DB0135F3E79D
:100C88007239000882B04FF01002EFF3118382F33B
:100C98001288BFF36F8F83F31188BFF36F8F0D4BEB
:100CA8000D4A1A600D4A536843F0010353600C4B18
:100CB8009A6D42F080529A659B6D0A4A03F0805300
:100CC8000193019B9368002043F48043936002B032
:100CD800704700BF340000200024F400002004E026
:100CE8000010024000700040014910220A6070475D
:100CF80010ED00E072B6404080F31188BFF36F8FAB
:100D0800BFF34F8F30BF62B6BFF36F8F704700BF1E
:100D180040B2002807DB044A4109012300F01F0004
:100D2800834042F82130704700E100E040B20028DB
:100D3800A8BF00F1604001F10101B8BF064B4FEABE
:100D48000111ACBF00F5614000F00F00C9B2B4BF9B
:100D5800195480F80013704714ED00E030BFFFF716
:100D6800FDBF00BF0F4A08B50F4B22F07F029A6003
:100D7800BFF34F8FBFF36F8FD3F8882022F4700230
:100D8800C3F88820EFF3148323F0040383F3148853
:100D9800BFF36F8F01F01EF901F004FD00F0CAF9EE
:100DA80001F05CF90000000800ED00E0094A0A497A
:100DB800936809689967094958674B6843F08053F5
:100DC8004B60002383F31188BFF36F8F9368986F8C
:100DD800704700BF840200205039000800ED00E091
:100DE80012498A684FF030001044EFF3098C80E80C
:100DF800F01F102080F31288BFF36F8F0C4F4FF055
:100E080000668A698A603E60506F0023536780F3EA
:100E1800118804B5104600F0D1F9BDE8044002F18C
:100E2800300090E8F01F8CF3098870478402002096
:100E380004ED00E01EF0040F0CBFEFF30880EFF3A1
:100E48000980816911F8021C0229FFD001B501F05F
:100E58008BFE01BD42F8203C009B42F81C3C0A492D
:100E6800019B42F8183C029B42F8143C21F0010116
:100E78004FF0807342F8043C42F8081C0023203AE3
:100E880002654367704700BF992A0008094A03466C
:100E9800906870B113F1160F406E05D0A0F14002B2
:100EA8009A4205D8834203D2814228BF0020704766
:100EB800002070478402002008B5094B98600D4651
:100EC800144600F07BF9204685F30988002163B6B3
:100ED80081F31188BFF36F8F0022002301F0D8FD42
:100EE8008402002001B5EFF30580A0F110004FEA5D
:100EF800C0000449014409C99847BDE801400249B6
:100F080008470000F8330008150F0008044B9968DB
:100F18009869884203D003494FF080520A607047AD
:100F28008402002004ED00E070B51D4B15469A6A56
:100F38009A6A9A6A9207064622D5586B9A6A1406E4
:100F48001ED519B19A6A22F080029A629A6A9A6A40
:100F58009A6A134C12F0100F15D19B6A990712D494
:100F68000020A36A0E4A9B0642BF636A23F400531B
:100F78006362936A43F0FF03936200232B7070BD92
:100F88006FF01500E2E763681A05E9D53146FFF707
:100F98007DFF0028E4D080F309880220E1E700BF44
:100FA80000ED00E00D4B9A6A9A6A9A6A920508D594
:100FB8009A6B9A6A120404D518B19A6A22F400420C
:100FC8009A629A6A9A6AD205044A58BF9B6A936AD7
:100FD800002043F47F4393620870704700ED00E0FF
:100FE80070B54A4B5B688AB00546C3F30803002610
:100FF80086F31188BFF36F8F02F07F40B0F17F4F07
:1010080011D102F00C0008280DD010074CBF0D4676
:1010180001260022033B8DF80720032B4DD8DFE87B
:1010280003F00465696D3546F3E7384BDA6A9107D2
:1010380043D4DA6A002A40DBDA6A52003DD55A699D
:10104800A96942F480725A61BFF34F8FBFF36F8F63
:101058005A6931F8021C22F480725A61BFF34F8F2B
:10106800BFF36F8F4DF60272914209D09A6AD2B2DD
:1010780042B10DF1070201212846FFF755FF0AE0AA
:101088002C681BE09A6A12F47F4F06D00DF1070115
:101098000120FFF787FF044610E09A6AB2F5803F07
:1010A8000BD39A6A9A6A9A6A9A6A9A6A9A6A9A6A3E
:1010B8006FEA02426FEA12429A6200249DF80730F2
:1010C80093B92022294602A801F06DFD099BBEB103
:1010D800C3F3080222B96FEA53236FEA4323099343
:1010E80002A9204601F03EFD0AB070BD0DF10702CD
:1010F8000021C1E70DF107010020CAE7034BD0E743
:1011080023F4FF7323F00103E9E700BF00ED00E0DB
:10111800024A536943F010035361704700ED00E041
:10112800EFF30880EFF3098101B57246FFF758FF26
:1011380001BD00BF044800231021C2180133662BEB
:1011480082F80013F9D1704700E100E0102080F325
:10115800118808484FF40461401880F30988EFF3B8
:1011680014800221084380F31488BFF36F8FFFF7C0
:10117800F9FD0000C0020020084B9B6883420BD198
:10118800EFF3058343B1064B5A6842F080525A6028
:101198005A6A22F400425A6201F0A4BA840200207A
:1011A80000ED00E0024B034A0348012100F070B84B
:1011B800000002200000002098370008426E054B0E
:1011C800403A1A60044A4021C3E901121846012135
:1011D80000F068B87801002000000B15F0B5204E2B
:1011E80000258D4239DA446874B353B104F1FF3CE9
:1011F80014EA0C0F2FD11F2C2DD907681CEA070FF2
:1012080029D1202C0768D0F808C05FFA82FE1ED9C1
:10121800B4F1004F1DD8013CB4FA84F4C4F11F04A2
:101228006400BEF1070F4CEA040C14D827F01F0421
:10123800144344F01004C6F89820C6F89C404CF0BB
:101248000104C6F8A040013201350C30C9E7082472
:10125800E7E73E24E5E76FF015021046F0BD00BF52
:1012680000ED00E0044B0522C3F89420BFF34F8F34
:10127800BFF36F8F704700BF00ED00E0BFF35F8FD3
:10128800024B0022C3F89420704700BF00ED00E035
:1012980010B5034C01232278FFF7A0FF207010BD82
:1012A800B802002008B5094A00231278FFF796FF14
:1012B80010F1160F02D0064A072800DD08BDC2F853
:1012C8009800C2F8A0300130F6E700BFB80200204D
:1012D80000ED00E014490868082810B521D8FFF788
:1012E800CDFF124C49680022904201F10C0105D152
:1012F8000F4B1870FFF7B6FF002010BDC4F89820F8
:1013080051F80C3C23F01F03134343F01003C4F8B7
:101318009C3051F8043C43F00103C4F8A03001327A
:10132800E2E74FF0FF30E8E7A437000800ED00E0FF
:10133800B8020020014B1860704700BF040000206D
:101348002DE9F8430D4F04460E4615464FF00108A7
:1013580002F10409B44201DBBDE8F8837A6908FAAE
:1013680004F333EA020207D17B6155F834301BB12C
:1013780059F83410204698470134EBE7000401403F
:10138800044A0123116883400B431360024B18562B
:10139800FFF7BEBC00040140A53900081F2806DC81
:1013A800034901220B68824023EA02030B6070475D
:1013B8000004014003292AD8DFE801F0020E141FB7
:1013C800134B01229968824021EA02019960D96889
:1013D80021EA0202DA6070470D4B012299688240C7
:1013E8001143F3E70A4B0122D96882401143D960BF
:1013F800996821EA02029A607047012303FA00F013
:10140800034B9A6802439A60DA681043D8607047C1
:101418000004014010B5074B044653F8300028B9C2
:1014280043F8341003EBC4035A6010BD6FF00F008B
:10143800FBE700BF84010020034B002243F8302063
:1014480003EBC0035A6070478401002010B51C4BA1
:1014580018680B68082B144616D00B2B0BD89BB1B9
:10146800013B0A2B10D8DFE803F0160F2816160FD9
:10147800170F1A222200582B0ED008D84C2B0BD04D
:10148800502B09D0482B07D06FF0850006E05C2B65
:1014980002D0602BF7E700202060002010BD00F08C
:1014A8009BF8552358432A23B0FBF3F0F4E700F0E8
:1014B80093F8552358430C23F6E70248ECE700BF9E
:1014C8003400002000366E0170B53E4C3E4E00F0F0
:1014D800A1F800F0A7FCA3683C4AC3F30313D35C4C
:1014E80003F01F0320FA03F5B54202D8384800F08C
:1014F800CFFC236823F480232360236843F48033DC
:10150800236023689803FCD5A36803F00C030C2B15
:1015180018D1A36823F0F003A3602368590506D403
:10152800236843F48073236023685A05FCD5A368B5
:1015380023F0030343F00103A360A36803F00C0343
:10154800042BFAD1236823F080732360E36823F027
:10155800605323F4003343F06053E360E36843F4DB
:101568008033E360E36823F4C003E360E36843F493
:101578008013E36000F034F8236843F0807323603D
:1015880023689B01FCD5A36823F0F003A360A3683C
:1015980043F00303A360A36803F00C030C2BFAD1F8
:1015A800B54202D90A4800F073FC0A4B084A1A608F
:1015B800A36823F4E063A360A36823F46053A360E3
:1015C800002070BD001002407FFE210A443A000846
:1015D80080FE210A340000200048704700366E0162
:1015E8000A4AD2F8803023F48073C2F8803002F5BA
:1015F800D032074BD1680B4043F4AA4343F053035E
:10160800D360D36843F08073D360704700700040A4
:101618000C80FFF9064B9A6D42F080529A659B6DDB
:1016280082B003F080530193019B02B0704700BF62
:101638000010024008B5074801F044FD38B10648DB
:10164800FFF778FE0448FEF757FF002008BD6FF04B
:101658001200FBE7C8330008651600080A2838B5E9
:10166800074D044604D1AB680D215B6828469847AE
:10167800AB6803485B68E1B29847204638BD00BFB5
:10168800C833000838B5036904465860084D284631
:1016980001F018FD40B16168AB680C311B68284641
:1016A800984700EAE07038BD6FF01200FBE700BF12
:1016B800F0320008F7B51746B7F5001F466802690B
:1016C8000C461D4628D101F0030304339B000F226A
:1016D8009A4042EA910202F003030233354951F875
:1016E8002310130C93FAA3F3B3FA83F301EA12421B
:1016F80003F01F0322FA03F3B2689A4209D1204685
:10170800FFF74CFE2046FFF797FE00212046FFF723
:1017180051FE002003B0F0BDB7F5800F44D0264934
:101728002046FFF777FE002841D1244AB66892E8A0
:1017380003006B4683E80300214882681946126853
:101748009047D8B904F0030304339B000F21994054
:1017580041EA940101F003039B0003F1804303F580
:1017680080330A0C986892FAA2F2B2FA82F202F076
:101778001F0220EA114196400E439E60B5F1806F2A
:101788000ED0B5F1C06F0DD005F17E4359425941D5
:1017980049002046FFF70EFE2046FFF7F1FDB8E7A7
:1017A8000121F6E70321F4E76FF08500B2E76FF057
:1017B8000F00AFE700000140F52E00089037000841
:1017C800F032000870B51D46094B002633F8122088
:1017D8003346FEF7FDFC090241EA10616C0800027D
:1017E80020182A46334641F10001FEF7F1FC70BD8E
:1017F8005A3900082DE9F341036946685868836837
:10180800DB680C467168C3B101AA9847002814DB4D
:101818003368244A934235D1019FDFF88C80002534
:101828002346AAB238460021FFF7CCFFA0F5407046
:10183800404505D901350C2DF2D102B0BDE8F08143
:10184800184AD36A23F00F032B43D3623668002C5F
:10185800F3D0164B33F81520002319463846FEF707
:10186800B7FC090241EA106163080002C018224669
:101878004FF0000341F10001FEF7AAFCC0F313008A
:10188800F060DAE71A6822F400421A603268019BB5
:10189800002CD2D003EB5403B3FBF4F39BB2D36018
:1018A800CBE700BF00800040FFFC0F005A3900085A
:1018B8002DE9F0470A7946680769012A0D4626D0BE
:1018C800931ED3F1000C4CEB030C4FEA8C2C95F8CB
:1018D80005E0A979EC79BEF1020F96BF714B4FF480
:1018E800005833F81E80022914D0042960D09ABB0E
:1018F800012C3368DFF8B09140F0C4804B4552D0DA
:10190800012947D94FF0000A4FF440790EE04FF40F
:10191800C06CDCE7C2BB012C3368DFF88C915AD16C
:101928004B454FF0805A4FF4407959D05F4A934263
:101938000FD0A2F5744293420BD002F58062934215
:1019480007D002F58062934203D002F58062934289
:1019580020D1012C4ED01DE0033A012CD2B20ED179
:10196800012A17D94FF4407933684F4A93422FD050
:1019780001290FD94FF4805A002CD7D13AE0012A17
:1019880008D94FF00009EFE7033A012CD2B204D08E
:10199800012A7FD86FF0850072E0012AFAD93368EE
:1019A800414A9342AED14FF0000A4FF4407917E014
:1019B800012CA2F1030314BF4FF000094FF4407942
:1019C800012BE7D9002AE5D13368374A9342E1D1A0
:1019D8004FF4805A04E04B454FF0805A9146CBD1E2
:1019E8001EF0FD0FD6D00129D4D90429D2D02E4B10
:1019F800002CAED11A6822F001021A6043681A68F6
:101A0800136803F4C0639C451FBF136823F4C063C5
:101A180043EA0C03136043681A68536803F440539D
:101A280098451FBF536823F4405343EA08035360A3
:101A380043681A68136803F0102353451FBF1368DF
:101A480023F0102343EA0A03136043681A68936873
:101A580003F440734B451FBF936823F4407343EA74
:101A68000903936029683B68994203D0FFF7C2FED7
:101A78002B683B603268136843F001031360002051
:101A8800BDE8F0874B4509D0012983D94FF0000AFA
:101A9800D14671E73368044A9342F7D14FF0000A00
:101AA800D1469DE7543900080080004000380140C5
:101AB800F7B50769446806464148786001F002FBBB
:101AC800002879D07868616883681B68984705465C
:101AD800002869D1014601AAA06901F0DCFA0028B2
:101AE80001DA054660E0019B2A461979186800F07A
:101AF80053F90028F5DB2268136823F0010313600B
:101B0800216851E8003F43F00C0341E80032002A05
:101B1800F7D12369022B4AD0012B12BF00204FF4C2
:101B280080504FF4C06221680B6823F0805323F47F
:101B3800B053104303430B604B6823F440534B608E
:101B4800237B2BB173681A68936843F440739360DE
:101B580039683046FFF74EFE237D23B1226893682B
:101B680043F008039360637D23B12268536843F40C
:101B780000435360A37D23B12268536843F4803344
:101B88005360E37D23B12268536843F40033536004
:101B98002268136843F0010313602368DA6991022D
:101BA800FCD5DA695202FCD5284603B0F0BD4FF4E3
:101BB80080504FF48062B6E76FF01205F4E700BF7B
:101BC800F032000810B54FF0E0239A691969986956
:101BD800094B11F4803F094901D1824206D21A68A3
:101BE8000C6822441A604FF0E02212691B680A68E8
:101BF8001344181A10BD00BF740200208002002090
:101C0800094B102283F82320084B44F267221A60FC
:101C1800074B002018604FF0E0235A6198611A6959
:101C280042F007021A61704700ED00E080020020D0
:101C38007402002008B5FFF7C5FF0C4B0C4A186862
:101C480011680844106000221A600A4A136844F2B6
:101C58006821C01AB0FBF1F001FB0033136000F0FB
:101C680087FEBDE80840FFF751B900BF74020020A5
:101C78007C020020780200202DE9F041324E002934
:101C880055D0421C0AD14FF0E022136923F001031A
:101C980013614FF07F433360BDE8F0813568012858
:101CA8004BDD40F2D938404501DC00F1FF384FF0F8
:101CB8001003EFF3118483F31288BFF36F8FFFF7DC
:101CC80081FF224F4FF0E0230021D3F818C03B6872
:101CD800C2181F4B19601F4B1B68D11A30D444F22D
:101CE800682000FB081101F584419B1A6731B1FB9C
:101CF800F0F100FB013340F226418B4220D916490E
:101D08008B4228BF0B464FF0E02133608869013BC6
:101D18004B6100238B618445ACEB000338BF5B1932
:101D28001A443A6084F31188BFF36F8FB4E7431CF9
:101D38003568B4D140F2D930B7E74FF00008B6E7BC
:101D480040F22643DFE700BF800200207C0200202B
:101D580074020020780200202882FF0010B54FF09E
:101D68001003EFF3118483F31288BFF36F8FFFF72B
:101D780029FF074B074A1B6812689B1A034484F320
:101D88001188BFF36F8F44F26820B3FBF0F010BDE9
:101D98007C020020780200202DE9F047204F0446FD
:101DA80000EBC1060025B44201D1002014E02268EE
:101DB800D10602F01F0911D4656845F02005C2F369
:101DC800471AC2F343220A2A27D857F82280B8F1C3
:101DD800000F11D16FF01200BDE8F087B9F1100FB4
:101DE80008D0B9F1110FEAD165682B05E7D545F0A0
:101DF8001005E4E73025E2E7404601F063F90028E2
:101E0800E8D04B462A460AF00F01404601F085F813
:101E1800002804F10804C6DADEE76FF01500DBE7F6
:101E280010390008174B9A6802F00C02042A23D0D4
:101E38009A6802F00C02082A20D09A6802F00C0274
:101E48000C2A1DD1D968DA68D868DB6801F003016B
:101E5800C3F341630329C2F30312C0F3062003F15D
:101E680001030CBF084909495B000132B1FBF2F2DA
:101E78005043B0FBF3F0704704487047024870477E
:101E8800002070470010024000366E010024F40064
:101E9800254B421E9A4245D8244B1B6803F4C06365
:101EA800B3F5007F2BD1224B98422DD8214B984275
:101EB8002CD8214B98422BD8204B98422AD8204B1B
:101EC800984229D81F4B984228D81F4B984227D8A8
:101ED8001E4B984294BF002001201D4A136823F02E
:101EE8000F0303431360136803F00F0398421CBFEA
:101EF800136803F00F03C01A18BF01207047154B71
:101F080098420DD8144BE4E70820E6E70720E4E7F9
:101F18000620E2E70520E0E70420DEE70320DCE70F
:101F28000220DAE7012070477FFE210A0070004096
:101F380000688909003B5808000E270700E1F505ED
:101F480000B4C40400879303005A6202002D3101D3
:101F5800002002400024F40000127A000F4B70B5F4
:101F680053F82040013053F82060A64200D870BDD5
:101F7800D4E90035284698476DB138B10028B8BF74
:101F88004042EB68FF28A8BFFF201870EA68537822
:101F980043F0010353700834E7E700BF3C390008F9
:101FA80008B50A4B012202201A70FFF7D7FF00F08C
:101FB80053FD0320FFF7D2FF00F0EAF8FEF772FAAC
:101FC800034A137B23F00103137308BDB9020020F1
:101FD800F000002008B50348034A0021121A01F056
:101FE800A2F808BD70000020BC02002070B50023D4
:101FF80086B00122CDE90423134E144D01930F221C
:10200800CDE902321249182303FB005506EBC0162E
:1020180004464FF4C07000FB04110E4B00954FF4BA
:10202800A072304600F082F8737B0B4AEE6023F012
:10203800040373734FF4046304FB033313442C75D4
:102048006B6006B070BD00BF7000002084020020E5
:10205800000B002037310008C002002080B52C4B4F
:10206800A6B083F308882B4D2B4E6B692B4F43F496
:10207800007300246B61F02385F82230EC772C760E
:102088006C76AC7685F820406B6A43F4E0236B628B
:10209800FFF73EF8FEF728FE4FF0FF33AB62EB6226
:1020A800FFF718F9FFF77EF840F20113ADF8243076
:1020B80006ABB360CDE91F44229401F002F8204634
:1020C800FFF74CFF0120164DFFF748FF00F05EFABE
:1020D800144BB5610593012313490094CDE90343DB
:1020E8004FF480623B46CDE90144284600F01EF8D3
:1020F8006A7B064622F0040228466A7301F057F804
:102108002046FFF773FF3A4631462846FEF7D4FECD
:10211800000B002000ED00E084020020A91F000849
:10212800F0000020543A0008800C00202DE9FF41FF
:102138000E9E0673042646730D9E867300F158059D
:102148000F46D61DC0E916550C9A002526F007063D
:102158004037C0E90655C0E919768560C573C5667C
:1021680006F1400802920B9A019288440A9A00925A
:1021780042460446FEF76EFE044B65659B6803B154
:102188001B6F2367404604B0BDE8F081840200203D
:10219800F0B5224C224D87B02646AE4204F13004F9
:1021A8000BD300F0C3F91D4C1E4F0A26AC4220D3B6
:1021B80007B0BDE8F04000F0CDB954F8043C0593F1
:1021C80054F8103C049354F8143C039354F8183C06
:1021D800029354F81C3C019354F8203C009354E9B2
:1021E8000A2354E90C01FFF7A1FF54F8303C5E655F
:1021F800D2E7626A531C09D022EAE27282FB062304
:1022080052EA0301206803D100F040F93034CDE7E9
:102218003946183000F02EFBF8E700BF6C000020AC
:102228006C0000207331000838B5074D2C6854B194
:10223800FFF794FD054B04441C6128680021BDE8A4
:10224800384000F0F0BF38BDB00200208402002002
:1022580038B50D4D2B4653F81C4F9C4200D004B99D
:10226800EC68AB6838B95A7BD20604D1A26912B9B6
:10227800DA897F2A05D89C4202D02046FFF7D4FF8E
:102288002346AB6138BD00BF8402002070B590F9C9
:102298000D20437B002A014604DA03F07F034373D1
:1022A80000F051FF4B7B154A63F07F0310464B73D8
:1022B80050F81C3F146A834208BF002323B9C1E9C0
:1022C8000004216011620CE091F90E5093F90E6040
:1022D800B5420ED0AE420CDD5868C1E9003001604D
:1022E80059609068431A5842BDE870405841FFF75A
:1022F800AFBF9C42E3D01B68E0E700BF8402002028
:1023080070B490F90D30427B002B29DBD30627D11E
:1023180083692BBB134962F07F0242730A4652F865
:102328001C4F944218BF23460C6A23B9C0E9002405
:10233800206008620CE090F90E5093F90E60B542E7
:102348000AD0AE4208DD5A68C0E900321060586011
:1023580070BC0020FFF77CBFA342E7D01B68E4E70E
:1023680070BC70478402002008B590F90D20437BAB
:10237800002A014604DA03F07F03437300F0E3FE0A
:10238800044B9868431A58425841BDE80840FFF783
:102398005FBF00BF8402002010B54FF01003EFF3B9
:1023A800118483F31288BFF36F8F0A23002800FB80
:1023B80003F302DD022BB8BF0223074A0020106195
:1023C80006480360064B90681960FFF72DFF84F3F9
:1023D8001188BFF36F8F10BD84020020B002002067
:1023E800AC02002038B54FF01003EFF3118583F3EA
:1023F8001288BFF36F8F174B174A9C6811688C427D
:1024080007D12046FFF710FF85F31188BFF36F8FC0
:1024180038BD00211160114A1268C2B1E2897F2AD1
:1024280015D8627BD20612D10D4A94F90E101268A3
:1024380091420CDB0B4A944209D01A69824203DCB0
:102448002046FFF723FFDCE7121A1A61DCE70022B7
:10245800FBE700BF84020020A8020020B002002091
:10246800AC0200207000002049B9EFF3058030B9B4
:10247800054B9A699B689A4201D0FEF797BC81F395
:102488001188BFF36F8F70478402002010B54FF09A
:102498001002EFF3118482F31288BFF36F8F427B2F
:1024A800510704D484F31188BFF36F8F10BD22F055
:1024B80004024273FFF724FF21460248BDE810409A
:1024C800FFF7D2BFBA02002070B50446183000F0FA
:1024D80094FE4FF01003EFF3118683F31288BFF3D5
:1024E8006F8F94F90D20637B002A05DA03F07F03D0
:1024F8006373204600F027FE0B4D637BA86843F00A
:1025080010036373031B58425841FFF7A1FE86F37B
:102518001188BFF36F8FAB68A34203D1BDE8704049
:1025280000F061BE70BD00BF840200204FF01003B0
:10253800EFF3118183F31288BFF36F8F044B9A680E
:10254800D37B013BD37381F31188BFF36F8F70473F
:102558008402002010B54FF01003EFF3118483F3C9
:102568001288BFF36F8F084B9A68D37B0133D373FC
:102578000020FFF76DFE84F31188BFF36F8FBDE86D
:10258800104000F030BE00BF84020020044B002140
:1025980003F11C02C3E907220846FFF7FDBE00BF8E
:1025A80084020020F8B54FF01003EFF3118583F390
:1025B8001288BFF36F8F19498868437B03F07F0344
:1025C800437300F0C0FD8B685A7B084662F07F02B7
:1025D8005A7350F81C2F0C6A824208BF002222B995
:1025E800C3E9000423600B620CE093F90E6092F9D2
:1025F8000E70BE420ED0B7420CDD5168C3E900210F
:102608000B6053600120FFF723FE2846BDE8F84021
:10261800FEF7CCBBA242E3D01268E0E784020020B8
:1026280050EA01032DE9F04105460E4603D1FFF7B4
:10263800B9FF00202CE0831C71F1FF332ADB00F086
:102648000EFE44194FF01003EFF3118883F312883C
:10265800BFF36F8F114F124BB8681860FFF784FEF5
:10266800B86810492A463346183000F003F9BA68AA
:10267800537B43F0100353734046FEF797FB00F07B
:10268800EEFD201A63EB0303012873F10003D0DB8E
:10269800BDE8F0816FF00104241AD3E7840200201A
:1026A800A802002073310008B1F1FF3F08BFB0F164
:1026B800FF3F08B506D1074B9868FFF705FF4FF0B5
:1026C800FF3008BDFFF7ACFF0A220023C117FDF752
:1026D8007FFDF6E784020020014B9868704700BF31
:1026E800840200202DE9F04104464FF01003EFF377
:1026F800118683F31288BFF36F8F037BD9070BD53D
:1027080086F31188BFF36F8F404080F311884FF034
:10271800040002DFBDE8F081437B1A0704D586F385
:102728001188BFF36F8FF5E723F0200242F008010C
:10273800D20920D14173A36813B1204600F00BFDE4
:1027480004F1180000F059FD04F158074FF0000893
:10275800A56DBD4200D0B5B90120FFF779FD104B3A
:102768009B68A342DBD1EFF30583002BD7D130461A
:10277800FEF71CFBD3E703F05F0343F00803437342
:1027880000F0E1FCD7E7284600F0E5FC05F1180069
:1027980000F033FDC5F878802846FFF7B1FDD7E78C
:1027A8008402002008B50648064A0749121A00F0B4
:1027B800BCFCBDE80840054A0549064800F0B5BC20
:1027C800000000206C000020903A00080000000083
:1027D800903A000800000020034B1B680BB9FFF774
:1027E800BDBA0020704700BFB402002010B5114BDD
:1027F8001C689C420AD1FFF7EFFF6FF000400E4BB8
:102808001B6913B19842A8BF184610BDFFF7E4FF33
:10281800002CF2D0D4E904321B1A62EBE072B3F157
:10282800004F72F10001E8DA002AACBF1846002018
:10283800E5E700BF380000208402002030B570B101
:102848000B4B5B6898420AD0036843B1D3E9042173
:10285800D0E90445121941EB0501C3E90421D0E987
:10286800003213605A600023C0E9003330BD00BF56
:1028780038000020B3F1FF3F08BFB2F1FF3FF8B5C1
:1028880004461D46164661D081604FF01003EFF3F1
:10289800118783F31288BFF36F8F013275F1FF330D
:1028A80024DA3049D1E900206FF001039B1A4FF078
:1028B800FF3262EB00009E1B60EB0500012E70F1F9
:1028C800000301DA01260020C4E90460264ED6F888
:1028D80000C07568B44508BF4FF0000CBCF1000F8C
:1028E8000DD1C4E900652C6074601CE0FFF774FF2B
:1028F800013645F10005361845EBE070E4E7DCE900
:102908000420D4E90431934271EB000E1FDAD21A85
:10291800DCF8043060EB0100CCE90420C4E900C312
:102928001C60CCF804403368B3420BD09C4209D1F8
:10293800FFF75CFF18B10D4B1B69834202D00021E1
:10294800FFF79AF987F31188BFF36F8FF8BD9B1AC9
:1029580061EB0001AC45C4E90431C2D0DCF800C029
:10296800BCE700BF7001002038000020840200206E
:102978002DE9F8430446FFF735FD4FF01003EFF358
:10298800118683F31288BFF36F8F234FDFF88C8093
:10299800D8F80000224A3C604045D2E9003E4FEAA0
:1029A800E4710BD050B1D0E9045CAC4271EB0C0976
:1029B80016DA2D1B6CEB010CC0E9045CE3184EEB36
:1029C80001010024C2E900313C60FFF70FFF2146F6
:1029D800FFF752F986F31188BFF36F8FBDE8F883CC
:1029E800EB184EEBE571C2E9003100220023C0E983
:1029F8000423FFF723FF86F31188BFF36F8F8368E3
:102A080098474FF01003EFF3118683F31288BFF352
:102A18006F8F3C68641BBBE7B402002038000020BD
:102A28007001002010B54FF01003EFF3118483F309
:102A38001288BFF36F8FFFF7CFFE064A0346D2E92D
:102A48000001181841EBE37184F31188BFF36F8F0D
:102A580010BD00BF70010020024A0349034800F07E
:102A68000AB800BF8D3A0008593A0008673A0008CA
:102A78007047002070470FB407B504A951F8040B3C
:102A88000191FDF73FFD03B05DF804EB04B070471A
:102A9800044608B5084611461A46A047FFF71CFE2B
:102AA800FEF76AFB2DE9F84F9A46D3786F2B8046DC
:102AB8000F461546A3F1410B29D024D8582B0CBF3B
:102AC80010260A26DDF8289032460023404639466B
:102AD800FDF77EFB092AD4B21ED83034B045E4B2E3
:102AE80077F1000709F8014D01D3D14511D82B78AA
:102AF8009B0605D5082E15D1AB7843F00803AB70BB
:102B08004846BDE8F88F03F0F703702BD7E708268F
:102B1800D8E780460F46D7E7BBF1190F94BF373483
:102B28005734DBE7102EEBD1AB7843F01003E6E720
:102B38002DE9F0410746884615461E461446B4421C
:102B480005D30EB1601B08E02378002BFAD014F8E7
:102B5800010B4146B8470028F1DABDE8F08170471B
:102B68000020704700F0C4BA0146006800F0C0BAFF
:102B780000210120FFF7F6BF08B5FEF7EFF8BDE822
:102B88000840FEF7C3B9034600201A5C02B9704733
:102B98000130FAE7034600201A5C0AB1884200D1E6
:102BA80070470130F8E710B5431E0A44914200D13E
:102BB80010BD11F8014B03F8014FF7E7C9B2024401
:102BC8000346934200D1704703F8011BF9E74FF021
:102BD800FF307047002208B511460620FEF7A6F818
:102BE800002211460720FEF7A1F80022114608200E
:102BF800FEF79CF8002211460920FEF797F80022FC
:102C080011460A20FEF792F8002211461720FEF717
:102C18008DF8002211462820FEF788F8002008BD0C
:102C2800026910210A20FEF78BBB02690A210520E0
:102C3800FEF786BB026905210420FEF781BB026905
:102C480004210320FEF77CBB026903210220FEF762
:102C580077BB026902210120FEF772BB02690121DC
:102C68000020FEF76DBB0B68A3F14802182A9FBF2E
:102C780003F1804303F5043349681A689DBF0A438A
:102C880000201A606FF0850070470B68A3F14802B6
:102C9800182A9FBF03F1804303F5043349681A6873
:102CA8009DBF8A4300201A606FF0850070470B684B
:102CB800032B02D0073B042B0FD84968CBB203F192
:102CC800804303F50433C1F302421868C1F30421B9
:102CD8008A4002431A60002070476FF085007047F1
:102CE80043685B681B690B600020704743685B683A
:102CF800586942400A4042405A6100207047436880
:102D08005B6800209961704743685B68002099629E
:102D1800704743685A6853694B40536100207047B5
:102D280010B50369986848B1884213D1DC6808680F
:102D38009860A14200D1D860002008607AB90020CC
:102D480010BD814206D108682060D8688142F3D15D
:102D5800DC60F1E7044600680028F2D13AB19A68CD
:102D68000A60DA689960002AE9D1D960E7E76FF06C
:102D78001500E5E7F0B544680120676888401E46FD
:102D8800C2F3801327EA00078B403B43636090FA45
:102D9800A0F7B7FA87F7D4F808C04FF0030E7F0002
:102DA8000EFA07F72CEA070C90FAA0F7B7FA87F79C
:102DB800C2F3C1137F00BB4043EA0C03A36090FA3F
:102DC800A0F3B3FA83F3E7685B000EFA03F327EA8C
:102DD800030790FAA0F3B3FA83F302F030055B001F
:102DE800C2F341229A403A43202DE26016D10729C6
:102DF8002BDC90FAA0F3226A2BB3B3FA83F39B007F
:102E08000F2101FA03F322EA030290FAA0F3B3FABE
:102E180083F39B0006FA03F31343236290FAA0F3AB
:102E2800B3FA83F3226890FAA0F05B000321B0FAAA
:102E380080F02D0901FA03F3400022EA03038540DC
:102E48001D432560F0BD2B46D9E7030A616A93FA52
:102E5800A3F282B1B2FA82F292000F2793FAA3F397
:102E6800B3FA83F307FA02F29B0021EA02029E40BA
:102E780016436662D2E72A46EEE713469A0310B570
:102E880018D59C070FD55A072DD55022DC060CD52E
:102E980042F4007213F4002F446818D064680123C8
:102EA8008B40A3610DE01022F0E79C06F2D542F4B6
:102EB8008062EFE7DC0311D5DA0611D4C3F34013BF
:102EC8009A0240680023FFF755FF002010BD5B03FE
:102ED800F7D5646801238B40A362F2E73022F0E75C
:102EE8004FF40072EDE76FF08500EFE770B50B4621
:102EF800896821B101255E680C68854001B970BDFB
:102F08008A682A4002D04B68304698471CB123682B
:102F180021461C46F2E72346FAE7F8B51F46044661
:102F280040680E461546FFF725FF112F08D10123EB
:102F380003FA06F663685B682A054CBF9E619E62C9
:102F48000020F8BD43681A68D069D169C907D169FA
:102F5800C0F3C00048BF40F002008907D16948BFEC
:102F680040F00400C90542BF4FF4807140F00800EA
:102F78001162C20742BF1A6808211162810742BF65
:102F88001A6801211162420742BF1A6802211162C0
:102F98001B6804221A62704710B540680268D3693A
:102FA8001B06FCD54FF01002EFF3118382F3128851
:102FB800BFF36F8F0268D469240604D483F31188A1
:102FC800BFF36F8FEAE7916283F31188BFF36F8FC6
:102FD80010BD43681A68D069000744BF0820106212
:102FE8001B68DA69920643BF5B6A0B7000204FF0DA
:102FF800FF30704703691B680B6043681B681B68D8
:1030080003F4C063B3F5806F35D0A3F5C06CDCF171
:10301800000343EB0C030B7143681B685B6803F404
:103028004053B3F5805F28D0B3F5405F27D0002B1D
:103038000CBF012303234B7143681B681A681B6884
:1030480002F01022B2F5805F03F4C06319D0B2F128
:10305800805F1BD1002B14BF012302238B714368AF
:103068001B689B6803F44073A3F5407253425341B5
:10307800CB71002070470223CDE70023DBE7022352
:10308800D9E7002B14BF03230423E7E7002B14BF61
:1030980002230323E2E770B503686FF0604613600C
:1030A80005790468354404EBC504A34202D96FF0DE
:1030B800010070BD5C798C4201D00833EFE7002035
:1030C800F7E7704738B1C3681888C0F30800A0F55F
:1030D80080735842584170474FF01002EFF3118344
:1030E80082F31288BFF36F8FFEE708B5FFF7F4FF8E
:1030F800F8B505460E464FF01003EFF3118783F33A
:103108001288BFF36F8FFFF7E7FA31460446284667
:10311800FFF7EBFF87F31188BFF36F8F2046BDE8F9
:10312800F840FEF729B8FFF749BDFFF73CBD08B5E1
:103138004FF01002EFF3118382F31288BFF36F8F01
:10314800FDF7D8FDF4E7D0E9003213605A60002398
:10315800C0E90033704708B5FFF7F5FF437B23F05C
:10316800020343730023836008BD10B501464FF086
:103178001003EFF3118483F31288BFF36F8F10F8F5
:103188000B3C13F0280F0DD151F8103C18380BB137
:10319800FFF7E1FF11F80B3C23F0140301F80B3C97
:1031A800FFF7AEF884F31188BFF36F8F10BD10B529
:1031B8004FF01003EFF3118483F31288BFF36F8F7E
:1031C800FFF79EF884F31188BFF36F8F10BD034695
:1031D80020B9EFF305820AB9FDF7E8BD83F311883A
:1031E800BFF36F8F70474FF01003EFF3118083F335
:1031F8001288BFF36F8FFFF7EABF10B54FF01002C8
:10320800EFF3118482F31288BFF36F8F03683BB129
:10321800FFF714FB002084F31188BFF36F8F10BDF4
:103228006FF01500F7E770B504460D464FF0100330
:10323800EFF3118683F31288BFF36F8FFFF7D6FA87
:10324800012807DDA04205DBA0422946A8BF204689
:10325800FEF712FD86F31188BFF36F8F70BD08B5B6
:08326800FFF7E0FB08BD0000C8
:083270009CCFFF7F010000006C
:103278008D0C000800000000692B00080000000009
:10328800D1140008F0320008DD2B000808330008CC
:103298008D160008203300088D1600083833000802
:1032A8008D160008503300088D1600086833000892
:1032B8008D160008803300088D1600089833000822
:1032C8008D160008B0330008B91A0008C833000882
:1032D800B91A0008E03300083D1600080000000095
:0832E800091C000800000000B1
:1032F000B53900080000000008000020440000204C
:103300000000000076370008873900080000000040
:1033100000000000400000208401002070370008F9
:10332000C2390008C437000850380008480000209F
:103330000402002068370008D0390008D837000898
:10334000503800084C0000201402002060370008AC
:10335000DE390008EC370008503800085000002023
:103360002402002058370008EC3900080038000813
:103370005038000854000020340200205037000864
:10338000FA390008143800085038000858000020A6
:103390004402002048370008083A0008283800088E
:1033A000503800085C00002054020020403700081C
:1033B000163A00083C380008503800086000002029
:1033C0006402002038370008243A000874380008E6
:1033D000FC3800086400002024000020303700087A
:1033E000343A0008B8380008FC38000868000020AB
:0833F0002C0000202837000822
:1033F80000000000792B000800000000792B00086D
:1034080000000000792B000800000000792B00085C
:1034180000000000792B000800000000792B00084C
:1034280008330008652C0008083300085B2C0008E6
:1034380008330008512C000808330008472C0008FE
:10344800083300083D2C000800000000792B000814
:1034580000000000792B000800000000792B00080C
:1034680000000000792B000800000000792B0008FC
:1034780000000000792B000800000000792B0008EC
:1034880000000000792B000800000000792B0008DC
:1034980000000000792B000800000000792B0008CC
:1034A80000000000792B000808330008332C0008BE
:1034B80000000000792B000800000000792B0008AC
:1034C80000000000792B000800000000792B00089C
:1034D80000000000792B000800000000792B00088C
:1034E80000000000792B000800000000792B00087C
:1034F80000000000792B000800000000792B00086C
:1035080000000000792B000800000000792B00085B
:1035180000000000792B000800000000792B00084B
:1035280000000000792B000800000000792B00083B
:1035380008330008292C000800000000792B000837
:1035480000000000792B000800000000792B00081B
:1035580000000000792B000800000000792B00080B
:1035680000000000792B000800000000792B0008FB
:1035780000000000792B000800000000792B0008EB
:1035880000000000792B000800000000792B0008DB
:1035980000000000792B000800000000792B0008CB
:1035A80000000000792B000800000000792B0008BB
:1035B80000000000792B000800000000792B0008AB
:1035C80000000000792B000800000000792B00089B
:1035D80000000000792B000800000000792B00088B
:1035E80000000000792B000800000000792B00087B
:1035F80000000000792B000800000000792B00086B
:1036080000000000792B000800000000792B00085A
:1036180000000000792B000800000000792B00084A
:1036280000000000792B000800000000792B00083A
:1036380000000000792B000800000000792B00082A
:1036480000000000792B000800000000792B00081A
:1036580000000000792B000800000000792B00080A
:1036680000000000792B000800000000792B0008FA
:1036780000000000792B000800000000792B0008EA
:1036880000000000792B000800000000792B0008DA
:1036980000000000792B000800000000792B0008CA
:1036A80000000000792B000800000000792B0008BA
:1036B80000000000792B000800000000792B0008AA
:1036C80000000000792B000800000000792B00089A
:1036D80000000000792B000800000000792B00088A
:1036E80000000000792B000800000000792B00087A
:1036F80000000000792B000800000000792B00086A
:1037080000000000792B000800000000792B000859
:1037180000000000792B000800000000792B000849
:10372800010000800080FF7F010000800080FF7F93
:10373800010000800080FF7F010000800080FF7F83
:10374800010000800080FF7F010000800080FF7F73
:10375800010000800080FF7F010000800080FF7F63
:10376800010000800080FF7F00800080FF7F0080D4
:103778000080030004000500060007000800090097
:063788000A000B00FF7FA8
:02378E00FFFF3B
:1037900060000000010000000000002000000000A8
:1037A00000000B0602000000AC3700080000000813
:1037B0007839000824000207000000208039000842
:1037C00020000B11FFFF0000001800480600000059
:1037D0004C00000040000000FFFF00000014004803
:1037E000050000004C00000020000000FFFF00006A
:1037F00000100048040000004C0000001000000011
:10380000FFFF0000000C0048030000004C00000017
:1038100008000000FFFF0000000800480200000050
:103820004C00000004000000FFFF000000040048FE
:10383000010000004C00000002000000FFFF00003B
:1038400000000048000000004C00000001000000E3
:10385000832E0008E92C0008F52C0008072D00082D
:10386000112D00081B2D0008BD160008292D000889
:1038700000000000008000409038000801000000B7
:103880000000000000000000000000009838000860
:103890005C00000001000000A038000801000000EA
:1038A000A8380008020000004C00000000020000E0
:1038B0006C0000000000000000380140D43800080F
:1038C00001000000000000000000000000000000F7
:1038D000DC3800086000000000400000E438000808
:1038E00001000000EC38000802000000870400001E
:1038F00000020000A704000000000000DB2F000809
:10390000A12F00084D2F0008B9180008FD2F00084E
:10391000B03300089833000880330008683300088B
:10392000503300083833000820330008000000003E
:1039300000000000000000000000000078320008D5
:10394000E8320008F0320008F0320008F0320008D7
:10395000F5FFFFFF0010000000300100020004002E
:10396000060008000A000C00100020004000800043
:103970000001286E696C2900464C4153485F3000B5
:103980005352414D5F3000696E7465727275707488
:103990002D636F6E74726F6C6C65724034303031B1
:1039A0003034303000060708090A17171717172890
:1039B0002828282828726363403430303231303070
:1039C00030006770696F4034383030313830300043
:1039D0006770696F40343830303134303000677090
:1039E000696F403438303031303030006770696F83
:1039F000403438303030633030006770696F4034A5
:103A000038303030383030006770696F40343830CB
:103A10003030343030006770696F403438303030C7
:103A20003030300073657269616C4034303030384A
:103A30003030300073657269616C4034303031333E
:103A400038303000000000000000000001020304D4
:103A5000060708096D61696E007A65706879722DD4
:103A600076332E322E30002A2A2A20426F6F746954
:103A70006E67205A6570687972204F5320627569AD
:103A80006C64202573202573202A2A2A0A0000004E
:103A90007B2A0008D72B00086F2C0008932C000805
:103AA00000000000551400080000000000000000A5
:103AB000B72C000800C201000000000000C2010095
:103AC000000000000024F40038000020380000202E
:103AD00000000000000000000000000000000000E6
:103AE00000000000000000000000000000000000D6
:0C3AF000000000000000000000000000CA
:040000050800115589
:00000001FF
