:020000040040BA
:100000002006002085014000810140008101400060
:10001000810140008101400081014000000000009A
:10002000000000000000000000000000810140000E
:10003000810140000000000081014000810140007A
:1000400081014000810140008101400081014000A8
:100050008101400081014000810140008101400098
:10006000810140008101400000000000810140004A
:100070008101400081014000810140008101400078
:100080008101400081014000810140008101400068
:100090008101400081014000810140008101400058
:1000A0008101400081014000810140008101400048
:1000B00081014000810140000000000000000000BC
:1000C0000000000000000000000000000000000030
:1000D0000000000000000000000000000000000020
:1000E0000000000000000000000000000000000010
:1000F000000000000000000000000000810140003E
:10010000810140008101400010B5054C237833B9CE
:10011000044B13B10448AFF300800123237010BDDA
:100120000000002000000000040440000C4B43B11C
:100130000C480D4910B5AFF300800C48036823B993
:1001400010BD0A48036833B97047094B002BF7D03C
:10015000BDE810401847064B002BF5D0184700BFEC
:1001600000000000040440000400002004044000DB
:100170000000000008B5014B984708BD0902400087
:10018000FEE7000008B5174B174A9A4210D0174BEC
:10019000144A9A420CD2013B9B1A23F00303043306
:1001A0001344114951F8040B42F8040B9A42F9D157
:1001B0000F4B104A9A420AD2013B9B1A23F00303C9
:1001C00004331344002142F8041B9342FBD10A4A32
:1001D0000A4B23F07F039360094B9847094B9847DC
:1001E000FEE700BF000000200404400000000020E3
:1001F000200000200000002000ED00E00000400092
:100200009D0340006D03400008B50B4B98470B4B16
:100210009B6913F4006F03D14FF40062074B1A611E
:10022000074A536843F400435360064B40221A6365
:100230001A611A6008BD00BFAD02400000040E4004
:1002400050140E40000E0E40EFF31083036072B6A0
:10025000BFF35F8F7047BFF35F8F036883F310882E
:100260007047000010B5044B1C68044B98470146CA
:100270002046034B984710BD1C000020850240001B
:10028000A50240004FF4487303FB00F00230044B1A
:10029000A3FB0030400800EB80004000704700BF27
:1002A000ABAAAAAA0139FDD87047000000B583B0F7
:1002B00001A80D4B98470D4AD2F8883043F47003DB
:1002C000C2F88830BFF34F8FBFF36F8F01A8084B80
:1002D0009847084A136823F470631360064B9847E5
:1002E00003B05DF804FB00BF4902400000ED00E0F0
:1002F00057024000000A0E40FD0240001A4A136AED
:1003000043F45C1343F008031362936E13F4003F4D
:10031000FBD0154A136A23F0700343F45C13136295
:10032000936E13F4003FFBD00F4A136A23F08073DF
:1003300043F45C131362136B23F0030343F00103D4
:100340001363936E13F0080FFBD0074A136B23F06F
:1003500070031363936E13F0080FFBD0024B00225F
:100360009A6380221A60704700040E4008B5084B5B
:1003700098474FF4FA76074D074C3046A847A36BD1
:1003800003F04003DA4302F0400222636363F4E7C0
:100390007501400065024000000E0E4070B50D4E24
:1003A0000D4CA41BA4100025A54209D10B4E0C4CEA
:1003B00000F018F8A41BA4100025A54205D170BDBB
:1003C00056F8253098470135EEE756F8253098471E
:1003D0000135F2E7F0034000F0034000F003400075
:1003E000F4034000F8B500BFF8BC08BC9E46704757
:1003F0002D014000F8B500BFF8BC08BC9E46704710
:0404000009014000AE
:0400000500400000B7
:00000001FF
