:10000000F8230020795100009719010009500000E1
:10001000095000000950000009500000095000007C
:100020000950000009500000095000002D4C00004C
:100030000950000009500000D54B0000851901004F
:10004000395100008B3B010039510000395100004B
:100050003951000039510000395100003951000078
:100060003951000039510000395100003951000068
:100070003951000039510000395100003951000058
:100080003951000039510000395100003951000048
:100090003951000039510000395100003951000038
:1000A0003951000039510000395100003951000028
:1000B0003951000039510000395100003951000018
:1000C0003951000039510000395100003951000008
:0C00D00039510000395100003951000086
:0400DC00FFFFFFFF24
:1000E00081F0004102E000BF83F0004330B54FEAE9
:1000F00041044FEA430594EA050F08BF90EA020F56
:100100001FBF54EA000C55EA020C7FEA645C7FEAE8
:10011000655C00F0E2804FEA5454D4EB5555B8BF0B
:100120006D420CDD2C4480EA020281EA030382EA7C
:10013000000083EA010180EA020281EA0303362D0E
:1001400088BF30BD11F0004F4FEA01314FF4801CE1
:100150004CEA113102D0404261EB410113F0004FF3
:100160004FEA03334CEA133302D0524263EB4303AA
:1001700094EA050F00F0A780A4F10104D5F1200E48
:100180000DDB02FA0EFC22FA05F2801841F10001A3
:1001900003FA0EF2801843FA05F359410EE0A5F177
:1001A00020050EF1200E012A03FA0EFC28BF4CF0A8
:1001B000020C43FA05F3C01851EBE37101F000455E
:1001C00007D54FF0000EDCF1000C7EEB00006EEB6B
:1001D0000101B1F5801F1BD3B1F5001F0CD34908F5
:1001E0005FEA30004FEA3C0C04F101044FEA44524C
:1001F00012F5800F80F09A80BCF1004F08BF5FEAD3
:10020000500C50F1000041EB045141EA050130BDB2
:100210005FEA4C0C404141EB010111F4801FA4F155
:100220000104E9D191F0000F04BF01460020B1FAAA
:1002300081F308BF2033A3F10B03B3F120020CDAE2
:100240000C3208DD02F1140CC2F10C0201FA0CF0C0
:1002500021FA02F10CE002F11402D8BFC2F1200C25
:1002600001FA02F120FA0CFCDCBF41EA0C019040DB
:10027000E41AA2BF01EB0451294330BD6FEA040424
:100280001F3C1CDA0C340EDC04F11404C4F120020F
:1002900020FA04F001FA02F340EA030021FA04F321
:1002A00045EA030130BDC4F10C04C4F1200220FA78
:1002B00002F001FA04F340EA0300294630BD21FAB6
:1002C00004F0294630BD94F0000F83F4801306BF7C
:1002D00081F480110134013D4EE77FEA645C18BF70
:1002E0007FEA655C29D094EA050F08BF90EA020F07
:1002F00005D054EA000C04BF1946104630BD91EAFF
:10030000030F1EBF0021002030BD5FEA545C05D101
:100310004000494128BF41F0004130BD14F5800440
:100320003CBF01F5801130BD01F0004545F0FE41B4
:1003300041F470014FF0000030BD7FEA645C1ABFE9
:10034000194610467FEA655C1CBF0B46024650EA20
:10035000013406BF52EA033591EA030F41F400214C
:1003600030BD00BF90F0000F04BF0021704730B5D2
:100370004FF4806404F132044FF000054FF00001A7
:1003800050E700BF90F0000F04BF0021704730B568
:100390004FF4806404F1320410F0004548BF40423D
:1003A0004FF000013EE700BF42004FEAE2014FEA92
:1003B00031014FEA02701FBF12F07F4393F07F4F6D
:1003C00081F06051704732F07F4208BF704793F070
:1003D0007F4F04BF41F40021704730B54FF4607483
:1003E00001F0004521F000411CE700BF50EA010286
:1003F00008BF704730B54FF000050AE050EA01022F
:1004000008BF704730B511F0004502D5404261EB9E
:1004100041014FF4806404F132045FEA915C3FF4DF
:10042000D8AE4FF003025FEADC0C18BF03325FEA7C
:10043000DC0C18BF033202EBDC02C2F1200300FA2D
:1004400003FC20FA02F001FA03FE40EA0E0021FA52
:1004500002F11444BDE600BF70B54FF0FF0C4CF440
:10046000E06C1CEA11541DBF1CEA135594EA0C0FF2
:1004700095EA0C0F00F0DEF82C4481EA030621EA2D
:100480004C5123EA4C5350EA013518BF52EA033568
:1004900041F4801143F4801338D0A0FB02CE4FF01A
:1004A0000005E1FB02E506F00042E0FB03E54FF04A
:1004B0000006E1FB03569CF0000F18BF4EF0010E42
:1004C000A4F1FF04B6F5007F64F5407404D25FEA3E
:1004D0004E0E6D4146EB060642EAC62141EA5551F1
:1004E0004FEAC52040EA5E504FEACE2EB4F1FD0C33
:1004F00088BFBCF5E06F1ED8BEF1004F08BF5FEAB1
:10050000500E50F1000041EB045170BD06F0004662
:1005100046EA010140EA020081EA0301B4EB5C040F
:10052000C2BFD4EB0C0541EA045170BD41F4801107
:100530004FF0000E013C00F3AB8014F1360FDEBF2C
:10054000002001F0004170BDC4F10004203C35DA08
:100550000C341BDC04F11404C4F1200500FA05F38B
:1005600020FA04F001FA05F240EA020001F000422C
:1005700021F0004110EBD37021FA04F642EB0601A2
:100580005EEA430E08BF20EAD37070BDC4F10C04CC
:10059000C4F1200500FA04F320FA05F001FA04F290
:1005A00040EA020001F0004110EBD37041F100017C
:1005B0005EEA430E08BF20EAD37070BDC4F1200587
:1005C00000FA05F24EEA020E20FA04F301FA05F2EF
:1005D00043EA020321FA04F001F0004121FA04F297
:1005E00020EA020000EBD3705EEA430E08BF20EA67
:1005F000D37070BD94F0000F0FD101F000464000A1
:1006000041EB010111F4801F08BF013CF7D041EA22
:10061000060195F0000F18BF704703F00046520026
:1006200043EB030313F4801F08BF013DF7D043EAF7
:100630000603704794EA0C0F0CEA135518BF95EAAD
:100640000C0F0CD050EA410618BF52EA4306D1D134
:1006500081EA030101F000414FF0000070BD50EA53
:10066000410606BF1046194652EA430619D094EADD
:100670000C0F02D150EA013613D195EA0C0F05D1C7
:1006800052EA03361CBF104619460AD181EA03011B
:1006900001F0004141F0FE4141F470014FF00000D3
:1006A00070BD41F0FE4141F4780170BD70B54FF06E
:1006B000FF0C4CF4E06C1CEA11541DBF1CEA1355EE
:1006C00094EA0C0F95EA0C0F00F0A7F8A4EB0504D0
:1006D00081EA030E52EA03354FEA013100F08880C7
:1006E0004FEA03334FF0805545EA131343EA126390
:1006F0004FEA022245EA111545EA10654FEA002645
:100700000EF000419D4208BF964244F1FD0404F5FD
:10071000407402D25B084FEA3202B61A65EB030559
:100720005B084FEA32024FF480104FF4002CB6EB16
:10073000020E75EB030E22BFB61A754640EA0C0096
:100740005B084FEA3202B6EB020E75EB030E22BFD6
:10075000B61A754640EA5C005B084FEA3202B6EB17
:10076000020E75EB030E22BFB61A754640EA9C00D6
:100770005B084FEA3202B6EB020E75EB030E22BFA6
:10078000B61A754640EADC0055EA060E18D04FEA64
:10079000051545EA16754FEA06164FEAC30343EA04
:1007A00052734FEAC2025FEA1C1CC0D111F4801FD1
:1007B0000BD141EA00014FF000004FF0004CB6E7CA
:1007C00011F4801F04BF01430020B4F1FD0C88BF69
:1007D000BCF5E06F3FF6AFAEB5EB030C04BFB6EB74
:1007E000020C5FEA500C50F1000041EB045170BD67
:1007F0000EF0004E4EEA113114EB5C04C2BFD4EB94
:100800000C0541EA045170BD41F480114FF0000E17
:10081000013C90E645EA060E8DE60CEA135594EA93
:100820000C0F08BF95EA0C0F3FF43BAF94EA0C0F96
:100830000AD150EA01347FF434AF95EA0C0F7FF40B
:1008400025AF104619462CE795EA0C0F06D152EA5F
:1008500003353FF4FDAE1046194622E750EA410643
:1008600018BF52EA43067FF4C5AE50EA41047FF454
:100870000DAF52EA43057FF4EBAE12E753B94AB924
:10088000002908BF00281CBF4FF0FF314FF0FF3098
:1008900000F00CB8ADF1080C6DE904CE00F008F8DA
:1008A000DDF804E0DDE9022304B07047704700BFC3
:1008B0002DE9F04F099F154604468E461E46002B33
:1008C00040F0CC808A42B2FA82FC4CD9BCF1000FD5
:1008D0000BD0CCF1200801FA0CFE20FA08F802FA3D
:1008E0000CF548EA0E0E00FA0CF44FEA15491FFA0F
:1008F00085F8BEFBF9FA210C09FB1AE30AFB08FB99
:1009000041EA03439B452AD9EB180AF1FF3004D290
:100910009B4502D9AAF102002B44A3EB0B03A4B21E
:10092000B3FBF9F209FB123302FB08F844EA034473
:10093000A04516D92C1902F1FF3303D2A04501D9E5
:10094000931E2C44A4EB080443EA004027B124FA88
:100950000CF400233C607B603146BDE8F08F5046CC
:10096000DBE71346EEE702B9FFDEBCF1000F2ED144
:100970008B1A01264FEA154EAAB2B3FBFEF8210CE2
:100980000EFB183308FB02F941EA0343994561D98C
:10099000EB1808F1FF3004D2994502D9A8F1020002
:1009A0002B44A3EB0903A4B2B3FBFEF10EFB1133FE
:1009B0004A4344EA0344A2424ED92C1901F1FF33C1
:1009C00003D2A24201D98B1E2C44A41ABCE7CCF15D
:1009D000200E02FA0CF521FA0EF901FA0CF320FAB6
:1009E0000EFE4EEA03034FEA154800FA0CF4B9FB79
:1009F000F8F11FFA85FE08FB1192180C01FB0EF6A8
:100A000040EA0242964221D9AA1801F1FF3003D2EE
:100A1000964201D9881E2A44921B9BB2B2FBF8F978
:100A200008FB192209FB0EFE43EA02439E450FD93B
:100A3000EB1809F1FF3604D29E4502D9A9F102064E
:100A40002B44A3EB0E0346EA004693E70846E3E790
:100A50004E46F6E74046A4E70B46B6E78B4205D97B
:100A60000FB1C7E900010026304675E7B3FA83FCF1
:100A7000BCF1000F0FD18B4201D3824209D8841AF6
:100A800061EB030E0120002F6AD0C7E9004E00265B
:100A900062E76046F7E7CCF1200E03FA0CF322FA86
:100AA0000EF521FA0EF41D4301FA0CF320FA0EF1B3
:100AB0000B434FEA154A00FA0CF6B4FBFAF91FFA99
:100AC00085F80AFB19401C0C09FB08F144EA0044B4
:100AD000A14202FA0CF23FD92C1909F1FF3004D2DD
:100AE000A14202D9A9F102002C44641A9BB2B4FBC2
:100AF000FAF90AFB194409FB08F843EA044188455E
:100B00002CD9691809F1FF3304D2884502D9A9F11B
:100B10000203294443EA0040A1EB0801A0FB02893B
:100B20004945C2464C4602D306D1464504D2B8EBED
:100B3000020A69EB0504013897B1B6EB0A0361EBD1
:100B4000040606FA0EFE23FA0CF34EEA030326FA15
:100B50000CF6C7E900369AE74846C6E74B46D9E7A0
:100B60003E46F9E6000000002DE9F0432E4887B02C
:100B70000EF0F4FF054640B92C4804F0A1FF4FF0F9
:100B8000FF34204607B0BDE8F083436820219B680E
:100B90009847044678B96B6802AADB680D2128469D
:100BA0009847044638B96B6804AADB6810212846C8
:100BB0009847044620B121461D4804F081FFDEE736
:100BC0000398FFF7DFFB16A3D3E90023FFF76EFDC1
:100BD000064602980F46FFF7D5FB02460B46304605
:100BE0003946FFF783FA064605980F46FFF7CAFB1A
:100BF0000BA3D3E90023FFF759FD804604988946EB
:100C0000FFF7C0FB02460B4640464946FFF76EFA27
:100C10003246CDE900013B46064804F051FFB0E7FB
:100C20000000000080842E41295301003053010050
:100C30004D530100615301002DE9F04FCB4D8FB0B2
:100C40001C462B7C0C9183462BB1404080F31188CD
:100C50004FF0040002DF94F820300733DBB22B742E
:100C600094F91D30002B09DA636DE16D02FB03334B
:100C70000B44A16D994294BFE165E365268D94F81C
:100C800074303244668C92B22285324496B294F823
:100C900075209A427DD194F85E315A0779D494F840
:100CA000CD2094F8CC309A4200F0448105200AF01F
:100CB0001BFBD5F888310BB19C426AD194F8CE3039
:100CC00003F00703052BC0D8DFE813F0060043004C
:100CD0000801630063006300A54812F089FA014629
:100CE000002856D094F8CE30042262F3020384F830
:100CF000CE30037943F003030371182343710F23AC
:100D0000C371B4F8D0300381B4F8D2304381B4F861
:100D1000D4308381B4F8D630C38100230374C37404
:100D200003754FF0FF33A0F8116043758375C375E9
:100D3000037643768376C3760377437783772046BB
:100D400012F00CFDC5F88841B4F84230A4F84430E4
:100D50001FE094F8CF70002F3ED0854812F048FA7B
:100D60000146B0B1037943F0030303711123C3714A
:100D7000032343710F23037294F8CF30437220464C
:100D800012F0ECFC94F8CC3084F8CD300023C5F898
:100D9000883194F8752094F874309A4200F0708489
:100DA00005200AF0A1FA94F87630013B072B3FF6B4
:100DB0004CAF01A252F823F071120000031600009C
:100DC0002D17000035190000E91900004B0C000038
:100DD000851A0000B51A000094F91D30002B3ADB8B
:100DE00094F8751094F874308B42D2D194F8CE30C8
:100DF000C4F88470052262F3020394F8D82084F8C2
:100E0000CE30012384F8883012B3B4F8D030B3FB6D
:100E1000F2F3013313FB02F39BB2A4F87A30D4F857
:100E2000D430E36794F87830022262F3010394F837
:100E3000CE2082F00802C2F3C00262F3820384F87B
:100E400078300139012384F8763084F87510A0E7F2
:100E5000B4F8D230E1E7464812F0CAF9014600285A
:100E600097D0037943F003030371182343711023D0
:100E7000C371B4F8D0300381B4F8D2304381B4F8F0
:100E8000D4308381B4F8D630C38194F8D830037459
:100E9000B4F8DA30A0F81130B4F8DC30A0F8133030
:100EA000B4F8DE30A0F81530B4F8E030A0F8173010
:100EB000B4F8E230A0F81930B4F8E430A0F81B30F0
:100EC000B4F8E630A0F81D30204612F047FC94F844
:100ED000CC3084F8CD30C5F888715AE794F85E318B
:100EE0001B073FF556AF022009F0F4FB00283FF442
:100EF00050AF94F8CE30032262F3020384F8CE3070
:100F0000238CC38002230371037A134303721823D3
:100F100043720F23C372B4F8D0308381B4F8D23057
:100F2000C381B4F8D4300382B4F8D63043820AF0D7
:100F300029F92EE794F8012194F800319A4200F043
:100F4000A78005200AF0D0F994F8023103F00302DB
:100F5000032A3FF67AAE01A151F822F0750F000086
:100F6000930D0000930D0000DB0F0000BC06002075
:100F700018080020BB4812F03BF9014600283FF456
:100F800008AF94F8023194F83900012262F30103AA
:100F900084F80231DBB2C3F38207C3F3421363F375
:100FA000C50094F8382084F8390094F8030167F3F9
:100FB0000202C0F3000060F3861284F838200A7938
:100FC0000F7242F003020A7103224A711622CA719B
:100FD0004B72204612F0C2FBB6E694F8752094F8E6
:100FE000741091427FF4D5AE94F8001184F8011189
:100FF000C3F382018F0739D5022161F3840384F89A
:10100000023194F8023159098F0738D5022161F372
:10101000471384F8023194F8021194F83830C1F380
:101020008200C3F3C203834208BF002094F87830E3
:1010300060F3840394F83A00490900F007008842FD
:1010400008BF002161F3471394F80311DBB2C1F329
:10105000400143F0010361F3410384F87830013A21
:10106000082384F8763084F8752092E6C80701D505
:101070000121C2E711F0040118BF0421BDE7C80730
:1010800001D50121C3E711F0040118BF0421BEE717
:1010900094F8F52094F8F4309A423FF47AAE0520A3
:1010A0000AF022F994F8F63003F00303032B3FF61D
:1010B000CCAD01A252F823F0C9100000930D00003E
:1010C000930D00003711000009F0EEFA0746D5F83D
:1010D000300112F0BBF8384480B2FF283FF6B5ADBE
:1010E00095F83A3183427FF454AE5E4812F080F8AE
:1010F000014600283FF44DAE94F8F630B4F8FA708B
:10110000B4F8FE20A7850120628660F3010384F80D
:10111000F6300B798F8143F003030B7109234B7178
:101120001423CB711B230B7200234B7248238B7249
:10113000C872CA814DE709F0B7FA0746D5F8300101
:1011400012F084F8384480B2FF283FF67EAD95F85F
:101150003A31834240F0CB8294F8F43084F8F53091
:1011600094F8F630D5F80C016FF3820384F8F6306A
:101170000023A4F84430B4F8F8302386B4F8FC30E7
:10118000E38612F063F8D5F8CC300BB1013080B2B1
:10119000D5F800310BB1013080B2278E95F81031AF
:1011A0000E37013027F003079842BFB257D0B5F889
:1011B0003831BB4253D3022009F08CFA00283FF4A7
:1011C00044AD238CC38002230371037A43F00303ED
:1011D0000372092343721523C372238E8381E38D27
:1011E0000382E38EC381A38EA0E60BB995F840314C
:1011F000D5F83C21013BDBB285F8423152F823306F
:101200004146186812F00DF895F8402195F85431D0
:10121000013A9342BFF619AD013385F8543195F880
:10122000423195F841219342DFD1238EB5F8362122
:10123000282B98BF3427B2FBF7F2D2B2A5F8387149
:1012400085F83A21002A3FF400ADD5F82C01064B71
:10125000394611F0A9FF042009F04EFAABE7DFF898
:101260000C80DCE718080020EC07002004080020B0
:10127000D5F888310BB9C5F8884194F8783013F067
:10128000030339D01B4811F0B3FF0146002800F0DA
:10129000F78194F8783002796FF3010384F878309D
:1012A000E38C334406339BB242F00302A4F880304F
:1012B00002710C2242710022C27194F888200272DD
:1012C000D4F8842040F2E240B2FBF0F2A1F8092009
:1012D000B4F87A20A1F80B20B4F87C20A1F80D20F6
:1012E000B4F87E20A1F80F20A1F81130204612F0AA
:1012F00035FAC5E118080020B4F880A0A6EB0A0270
:1013000092B217040B9200F1BB8194F8742084F818
:10131000752094F8CC1094F8CD208A4209D094F826
:10132000CE2002F00702052A04BF84F8CD10A4F8ED
:101330004430D5F888210023944208BFC5F888318D
:101340002B74B4F87A20A38C9A4214D1B4F87C1090
:10135000E38C99420FD140F2E2435A43B4F87E3015
:1013600042F2107101FB0323013B93FBF2F3E28F86
:101370009BB29A4216D0022009F0ACF900283FF443
:1013800064AC238CC3800A23037100230372B4F876
:101390007A304381B4F87C308381B4F87E30C381E5
:1013A00009F0F0FED4E9000300280D930CDA20F0D8
:1013B0000040A3680D9A2060ABEB00009A422CBF5E
:1013C00000EB020B00EB030B0B9AA38CB4F87A90A2
:1013D000DFF8548313FB02F39BB2B3FBF9F18AB23B
:1013E0000C9219FB02F292B2934240F2E24080F07A
:1013F000ED80D31A584380FB0801BFA3D3E9002333
:10140000FFF73CFA20F07F4000EB0B070C9B0D9A96
:10141000D4F884B0AAEB06061E442368B4F828A0CA
:101420009A4238BF1A4694F91D300D925644002B4B
:1014300040F2E24A26850AFB09F680F2D580E26D89
:10144000636D0B990C9803FB112395F82021AC498F
:1014500031F8125094F85020C2F3820231F8122071
:1014600094F888101544754305F574250AFB01F1BD
:10147000A44A616605F23F25B5FBF2F572086843A0
:10148000963A034400216565A2652167934294BFA3
:10149000E365E265A0FB080197A3D3E90023FFF70A
:1014A000EDF93F1ABBFBFAF00AFB00F092A3D3E977
:1014B0000023A0FB0801FFF7E1F9751B20F07F4A2C
:1014C000B4F87E20B4F87C10E18442F2107303FB80
:1014D0000262013A8C4BB2FBF6F2E2878B4AA4F827
:1014E000249033443244B3FBF6F3B2FBF6F6A4F88F
:1014F00042308A1DB3B29342A4F84A30C2BF5B1A8D
:10150000063B9BB2A4F8463094F8783013F00403FD
:1015100008BFA4F840300121002012F04FFC002247
:101520000C900121104607F099F894F82060784B50
:101530000736F6B2002100963246084607F044FE10
:1015400030F002030B937FF480ABA5FB08896AA3FC
:10155000D3E9002340464946FFF790F941F6AA43F4
:1015600008936C4B0D9ACDE906436B4B0593E368EA
:101570001A440B9B0393694B049220F07F44A4FB15
:1015800003BC072303FB04CCB8EB0B0069EB0C0195
:101590004FF47A720023FFF771F90B99CDF800A090
:1015A000CDE901403B463246084607F07BFD30F06E
:1015B00002007FF44AAB0C9B002B00F098800122C4
:1015C00011460FB0BDE8F04F07F048B809FB1131E4
:1015D00089B2484348A3D3E9002380FB0801FFF701
:1015E0004DF9ABEB000711E743A3D3E90023ABFBB5
:1015F0000801FFF743F920F07F4000F1010A35466A
:101600005EE794F8783003B3454811F0F1FD0546E4
:10161000B0B3002384F87830E38C33440633A4F865
:101620007E30037943F003030371082343710123E0
:10163000C371052204F17901083010F00DFAB4F8F5
:101640007E30A5F80D30294650E6B4F87E30F31A06
:101650001D0415D494F8743084F8753004F117051E
:10166000052204F17901284610F0F6F905212846F3
:1016700011F035FE637F60F3050363770123237761
:1016800094F8A12094F8A0309A421ED0052009F0C9
:101690002BFE234811F0ACFD0146B0B194F8A03008
:1016A00084F8A130037943F00303037102234371EB
:1016B000C37194F8A2300372204612F04FF8E38F02
:1016C000012B98BF0133A4F84430164B03940293C6
:1016D00094F820300C990733DBB20193A368009390
:1016E0002246231D5846013609F00CFE66840FB0D1
:1016F000BDE8F08FAFF300808D49FD1A07000000B0
:101700007851010040420F00FF5962027FC3C901B6
:1017100065A9000051A90000390C00008D49FD1A8F
:101720001808002009B7000000CA9A3B94F8788096
:10173000B8F1000FA4D1DD4811F05AFD074600288A
:101740009ED094F91D30002B00F1040947DB04F50D
:1017500082752B46424604F17A0104F1BC0012F076
:10176000D3FA1022294604F2251010F075F904F27C
:101770001D11082204F59F7010F06EF994F81C31C9
:1017800084F8358168F3000384F81C3194F83D3106
:1017900084F8368143F0010384F83D3194F85E31DA
:1017A00084F8378143F01003C4E9458884F8388110
:1017B00084F8398184F83A8184F83B8184F83C814B
:1017C00084F85E314946204612F00FF8394620462B
:1017D00011F0C4FF94F8743084F8753050E794F831
:1017E0005E3103F04803082B00F0998094F879806B
:1017F000B8F1000F20D0037943F00303037194F88C
:101800005030980612D5D4F8943059070ED51123CC
:10181000FB7103233B7287F8098002237B717B797C
:1018200001337B71002384F87930CFE70D23FB71FE
:1018300087F808800123F1E79C4811F0D9FC814624
:10184000002867D0037943F0030303710D2343712C
:101850004FF0040A00F10803194680F807A00C2293
:1018600068680B9311F06EFF0B9B0822194604F178
:10187000820010F0F1F8524609F1100104F2211033
:1018800010F0EAF804F582754946204611F066FF2B
:101890002B46424604F17A0104F1BC0012F034FAFE
:1018A0001022294604F2251010F0D6F8082204F27E
:1018B0001D1104F59F7010F0CFF894F81C3184F8D6
:1018C000358143F0010384F81C3194F83D3184F8EC
:1018D000368168F3000384F83D3194F85E3184F872
:1018E000378143F0100384F85E313B7984F8388106
:1018F00043F00303C4E9458884F8398184F83A81C8
:1019000084F83B8184F83C813B7101237B71052382
:10191000FB715BE76549384611F083FCB0E6494648
:10192000204611F062FF94F85E3123F00C0384F836
:101930005E314BE794F8501011F0200724D094F852
:10194000743084F87530022008F0C4FE0546002883
:101950003FF47BA9238CC38002230371037A43F0F5
:101960000303037209234372C372082200210C305F
:1019700010F09CF8D4F894302B731A0A1B0C6A737D
:10198000AB7309F0FFFB7BE6484811F031FC0546DC
:1019900000283FF475AE94F8743084F87530444BE9
:1019A000C4F89430037943F00303037109234371AE
:1019B00094F91D30002BACBF08230E230822C371FD
:1019C0003946104410F072F8D4F894302B721A0A89
:1019D0001B0C6A72AB722946204611F0BFFEB4F8A8
:1019E0004230A4F844304BE694F89830DA0724D417
:1019F0002E4811F0FDFB014600283FF441AE94F85B
:101A0000743084F8753094F8983043F0010384F80A
:101A10009830037943F003030371062343710C23C9
:101A2000C371092303726FF00E034372052383729F
:101A30004FF0FF33C3720373CEE79F077FF505A90D
:101A400094F8743084F87530022008F043FE0028C2
:101A50003FF4FBA8238CC38002230371037A43F075
:101A600003030372062343720C23C37294F8993064
:101A70000373B4F89A30A0F80D30B4F89C30A0F895
:101A80000F307EE7094811F0B3FB014600283FF410
:101A9000F7AD94F8743084F87530037943F003039C
:101AA0000371012343711223C37195E718080020C5
:101AB0007F41010094F87820D5074DD5504811F0AA
:101AC00097FB054600283FF4DBAD94F878306FF3C0
:101AD000000384F87830DBB2C3F3820757EA531768
:101AE00034D194F8742084F875209807A4F87A709B
:101AF00016D5022008F0EEFD00283FF4A6A8238C9E
:101B0000C38007720E23037194F83830C3F3C20305
:101B1000437294F83A30C3F30203837209F032FB44
:101B20002B7943F003032B7105236B711823EB71A1
:101B300094F87830C3F382032B7294F87830C3F3AF
:101B400042136B72B4F87A306B817CE5E38C3344DA
:101B50000633A4F87A30E3E7B4F87A30F31A1904BC
:101B60003FF58EAD94F8743084F8753012F01C0F88
:101B700094F8383094F83A1018BFC2F38205C3F3D2
:101B8000C2001CBF65F3C50384F8383012F0E00FC3
:101B90001FBF94F83A30550965F3020384F83A30D0
:101BA00094F83830C3F3801565F3C713920701F03A
:101BB000070184F838300BD4DBB2C3F3C20383428D
:101BC00006D194F83A3003F007038B423FF458AD46
:101BD000022008F07FFD00283FF437A8238CC38043
:101BE0000E2303710023037294F83830C3F3C20349
:101BF000437294F83A30C3F302038372C1E600BF24
:101C000018080020000000002DE9F04F91B00CF002
:101C1000D5FDC6B266B30CF0F1FD5FFA80FA0CF0A8
:101C200073FE5FFA80F80CF079FEC3B20A930DF0F0
:101C300033F8C5B20DF01EF85FFA80FB0CF02CFEF5
:101C40005FFA80F9AA4C0CF0A3FD0CF079FE0CF0C1
:101C500053FE0DF015F80CF017FE677D052F2DD8FB
:101C6000DFE817F07A00C3000F007F087F087F08C5
:101C70004FF0FF0BB1463546B046B246CDF828B01E
:101C8000E0E7012363750CF041FF054696200CF058
:101C900067FE237D013B032B10D8DFE803F0023001
:101CA000606000231A46194618460CF0C5FD0CF07A
:101CB000B3FD0CF043FD0CF077FD28B1404080F3FC
:101CC00011884FF0040002DF0BF0BEFF38B10EA800
:101CD0000BF094FD01469DF838000CF09FFF0021A9
:101CE000084612F058F8CB3500210544084612F09A
:101CF0004EF8281A0CF0C4FE0CF0FAFE2CE000237B
:101D00001A46194618460CF097FD94F84121D4F86C
:101D10003C3153F8220008300CF010FD0CF044FD6B
:101D20000028CBD10BF090FF38B10EA80BF066FD68
:101D300001469DF838000CF071FF0021084612F0B2
:101D40002AF8CB3500210544084612F020F8281A5D
:101D50000CF096FE0CF088FD11B0BDE8F08FD4F8C1
:101D6000143193F8382093F83A000021D30900F099
:101D70000700C2F3C2020CF05FFD94F84121D4F8D1
:101D80003C31D4F8140153F82210083111F03EFC14
:101D90000CF00AFD002891D1D4F8143193F83A00E0
:101DA000012100F0070011F0F6FFD4F8142192F899
:101DB0003A3003F00703A335022B054413D0042B5C
:101DC0000CBF4FF4BC702820054492F83800C109BC
:101DD000C0F3C20011F0DBFF281A0CF051FE012005
:101DE00009F092F8B8E71820EEE726B903236375E7
:101DF0000CF0BCFCB0E7237DDBB2022B00F08E823E
:101E0000032B00F09883012B7FF458AFBAF1000F39
:101E1000ECD02DB358460BF01BFD8DF838000CF0BC
:101E2000FBFC94F87920064600782B234FF0270A14
:101E30001AFB023A00F00F03032B04EB0A053DD115
:101E400073780C2BD2D194F829305A060AD5B8F100
:101E5000000F0ED19DF838000BF016FD48B92DE0AB
:101E6000FF20DAE70EAAB11CC0F380100BF090FE41
:101E700000B314F80A303278C3F38013B3EBD21FE7
:101E80001CD1062206F10801A81C0FF0BEFDA8B95E
:101E9000032363750CF0DAFC94F8C900272303FBD5
:101EA00000407B300CF050FC0CF07EFC00283FF42E
:101EB00053AF03E794F829305B06C8D4307800F0BC
:101EC0000F03052B92D17378222B8FD114F80A308F
:101ED00003F00F03012B40F0DE81B71C0EAA394638
:101EE000C0F380100BF054FE20B9002012E000BFB8
:101EF000BC0600203146284611F0B0FB0028F4D083
:101F00009DF83830FF2B00F0B38194F82A00C71AEF
:101F10007842784100F0010000283FF467AF94F860
:101F2000823133B194F8803194F881219A427FF460
:101F30005DAFD4F8CC30002B3FF458AF042008F04C
:101F4000C9FB804600283FF451AF4FF0040984F8E4
:101F500015900CF00BFCD4F8CC50D4F808110023E9
:101F60004FF4B0722846C4F8CC3011F078F905F17E
:101F7000100B2884032206F1120105F114000FF062
:101F80006BFD05F117074A4606F10E0158460FF0A2
:101F900063FD052206F11E0138460FF05DFD0521A7
:101FA000384611F09CF96B7F60F305036B7796F868
:101FB0002330C3F30403AB77338BAB8440F2E247A7
:101FC0005F43F27EB37E43EA022359464A46EB84DE
:101FD00005F16C000FF040FDB38BE98C42F21072FA
:101FE00002FB0373013BC44AB3FBF7F3EB87C34B1C
:101FF000881D3B443A44B3FBF7F3B2FBF7F2A5F874
:10200000423093B28342A5F84A30C2BF5B1A063B06
:102010009BB2A5F846302B8CA8F80630082388F828
:10202000043031464FF48073A8F8083011F8083BAB
:10203000C3F3C01388F81730062208F118000FF018
:102040000BFD9DF83800FF2808F1110308F10B0B78
:1020500006F1020900F03E815A4608F10A010A938E
:102060000BF076FD98F80A200A9B023288F80A20C5
:102070004946062218460FF0EFFC727E337E43EA93
:102080000223A8F81E30F27EB37E43EA0223A8F8AA
:102090002030727F337F43EA0223A8F8223096F87B
:1020A0002330C3F3421388F82430288C08F036FC20
:1020B00009F068F8032008F00DFB00283FF4FEAD9E
:1020C0002B8CC3800D230371337813F020030ED0C3
:1020D0006A7C2B7CE97C43EA0223AA7C42EA012247
:1020E000697F534041F04001EB836977012303721C
:1020F00009F048F896F8232095F8503080495209A5
:1021000062F3840385F8503094F8203131F81220BE
:1021100031F8133013447B4303F57423794A03F2F7
:102120003F23B3FBF2F36B657B08963BAB65737D96
:1021300040F2E2484FF0000B08FB03F3AB66594650
:10214000C5F864B0584611F024FE6F490A9000F2B9
:10215000524067A3D3E90023A0FB0101FEF78EFBE9
:10216000D4F884316B602722934238BF134620F0A5
:102170007F4099466B6D2A60E860C5F808B0FF1A89
:102180000CF0BEFC0B90F08A594608FB00885846BC
:1021900011F0FDFD0B9BA8F1300898440A9BA8EBB9
:1021A0000008A8EB030840F2AD4300930522574B0B
:1021B0005946584607F008F840F2AE4108F0DCFBFB
:1021C00014F80A30DFF840A103F00F03012B07D108
:1021D000CDF800B05B4603225946584606F0F4FF9E
:1021E000A7FB0A6742A3D3E9002330463946FEF72E
:1021F00045FBA36895F82040A3EB09030A9340F23E
:10220000C5430893424BCDE90653424B0593EB6817
:102210004B440493404B20F07F45A5FB03BC0723B0
:1022200003FB05CCB6EB0B0067EB0C014FF000098C
:102230004FF47A720023CDF80C90FEF71FFB2CA30D
:10224000D3E90023CDE90150A8FB0A01FEF716FBF4
:10225000073420F07F40E4B200900A9B22464946B2
:10226000484606F01FFF30F002037FF427AD73E508
:10227000337814F80A20C3F38013B3EBD21F7FF432
:1022800034AE0622394605F108000FF0BEFBB0FA65
:1022900080F040093EE694F82930DB0908D0B8F117
:1022A000000F0CD19DF838000BF0EEFA38B91CE69F
:1022B0000EAAB11CC0F380100BF06AFC20B13146AD
:1022C000284611F0CBF925E694F82930DB093FF4D4
:1022D0000CAEE4E70622002118460FF0E7FB337846
:1022E000C3F3801388F80A30062249465846C2E6EE
:1022F0008D49FD1A070000007FC3C901FF59620222
:102300007851010040420F0000CA9A3B79A90000B1
:10231000B1360100390C00008D49FD1AB8F1000FEB
:1023200018D094F8E1000A99C0F300100BF070FA8D
:102330000746BAF1000F00F0818094F8E130DE0624
:102340000FD5B8F1000F0FD138460BF09DFA0028D9
:1023500074D009E01DB158460BF07AFAE8E7FF2780
:10236000E7E7B8F1000F5FD1D4F83C3194F8412190
:1023700053F82260307A10F00F0302D0062B40F0A1
:10238000E586727A252A6DD894F8E120120769D57E
:10239000D4F80021002A65D1002D14BF3946FF2151
:1023A000484608F047FF002848D10CF035FA03787A
:1023B000032262F303030370337A0278C3F38013BA
:1023C00063F3C7120C2343700546027038460BF0C6
:1023D00001FA94F8E2300146284613F0010F10F894
:1023E000023B36D0A9B343F040032B7006220FF016
:1023F00033FB062206F10A0105F108000FF02CFB61
:1024000094F8E03043F0020384F8E0309620022391
:1024100063750CF0A5FA00200CF002FA28460CF0C7
:1024200093F90CF065FB3FE5394628460BF072FB4B
:10243000002899D194F8E130D80695D40323637528
:102440000CF094F994F8E0306FF3410384F8E03035
:1024500082E494F8E120C549D20962F386132B7017
:102460000622C4E710F00D0F01D0062B11D1727AAD
:10247000252A0ED8737A002BE0D0D4F80031002B37
:10248000DCD1002D14BF3946FF21484608F0D2FEAA
:10249000D4E7012B09D0337A03F00F03072B2FD198
:1024A00094F8E1305807E5D1C8E7737A0C2BF2D1E4
:1024B00006F110083A464146C0090BF0A5FB00287A
:1024C000D8D1337A94F8E120DB09B3EBD21F0FD0D7
:1024D00094F8E130C3F301139B07DCD596F908307B
:1024E000002BD8DA737D03F0C003402BD3D1C1E7B2
:1024F000062241469D480FF088FA0028BAD0E7E747
:10250000042B9BD1737A252B98D894F8E030990747
:1025100094D50CF081F9337A0278C3F38013B3EBCE
:10252000D21F8BD1062206F10A0108300FF06DFA96
:1025300000289FD082E794F8183194F84121D4F80C
:102540001451013384F818310026D4F83C318DF849
:10255000376053F82290022389F80430BAF1000F53
:1025600000F0A48295F85E3199F8081003F001029A
:10257000C1F38001914200F0738182F0010262F3A5
:10258000000385F85E31237D032B02BF95F85030A0
:1025900043F0010385F8503095F85E311A0600F1DA
:1025A0005A81D5F8486195F85D11301D00EB010B9B
:1025B0009BF80180B8F1000F00F0A3809B060AD5BC
:1025C000D5F83531D5F83921013342F10002C5F88B
:1025D0003531C5F83921435C03F00303032B40F088
:1025E00090809BF80330023B162B00F28A80DFE8D4
:1025F00013F017006800B600880088008800880083
:1026000088008A0097008800C5008800880088003C
:10261000C10088008800CD008800E000E7000401C8
:10262000032363750CF0A2F80CF0BEF800287FF4C9
:1026300045AB9BF80410D4F81401132908BF1621E8
:1026400008F0D0FD0125D4F8140190F85D319844CC
:1026500090F85C315FFA88F8434580F85D8100F0BE
:10266000D3800026002D00F0FB80D4F8140108F080
:102670009BFC0023C4F814310CF02EFA18B90CF0AE
:102680001FFA0CF023FA3A4BD3F81431002B3FF425
:1026900063AB1EB13146188C08F012FC9DF8373040
:1026A000002B3FF459ABD4F81431188C08F036F9EC
:1026B000D4F814311B8CA9F8063008F063FDFFF73D
:1026C0004BBB08220BF10E0105F17A000FF0C4F9A3
:1026D000D4F8140104220BF1160100F21D100FF0C2
:1026E000BBF9D4F8143193F85E2142F0080283F864
:1026F0005E21B3F84220A3F8442093F8B02083F879
:10270000B12000259FE795F85E3123F0480343F0A0
:10271000480385F85E31B5F84230A5F84430F0E75B
:10272000237D042B1BD1337943F00303337117232B
:1027300073710323F371082205F1B40104300FF023
:102740008BF995F8B230337495F8B330737406F1A1
:1027500012010C22606810F0F5FF0026D1E795F811
:102760005E3143F0080385F85E31CAE7A007002018
:10277000BC0600209BF80430032BC2D195F85E31D3
:1027800023F00C0385F85E310023C6E795F8F420AA
:1027900095F8F5309A42B4D095F8F63003F003027C
:1027A000012AAED123F0070343F0060385F8F63083
:1027B000A7E795F80231022262F3010385F802319E
:1027C000237D032B9DD1B54A4FF00433CDE90E2371
:1027D00095F8383095F80221C3F3C20343EA920317
:1027E00003F0070310AA134495F8392013F8083CA6
:1027F00063F3020285F8392083E795F8783095F87D
:102800003920C3F38203F3E7D0E952314FF0000CD3
:102810008B42A0F85CC112D1002E3FF422AFD0F859
:1028200050211968C0F84811934214BFC0F84C11E8
:10283000C0E953CC9A49304610F0F3FC11E7D0F8C8
:102840005421934208BF1A681B6808BFC0F854217E
:10285000C0F8483106E76FF3C71385F85E310026EC
:10286000D4F8143199F8082093F85E31C2F3C0020D
:10287000C3F340039A4240F0E780032007F02AFFA9
:10288000002800F0E18094F8823183B3D4F84C3111
:10289000D4F85021934205D194F8802194F8811105
:1028A000914224D0D4F85021934200F0CD8094F886
:1028B000803194F881219A4200F0C68094F88031EA
:1028C000D4F8142123B9B4F87E11138C99420ED098
:1028D00094F88031002B00F0B78094F8803104EB3D
:1028E0004303B3F87811138C994240F0AD80D4F8CB
:1028F000142199F8095092F85E31002D00F0AD8056
:1029000013F010053DD00CF061F900283FF4D6A972
:102910000CF07AF9054600286BD1D4F8143193F8FD
:102920005E315B0715D4032363750BF01FFF0BF0BB
:102930003BFF054600287FF4C1A93D21D4F81401CE
:1029400008F050FCD4F8140108F02EFBC4F8145120
:1029500092E699F8083003F00303032BE3D10BF060
:102960005BFF90F8018007464146C07807F07EFE85
:102970000028D8D008F10302394609F108000FF009
:102980006BF8D4F8140199F8081090F85E2112F051
:10299000040F0ED001F00303032BC4D190F91D7076
:1029A00099F80B30002F02F0400237DB1ABB022BE4
:1029B00031D10023A0F84830A0F84C30C1F3010316
:1029C000DAB25BB223B1022A37D801238DF837304F
:1029D000D4F8143193F85E2182F0020283F85E216C
:1029E00095B3D3E94521013241F10001C3E9452105
:1029F0002AE03D46C5E79A1ED2B2092A0BD840F21A
:102A0000052727FA02F2D707D3D4264A22FA03F37E
:102A1000DA07CED487E7112B85D8F6E742B9072B22
:102A2000C7D0022BC5D0112B3FF67DAF1E4AEDE774
:102A30009A1E012ABDD90B2BF4E70DF13701484648
:102A400009F02CF80028C3D0D4F814314FF0000856
:102A500084F81981A3F8408041E013F0140FB7D037
:102A6000D38CB2F84A10981D8142C4BFCB1A063BE2
:102A7000B2F84600CCBF9BB20B46984208D0A2F8F1
:102A80004630B2F84630A2F84830A2F84C109FE722
:102A9000B2F84C30002B9BD1F3E700BF01010201DB
:102AA00018080020602002004020020094F819213C
:102AB0000AB984F8193194F8198108F1FF385FFADE
:102AC00088F884F81981B5F84060B8FA88F84FEAB8
:102AD0005818002E40F09F80EB8FA5F84030D4F8B6
:102AE000145195F85EE14FEADE131EF0800F0A9351
:102AF00040F0A080D5F84821002A00F09B8095F88E
:102B0000F6300EF0080103F004030B4340F08E8012
:102B1000137903F00303032B2FD1D17903292CD18F
:102B200095F8750095F87430834211D195F8CD7001
:102B300095F8CC0087420BD195F8F57095F8F40024
:102B4000874205D195F8017195F80001874264D05C
:102B5000116800296ED0D5F84C3199426AD1C5F878
:102B60004811D5F850110B681360D5F858310A6038
:102B7000C5F854210BB9C5F85821D5F8480195F886
:102B80005D2195F85C31011D8F1813B97B7885F8AC
:102B90005C312AB18B5C4FF0010C6CF301038B5458
:102BA00095F85CC1ACEB020C5FFA8CFC87F801C0B5
:102BB0008B5C95F839B06FF304138B540BF0070B53
:102BC000AB8EBBF1020F15BFDB089B080A3B0B3B2A
:102BD0009BB21EF0200F18BF043BB5F82EE018BFC3
:102BE0009BB2734528BF73469C4581BF7B708B5C4D
:102BF00043F010038B5403681BB18B5C43F010034C
:102C00008B54D5F84C316BBBD5F85431984218BF72
:102C1000C5E9530026E0002661E70122013B85F863
:102C2000782085F8761085F87530A6E7D5F84C3110
:102C30009A42A2D095F85E3143F0800385F85E3168
:102C40000BF0E6FD0378012262F3010300224270DB
:102C5000D5F8482103700746DBB2002A63D043F061
:102C600010033B703B78964D6FF347133B70002386
:102C7000BB706B7D032B5BD0B8F1000F56D1BAF15E
:102C8000000F06D099F80830DB0602D47B78002BC1
:102C90004CD0D5F8143193F8A330002B46D1022341
:102CA00096206B750BF05CFED5F8143193F83A0062
:102CB00000F007000BF0B4FD0BF01AFFD4F81481FC
:102CC0003B7898F85E2198F83810C2F3000262F35E
:102CD000C30398F85E21C2F3400262F38203C1F39A
:102CE000C2053B702846C909B8F82EA00BF0B4FC09
:102CF00098F85E316A00980642F001022AD50AF17E
:102D00000401C9B208200BF0EDFC394608F2251089
:102D10000BF036FF0BF018FD0BF046FD00283FF4DA
:102D2000ABACFEF7CBBF62F304139AE703236B75DA
:102D30002B7D042B0BD1D5F814310A9993F85E2121
:102D400061F3C71283F85E210BF010FD94E40BF0E1
:102D50007DFDB3E708205FFA8AF10BF0C3FC38462B
:102D6000D8E7237D032B3EF6A9AFDFE813F0E70198
:102D7000040042009100032F09D194F8283059072C
:102D800005D008F095F90BF0EBFCFEF7B5BF0BF0A2
:102D9000A9FD637D032B5FD194F8285015F0400501
:102DA0005AD102220EA9606810F0CCFCBDF8381090
:102DB00040F24712B1FBF2F302FB131341F2890216
:102DC0000692404A01331BB2CDE90452CDE90255C7
:102DD000CDE90055052229462846ADF8383006F0E1
:102DE000ABF930F0020337D0A37C052B34D0FEF7CB
:102DF00065BF032F24D196200BF0B2FD00231946A6
:102E00001A4618460BF018FD94F84121D4F83C31CD
:102E100053F8220008300BF091FC0BF025FD0AF06E
:102E200013FF38B10EA80AF0E9FC01469DF83800FE
:102E30000BF0F4FE012363750BF08CFCFEF75CBF16
:102E40000BF050FD637D052B06D100230093042277
:102E50001946184606F0B8F900252575657565749C
:102E60000BF002FE2A4629462846174B05F01EFCA9
:102E7000054600287EF422AF2068436829465B6837
:102E8000984701221146284605F0E8FBFEF764BF8B
:102E9000D4F814010028DFD090F8A310B1B1237D3D
:102EA000032B03D090F85030DA070FD508F09AF9C9
:102EB000D4F8140108F078F80023C4F81431CBE7F3
:102EC000BC060020A9A90000C8390020B0F82AB02B
:102ED00094F818610BF10105ADB2002E00F093805B
:102EE000237D032B40F082800BF0F6FD0A900BF05F
:102EF000F9FD0A9BD4F81461191A96F83A3003F0D8
:102F00000703022B8046306E56D0042B0CBF4FF4C3
:102F1000BC794FF0280900F130034B4499420B93E0
:102F2000DFF840A28DA3D3E9002348D8A0FB0A0113
:102F3000FDF7A4FC0A9BA8EB03080B9B434420F07D
:102F40007F471846A0FB0A0184A3D3E90023FDF7BD
:102F500095FC20F07F48D6F8482100233366B366FD
:102F6000002A3DD0527912B996F85D2102B17385DD
:102F7000D4F8143100229A87D4F81401B0F8403004
:102F8000C3B19D4280F0A6805B1B9BB20022062B42
:102F9000A0F84030428540F29F80237D032B09D169
:102FA000BBF1000F40F09880C66E730816F0010662
:102FB00046D1C366002646E04FF01809ABE7A1FBF7
:102FC0000A01FDF75BFC20F07F4709F1300063A3A5
:102FD000D3E90023A0FB0A01FDF750FC8046BAE7C5
:102FE00096F85030DB07C3D5F38CC0E749B190F8B1
:102FF000503043F0010380F850304FF0000847464E
:10300000B6E78846FBE7818F81B18D4204D2491B28
:103010008187B0464746AFE73E2108F0E3F8D4F891
:10302000140107F0C1FFC4F8146115E7B0F840308F
:1030300023B9C28FA0F840209846EBE78846E9E71D
:1030400043F00043C366B0F8443023B19D4245D2FB
:103050005B1BA0F84430B0F84C3023B19D423FD206
:103060005B1BA0F84C30D4F81421B2F8483092F829
:10307000741023B19D4245D25D1BA2F8485092F8CE
:1030800075308B4249D1538D0EB99B4554D00133D5
:103090009BB257EA080103D113B9002E3FF4DCAE0E
:1030A00092F8202003930732D5B22B4A06950021CF
:1030B000CDE904623B46CDE90111CDF800802A46F6
:1030C000084606F039F830F002033FF4C5AEA37CA1
:1030D0009D428BE60821E9E60126B4E72221E5E6D8
:1030E0000023A0F84C30022007F0F4FA00283EF448
:1030F000E5ADD4F814311B8CC3800C23037108F0A8
:1031000041F8B0E70020A2F84800B2F8440092F875
:1031100075300028B3D18B4207D092F87630013B4E
:10312000012BB0D800235385ADE7072382F8763012
:103130004B1E82F87530A2E73346AAE7043F012F01
:103140003EF6BCAD00236375FEF706BE022BFFF70B
:103150008DB900BFAFF30080C1A900008D49FD1AF1
:103160000700000000CA9A3B2DE9F04FC04F8FB016
:103170009A4602230D9397F928308DF82F20002BC3
:10318000834688463E4601DA0C2523E097F87A20EC
:103190002B234FF0270919FB023917F8093013F0D8
:1031A0000E0F40F02081D7F8CC50002DECD107F560
:1031B000867010F01DF80446002800F0528107F5D3
:1031C000A47010F015F848B907F58671204610F084
:1031D00028F8072528460FB0BDE8F08F4FF6FF739B
:1031E0002362A562B7F82231A3851B23E3852386DA
:1031F000B7F82431B7F82621638694F83830E5779C
:1032000062F3020384F83830B7F8282194F8393093
:10321000A4F8405062F3C50384F83930637FA4F802
:10322000445003F03F0363F07F036377914B636384
:10323000A36BA4F84C5023F4E02323F4FF6343F47E
:10324000803343F48473A3630623A38794F8503038
:10325000A4F8485023F0230384F85030864B2567A8
:10326000C4E91755A4F87450C4F8943094F8983011
:10327000A4F8A05023F0030384F8983094F8CE30DB
:1032800084F8A35065F3041384F8CE3094F8F63034
:10329000C4F8A40065F3820384F8F630D4F85C31F6
:1032A000A4F8B05003F07F43A4F8CC50A4F8F45035
:1032B000A4F80051C4E95255C4E95455C4F8585112
:1032C000C4F85C3108F01AF9C7F8CC4096F82930F8
:1032D0009DF82F206BF3020362F3C5036AF3871393
:1032E00086F829309DF8603086F82A30D6F8843187
:1032F000F3612723B361012100230DF12F00336215
:103300000FF0EDFF17F8093003F00F03012B6CD11C
:103310004FF42773584300F59C70584952A3D3E9E2
:103320000023A0FB0101FDF7A9FAD6E906239A4282
:1033300038BF1A467062934610F08BF88246B8F197
:10334000000F5AD117F8093003F00F035A1E5342E9
:10335000534196F828504A4F4A4A63F38615736AD8
:1033600086F828500DF1340915F040055B44CDE98D
:1033700007794AD00020CDE90520CDE90303CDE946
:103380000130009053460522032105F08BFE0228F0
:1033900037D00D98002857D102230D933A4B069051
:1033A000CDE90779CDE90200CDE9040303224AF211
:1033B000FE33009301905346114605F073FE022838
:1033C0003ED00D9D002D3FD196F8283043F080036C
:1033D00086F8283096F8E030DB073FF5FBAE012099
:1033E0000AF072FDF6E6002470E7022B0CBF4FF4E2
:1033F000297340F2FC5358438FE70023A9E710F0EC
:10340000DAF80D9B022BFAD0C3E7204802951FFA89
:1034100088F8CDE90353A8FB00019123CDE90525E8
:1034200003FB081110A3D3E90023FDF727FA534645
:10343000CDE90050052203212846BEE710F0BBF875
:103440000D9B022BFAD0BCE7002C3FF49DAED4F8C4
:10345000A4000F490FF0E5FE0E4920460FF0E1FEF3
:1034600092E60925B6E600BF8D49FD1A0700000067
:10347000BC060020480148017F41010000CA9A3B78
:10348000BF35010079B40000B1B40000002AE78420
:1034900004080020C807002001480DF068BF00BFE5
:1034A0008152010011B103480DF061BF02480DF0D7
:1034B0005EBF00BF5A5201007652010070B5002075
:1034C00086B003F059FA044630B1014622480DF0A7
:1034D0004EFF204606B070BD204803F091FC204806
:1034E0000DF045FF0923ADF810408DF81130A023F1
:1034F000ADF81230F023ADF81430009423460222C8
:10350000184904A80EF04EFE044610B101461648B4
:10351000DDE716480DF02BFF2146012005F01AFFCC
:10352000134B144A013810F8011F03F8011B934292
:10353000F9D1114B11481978114D13F8012C0C4E8B
:10354000023B1B7800782D7836780090CDE9015643
:103550000C480DF00CFFBCE788510100B836002084
:10356000A8510100E84E0100CE510100F4510100C4
:10357000005000200650002005500020025000207E
:1035800001500020285201002DE9F74F43680D46F5
:1035900092465B686A4616218046984778BBDDE90B
:1035A0000049A5FB046705FB0977184A002330464C
:1035B0003946FDF763F9164B4FF0FF32BB4208BFA7
:1035C000B24283461ED3AAFB04450AFB09550F4AA3
:1035D000002320462946FDF751F90D4A4FF0FF31EF
:1035E000AA4208BFA14203460CD3D8F804201621F2
:1035F000146840465A46A04703B0BDE8F08F6FF00C
:103600000400F9E76FF02200F6E700BF40420F0028
:103610003F420F00F8B511480CF0A0FA0546C8B1BA
:103620000F4F104E002457F8041B31604A082846FB
:10363000FFF7AAFF0A200CF0BBFE002231682846E3
:10364000FFF7A2FF013401200CF0B2FE072CEAD1F3
:103650000020F8BD4FF0FF30FBE700BF9B52010098
:10366000F84E0100CC36002000F00300884207D855
:10367000C31C8B4204D9091A024800EB8100704731
:10368000014870471D5301001953010070B51A48D5
:103690000CF064FA054638B9174918480DF067FE72
:1036A0004FF0FF34204670BD436819221C6800218A
:1036B0000123A047044620B1014611480DF057FEF2
:1036C000F0E719210F480DF052FE6B6821465E6845
:1036D000192201232846B047044610B101460A4882
:1036E000ECE70A480CF03AFA094B18600028D3D0EE
:1036F000084B1C60D6E700BFA1520100A852010090
:10370000B9520100DA520100F552010012530100D2
:103710001C0000201800002070B50E4E0E4D002435
:1037200021462868FFF7A0FF0134014604223046F5
:103730000EF092F9042C06F10406F1D1074B05496D
:103740001868436822461B6898472B6801332B6032
:10375000002070BD16160020180000201C0000205C
:103760000B6801330B60014B1B681847D0360020F3
:103770002DE9F04F85B09B460E9CDFF890A0012C00
:10378000B8BF0124012B0CBF3023202315468046EF
:1037900089460194029301260A2700220AF10104B6
:1037A0000AB9AA451FD2B5FBF4F049463030C047EC
:1037B00001360122013F012FB5FBF4F14FF00A035E
:1037C00004FB1155BAFBF3FAE8D1494605F1300084
:1037D000C047BBF1030F03D1019B9C1B002C0FDCE6
:1037E00005B0BDE8F08F019BBB42E3DBBBF1020FEC
:1037F000E0D84946029803920136C047039AD9E7B8
:1038000049462020C047013CE8E700BFFFC99A3B7A
:10381000014B1860704700BFD036002007B5002369
:10382000019302460B46034801A90DF04FFC03B07B
:103830005DF804FB6137000030B585B0CDE90101CA
:103840000446002501A9054803950DF03FFCDDE97C
:1038500002309842B8BF255405B030BDA710010012
:1038600010B54FF02003EFF3118483F31188BFF3F9
:103870006F8F00F011F9094A0123C2F840354FF06B
:103880008042C2F87835064B4FF0FF329A62DA6216
:1038900084F31188BFF36F8F002010BD00E001405A
:1038A00000ED00E0F0B5284E07460C460FCE8DB077
:1038B00001AD0FC50FCE0FC596E8070085E80700DC
:1038C000002F3CD0002C3CD0381F2146024610343B
:1038D0004B780D781B0443EA0563CD782B438D7834
:1038E000043143EA05238C4242F8043FF0D1174CDF
:1038F00004218A07036918D14FEA33631A0EA55CC5
:10390000DAB2A25C42EA0562C3F30745C3F30723B8
:10391000655DE35C42EA054242EA03220CAD21F018
:1039200003032B4453F82C3C534050F8042F01312F
:1039300053402C290361DCD101200DB0F0BD384685
:10394000FBE72046F9E700BF944E01008F530100CA
:103950002DE9F043154689B00746002859D00029C3
:103960005AD0002A5AD010230A46684619460DF04C
:1039700019FD29466846DFF8A8900DF02BFD05F1EA
:103980001006C846A0356C466A4610231178013BE4
:1039900019F8011002F8011BF8D168460DF05FFD1F
:1039A000694604A80DF094FD01A905A80DF090FD4D
:1039B00002A906A80DF08CFD03A907A80DF088FD4B
:1039C000102319460DEB030268460DF0EBFC31465F
:1039D000684610360DF0FEFCAE42D4D11026237896
:1039E000013E18F8033004F8013BF8D168460DF0A9
:1039F00036FD294668460DF0EDFC102319466A464F
:103A000038460DF0CFFC6846102231460DF0D7FC49
:103A1000012009B0BDE8F0830846FAE71046F8E750
:103A20008F5301000C4B1B78062B10D10B4B1B68DE
:103A30001A070CD10A4B186800F0F003302B08D09D
:103A400000F0E000A0F140035842584170470020C8
:103A500070470120704700BFE00F00F0E40F00F056
:103A6000E80F00F0094B1B78062B0CD1084B1B68A4
:103A70001A0708D1074B186800F0F000A0F13003D6
:103A80005842584170470020704700BFE00F00F0D7
:103A9000E40F00F0E80F00F008B5FFF7C3FF28B10E
:103AA000784B794A1B68C3F304231360FFF7DAFFEE
:103AB00010B1764B764A1A60FFF7B4FF28B1754B08
:103AC000754A1B68C3F342331360FFF7CBFF20B185
:103AD000724AD36823F08073D360FFF7A3FF40B12D
:103AE0004FF080430022C3F80C21C3F81021C3F823
:103AF0003825FFF7B7FF10B1694B03221A60FFF7B3
:103B0000B1FF40B1674B05221A6001229A6700227B
:103B10009A603F225A60644B1B78062B50D1634B4E
:103B20001B6819074CD1624B1B6803F0F003502B44
:103B300046D14FF080525F4BD2F80414C3F82015E1
:103B4000D2F80814C3F82415D2F80C14C3F82815B9
:103B5000D2F81014C3F82C15D2F81414C3F8301589
:103B6000D2F81814C3F83415D2F81C14C3F8401551
:103B7000D2F82014C3F84415D2F82414C3F8481519
:103B8000D2F82814C3F84C15D2F82C14C3F85015E9
:103B9000D2F83014C3F85415D2F83414C3F86015B1
:103BA000D2F83814C3F86415D2F83C14C3F8681579
:103BB000D2F84014C3F86C15D2F84424C3F8702529
:103BC000FFF730FF28B13C4B3C4A1B6803F04F0322
:103BD0001360FFF727FF48B14FF08043D3F800246C
:103BE000D20744BF6FF00102C3F80024344B1B68B6
:103BF000062B08D1334B1B68062B01BF324A1368D2
:103C000043F4806313604FF01023D3F80022002A9E
:103C100003DBD3F80432002B2FDA2C4B0122C3F83C
:103C20000425D3F80024002AFBD04FF010221521E0
:103C3000C2F80012D3F80024002AFBD04FF0102362
:103C40001522C3F80422214B1A46D3F80014002988
:103C5000FBD00021C3F80415D2F80034002BFBD0B0
:103C6000BFF34F8F1A491B4BCA6802F4E06213433B
:103C7000CB60BFF34F8F00BFFDE7174B174A1A60A9
:103C800008BD00BF240300104035014074C0074048
:103C90000DF0ADBA440200103C050040F0ED00E02C
:103CA000A005004010560040E00F00F0E40F00F0C7
:103CB000E80F00F000C0004058020010E40E004081
:103CC00030010010340100103C17004000E00140BA
:103CD00000ED00E00400FA05D43600200090D00387
:103CE0002DE9F04F06793B4CF700E31985B01B79BD
:103CF0000546002B6CD144F83620481E6A4601F177
:103D000003094FF0010A4FF0A04C4FF0030B10F8DD
:103D100001EFBEF1FF0F57D02EF0800313600AFAB7
:103D200003F803F5E0731EF0800F14BFCCF808858C
:103D3000CCF80C854CF823B0484502F10402E6D1DA
:103D40002868009BC0F86035019BC0F86435029B71
:103D5000C0F86835039BC0F86C3501238A7991F867
:103D600005C0C0F800350B89C0F80CC5C0F80425A3
:103D7000C0F808354B89C0F810350023C0F8003270
:103D80004FF48E71C0F800330DF0E1FC4FF48871F0
:103D900028680DF0DCFC4FF48A7128680DF0D7FC20
:103DA0004FF4827128680DF0D2FC54F8363023B1FC
:103DB000286840F3073001F099F83C440123064895
:103DC000237105B0BDE8F08F4FF0FF331360B3E708
:103DD0000248F6E7200000200000AD0B0500AD0B07
:103DE000F0B40D461C461A490379D5F800C0AF88D7
:103DF000AE68ED6801EBC3010368C3F820C5C3F8E2
:103E00002475C3F82865C3F82C55C3F840C5C3F81A
:103E10004475C3F84865C3F84C5502F0010505EB3D
:103E20005202C3F81425E20710D414F0020203D0A2
:103E3000002D14BF08220422002DC3F80022E2B294
:103E400014BF0C230823F0BC0DF089BC1022F3E74B
:103E5000200000200379084A016802EBC3021379AD
:103E6000D1F80411DBB219B9981E18BF01207047B0
:103E700001201071704700BF200000202DE9F0479D
:103E800004794D4D2C266643AF1997F81CC0BCF140
:103E9000000F40F08E80AA517B6091F800E00F7B0C
:103EA0004FF0A046012303FA0EF3012F94BFC6F88A
:103EB0000C35C6F808350EF5E0734FF0010C46F8E6
:103EC00023C04B78FF2B1FBF0CFA03FCC6F80CC5B0
:103ED00003F5E07C4FF0030818BF46F82C808E787D
:103EE00008BF4FF0FF33FF2E1FBF06F5E07C4FF0F9
:103EF000A0494FF0040A49F82CA04FF02C0C0CFB01
:103F0000045C18BFB0468CF81F60CE7808BF4FF035
:103F1000FF38FF2E0DD04FF0A0494FF0010C0CFAE6
:103F200006FCC9F808C506F5E07C4FF0030A49F81D
:103F30002CA04FF02C0C0CFB045C8CF81E6000686D
:103F4000C0F808E5C0F80C358B68C0F81085C0F8DB
:103F500024354B7B003318BF0123022F23D0032FBE
:103F600024D0012F01D143F00203C0F854352C2393
:103F700003FB0453497983F8201012B10423C0F8DD
:103F800004330123C0F800351AB140F3073000F0C4
:103F9000ADFF2C2303FB0454002363770748012360
:103FA0002377BDE8F08743F00403DEE743F0060320
:103FB000DBE70348F5E700BF280000200000AD0B59
:103FC0000500AD0B2DE9F7430679424D2C237343D1
:103FD0009646EA180F46517F8146002978D155F858
:103FE00003C0BCF1000F01D00123537797E80F0005
:103FF0002C2404FB065404F10C0888E80F00A27F6F
:104000000023FF2A84F828301FBF012393404FF07C
:10401000A042C2F80C352C23BEF1000F07D003FBE1
:10402000065300222C485A7703B0BDE8F083D9F834
:1040300000400422C4F8082303FB0653C4F808E137
:10404000D4F80821C3F824E00092009A7A688AB173
:104050003B681B78C4F81C35012A0ED93B685B7895
:10406000C4F81C35BCF1000F10D00423C4F804338D
:104070001A48D9E793F82030ECE7FB68012BF1D917
:104080002C2303FB065393F82030E9E74FF02C086C
:1040900006FB08586746D4F80831002BFBD0C4F85B
:1040A0000871D4F80831019341462046019B0DF078
:1040B0008FFB0028EFD12C2303FB0655AA7FFF2A94
:1040C000D6D0012393404FF0A042C2F80835CFE785
:1040D0000348A9E7280000200300AD0B0000AD0B4A
:1040E0000B00AD0B13B5114B114C00221A601B686D
:1040F000019321464FF04020019B0DF069FB90B9E0
:10410000A27F0C48FF2A1FBF012393404FF0A0421B
:10411000C2F80835002363772372D4E9003102B076
:10412000BDE81040184702B010BD00BF0841004074
:1041300028000020300000202DE9FF470C460546EE
:104140001F4620463A4B03934FF4827116469DF862
:1041500030800DF071FB4FF492710DF06DFB4FF458
:104160008E710DF069FB4FF484710DF065FB002337
:10417000C4F800326B6385F82E3001232362A360FC
:104180006A6B97421DD9B35CC4F81C356B6B013365
:104190006B632B68E3B905F1340A05F12E09039B23
:1041A000002B1FDC95F82E3053BB2248039B002BBD
:1041B00015DC0023C4F800350523C4F800351E487B
:1041C0000DE0B8F1000F01D0E361E2E76361E0E7E1
:1041D00040F28623AB60AB681648C4F8043304B0E1
:1041E000BDE8F087CDE9007833465246494620467F
:1041F0000DF02AFB0028D5D0039B013B0393CEE7AB
:10420000D4F8C434C4F8C434002BCED00B4A0A48C6
:1042100013F0010F18BF104613F0020F02F1010254
:1042200018BF104613F0040F054B18BF1846BDE722
:10423000A08601000000AD0B0100AD0B0000AE0B2D
:104240000200AE0B2DE9FF470C4605461F462046EF
:10425000354B03934FF4827192460DF0EDFA4FF413
:1042600092710DF0E9FA4FF48E710DF0E5FA4FF40A
:1042700084710DF0E1FA0023012F2E686B6385F83D
:104280002E3008BF02224FF001030CBFC4F80022F9
:10429000C4F8003223622360AEB905F1340905F198
:1042A0002E08039B002B18DC95F82E301BBB1F48F3
:1042B000039B002B0EDC0023C4F800350523C4F853
:1042C00000351B4806E040F28623AB60AB68174818
:1042D000C4F8043304B0BDE8F087CDE90076534656
:1042E0004A46414620460DF0AFFA0028DCD0039B39
:1042F000013B0393D5E7D4F8C434C4F8C434002B8D
:10430000D5D00C4A0A4813F0010F18BF104613F01D
:10431000020F02F1010218BF104613F0040F064B02
:1043200018BF1846C4E700BFA08601000000AD0B0F
:104330000100AD0B0000AE0B0200AE0BF8B5067924
:104340001C4D4FF03C0C0CFB06FC05EB0C0494F8E8
:104350002D706FBB63604B7BA76084F8307084F86E
:104360002F7084F838300C6845F80C204FF0A047C7
:1043700004F5E07340F20C6C47F823C04B6800680A
:1043800003F5E07E47F82EC0C0F80845C0F80C35AC
:104390008B68C0F824351AB140F3073000F0A6FD51
:1043A0003C2303FB06550448012385F82D30F8BD56
:1043B0000248FCE7540000200000AD0B0500AD0BE7
:1043C000026803790521C2F80015044A3C2101FB6B
:1043D0000323022283F82D20704700BF54000020E1
:1043E00003680A490279C3F80813D3F8001221F0D0
:1043F0000301C3F800120021C3F80015044B3C214F
:1044000001FB0232012382F82D30704786420400FE
:10441000540000202DE9F74F2E4E90F80480D0F87C
:1044200000E02D4BCEF808333C2404FB0864C8EBB5
:10443000081994F82F308A46154606EB890903F0CF
:10444000FF0B33B1A3682548CEF8043303B0BDE8B1
:10445000F08F82F00403C3F3800384F82F302262CC
:104460008C46BCE80F0004F10C070FC7DCF80030E5
:104470003B60DAF80430A362DAF80C2062629AF842
:104480000110CEF888159AF8001001291AD0B9B990
:10449000C5F340153C2101FB0861484681F82C50CA
:1044A00000957146FFF748FE3C2303FB08F806EB36
:1044B000080256F80830002BC8D182F82F30C5E723
:1044C0000125E7E784F82CB071464846FFF7BAFEAD
:1044D000EAE700BF54000020864204000B00AD0B49
:1044E000F0B52C4C2C4894F82C3089B004F13402EF
:1044F0000193A36A0093636A04F12E010DF0A4F9FD
:104500002746E0B994F82EC0266ABCF1000F1DD1F1
:10451000217B8B1E012B19D8626AA3699A4215D19F
:10452000E26963696262C6F340160329A36284F8F4
:104530002C6006D1009618492046FFF7FDFD09B012
:10454000F0BD15492046FFF77DFEF8E7134D0FCD6E
:1045500003AC0FC42B682360BCF1000F17D00E4AC8
:10456000D2F8C434C2F8C43499070CD501238DF8AD
:104570000830002387F82F307307E0D4D7E90031E3
:1045800002A89847DBE75A07F3D50223EFE78DF837
:1045900008C0EEE75400002000300040600000201A
:1045A00001480EF07CBD00BF4C37002013B5114C04
:1045B000BFF35B8F2068BFF35B8F60B90E480BF0D1
:1045C000CDFABFF35B8F54E8003F44E80002002AB5
:1045D000F9D1BFF35B8F436804221B680DEB020126
:1045E0009847002802DA00F0A7FA0190019802B07B
:1045F00010BD00BF90000020AA5401000A2838B561
:104600000446074D04D1286843680D215B6898472C
:1046100028684368E1B25B689847204638BD00BF10
:104620009400002010B5044C204601F039FA2046D1
:10463000BDE81040FFF7ECB8FD45000008B50448A0
:104640000BF08CFA034B1860FFF7ECFF002008BD5D
:10465000B45401009400002010B54FF02003EFF394
:10466000118283F31188BFF36F8F154C237833B910
:1046700082F31188BFF36F8F6FF0440010BD013BD0
:10468000DBB2237033B182F31188BFF36F8F6FF009
:104690000F00F3E70B4B1878012138B1217082F33A
:1046A0001188BFF36F8F6FF00A00E7E7197082F38C
:1046B0001188BFF36F8F044A11601870DEE700BFE6
:1046C000281600202716002004000040F8B54FF0FF
:1046D0002002EFF3118382F31188BFF36F8F294A11
:1046E0001078441C147080B183F31188BFF36F8F6E
:1046F0004FF08043D3F80C3403F00113B3F1011FE2
:104700000CBF00206FF0430009E01F4D2F783FB130
:10471000107083F31188BFF36F8F6FF00A00F8BD3C
:1047200001262E7083F31188BFF36F8F4FF0804402
:1047300019B3384600F0EAFBC4F80071D4F804332A
:10474000C4F804632660D4F8002192B10022C4F8B2
:1047500000210E4A13F0010F4FF0010308BFC4F807
:1047600008330020C2F8803100F0C0FB00232B701A
:10477000BEE720BF40BF20BFE5E7C4F800112660B8
:10478000F4E700BF281600202716002000E100E013
:1047900070B54FF02002EFF3118382F31188BFF35D
:1047A0006F8F244D2A789AB183F31188BFF36F8FEE
:1047B0004FF08042D2F81C34D2F8182403F00303DF
:1047C00043F48033934314BF6FF04300002070BD67
:1047D00001242C7083F31188BFF36F8F4FF0804357
:1047E000154EC3F804210225C3F81815C3F8045365
:1047F00011F0030134604FF01806C3F80863C3F8E2
:104800000C21C3F81021D3D11022C3F83825C3F8E6
:104810000463D3F81824D20302D4C3F80453C7E7BF
:10482000C3F80443FFF752FF0028C1D1034BC3F87C
:104830000041BDE7261600200800004000E100E02E
:10484000F8B54FF080430546D3F808C1D3F80423E8
:10485000D3F80071D3F80403D3F80461D3F80C1132
:10486000D3F81041003402F0010218BF0124BCF15A
:10487000000F03D04FF0000CC3F808C1002F41D047
:104880004FF080430027C3F8007152B14FF08043CE
:10489000224F01224FF0020CC3F80823C7F800C0D2
:1048A0001A61EEB959B11D4B4FF0804600211960D5
:1048B0002846C6F80C11FFF7CFFE0123736174B1CF
:1048C0004FF0804300210124C3F810112846C3F89B
:1048D0000443FFF7FBFE10B9114BC3F80041F8BDCC
:1048E0004FF080430022C3F804218207DAD5022268
:1048F000C3F80823D3F81C349B07D3D10029DFD099
:104900000124D0E7002ACCD04FF08043D3F80C34F8
:1049100003F00113B3F1011FC3D1B7E7340C00401A
:1049200000E100E010B5846807480BF017F920603B
:1049300030B1064A4FF48073C4E90123002010BD52
:104940006FF01200FBE700BFCF540100D01B5000F6
:10495000F0B50B4689B00024FF25944203F104030F
:1049600017D1124B02930423CDE90331104A816819
:10497000CDE9062351F8040B02AB00930323019306
:104980004368A40005946A461C680023A04709B048
:10499000F0BD13F8036C13F8017C03F8045C03F812
:1049A000037C03F8016C0134D7E700BFD954010040
:1049B000D5540100104B002210B4C3F840214FF031
:1049C0002002EFF3118482F31188BFF36F8F0B4A3B
:1049D000D3F8040511688323401A20F07F40B0FB10
:1049E000F3F003FB0013136084F31188BFF36F8FA0
:1049F00010BC0BF0C5BF00BF00100140A800002094
:104A000037B51E480BF0AAF8002833D043681C4D78
:104A10001B680021984700248323C5F80845C5F882
:104A200040354FF48033C5F84433C5F8043303F1FF
:104A3000804303F58A534FF400321C601B680193D6
:104A4000019B104B0121C3F880211120224600F068
:104A50007FFA112000F04AFA0B4A012313602B6001
:104A6000D5F80435833323F07F43C5F8403520461D
:104A700003B030BD4FF0FF30FAE700BFBB54010078
:104A80000010014000E100E008100140194A70B533
:104A9000B0F1FF3F08BF10464FF02003EFF3118441
:104AA00083F31188BFF36F8F134D14492E68D1F82B
:104AB000043501389042A8BF10469A1B22F07F426D
:104AC000832520EAE070823205FB0020B0FBF5F080
:104AD00005FB0060C31A23F07F4323F01F0303B9D3
:104AE000284420F07F40C1F8400584F31188BFF3CB
:104AF0006F8F70BD45F40100A80000200010014038
:104B00004FF02002EFF3118382F31188BFF36F8F10
:104B1000074AD2F80405074A1268801A20F07F403D
:104B20008322B0FBF2F083F31188BFF36F8F7047DD
:104B300000100140A80000204FF02003EFF3118285
:104B400083F31188BFF36F8F0649074B0868D3F8CA
:104B5000043582F31188BFF36F8F1B1A23F07F4354
:104B600018447047A80000200010014004488168E4
:104B7000406A884203D003494FF080520A60704770
:104B80005815002004ED00E0044800232021C2183D
:104B90000133272B82F80013F9D1704700E100E0C0
:104BA000094A0A49936809689966094958664B6831
:104BB00043F080534B60002383F31188BFF36F8F62
:104BC0009368986E704700BF58150020705101001F
:104BD00000ED00E0202080F31188BFF36F8F1149B2
:104BE0008A684FF028001044EFF3098C80E8F01F2A
:104BF0000D4F4FF000664A6A8A603E60506E002397
:104C0000536680F3118804B5064880680CF0CAFE2C
:104C1000BDE8044002F1280090E8F01F8CF30988F9
:104C2000704700005815002004ED00E01EF0040F4E
:104C30000CBFEFF30880EFF30980816931F8021CA3
:104C400011F0FF010229FFD001B50CF0A0FE01BD5B
:104C500038B51C4C05461C480CF089FBA26AD106ED
:104C600002D51A480CF083FBA36A1A0702D518482C
:104C70000CF07DFB134CA36A9B070ED515480CF076
:104C800076FB616BA36A180607D513480CF06FFB1F
:104C90001DB1A36A23F08003A3620A4CA26AD20763
:104CA00002D50E480CF063FBA36A9B0602D50C48A4
:104CB0000CF05DFB034B9A6A9A6A42F0FF029A621B
:104CC000002038BD00ED00E0755501008C55010055
:104CD000C0550100D4550100ED55010004560100F6
:104CE0002456010038B51E4C05461E480CF03FFB0B
:104CF000A26AD10402D51C480CF039FBA36A1A053C
:104D000002D51A480CF033FB154CA36A9B050ED54F
:104D100017480CF02CFBA16BA36A180407D51548A3
:104D20000CF025FB1DB1A36A23F40043A3620C4CD5
:104D3000A36A590502D510480CF019FBA36ADA05DD
:104D400009D50E480CF013FB054A936A43F47F43E0
:104D50009362002038BDA36A9B04F5D50848F1E7AB
:104D600000ED00E0E7540100FE540100C0550100D1
:104D7000105501002A550100405501005C55010005
:104D80002456010010B5194C19480CF0F0FAA26A2B
:104D9000930102D517480CF0EAFAA36ADC0102D5A8
:104DA00015480CF0E4FA114CA26A100302D513481E
:104DB0000CF0DDFAA36A590302D511480CF0D7FABA
:104DC0000A4CA26A920302D50E480CF0D0FAA36AEC
:104DD000DB0302D50C480CF0CAFA044A936A6FEA66
:104DE00003436FEA13439362002010BD00ED00E01F
:104DF000545601006D560100815601009C56010079
:104E0000BB560100E1560100FC56010070B5284D6B
:104E10006B68C3F30802D11E064609293BD8DFE8B8
:104E200001F0053436293A3A3A3A3A3821480CF03A
:104E30009EFAEC6A14F0020404D01F480CF097FAB2
:104E400000241CE0EB6A5B0019D51C480CF08FFABB
:104E50001B4B1B781BB10120FFF7FAFE0CE0194B2E
:104E60001B781BB10120FFF73DFF05E0164B1B88A7
:104E70009BB223B1FFF786FF0628044617D03146C0
:104E80002046BDE8704000F0D3B80020E4E70020E1
:104E9000E9E70E48D2E713F4F87F0D4B0D490E48B1
:104EA000A2F1100218BF19460CF061FAC8E770BDF4
:104EB00000ED00E0565701006E57010090570100C9
:104EC00028ED00E029ED00E02AED00E0B0570100F8
:104ED0003D57010028570100E7570100024A536976
:104EE00043F010035361704700ED00E043B2002B24
:104EF00008DB012200F01F0002FA00F05B09024A01
:104F000042F82300704700BF00E100E043B2002BED
:104F10000DDB01225B0900F01F0002FA00F02033D4
:104F2000034A42F82300BFF34F8FBFF36F8F7047E0
:104F300000E100E04209054B00F01F0053F8222079
:104F4000012303FA00F01040704700BF00E100E0C9
:104F500043B2002BA8BF03F1604301F101014FEA06
:104F60004111AEBF03F5614300F00F00034BC9B21E
:104F7000ACBF83F800131954704700BF14ED00E074
:104F800008B572B6044B186A18B100221A620FF005
:104F9000D1FA62B608BD00BF581500202DE9F041D6
:104FA0008C18884617461E4604220A9B0999054616
:104FB0000FF0EDFCA4F120030C4923F007030022BD
:104FC00021F00101C5E91322C5E916879961069907
:104FD0005960079999600899D9604FF080711E60F7
:104FE000D961AB646A66BDE8F08100BF351001008D
:104FF000014910220A60704710ED00E0404080F344
:10500000118830BF704700BF404080F31188DFF83F
:105010001CC0DCF800C01CF4006C0CBFEFF308806F
:10502000EFF3098001B5FFF7F1FE01BD04ED00E0EB
:1050300038B504460D4605281AD8DFE800F00319F4
:10504000191315170D480CF092F90BF005FAAA691F
:1050500001460B480CF08BF929462046BDE8384044
:1050600000F018B80748EEE70748ECE70748EAE71A
:10507000014607480CF07BF9E7E700BFFB5701004A
:10508000995801001B580100415801005B5801006C
:1050900076580100052810B50CD00BF04BFA60B122
:1050A0000BF048FA0C490D4B002808BF19460C4874
:1050B0000CF05DF9FFF7A2FFFCE70BF04BFA0028BC
:1050C000EED1084C0848A1680CF051F9A068BDE881
:1050D000104000F00BB800BFD5580100D9580100AE
:1050E000EA580100581500200A59010038B5054654
:1050F0004FF02003EFF3118483F31188BFF36F8F18
:105100000FF026FC0A4B9B68AB420BD1094B5A6847
:10511000C2F3080212B92046FFF742FD5A6842F076
:1051200080525A602046BDE838400FF04ABB00BFAD
:105130005815002000ED00E001B572B60B4A106A68
:1051400000281EBF002111620FF0F4F962B6EFF3E0
:105150000580A0F110004FEAC0000549014409C9CB
:105160009847BDE80140034800470000581500205B
:10517000844C01006D4B0000202080F3118808480A
:105180004FF40061401880F30988EFF31480022186
:10519000084380F31488BFF36F8F00F007F8000016
:1051A0003825002030BFFFF7FDBF00BF08B5084B12
:1051B000084A23F07F039360BFF34F8FBFF36F8FD5
:1051C0000AF00CFD0AF014FDFFF7DEFC0AF042FDC8
:1051D0000000000000ED00E01FB5084B0193084BF4
:1051E0000293084B039301AB0093074A074B01213D
:1051F000684600F091F805B05DF804FB000000205F
:105200000000000000000B0600000020000001204C
:10521000F0B5204F00268E4201DB1046F0BD50F85D
:1052200026C0DCF8044094B35BB104F1FF3E14EAFD
:105230000E0F1AD11F2C18D9DCF800501EEA050FEA
:1052400013D1202CDCF80050DCF808C0D2B20FD902
:10525000B4F1004F0ED8013CB4FA84F4C4F11F0439
:105260006400072A4CEA040406D96FF01502D4E75B
:105270000824F6E73E24F4E725F01F05154345F022
:10528000100544F00104BA60FD6001323C61013652
:10529000C1E700BF90ED00E0034B05225A60BFF369
:1052A0004F8FBFF36F8F704790ED00E0BFF35F8FBC
:1052B000014B00225A60704790ED00E013490868E6
:1052C000082810B51ED8FFF7F1FF114C49680022DD
:1052D000904201F10C0105D10E4B1870FFF7DCFF75
:1052E000002010BDA26051F80C3C23F01F031343B3
:1052F00043F01003E36051F8043C43F001032361E1
:105300000132E5E74FF0FF30EBE700BF144F01003B
:1053100090ED00E02916002010B5034C01232278FF
:10532000FFF776FF207010BD2916002008B5084A47
:1053300000231278FFF76CFF10F1160F03D0054B16
:105340000022072800DD08BD98601A610130F8E7E7
:105350002916002090ED00E02DE9F04FCDB0CDE909
:105360000C019A4601920023049303E0049B0195EB
:1053700001330493019D15F8010B48B1252874D021
:10538000DDE90C3198470130F0D14FF0FF33049341
:1053900004984DB0BDE8F08F232C5ED053D8002C7C
:1053A000F6D0202C059B08BF01230593019DB6482C
:1053B0002B4613F8014B019321460CF005FB002806
:1053C000EAD12A2C59D15AF8043B0393002BBFBFD2
:1053D0005B42039301230B93019B1C78AB1C01934D
:1053E000039BC92B28BFC82303932E2C6BD1019B91
:1053F0001B782A2B64D1019B5AF8045B013301937B
:10540000019BC92D13F8014B0193A8BF4FF0FF3545
:1054100021469E480CF0D8FA18B1019B13F8014BB5
:105420000193672C7BDC652C80F2DB80472C4DDC04
:10543000452C80F2D680002CAAD0252C00F0FD82CD
:10544000C82C97DDA1E72D2C0AD0302C0BD02B2CAB
:105450000A9B08BF01230A93A8E74FF00109A5E7BB
:1054600001230B93A2E70294A0E7202302930023D9
:105470000593CDE90A33994699E7A4F13003092B46
:105480000390B2D80A222B4613F8010B0193A0F126
:105490003003092B0446A3D8039B019D02FB0300A4
:1054A000A0F130030393EEE700FB0535303D019298
:1054B000019A12F8013BA3F130010929F4D99FE7C1
:1054C00000250A20F4E74FF0FF35A1E7632C6ED0EA
:1054D00030DC582CB4D15AF8041BB9F1000F00F09D
:1054E000A28247F63003ADF864300DF166062B4614
:1054F000102230460CF0FCFA582C05D119AA12F8EB
:10550000013B002B40F091820DF1640BB9F1000FCB
:10551000A6EB0B0B584414BF0227002727E0702C82
:1055200000F05D8229DC6E2C00F01E8200F32182E7
:10553000692C85D15AF8044B002C43DA2D23B4F1A1
:10554000004F8DF8643042D061420DF1650B2B465F
:105550000A2258460CF0CCFA0A9B059A584453EAA2
:1055600002070DF1640BA0EB0B0000D1E70F013532
:10557000029B18BF202302937AE0752C00F04B8227
:10558000782CA8D0732C7FF45BAF5AF8041B4FF033
:10559000000911F80930002B00F02F8209F10109F0
:1055A000B9F1C80FF5D1002D80F229822EE25AF808
:1055B000043B8DF8643000238DF865304FF001090D
:1055C0000027E7E10A9B23B12B238DF864302146A5
:1055D000BBE7059B0BB12023F7E721460DF1640BD8
:1055E000B5E70AF1070A2AF007039A4659685AF8FC
:1055F000080BCB0243EA5053C20223F00043069249
:105600000793DDE90623C1F30A58CDE914230B46BD
:1056100040F2FF718845024645D10028DDE90612B7
:1056200073F10003BBBF2D238DF8643019AB0DF16E
:1056300065030A43A4F1410403F1030028D1192CA6
:105640001BD849221A704E225A7046229A700DF1C8
:10565000640B0022DA70A0EB0B000A9B059A53EA58
:10566000020705D19DF86470A7F12D035F425F41E9
:10567000C8283FF78AAE81468CE169221A706E22F3
:105680005A706622E2E700BF2F5901003559010028
:10569000192C99BF4E2241216E22612194BF1A70AC
:1056A0001A705970D2E70699079E48EA01014046F0
:1056B0000E91C11731430F91DDE90E01462C08BF51
:1056C000662401433ED00698002A46F0004173F15B
:1056D0000003A8F2FE38CDE9140135DA2D238DF848
:1056E00064300DF16507002618F1020F39DBB8F1BF
:1056F000000F66DC14A808F101080CF020FAB8F1DC
:10570000040FF7D1002D24F02003B8BF0625472B46
:105710007BD1B9F1000F75D115F1000818BF4FF01A
:105720000108F21C02DB6B1C9E4272DD672C0CBF71
:105730006524452405F1010B10239B451393A8BF55
:105740009B466EE04FF000080A9B0BB12B23C6E787
:10575000059B0BB12023C2E719AFC4E714A80CF0D6
:10576000EEF9DDE914EC0023CDF820C00993DDE962
:105770000823B7480021994208BF904208F1010868
:10578000ECD30520AEFB002300FB0C33CDE9142342
:10579000013E4FF0000E6FF0004B4FF0000C002167
:1057A0008C4508BF9B4505D2BEF1000F9CD0CDE9CA
:1057B000142399E792185B4108F1FF384FF0010E6E
:1057C000EDE714A80CF0CDF9DDE9141008F1FF386D
:1057D00001364FF0000E00234FF0000C6FF0004B2D
:1057E0009C4508BF834506D2BEF1000F3FF47FAF52
:1057F000CDE914107BE74918404108F1FF384FF01C
:10580000010EE8E74FF000088BE7662C4FF0000828
:1058100090D116EB050B40D51023139366244FF05F
:10582000000B00224FF00063CDE916231BF1FF3B74
:1058300035D2149B169A17999B18159A41EB0202C0
:10584000CDE9143202F07043109300231193DDE987
:105850001023134306D014A80CF083F914A80CF0FD
:105860006EF90136662C07F1010B35D1002E1DDDD6
:1058700007EB060B13A914A80CF09FF907F8010B0E
:10588000BB45F7D1002659EA050903D02E230BF8B2
:10589000013BA946D944302511E066244CE716A8FF
:1058A0000CF05FF916A80CF04AF9BFE730233B7003
:1058B000E9E70BF1010B46B10BF8015C0136D94564
:1058C000F7D1B8F1000F48D024E013A914A80CF0C8
:1058D00074F90BF8010CF2E713A914A80CF06DF998
:1058E000302818BF06F1FF3659EA0509387004D090
:1058F0002E2307F1020B7B70A946D94405E013A9BA
:1059000014A80CF05AF90BF8010BD945F7D1B8F1EE
:10591000000F07D05B461BF8012D302AFAD02E2A43
:1059200018BF9B4624F02003452B16D1002EBABF8A
:1059300076422D232B230A228BF8013096FBF2F3BB
:1059400002FB136603F1300130368BF800408BF810
:1059500002108BF803600BF1040B002319A88BF8DD
:105960000030ABEB000078E65AF8043B049A1A606A
:1059700000E55AF8041BB9F1000F20D030238DF850
:10598000643049BB0135029B8DF8651018BF202398
:105990000F460293039B4B457FDD0B9B19AC002BFD
:1059A00058D02023039A04F8093009F101094A4527
:1059B000F8D1DDE90332134419AC1D4669E00DF15D
:1059C000640B58462B4608220CF092F819AEABEB4C
:1059D000060B58440027CAE50DF1650BF1E747F6C1
:1059E0003003ADF86430102208235AF8041B0DF17F
:1059F00066000CF07DF80230ECE7002D02DBA945D3
:105A0000A8BFA946B9F1000F3FF4B4AC4A4619A8A3
:105A10000CF022F8D4E52B460A225AF8041B19A8E8
:105A20000CF066F8D6E719AE61E5A3F1610119291A
:105A30009CBF203B02F8013C61E50D990C9B204680
:105A4000984701303FF4A1AC049B01338CE400BFC4
:105A500032333333039BA3EB0905601909F10102CB
:105A600021460BF0E2FF029B202B08BF00273D449C
:105A7000AF429EDA029B3B550137F9E70D9914F8C6
:105A8000010B0C9B984701303FF47FAC049B013322
:105A90000493049BAB42F1D16CE4CDF80C9088E701
:105AA000014B1860704700BF58370020022902D10F
:105AB000024B1B6818474FF0FF30704758370020E3
:105AC0000FB407B504AB022153F8042B044801932B
:105AD000FFF742FC03B05DF804EB04B0704700BF71
