:020000040800F2
:10000000700600205D10000847230008E90F000873
:10001000E90F0008E90F0008E90F0008E90F0008E0
:10002000E90F0008E90F0008E90F0008F90E0008C1
:10003000E90F0008E90F0008B10E0008E10C000804
:10004000351000083510000835100008351000087C
:10005000351000083510000835100008351000086C
:10006000351000083510000835100008351000085C
:10007000351000083510000835100008351000084C
:10008000351000083510000835100008351000083C
:10009000351000083510000835100008351000082C
:1000A000351000083510000835100008351000081C
:1000B000351000083510000835100008351000080C
:1000C00035100008351000083510000835100008FC
:1000D00035100008351000083510000835100008EC
:1000E00035100008351000083510000835100008DC
:1000F00035100008351000083510000835100008CC
:1001000035100008351000083510000835100008BB
:1001100035100008351000083510000835100008AB
:10012000351000083510000835100008351000089B
:10013000351000083510000835100008351000088B
:10014000351000083510000835100008351000087B
:10015000351000083510000835100008351000086B
:10016000351000083510000835100008351000085B
:10017000351000083510000835100008351000084B
:04018000351000082E
:1001840053B94AB9002908BF00281CBF4FF0FF31FA
:100194004FF0FF3000F072B9ADF1080C6DE904CEF8
:1001A40000F006F8DDF804E0DDE9022304B070474E
:1001B4002DE9F04F8C460E460446099D002B40F075
:1001C40083808A42174646D9B2FA82F24AB1C2F112
:1001D400200106FA02F320FA01F1974041EA030CE8
:1001E40094404FEA174EBCFBFEF61FFA87F80EFB4D
:1001F40016C306FB08F0210C41EA0343984209D9CF
:10020400FB1806F1FF3180F01881984240F2158105
:10021400023E3B441B1AB3FBFEF00EFB103300FB03
:1002240008F1A4B244EA0344A14209D93C1900F1FB
:10023400FF3380F00481A14240F2018102383C4442
:10024400641A002140EA06401DB10023D440C5E9E8
:100254000043BDE8F08F02B9FFDEB2FA82F2002A51
:1002640050D1CE1B01214FEA17481FFA87F9B6FB7C
:10027400F8FE08FB1E6609FB0EF34FEA144C4CEA29
:100284000646B34207D9BE190EF1FF3002D2B3427B
:1002940000F2ED808646F61AB6FBF8F008FB10660D
:1002A40009FB00F9A4B244EA0644A14507D93C1964
:1002B40000F1FF3302D2A14500F2D4801846A4EB2A
:1002C400090440EA0E40BFE78B4208D9002D00F034
:1002D400B1800021C5E900060846BDE8F08FB3FAF5
:1002E40083F100294BD1B34202D3824200F2BD8094
:1002F400841A66EB030301209C46002DA9D0C5E9AE
:10030400004CA6E79740C2F12003D9404FEA1748B2
:10031400B1FBF8F01FFA87F908FB101124FA03F374
:10032400964000FB09FC33431E0C46EA0146B445E3
:1003340004FA02F409D9BE1900F1FF3180F090806B
:10034400B44540F28D8002383E44A6EB0C06B6FB61
:10035400F8F108FB116C01FB09FE9EB246EA0C465B
:10036400B64507D9BE1901F1FF3375D2B64573D925
:1003740002393E44A6EB0E0641EA004177E7C1F19B
:10038400200703FA01F422FA07F31C4326FA07FABA
:100394004FEA144CBAFBFCFE1FFA84F80CFB1EABAC
:1003A4008E400EFB08FA20FA07F949EA06094FEADB
:1003B400194646EA0B46B24502FA01F200FA01F385
:1003C40008D9A6190EF1FF3048D2B24546D9AEF18C
:1003D400020E2644A6EB0A06B6FBFCF00CFB106CDE
:1003E40000FB08FA1FFA89F646EA0C46B24507D91B
:1003F400A61900F1FF3C2DD2B2452BD90238264470
:1004040040EA0E40A0FB0289A6EB0A064E45C4460C
:10041400CE4618D315D075B3B3EB0C0266EB0E06BB
:1004240006FA07F722FA01F3CE401F430021C5E97B
:1004340000760EE7294628460BE70E46EAE61846FC
:10044400FEE64345E7D2B8EB020C69EB040401383D
:10045400A646E0E76046D3E719468BE78646B9E748
:10046400084672E702383C4429E7084645E7AEF1FE
:10047400020E3E440FE72946EBE600BF704700BF7B
:1004840070B5164801F054F9044610B38568436802
:100494004FF4D05200211B689847002818D12B68CC
:1004A40023F001032B600125A36885F001061B6876
:1004B40013F0010F18BFF5B265B16368DB68012161
:1004C40020469847F5B24FF47A7001F0A9FCEBE7A7
:1004D400E9DA70BD63681B69F1E700BFCE2E00083E
:1004E4000B6801330B60014B1B681847700F002029
:1004F4002DE9F04F85B00E9C9B46012CB8BF01241A
:10050400012B0CBF30232023154606468A460127BB
:100514004FF00A080022DFF870900293B5FBF9F35C
:1005240001930AB9A9451ED8019B514603F1300035
:10053400B04701220137019B08F1FF3809FB13552D
:100544000A23B8F1010FB9FBF3F9E7D1514605F1DC
:100554003000B047BBF1030F02D1E41B002C0EDCCA
:1005640005B0BDE8F08F4445E5DBBBF1020FE2D8EE
:100574005146029803920137B047039ADBE751468C
:100584002020B047013CE9E700CA9A3B014B1860C0
:10059400704700BF700F00202DE9F04F002705467B
:1005A4008B464FF0FF39B8461C468DB0531E03935B
:1005B400002605E06EB9252800F071815946A84748
:1005C400039B13F8010F03930028F3D10DB0BDE88A
:1005D400F08F7A280AD8622810D8302854D045D809
:1005E400252800F05A812D2800F05F8159462520E6
:1005F400A8475946039B1878A847D9E7A0F1630395
:10060400172BF3D801A252F823F000BF9708000873
:10061400DB060008F1050008F1050008F1050008F3
:10062400BD060008DB060008F1050008F105000816
:10063400BD060008F1050008F1050008F1050008F1
:100644007D070008F1050008F105000867080008A7
:10065400F10500084B070008F1050008F105000842
:1006640079060008F1050008BD06000839281AD9E2
:100674005828BBD1039B1B78702B40F0888054F81A
:10068400043B0022069390E0B9F1000F0EDAB8F1B2
:10069400000F00F00D81A0F13009B8F1000F08BF80
:1006A4004FF002088CE7B9F1000FF4DB0A2303FBD7
:1006B4000909A9F13009F0E7682803D1682F06D1A8
:1006C40048277DE76C2802D16C2F00F0F480002FBE
:1006D4008CD1074674E77A2F02D154F8046B21E0D9
:1006E4006C2FFAD04C2FF8D1073424F00704F4E827
:1006F4000223CDE90423049B4FF0FF3013F10041A2
:10070400059B089143F1000109910021DDE90823CB
:10071400994208BF904204D25946284601F06AFD26
:1007240046E7049E002E05DA59462D20A847764256
:1007340009F1FF3943463246CDF800905946284620
:10074400FFF7D6FE34E77A2F02D154F8042B0FE0DA
:100754006C2FFAD04C2FF8D100214FF0FF30073422
:1007640024F00704F4E80223994208BF9042D3D34B
:100774004346CDF80090E1E759463020A847594652
:100784007820A8474FF008094FF0010872E76C2F52
:100794003FF475AF4C2F7FF472AFE31D23F00703D2
:1007A4001C4654F8082B06925A68002110234FF077
:1007B400400A04910791AAF1040A0699CAF1200E8D
:1007C400AAF1200C21FA0AF002FA0EFE40EA0E0009
:1007D40022FA0CFC40EA0C0010F00F0007D1079934
:1007E40011B9BAF1000F25D14FF0300C05E00928FA
:1007F4008CBF4FF0570C4FF0300C6044594640B258
:100804000A920793A847049B0A9A01330493079B0F
:10081400BAF1000F23D1B8F1030F7FF4C9AE049BE2
:10082400C3EB4906002E7FF7C3AE59462020A847E4
:10083400013EF7E7591E99450A9107DBB8F1010F0C
:1008440006D1594630200B92A8470B9A0A9BB2E76F
:10085400B8F1020FFAD1594620200B92F4E707961B
:10086400A9E754F8046BB24653461AF8010B68B969
:10087400B8F1030F21D19E1BA9EB0606002E7FF7CA
:1008840097AE59462020A847013EF7E75946A847A6
:10089400EAE7594654F8040BAEE65946ACE6374647
:1008A400B0464FF0FF3901268AE64FF0030887E689
:1008B4004FF0010884E64C2782E6064680E600BF36
:1008C40007B50B46002102460191034801A9FFF731
:1008D40063FE03B05DF804FBE50400084FF010026A
:1008E400EFF3118382F31188BFF36F8F83F31188C1
:1008F400BFF36F8F024B034A00201A60704700BF9A
:100904009C0F00200024F4000A2838B50446074D43
:1009140004D1286843680D215B68984728684368B8
:10092400E1B25B689847204638BD00BF080000204C
:1009340010B5044C204600F09DFC2046BDE8104054
:10094400FFF724BE0D09000808B5044800F0F0FEC6
:10095400034B1860FFF7ECFF002008BDD42E0008FD
:10096400080000202DE9F84304460D464FF0010825
:1009740096680B4F06F10409AC4201DBBDE8F8832D
:100984007A6908FA04F333EA020207D17B6156F864
:1009940034301BB1204659F8341098470134EBE742
:1009A400003C01400123044A834011680B43136057
:1009B400024B185600F0AEBA003C0140E62E000887
:1009C4001F2807DC0122044902FA00F00B6823EA1D
:1009D40000000860704700BF003C014003290FD8A5
:1009E400DFE801F0020F17230122154B02FA00F091
:1009F400996821EA00019960DA6822EA0000D86067
:100A04007047012303FA00F00D4B9A6802439A6081
:100A1400F2E7012303FA00F0094BDA680243DA60D3
:100A24009A6822EA000098607047012303FA00F0F4
:100A3400034B9A6802439A60DA681043DFE700BF09
:100A4400003C01400346074830B5846854F833003D
:100A540004EBC30518B944F833106A6030BD6FF075
:100A64000F00FBE7D80F0020044B9A68002302EB29
:100A7400C00142F830304B60704700BFD80F0020EF
:100A84000B6884B0032B2DD8DFE803F0020E182284
:100A9400164A4B68116B19431163126B1340009390
:100AA400009B002004B07047104A4B68516B1943F7
:100AB4005163526B13400193019BF2E70B4A4B685D
:100AC400116C19431164126C13400293029BE8E702
:100AD400064A4B68516C19435164526C134003939A
:100AE400039BDEE76FF02200DCE700BF0038024022
:100AF4000B68032B20D8DFE803F0020A1118104A10
:100B04004968136B23EA01031363002070470C4AFE
:100B14004968536B23EA01035363F6E7084A4968BB
:100B2400136C23EA01031364EFE7054A4968536C25
:100B340023EA01035364E8E76FF02200704700BF23
:100B4400003802400968084B02291B6805D005D902
:100B5400032906D06FF0220070479B080020136021
:100B640070475B08FAE700BF9C0F002000214FF498
:100B7400A05330B587B0CDE900134FF4004302937E
:100B840000F038F803A801F0CCFB184B1A68900762
:100B940006D41A6842F001021A601A689207FCD55A
:100BA400124CA36823F00303A360A36823F0F003AB
:100BB400A360A56815F00C05FBD12368012123F07F
:100BC40080732360636803AA23F0706343F0A06317
:100BD400636007486B4600F053FD236823F001036C
:100BE400236001F0A5FB284607B030BD0038024061
:100BF40000127A00064B82B01A6C42F080521A64DA
:100C04001B6C03F080530193019B02B0704700BF3B
:100C14000038024073B5044606090D46104612B961
:100C2400114800F085FD00230093104B53F8263043
:100C34000193013302D16FF0040012E04368694666
:100C44001B6898470028F6D12011800200F18040EB
:100C54002A4605F00F0304F00F0100F5003001F0FF
:100C640056FC02B070BD00BFFD2E0008482D0008E0
:100C7400F8B504460D46094800F05AFD002607461B
:100C8400AE4204F1080400D1F8BD3A4654F8041CFD
:100C940014F8080CFFF7BEFF0136F1E7FD2E00083B
:100CA4000B4B10B59A681968986811F4803F094B8A
:100CB400094901D1824205D21A680C6822441A609B
:100CC400034A12681B680A681344181A10BD00BF4F
:100CD40010E000E0D0000020CC00002008B5FFF7B1
:100CE400DFFF0C4B0C4A186811680844106000229E
:100CF4001A6042F6E063094A1168401AB0FBF3F047
:100D040003FB0013136001F0ABF9BDE8084000F0E9
:100D1400A5B800BFD0000020C8000020C4000020F7
:100D24001022094B002083F8232042F6DF62074B90
:100D34001A60074B1860074B5A6098601A6842F0B3
:100D440007021A60704700BF00ED00E0CC000020ED
:100D5400D000002010E000E070B504462A4D51B1E7
:100D6400431C0ED1294A136823F0010313604FF08A
:100D74007F432B6070BD40F27553B0F1FF3F08BF55
:100D84001C464FF01003EFF3118683F31188BFF371
:100D94006F8FFFF785FF1E4B1A68104400221860FE
:100DA4001C4B1A601C4B1B68C21A0DD54FF4806390
:100DB4002B602B68154A013B53600023936086F334
:100DC4001188BFF36F8FD5E740F27551013C24EAD7
:100DD400E4748C42A8BF0C4642F6E06102F53B5233
:100DE4001F3201FB0424B4FBF1F4181A01FB0404C0
:100DF400B4F5806F04D9094B9C42D9D82C60D8E74C
:100E04004FF48064FAE700BFCC00002010E000E05B
:100E1400C8000020D0000020C400002060CCFF00E7
:100E240010B54FF01003EFF3118483F31188BFF36F
:100E34006F8FFFF735FF074B074A1B6812689B1A31
:100E4400034484F31188BFF36F8F42F6E060B3FB71
:100E5400F0F010BDC8000020C400002004488168E0
:100E6400006A884203D003494FF080520A607047F9
:100E74002C02002004ED00E0094A0A49936809683D
:100E8400D865196608494B6843F080534B600023CA
:100E940083F31188BFF36F8F9368186E704700BF98
:100EA4002C020020C42E000800ED00E00F498A68DF
:100EB4004FF028001044EFF3098C80E8F01F102055
:100EC40080F31188BFF36F8F094F4FF000660A6AF1
:100ED4008A603E60D06D0023D36580F3118802F1EF
:100EE400280090E8F01F8CF3098870472C0200203A
:100EF40004ED00E01EF0040F0CBFEFF30880EFF3E5
:100F04000980816911F8021C0229FFD001B501F0A2
:100F140014FA01BD43B2002B08DB012200F01F00CC
:100F240002FA00F0024A5B0942F82300704700BF4E
:100F340000E100E043B2002B01F10101ACBF03F179
:100F44006043064B4FEA0111C9B2ABBF03F56143DD
:100F540000F00F0083F800131954704714ED00E0FB
:100F640073B51E460A9B05460093099B8C1801F035
:100F7400CBFC0B4BA4F1200222F0070223F0010367
:100F84009361069B16605360079B9360089BD36034
:100F94004FF08073D3610023AA64EB6502B070BD87
:100FA4002F2200081144084A21F0070190601846D6
:100FB40081F30988002163B681F31188BFF36F8F31
:100FC4000022002301F031F92C02002001491022F3
:100FD4000A60704710ED00E0404080F3118830BF94
:100FE400704700BFEFF30880EFF30981724601B543
:100FF40000F092F801BD00BF30BFFFF7FDBF00BF96
:1010040008B5094B094A23F0604323F07F0393603A
:10101400BFF34F8FBFF36F8F00F0B0FB00F0B8FB4E
:1010240000F0F6F800F0F2FB0000000800ED00E02C
:1010340001B5EFF30580A0F110004FEAC0000449A8
:10104400014409C99847BDE8014002490847000026
:10105400E0290008610E0008102080F31188084878
:101064004FF40061401880F30988EFF314800221E3
:10107400084380F31488BFF36F8FFFF7C1FF0000AC
:10108400700700200C4B9A6A9A6A9A6A920708D5EC
:101094005A6B9A6A120604D518B19A6A22F0800231
:1010A4009A620020044B9A6A9A6A9A6A42F0FF0292
:1010B4009A620870704700BF00ED00E00C4B9A6A1A
:1010C4009A6A9A6A920508D59A6B9A6A120404D5A8
:1010D40018B19A6A22F400429A620020044B9A6A78
:1010E4009A6A9A6A42F47F429A620870704700BF13
:1010F40000ED00E0074B00209A6A9A6A9A6A9A6A9D
:101104009A6A9A6A9A6A6FEA02426FEA12429A6289
:10111400704700BF00ED00E070B5364B0E465B68CB
:1011240000258AB0C3F3080385F31188BFF36F8FDA
:1011340002F07F41B1F17F4F11D102F00C01082977
:101144000DD0110701D4064601250022033B8DF87A
:101154000720032B47D8DFE803F0043E423B2E462A
:10116400F3E7244BDA6A92073DD4DC6A14F0804436
:1011740008D028331B78EBB101200DF10701FFF7EC
:1011840081FF04469DF8073093B92022314602A816
:1011940001F0EAF8099B45B3C3F3080222B96FEAE8
:1011A40053236FEA43230993204602A901F0C3F8AD
:1011B4000AB070BD104B1B782BB101200DF1070153
:1011C400FFF77CFFDDE70D4B188884B2002CD9D0E3
:1011D400FFF790FFD5E700200DF10701CFE70020CE
:1011E4000DF10701ECE70024CCE723F4FF7323F0AF
:1011F4000103D8E700ED00E029ED00E02AED00E06E
:10120400024A536943F010035361704700ED00E054
:10121400002310210348C2180133512B82F8001314
:10122400F9D1704700E100E038B504464FF01003EF
:10123400EFF3118583F31188BFF36F8F00F00CFD7A
:101244000A4B9B68A3420BD1094B5A68C2F30802AC
:1012540012B92846FFF710FE5A6842F080525A60CD
:101264002846BDE8384001F0E4BA00BF2C02002053
:1012740000ED00E0014B1860704700BF880F0020AC
:1012840008B504210248FFF7F3FC002008BD00BFA5
:10129400742D00082DE9F3411E460368B2F5005F82
:1012A4000C46D3F8088087682BD101F0030304337C
:1012B4009A000F23934043EA9103DAB23E49023283
:1012C40051F82220190C02EA134391FAA1F2B2FA5E
:1012D40082F2D340D8F808209A4210D12046FFF772
:1012E4006FFB2046FFF7C0FB20460021FFF776FB8B
:1012F400012303FA04F47B6823EA04037B600025DA
:101304004BE0B2F5804F50D002462C492046FFF7FF
:1013140099FB054600284BD1012303FA04F27B68AC
:1013240013437B60D8F80870254800F001FA6A4638
:101334000346244903C982E8030059681846D1F8D2
:1013440000801146C04704F0030104318B000F21D3
:10135400994041EA9401CAB2920002F1804202F536
:101364009C3290680B0C20EA114193FAA3F3B3FA70
:1013740083F39F400F43B6F5802F976011D0B6F5E5
:10138400C02F10D0B6F5003F14BF00210221204623
:10139400FFF724FB2046FFF705FB284602B0BDE813
:1013A400F0810121F3E70321F1E76FF02205F4E76F
:1013B4006FF00F05F1E700BF003801400F2400086B
:1013C400FD2E0008402D0008036810B59C680648EF
:1013D40000F0AEF9436804F10C011B68984700283B
:1013E40018BF6FF0040010BDFD2E00082DE9F8436E
:1013F40003680A799B68012A0D4686681C6876D0C2
:10140400022A0CBF4FF48061002195F8058095F8FD
:101414000690B8F1020F98BF384BEF7994BF33F8B8
:1014240018E04FF4005EB9F1040F0CBF4FF4805381
:101434000023033A012F14BF4FF0000C4FF4407CFB
:10144400012A57D918F0FD0F54D0B9F1020F51D920
:1014540087B12B4A94420BD0A2F54C42944207D058
:1014640002F58062944203D002F54C42944241D189
:10147400012F3FD1E26822F40052E260E26802F4F4
:10148400C06291421FBFE76827F4C0670F43E7605B
:10149400226902F4405296451FBF216921F440514C
:1014A40041EA0E012161E268296802F48052934204
:1014B4001FBFE26822F480521A43E260636903F4B6
:1014C40040739C451FBF636923F4407343EA0C03D4
:1014D40063613368994203D001F020F92B683360CB
:1014E4000020E36843F40053E360BDE8F8834FF45D
:1014F400C0618AE76FF02200F7E700BFC82E00083A
:101504000010014003682DE9F041D3F80880054636
:101514004646876856F8084B184800F009F94368AE
:1015240031461B6878609847064620BBE36823F47D
:101534000053E360E36843F00C03E360E36823F4DF
:10154400B053E360236923F44053236198F81030C7
:1015540033B12B689B681A68536943F44073536131
:101564002846396801F0DAF8E36843F40053E3608D
:101574003046BDE8F0816FF00406F9E7FD2E00085F
:10158400054B1A681B6802F0007203F000631343F2
:1015940014BF012000207047003802400D4B9842D0
:1015A40014D80D4B984213D80C4B984294BF00208A
:1015B40001200B4A136823F00F03034313601368DD
:1015C40003F00F03181A18BF012070470320F0E737
:1015D4000220EEE7804A5D050087930380C3C901BA
:1015E400003C024038B50B68224AC3F30313D35CB2
:1015F400214D20FA03F42B68A34227D31F4B1A680A
:1016040042F080721A601A689201FCD59A680868E0
:1016140022F0F00202439A609A6822F0030242F038
:1016240002029A60154B9A6802F00C02082AFAD159
:101634009A68486822F4E05202439A609A6889687A
:1016440022F460420A4300209A6005E074B1204607
:10165400FFF7A4FF0028D1D02B68A34203D93CB1E3
:101664002046FFF79BFF00B92C6038BD0120F3E74B
:101674000120FAE7472F00089C0F002000380240A1
:10168400F8B50D46044616461946FFF779FF0028BB
:1016940031D13368776803F03F00B4FBF0F4B668E7
:1016A400C7F308004443300C01304000B4FBF0F0B1
:1016B400124C226892030FD42268012D0CBF42F40D
:1016C400802222F480222260226842F48032226046
:1016D4000A4C22689203FCD5084C094A65682A40E2
:1016E40042EA87121A43324342F480026260BDE840
:1016F400F840FFF777BF0120F8BD00BF0038024073
:101704000080BCFF70B50026084B53F82040013020
:1017140053F82050A54200D870BD236820465B686A
:10172400984700B166600C34F4E700BFB02E00089F
:10173400104B70B505461E460F4C9C4204D10E4C0E
:10174400B44209D1002412E062681AB12268126816
:10175400AA420CD00C34F0E763680BB90C34EFE701
:1017640023682846196800F0F3FD0028F6D12046C6
:1017740070BD00BF80100020A80F00200248034A5B
:101784000021121A00F01BBE000000206C02002091
:1017940008B50648064A0749121A00F0E5FDBDE8F7
:1017A4000840054A0549064800F0DEBD700F0020D8
:1017B40094100020A82F000800000000A82F0008A3
:1017C40000000020012208B50B4B02201A70FFF71D
:1017D40099FF0A4A0A490B4800F01AFD0320FFF753
:1017E40091FF00F079FBFEF74BFE074A137B23F0D1
:1017F4000103137308BD00BF680200209A2F00087C
:10180400572F0008742F0008C801002080B5364BFC
:10181400A0B083F30888354D00246B694FF00108AC
:1018240043F400736B61F02385F82230EC772C7657
:101834006C76AC766B6A2E4E43F4E0236B62FFF752
:10184400DFFCFFF7C3FB4FF0FF33AB62EB6207AB88
:1018540064222146184600F0B2FDB06020468DF89F
:101864002980FFF74FFF4046224DFFF74BFFDFF87B
:101874009CA000F07BFADFF898901F4B4FF4806235
:1018840049462846CDE90483CDE902445346CDE9CF
:101894000044356200F0E8FA6B7B284623F0040329
:1018A4006B7300F0E6FF154B154FCDE904830F234E
:1018B4004FF480723846CDE902431249124BCDE908
:1018C400004400F0D1FA7B7B4FF4806223F00403E0
:1018D4007B7306F11803C6E9063349465346284686
:1018E400F760FFF75FFB00BF700F002000ED00E022
:1018F4002C020020C80100209B2F0008A02F000804
:101904006401002070060020AD290008C9170008F2
:101914007002002010B5084C23685BB1FFF780FA11
:1019240003462068054A03440021BDE810401361C2
:1019340001F01CB810BD00BF600200202C02002082
:1019440010B54FF01003EFF3118483F31188BFF344
:101954006F8F0022074B1A610A235843064B186005
:10196400064B1960FFF7D6FF84F31188BFF36F8F1E
:1019740010BD00BF2C020020600200205C02002089
:101984004FF01003EFF3118183F31188BFF36F8FCE
:10199400044B9A68D37B013BD37381F31188BFF363
:1019A4006F8F70472C020020094B03F124028242FE
:1019B40005D19B688B4202D14B7BDB0606D1D1E972
:1019C400003213605A600023C1E90033704700BF3E
:1019D4002C02002070B5104C064604F1240000F0DF
:1019E4003EFF0546A368597B880644BF41F00801C1
:1019F400597305B9E5684EB95A7BD20606D1AA696E
:101A040022B9DA897F2A01D9236270BDAB4201D0A1
:101A1400FFF780FF2562F8E72C02002010B54FF095
:101A24001003EFF3118483F31188BFF36F8F084B16
:101A340000209A68D37B0133D373FFF7CBFF84F381
:101A44001188BFF36F8FBDE8104000F0FEBE00BFE9
:101A54002C02002070B4437BDB062AD1836943BB8C
:101A6400154A114651F8244F8C4218BF2346002BC7
:101A740038BF0023946AB3B190F90E6093F90E5005
:101A8400AE4203DBA3420ED01B68F4E75A68C0E9F8
:101A9400003210605860437B63F07F03437370BC73
:101AA4000020FFF797BFC0E90014936A18609062A2
:101AB400F1E770BC704700BF2C02002010B54FF056
:101AC4001002EFF3118482F31188BFF36F8F427B0E
:101AD400510704D484F31188BFF36F8F10BD22F033
:101AE40004024273FFF7B6FF2146BDE810400148E7
:101AF40000F094BE690200200146F8B54FF01003CF
:101B0400EFF3118483F31188BFF36F8F90F90D30D5
:101B1400002B02DA1948FFF747FF194A104650F81C
:101B2400243F956A834208BF0023002B38BF00235B
:101B3400EBB191F90E7093F90E60B74203DB9D424D
:101B440015D01B68F4E75868C1E90030016059609A
:101B54004B7B906863F07F034B73431A58425841A0
:101B6400FFF738FF84F31188BFF36F8FF8BDC1E925
:101B74000005936A19609162EAE700BF50020020F1
:101B84002C02002038B5154A154B14680146986894
:101B9400A0421C4603D1BDE83840FFF7BBBE002578
:101BA4001560104A1268B2B1C2897F2A13D80E4A4E
:101BB40090F90E50126895420DDB0C4A90420AD0FF
:101BC400826942B91A698A4202DCFFF795FFE2E7AB
:101BD400521A1A6138BD00232361FBE75802002022
:101BE4002C020020600200205C020020640100201E
:101BF40070B50446183000F093FE4FF01003EFF375
:101C0400118683F31188BFF36F8F94F90D30002B85
:101C140007DA21460E48FFF7C7FE637B03F07F0314
:101C240063730C4D637BA86843F010036373031B59
:101C340058425841FFF7CEFE86F31188BFF36F8FE9
:101C4400AB68A34203D1BDE8704000F0FEBD70BD97
:101C5400500200202C02002038B5036D044603B165
:101C6400984704F1180000F05BFE4FF01003EFF307
:101C7400118583F31188BFF36F8F637BD8061BD163
:101C8400A269CAB9190607D521461248FFF78CFE86
:101C9400637B03F07F0363730F4B9868021B50420E
:101CA4005041FFF797FE637B43F00803637385F3AA
:101CB4001188BFF36F8F38BD9B07F4D52146A06808
:101CC400FFF772FE637B23F0020363730023A360B8
:101CD400E9E700BF500200202C02002008B590F96B
:101CE4000D300146002B06DA0748FFF75DFE4B7BFB
:101CF40003F07F034B73054B9868431A58425841CD
:101D0400BDE80840FFF766BE500200202C02002008
:101D1400F8B5451C00F044FE2C184FF01003EFF307
:101D2400118783F31188BFF36F8F0D4E0D4BB0688D
:101D3400186000F0D9FDB0680B492A46183000F04D
:101D44004DF9B2683846537B43F010035373FFF7E1
:101D540093F800F025FE201A20EAE070F8BD00BFD9
:101D64002C02002058020020972800080021044B70
:101D7400084603F12402C3E90922FFF7E1BD00BFCD
:101D84002C020020F8B5244C244BA2689A4230D08F
:101D94004FF01003EFF3118583F31188BFF36F8FB6
:101DA400A16804F12400FFF7FFFD636AA26883427F
:101DB40008BF0023002B38BF0023A16A2BB392F97C
:101DC4000E7093F90E60B74203DB8B421DD01B6883
:101DD400F4E75968C2E900310A605A60537B012074
:101DE40063F07F035373FFF7F5FD85F31188BFF3A9
:101DF4006F8F4FF01003EFF3118083F31188BFF35B
:101E04006F8FBDE8F840FFF737B8C2E90001A36A55
:101E14001A60A262E2E700BF2C02002064010020E5
:101E2400431C10B5044605D10B4B986800F034F8F8
:101E3400204610BD0A20444309D1FFF7A3FF2046E2
:101E4400E1170A220023FEF79BF90446F0E7204637
:101E5400FFF75EFF0446F2E72C020020014B98686E
:101E6400704700BF2C02002030B587B00E9D044699
:101E740004950D9D03950C9D02950B9D01950A9D5E
:101E84000095FFF76DF8034B9B6803B19B6DA36549
:101E940007B030BD2C02002038B504464FF01003C3
:101EA400EFF3118583F31188BFF36F8FFFF7A0FE63
:101EB400074B9B68A34205D12946BDE83840054835
:101EC40000F0ACBC85F31188BFF36F8F38BD00BF41
:101ED4002C02002069020020F0B5204E204D374628
:101EE40087B0B54205F130040BD3FFF749FD0A254D
:101EF4001B4C1C4EBC4221D307B0BDE8F040FFF799
:101F04008DBD54F8043C059354F8103C049354F8E4
:101F1400143C039354F8183C029354F81C3C01936A
:101F240054F8203C009354E90A2354E90C01FFF7C8
:101F34009BFF54F8303CDD642546D2E7626A531CAB
:101F440003D020681AB9FFF7B9FD3034D2E76A43E9
:101F540031460132183000F041F8F6E780100020D5
:101F64008010002097280008034B1B680BB9FEF76C
:101F740057BF0020704700BF64020020036840B1CF
:101F8400074A5268904204D01BB19A6881680A4497
:101F94009A60426813605A600023C0E900337047B6
:101FA400A00F00200B4B10B51C689C4208BF0024F6
:101FB400FFF7DAFF54B1A368181A20EAE070064B61
:101FC4001B6913B19842A8BF184610BD6FF00040BA
:101FD400F5E700BFA00F00202C02002070B50446D6
:101FE4001646C1604FF01003EFF3118583F3118897
:101FF400BFF36F8FFFF7B8FF012EACBF801901301C
:10200400164BA0601A689A4201D05E6832B95A68C9
:10201400236062605A6814605C600AE09068A1689A
:10202400884215DD411A91605168C4E900210C60B1
:1020340054601A689A4206D0944204D1FFF7B2FF62
:102044000021FEF789FE85F31188BFF36F8F70BD01
:10205400091A9642A160DAD01268D7E7A00F0020CF
:102064002DE9F0470646FFF78DFD4FF01003EFF31F
:10207400118483F31188BFF36F8FDFF884801F4DC1
:10208400C146DFF880A02E60DAF800002A685045C7
:10209400D8E9006705D020B18368934213DD9B1A09
:1020A4008360B61847EBE277C9E9006700262E6023
:1020B400FFF778FF3146FEF74FFE84F31188BFF334
:1020C4006F8FBDE8F087F61847EBE377D31A2B60E0
:1020D40000238360C8E90067FFF750FF84F3118889
:1020E400BFF36F8FC36898474FF01003EFF3118469
:1020F40083F31188BFF36F8FC6E700BF640200202B
:1021040000000020A00F002010B54FF01003EFF3E3
:10211400118483F31188BFF36F8FFEF781FE064BA2
:10212400D3E90023121843F1000384F31188BFF3A9
:102134006F8F1046194610BD0000002038B5074CBB
:10214400074DAC4201D3002038BD04F114032046EE
:10215400C4E9053300F006F81C34F2E780100020CF
:1021640080100020FF232DE9F04F4668C3723246E9
:1021740000234FF00C090789016806FB07FC90F85F
:102184000A806144984505DC002319468F4220DC0F
:10219400BDE8F08FBCFBF2F509FB03FED0F80CA000
:1021A400202D0AEB0E0404F1040BC4E901BB05D88D
:1021B400C372920822F003020133E3E715F11F040E
:1021C40048BF05F13E0464114AF80E1001EB840186
:1021D400EFE7C268056802F1040CEC1845F803C087
:1021E400956801316560956833442C609460CDE74F
:1021F4000020704770B50D4604464520A047294687
:102204005220A04729462346BDE870405220184773
:102214000FB407B504A951F8040B0191FEF750FB64
:1022240003B05DF804EB04B07047044608B50846F3
:1022340011461A46A047FFF711FEFEF7F5FF704757
:10224400024601210020FEF78DBB02460221012037
:10225400FEF788BB024603210220FEF783BB024639
:1022640004210320FEF77EBB024605210420FEF76D
:1022740079BB02460A210520FEF774BB02461021F1
:102284000A20FEF76FBB024611211020FEF76ABB3D
:10229400024613211220FEF765BB024616211520C3
:1022A400FEF760BB024617211620FEF75BBB002237
:1022B40008B511460620FEF73DFE00220720114610
:1022C400FEF738FE002208201146FEF733FE0022F6
:1022D40009201146FEF72EFE00220A201146FEF7C1
:1022E40029FE002217201146FEF724FE0022282092
:1022F4001146FEF71FFE002201201146FEF71AFECA
:1023040000222A201146FEF715FE00220220114663
:10231400FEF710FE002203201146FEF70BFE0020FC
:1023240008BDF0230822C0E900230023836070471E
:102334007047FEF757BE00F056BA0146006800F039
:1023440052BA08B5FEF758FEBDE80840FEF786BD50
:10235400431E013913F8012F11F8010F824201D1F4
:10236400002AF7D1101A7047F0B581EA0004A507D6
:1023740003460BD0013B0A4491421BD1F0BD002A15
:10238400FCD011F8014B013A03F8014B9C07F6D13C
:1023940022F003041D1F96080F19B94205D16FF0EE
:1023A4000305234405FB0622E4E751F804CB45F872
:1023B40004CFF2E711F8014B03F8014FDCE70346C1
:1023C40070B5C9B29C0711D141EA012422F0030679
:1023D40044EA04451E449408B3420DD16FF003054A
:1023E40005FB04221A44934209D170BD002AFCD093
:1023F40003F8011B013AE5E743F8045BECE703F853
:10240400011BF0E74FF0FF3070478A6870B55368DE
:102414000E46C340DB0715D5916899B10C680125B8
:10242400002C38BF002485408A682A4002D03046F8
:102434004B68984734B123682146002B38BF0023EA
:102444001C46F1E770BD036800209B685B681B694C
:102454000B60704703689B685B68586942400A4098
:1024640042405A6100207047036800209B685B6803
:1024740099617047036809049B6800205B6899614F
:102484007047036800209B685A6853694B40536146
:102494007047836830B5986858B10024814213D1DD
:1024A40008685CB9DC689860A14200D1D86000205B
:1024B400086072B9002030BD2846EFE72060D86874
:1024C400814208BFDC60F2E705680446002DF3D1C1
:1024D4003AB19A680A60D86899600028EAD1D9604C
:1024E400E9E76FF01500E6E70123826803FA01F1DA
:1024F400536800200B43536070470123826803FA3A
:1025040001F15368002023EA010353607047F0B5DA
:102514000124D0F800C08C4002F03006C2F301154B
:1025240094FAA4F7B7FA87F74FF0030E7F000EFA78
:1025340007F72CEA070C94FAA4F7B7FA87F77F0099
:10254400BD4045EA0C05202E056015D1072948DC5D
:10255400076A94FAA4F50DB1B5FA85F60F25B6000D
:1025640005FA06F627EA060694FAA4F5B5FA85F5FF
:10257400AD00AB40334303624568C2F3801303FAF2
:1025840001F125EA040319434160C2F3C1138568CC
:1025940094FAA4F1B1FA81F10326490006FA01F193
:1025A40025EA010594FAA4F1B1FA81F149008B40BE
:1025B4002B438360C2F34122C16894FAA4F3B3FAB3
:1025C40083F35B0006FA03F321EA030394FAA4F409
:1025D400B4FA84F4640002FA04F41C43C4600020D6
:1025E400F0BD476A250A95FAA5FCBCF1000F01D09D
:1025F400BCFA8CF64FF00F0CB6000CFA06F627EA7C
:10260400060695FAA5F5B5FA85F5AD00AB4033435A
:102614004362B1E738B5134602680C4695689A05DB
:1026240016D599070DD55A072ED55022D9060AD5A5
:1026340042F4007219051BD50121A140FFF714FFD4
:102644000FE01022F2E79906F4D542F48062F1E734
:10265400D90514D5DA0614D413F0200218BF4FF4A8
:102664008062002321466868FFF751FF002038BDCF
:102674005B05F6D50121A140FFF7FCFEF1E730220E
:10268400EFE74FF40072ECE76FF02200EFE7036826
:1026940082B00193019B43680193019B02B0704790
:1026A40008B503689B68186803681A0701D5FFF723
:1026B400EEFF03689B0649BF43684FF0FF300020DC
:1026C4000B7008BD03689B681B681A681206FCD56A
:1026D4006FF040021A605960704708B503689B6840
:1026E400186802680368C2F3C002DB07036848BFC6
:1026F40042F00202990748BF42F00402D30701D511
:10270400FFF7C5FF910701D5FFF7C1FF530701D5B7
:10271400FFF7BDFFFFF7BBFF104608BD036837B5E1
:102724000D469968836851F8084B586801AA4368B4
:10273400DB689847002812DB1923019964224B4374
:10274400A900B3FBF1F1B1FBF2F002FB10131B0182
:102754003233B3FBF2F303EB00139BB2A36003B079
:1027640030BD83681B680B6003689B681A68D36874
:1027740003F4C063B3F5806F23D0A3F5C060434274
:1027840043410B71136903F44053B3F5805F1AD0CE
:10279400B3F5405F19D0002B14BF032301234B7101
:1027A400D368002013F4805F14BF042303238B71C8
:1027B400536903F44073A3F5407253425341CB7100
:1027C40070470223DDE70023E9E70223E7E74FF040
:1027D4001002EFF3118382F31188BFF36F8FFEE7CA
:1027E40008B5FFF7F4FFF8B505460E464FF01003A1
:1027F400EFF3118783F31188BFF36F8FFFF72EFB7D
:10280400314604462846FFF7EBFF87F31188BFF3F0
:102814006F8F2046BDE8F840FEF706BD21B9EFF3FF
:10282400058008B9FEF728BB81F31188BFF36F8FC9
:102834007047034620B9EFF305820AB9FEF71CBBC3
:1028440083F31188BFF36F8F70474FF01003EFF3DA
:10285400118083F31188BFF36F8FFFF7EABF03463C
:102864000068834203D0002838BF0020704700204E
:10287400704710B54FF01003EFF3118483F3118800
:10288400BFF36F8FFFF7E6F884F31188BFF36F8F00
:1028940010BD38B550F8103C0446A0F11801C3B17E
:1028A4004FF01003EFF3118583F31188BFF36F8F9B
:1028B40050F8100CFFF778F814F80B3C23F00203DF
:1028C40004F80B3C002344F8103C85F31188BFF353
:1028D4006F8F14F80B3C084623F0140304F80B3CE8
:1028E400BDE83840FFF7C5BF10B54FF01003EFF354
:1028F400118483F31188BFF36F8FFFF7EFF984F32B
:102904001188BFF36F8F10BD009A83730273002385
:102914000422C0E90633C0E913334273C37370471A
:1029240010B54FF01002EFF3118482F31188BFF356
:102934006F8F03683BB1FFF721FB002084F31188FC
:10294400BFF36F8F10BD6FF01500F7E710B54FF0B0
:102954001003EFF3118483F31188BFF36F8FFFF734
:1029640021FB84F31188BFF36F8F10BD70B504464B
:102974000D464FF01003EFF3118683F31188BFF374
:102984006F8FFFF70FFB012805DDA04203DD294609
:102994002046FEF7E1F986F31188BFF36F8F70BD0F
:1029A40008B5FFF7B1FB08BD08B54FF01002EFF30F
:1029B400118382F31188BFF36F8FFFF7C7FF0121E3
:1029C4000228D8BF0846FFF7D1FFFEF705FBECE766
:0229D40070474A
:0229D600FFFF01
:0829D800DCD7FF7F01000000C5
:1029E0000000000037230008D80F00208B220008C9
:1029F000D80F00209F220008D80F0020A92200082D
:102A00000000000037230008000000003723000802
:102A1000D80F002045220008D80F00204F220008C0
:102A2000D80F002059220008D80F00206322000888
:102A3000D80F00206D220008000000003723000896
:102A400000000000372300080000000037230008C2
:102A500000000000372300080000000037230008B2
:102A600000000000372300080000000037230008A2
:102A70000000000037230008000000003723000892
:102A80000000000037230008000000003723000882
:102A90000000000037230008D80F0020772200082C
:102AA0000000000037230008000000003723000862
:102AB0000000000037230008000000003723000852
:102AC0000000000037230008000000003723000842
:102AD0000000000037230008000000003723000832
:102AE0000000000037230008000000003723000822
:102AF0000000000037230008000000003723000812
:102B00000000000037230008000000003723000801
:102B100000000000372300080000000037230008F1
:102B2000D80F002081220008000000003723000891
:102B3000D80F00209522000800000000372300086D
:102B400000000000372300080000000037230008C1
:102B500000000000372300080000000037230008B1
:102B600000000000372300080000000037230008A1
:102B70000000000037230008000000003723000891
:102B80000000000037230008000000003723000881
:102B90000000000037230008000000003723000871
:102BA0000000000037230008000000003723000861
:102BB0000000000037230008000000003723000851
:102BC0000000000037230008000000003723000841
:102BD0000000000037230008000000003723000831
:102BE0000000000037230008000000003723000821
:102BF0000000000037230008000000003723000811
:102C00000000000037230008000000003723000800
:102C100000000000372300080000000037230008F0
:102C200000000000372300080000000037230008E0
:102C300000000000372300080000000037230008D0
:102C400000000000372300080000000037230008C0
:102C500000000000372300080000000037230008B0
:082C600000000000372300080A
:102C68009A2F0008E1080008000000009A2F0008C9
:102C78004D09000800000000DB2E0008B322000800
:102C880000000000FD2E0008710B00080000000085
:102C9800062F0008250D0008000000009A2F0008E4
:102CA8008512000800000000102F0008CD1300084E
:102CB800342E0008162F0008CD130008202E000817
:102CC8001C2F0008CD1300080C2E0008222F000826
:102CD800CD130008F82D0008282F0008CD13000890
:102CE800E42D00082E2F0008CD130008D02D000871
:102CF800342F0008CD130008BC2D0008CE2E000884
:102D0800CD130008A82D00083A2F0008CD1300089D
:102D1800942D0008402F000809150008882E000887
:102D2800D42E000809150008742E00089A2F0008F0
:082D3800412100080000000029
:102D4000030000000040000001000000020000003D
:102D50000400000008000000100000002000000037
:102D6000400000008000000000010000FFFFFFFFA6
:102D7000FFFFFFFF380000002702000039000000BD
:102D8000270000006E00000028020000690000001B
:102D900028000000FFFF00000000024000000000CB
:102DA0000000000001000000FFFF000000040240DE
:102DB000010000000000000002000000FFFF000012
:102DC00000080240020000000000000004000000B3
:102DD000FFFF0000000C02400300000000000000A4
:102DE00008000000FFFF0000001002400400000087
:102DF0000000000010000000FFFF0000001402406F
:102E0000050000000000000020000000FFFF00009F
:102E10000018024006000000000000004000000012
:102E2000FFFF0000001C024007000000000000003F
:102E300080000000FFFF00000020024008000000AA
:102E40000000000000010000192600084B240008C3
:102E5000592400086D2400087924000887240008FC
:102E60009912000897240008ED240008FF240008A8
:102E700000000000004800400000000002000000C8
:102E800000000400000000000014014000000000E9
:102E9000030000002000000000000000A52600083C
:102EA000C9260008DF260008F1130008672700087C
:102EB000A80F00200810002014100020801000200F
:102EC00080100020F5FFFFFF001000000030475089
:102ED000494F4200554152545F330073746D333291
:102EE0002D6578746900060708090A171717171760
:102EF00028282828282801FF2AFFFF020373746D61
:102F000033322D6363007379735F636C6F636B009F
:102F10004750494F49004750494F48004750494F93
:102F200047004750494F46004750494F45004750DA
:102F3000494F44004750494F43004750494F4100D3
:102F4000554152545F3600000000000000000001AF
:102F50000203040607080976322E322E302D7263E2
:102F6000312D3239302D6765343437396532666535
:102F7000636565002A2A2A20426F6F74696E672094
:102F80005A6570687972204F53206275696C6420AD
:102F90002573202573202A2A2A0A006D61696E0094
:082FA00069646C65000000008B
:102FA800F5210008850A0008F50A0008000000005D
:102FB800490B0008000000000924000800C20100B5
:102FC8000000000000C20100000000000024F4001E
:082FD800A00F0020A00F002053
:102FE000682C000800000000000000008C2C000885
:102FF000740F002000000000A42C00080000000056
:1030000000000000342D0008000000000000000057
:10301000802C0008000000000C0000201C2D00087F
:103020009C2E0008940F0020282D00089C2E0008DC
:103030008C0F0020742C000800000000000000002D
:10304000982C00080000000000000000B02C0008D0
:10305000482E000854010020BC2C0008482E00080F
:1030600044010020C82C0008482E0008340100202C
:10307000D42C0008482E000824010020E02C000871
:10308000482E000814010020EC2C0008482E0008EF
:1030900004010020F82C0008482E0008F40000204D
:1030A000042D0008482E0008E4000020102D000820
:0830B000482E0008D4000020A6
:1030B80080100020801000200000000000000000A8
:0430C8000F000000F5
:040000050800105D82
:00000001FF
