:10000000780500201D0D000083270000950C0000DE
:10001000950C0000950C0000950C0000950C00005C
:10002000950C0000950C0000950C0000950B00004D
:10003000950C0000950C00004D0B00006F27000090
:10004000DD0C0000DD0C0000DD0C0000DD0C00000C
:10005000DD0C0000DD0C0000DD0C0000DD0C0000FC
:10006000DD0C0000DD0C0000DD0C0000DD0C0000EC
:10007000DD0C0000DD0C0000DD0C0000DD0C0000DC
:10008000DD0C0000DD0C0000DD0C0000DD0C0000CC
:10009000DD0C0000DD0C0000DD0C0000DD0C0000BC
:1000A000DD0C0000DD0C0000DD0C0000DD0C0000AC
:1000B000DD0C0000DD0C0000DD0C0000DD0C00009C
:1000C000DD0C0000DD0C0000DD0C0000DD0C00008C
:1000D000DD0C0000DD0C0000DD0C0000DD0C00007C
:1000E000DD0C0000DD0C0000DD0C0000DD0C00006C
:1000F000DD0C0000DD0C0000DD0C0000DD0C00005C
:10010000DD0C0000DD0C0000DD0C0000DD0C00004B
:10011000DD0C0000DD0C0000DD0C0000DD0C00003B
:10012000DD0C0000DD0C0000DD0C0000DD0C00002B
:10013000DD0C0000DD0C0000DD0C0000DD0C00001B
:04014000DD0C0000D2
:1001440053B94AB9002908BF00281CBF4FF0FF313A
:100154004FF0FF3000F06EB9ADF1080C6DE904CE3C
:1001640000F006F8DDF804E0DDE9022304B070478E
:100174002DE9F04F099D0F4604468946002B7CD19A
:100184008A42164640D9B2FA82F24AB1C2F120013B
:1001940007FA02F39640944020FA01F141EA030978
:1001A4004FEA164E270C1FFA86F8B9FBFEFC0EFB2D
:1001B4001C930CFB08F147EA0343994206D9F31850
:1001C40002D2994200F223810CF1FF3C591AA3B2E6
:1001D400B1FBFEF00EFB101100FB08F843EA0144EA
:1001E400A04505D9341902D2A04500F20D81013889
:1001F400A4EB080440EA0C4000211DB1D4400023C4
:10020400C5E90043BDE8F08F02B9FFDEB2FA82F21D
:10021400002A4DD18F1B4FEA164E1FFA86F8012192
:10022400230CB7FBFEFC0EFB1C7708FB0CF043EA27
:10023400074398420AD9F3182CBF01270027984294
:1002440002D9002F00F0D9800CF1FF3C1F1AA3B291
:10025400B7FBFEF00EFB107708FB00F843EA0744F7
:10026400A04505D9341902D2A04500F2CA8001384C
:10027400A4EB080440EA0C40BFE78B4208D9002DE8
:1002840000F0B2800021C5E900070846BDE8F08F00
:10029400B3FA83F1002949D1BB42C0F0A88082425D
:1002A40040F2A5800846002DACD0C5E90049A9E775
:1002B400C2F120009640914027FA00F34FEA164E0F
:1002C40024FA00F71FFA86F894400F43B3FBFEF0BC
:1002D4004FEA174C0EFB103300FB08F14CEA0343C2
:1002E40099420CD9F3182CBF4FF0010C4FF0000CBD
:1002F400994203D9BCF1000F00F0928001385B1AD7
:10030400BFB2B3FBFEF10EFB113301FB08FC47EA5D
:100314000347BC4505D9F71902D2BC4500F28780D2
:100324000139A7EB0C0741EA004179E7C1F1200646
:1003340003FA01F402FA01FC07FA01F8F24027FA81
:1003440006F320FA06F700FA01FE224347EA0804FE
:100354004FEA1248200C1FFA82F9B3FBF8FA08FBA3
:100364001A370AFB09FB40EA0747BB4509D9D719E5
:100374002CBF01230023BB4501D9002B53D00AF124
:10038400FF3AA7EB0B07A4B2B7FBF8F008FB107712
:1003940000FB09F944EA0747B94504D9D71901D242
:1003A400B9453AD8013840EA0A40A7EB0907A0FB4F
:1003B4000C894F45C3464C4602D307D1C64505D2E6
:1003C400B8EB0C0B69EB0202013814461DB3BEEB0B
:1003D4000B0367EB040707FA06F6CB40CF40002176
:1003E4001E43C5E900670DE7294628460AE7841A33
:1003F40067EB03030120994655E7ACF1020C334443
:1004040024E70238344433E702383444F0E6ACF1EC
:10041400020C3344DAE62946F4E602381744C2E70C
:10042400023833446BE7AAF1020A1744A9E70239F8
:10043400374476E7704700BF70B5164801F0CCFA30
:10044400044610B3856843684FF4D05202211B68F8
:100454009847002818D12B6823F004032B6001254A
:10046400A36885F001061B6813F0040F18BFF5B2EA
:1004740065B16368DB68042120469847F5B24FF400
:100484007A7001F043FEEBE7E9DA70BD63681B693B
:10049400F1E700BFF42E00000B6801330B60014B41
:1004A4001B681847B80E00202DE9F04F85B00E9C4C
:1004B4009B46012CB8BF0124012B0CBF3023202301
:1004C400154606468A4601274FF00A080022DFF83F
:1004D40070900293B5FBF9F301930AB9A9451ED8AC
:1004E400019B514603F13000B04701220137019BC3
:1004F40008F1FF3809FB13550A23B8F1010FB9FBC2
:10050400F3F9E7D1514605F13000B047BBF1030FD1
:1005140002D1E41B002C0EDC05B0BDE8F08F44458D
:10052400E5DBBBF1020FE2D8514602980392013792
:10053400B047039ADBE751462020B047013CE9E786
:1005440000CA9A3B014B1860704700BFB80E0020E8
:100554002DE9F04F002705468B464FF0FF39B8468A
:100564001C468DB0531E0393002605E06EB9252862
:1005740000F071815946A847039B13F8010F0393B8
:100584000028F3D10DB0BDE8F08F7A280AD862288C
:1005940010D8302854D045D8252800F05A812D2869
:1005A40000F05F8159462520A8475946039B1878D7
:1005B400A847D9E7A0F16303172BF3D801A252F897
:1005C40023F000BF4F08000093060000A9050000B7
:1005D400A9050000A90500007506000093060000A7
:1005E400A9050000A905000075060000A905000082
:1005F400A9050000A905000035070000A9050000B1
:10060400A90500001F080000A90500000307000059
:10061400A9050000A905000031060000A905000095
:100624007506000039281AD95828BBD1039B1B78BA
:10063400702B40F0888054F8043B0022069390E02D
:10064400B9F1000F0EDAB8F1000F00F00D81A0F13E
:100654003009B8F1000F08BF4FF002088CE7B9F178
:10066400000FF4DB0A2303FB0909A9F13009F0E7C1
:10067400682803D1682F06D148277DE76C2802D16A
:100684006C2F00F0F480002F8CD1074674E77A2F8A
:1006940002D154F8046B21E06C2FFAD04C2FF8D11E
:1006A400073424F00704F4E80223CDE90423049B6F
:1006B4004FF0FF3013F10041059B089143F1000115
:1006C40009910021DDE90823994208BF904204D230
:1006D4005946284601F020FF46E7049E002E05DA1D
:1006E40059462D20A847764209F1FF394346324640
:1006F400CDF8009059462846FFF7D6FE34E77A2F06
:1007040002D154F8042B0FE06C2FFAD04C2FF8D1FF
:1007140000214FF0FF30073424F00704F4E80223EB
:10072400994208BF9042D3D34346CDF80090E1E705
:1007340059463020A84759467820A8474FF0080961
:100744004FF0010872E76C2F3FF475AF4C2F7FF424
:1007540072AFE31D23F007031C4654F8082B0692DE
:100764005A68002110234FF0400A04910791AAF11E
:10077400040A0699CAF1200EAAF1200C21FA0AF003
:1007840002FA0EFE40EA0E0022FA0CFC40EA0C00CB
:1007940010F00F0007D1079911B9BAF1000F25D154
:1007A4004FF0300C05E009288CBF4FF0570C4FF088
:1007B400300C6044594640B20A920793A847049B00
:1007C4000A9A01330493079BBAF1000F23D1B8F1BD
:1007D400030F7FF4C9AE049BC3EB4906002E7FF7D9
:1007E400C3AE59462020A847013EF7E7591E994554
:1007F4000A9107DBB8F1010F06D1594630200B925C
:10080400A8470B9A0A9BB2E7B8F1020FFAD15946EE
:1008140020200B92F4E70796A9E754F8046BB2463C
:1008240053461AF8010B68B9B8F1030F21D19E1B86
:10083400A9EB0606002E7FF797AE59462020A8475D
:10084400013EF7E75946A847EAE7594654F8040B2E
:10085400AEE65946ACE63746B0464FF0FF390126BE
:100864008AE64FF0030887E64FF0010884E64C2738
:1008740082E6064680E600BF07B50B460021024625
:100884000191034801A9FFF763FE03B05DF804FB7F
:100894009D0400004FF02002EFF3118382F31188CE
:1008A400BFF36F8F0121044AC2F8401583F3118806
:1008B400BFF36F8F00207047009003500A2838B5AB
:1008C4000446074D04D1286843680D215B689847A6
:1008D40028684368E1B25B689847204638BD00BF8A
:1008E4000800002010B5044C204600F09FFC204670
:1008F400BDE81040FFF726BEC108000008B5044853
:1009040001F06AF8034B1860FFF7ECFF002008BD04
:10091400FB2E00000800002008B5114B1A686AB1CC
:100924004FF05022D2F80423D10707D500220D48F6
:100934001A608368597A09B901F05FFE0A4B1A6894
:100944006AB14FF05022D2F80423920707D500224F
:1009540001211A600348BDE8084001F04EBE08BDFD
:1009640000510050FC0E00200451005000220D4B99
:10097400C3F840214FF02002EFF3118182F3118874
:10098400BFF36F8F084AD3F804051368C01A20F028
:100994007F400344136081F31188BFF36F8F01F02C
:1009A400F1BC00BF005001502400002070B5154870
:1009B40001F012F810B3436801211B689847002422
:1009C40001264FF480334FF400120F4D3146C5F821
:1009D4000845C5F84065C5F804330C4B15201C6068
:1009E4000B4BC3F88021224600F0F2F8152000F0EA
:1009F400DFF82046074B1E602E6070BD4FF0FF30BD
:100A0400FBE700BF022F000000500150405101508D
:100A140000E100E008500150254B70B5B0F1FF3FF4
:100A240008BF18464FF02002EFF3118482F31188B7
:100A3400BFF36F8F1F4AD2F804151F4A12688E1A2B
:100A440026F07F4536021AD4013820EAE070984235
:100A5400A8BF184601352844984294BF1318D318E8
:100A6400591A21F07F410229124923F07F42C1F82B
:100A7400402506D984F31188BFF36F8F70BD002021
:100A8400E8E7D1F804250D489A1A22F07F42551E52
:100A9400854205D94FF40012094BC3F80021E9E758
:100AA400012A02BF023323F07F43C1F84035E1E756
:100AB400FEFFFF000050015024000020FEFF7F00D5
:100AC40000E100E04FF02002EFF3118382F311887C
:100AD400BFF36F8F064AD2F80405064A1268801ADB
:100AE40020F07F4083F31188BFF36F8F704700BFFE
:100AF400005001502400002004488168406A884264
:100B040003D003494FF080520A607047340100203B
:100B140004ED00E0094A0A49936809685866996631
:100B240008494B6843F080534B60002383F31188DA
:100B3400BFF36F8F9368986E704700BF3401002035
:100B4400F02E000000ED00E00F498A684FF0280005
:100B54001044EFF3098C80E8F01F202080F3118803
:100B6400BFF36F8F094F4FF000664A6A8A603E6098
:100B7400506E0023536680F3118802F1280090E838
:100B8400F01F8CF3098870473401002004ED00E065
:100B94001EF0040F0CBFEFF30880EFF309808169A6
:100BA40011F8021C0229FFD001B501F0E4FD01BDDA
:100BB40043B2002B08DB012200F01F0002FA00F010
:100BC400024A5B0942F82300704700BF00E100E0DD
:100BD40043B2002B01F10101ACBF03F16043064BAA
:100BE4004FEA4111C9B2ABBF03F5614300F00F00F6
:100BF40083F800131954704714ED00E073B51E46D2
:100C04000A9B05460093099B8C1801F085FF0B4B4A
:100C1400A4F1200222F0070223F001039361069B52
:100C240016605360079B9360089BD3604FF08073FA
:100C3400D3610023AA646B6602B070BD5325000023
:100C4400F8B50C46174606461D4600F077F9094BE1
:100C54003C4424F007049E60284684F3098800215C
:100C640063B681F31188BFF36F8F0022002301F074
:100C74006EFC00BF34010020014910220A60704755
:100C840010ED00E0404080F3118830BF704700BF92
:100C9400EFF30880EFF30981724601B500F0A0F884
:100CA40001BD00BF30BFFFF7FDBF00BF08B5084B53
:100CB400084A23F07F039360BFF34F8FBFF36F8F16
:100CC40000F0CAFE00F0D2FE00F006F900F00CFFBE
:100CD4000000000000ED00E001B572B60B4A106A96
:100CE40000281EBF0021116201F09EFE62B6EFF3E0
:100CF4000580A0F110004FEAC0000549014409C96C
:100D04009847BDE80140034908470000340100202A
:100D1400CC2B0000FD0A000001F024FC202080F30D
:100D2400118808484FF40061401880F30988EFF3F4
:100D340014800221084380F31488BFF36F8FFFF7F8
:100D4400B5FF0000B80600200C4B9A6A9A6A9A6AAA
:100D5400920708D55A6B9A6A120604D518B19A6A92
:100D640022F080029A620020044B9A6A9A6A9A6A74
:100D74009A6A42F0FF029A620870704700ED00E040
:100D84000D4B9A6A9A6A9A6A920508D59A6B9A6A7E
:100D9400120404D518B19A6A22F400429A6200201F
:100DA400054B9A6A9A6AD20558BF9A6A9A6A42F4BB
:100DB4007F429A620870704700ED00E0074B002004
:100DC4009A6A9A6A9A6A9A6A9A6A9A6A9A6A9A6AFF
:100DD4006FEA02426FEA12429A62704700ED00E045
:100DE40070B5364B0E465B6800258AB0C3F3080322
:100DF40085F31188BFF36F8F02F07F41B1F17F4F0C
:100E040011D102F00C0108290DD0110701D40646B6
:100E140001250022033B8DF80720032B47D8DFE888
:100E240003F0043E423B2E46F3E7244BDA6A920772
:100E34003DD4DC6A14F0804408D028331B78EBB12D
:100E440001200DF10701FFF77FFF04469DF80730ED
:100E540093B92022314602A801F0CDFC099B45B389
:100E6400C3F3080222B96FEA53236FEA43230993B9
:100E7400204602A901F07DFC0AB070BD104B1B781E
:100E84002BB101200DF10701FFF77AFFDDE70D4BD0
:100E9400188884B2002CD9D0FFF790FFD5E7002042
:100EA4000DF10701CFE700200DF10701ECE7002465
:100EB400CCE723F4FF7323F00103D8E700ED00E04F
:100EC40029ED00E02AED00E0024A536943F01003E3
:100ED4005361704700ED00E0002320210348C2184D
:100EE4000133412B82F80013F9D1704700E100E08F
:100EF40038B504464FF02003EFF3118583F31188CE
:100F0400BFF36F8F01F01EF80A4B9B68A3420BD10D
:100F1400094B5A68C2F3080212B92846FFF7FAFDD2
:100F24005A6842F080525A602846BDE8384001F0C1
:100F340088BD00BF3401002000ED00E010B50E4B69
:100F440088B002930D4B0E4C03930E4B0E4A049340
:100F540002AB019301A82346012100F007F9002305
:100F640007930A4B0121E41A05A80593069400F09F
:100F740007F908B010BD00BF000000200000000009
:100F840000000120060001000000002000000020F5
:100F940010B50B680C7A23F01F0204F01F031A43E8
:100FA400CB68640923F01F03044943EA440343F074
:100FB40001038860CA600B6110BD00BF90ED00E0C2
:100FC4002DE9F04F07468846144600264A4D85B061
:100FD40046450BDA57F82630D3F80490B9F1000FE0
:100FE4003AD0B9F11F0F05D86FF01504204605B0AB
:100FF400BDE8F08F19F01F0FF6D1D3F800A01AF056
:101004001F0FF1D1504601F0E1FB834609EB0A00C2
:10101400013801F0DBFB8345E6D11BF1160FE3D069
:10102400631E5B45E0DBC5F808B0E868C5F808B0A6
:101034002B6957F8261020F01F0043F01F0AD1E94E
:1010440000321A44984202F1FF3918D1CA4505D139
:101054005FFA8BF001F09AFB0136B9E7C5F808B0E6
:10106400EB6822F01F0203F01F031A43EA60E0B2A8
:1010740001F08CFB10F1160FB6D0441CECE7C5F858
:1010840008B02A69013B23F01F0302F01F02134337
:10109400CA45E0B22B61EBD001F078FB10F1160FDA
:1010A400A2D0C5F808B0EA689DF808300AF1FF3A02
:1010B40062F304038DF808302B699DF808205B085F
:1010C40063F3471257F826308DF80820D3E900134C
:1010D4000B44009323F01F0301305344A3EB090393
:1010E400C0B223F01F030F2803933FF67DAF694678
:1010F400FFF74EFFC1E700BF90ED00E00522034B70
:101104005A60BFF34F8FBFF36F8F704790ED00E0CD
:10111400BFF35F8F0022014B5A60704790ED00E0EF
:1011240038B50E4C2568102D14D8FFF7F1FF0020B8
:101134000B4B0C4A1A63854205D10B4B1D70FFF70C
:10114400DDFF002038BD616801EB0011FFF720FFCF
:101154000130F0E74FF0FF30F4E700BF602E0000ED
:1011640090ED00E0AAFF44007401002010B5034C88
:101174002278FFF725FF207010BD00BF7401002006
:101184002DE9F74F264D8A4606464FF00008AB4638
:10119400244FD0451BDAD6F80490B9F1000F39D0AA
:1011A40031680846019101F011FB0199044609EBED
:1011B4000100013801F00AFB84424FF014021A4B7B
:1011C40008D06FF0150302FB08F84BF8083003B0A1
:1011D400BDE8F08F14F1160F2C60F8D01978A142F5
:1011E400F5DD02FB08B0BC60BC60FC6800F10801DE
:1011F400007B64F30400087138690C79400860F3DB
:1012040047140C71F96821F01F016960396921F0F4
:101214001F01296108F1010814350C36B9E700BF34
:101224002800002090ED00E074010020014B1860BC
:10123400704700BFBC0E002008B5094B1A786AB984
:1012440001210D2019700521FFF7C2FC0D20FFF7C5
:10125400AFFC4FF00042034BC3F80423002008BD49
:101264007501002000D000500368F0B59E68284B3B
:101274002848134083423DD00DD8062B15D005D8FD
:101284009BB1022B38D06FF0150032E0B3F5801F0C
:10129400F9D1012309E0204883422FD0B3F5A00FF0
:1012A4002ED0B3F5800FEED10223D0064CBF032518
:1012B400C2F3401582F480749705C2F34020C4F34E
:1012C400002406D512F4006F77681BD001228A40EF
:1012D400BA60327A01F01F0141EA421140EA440245
:1012E400002042EA03230D4A43EA8503803142F891
:1012F4002130F0BD0723D8E70423D6E70523D4E73C
:101304000323D2E7520542BF01228A40FA60E0E794
:101314000600F00006001000020040000025845082
:1013240070B503684D4C9B6885681A7A01F01F03F9
:1013340043EA42130022D4F80403C0B202F5A276B1
:1013440054F82660C6F30426B3426DD120FA02F69F
:10135400F60769D5900000F1A04000F55040D0F8A0
:10136400106526F00106C0F81065012000FA02F2AB
:10137400C4F808233A4CE86804EB8304D4F8002248
:10138400C84022F4403210F00100C4F800224AD0D0
:101394002869C84010F0010045D0A869C84010F081
:1013A40001004BD0EA690024CA40D2074CBF032293
:1013B4006A692A4D5FBFCA4002F00102C2F102020B
:1013C400D2B204F5A27155F8210010F003002FD118
:1013D400A10001F1A04101F55041D1F810651B02B3
:1013E40003F4F85326F4473626F4407643EA0242DF
:1013F40004F14003C1F810659B00D1F810659BB25D
:1014040003F1A04303F550433243C1F8102518609B
:10141400D1F8103543F00103C1F81035012303FA64
:1014240004F4C5F8044370BD0132082A86D1A1E74B
:101434000134082CC5D16FF01200F4E76A69D4F8BE
:101444000032CA4002F00102C2F1030223F4403127
:1014540041EA0242C4F80022E5E700BF00D0005090
:1014640000258450B2F5A03F70B4846810D105689B
:10147400AD682E7A01F01F0545EA46151C4E8035ED
:1014840056F82550ED0707D56FF0220070BC704761
:10149400B2F5005FE56826D00125E6688D40354346
:1014A400E560012526698D40B2F5005F14BF2E4327
:1014B400AE432661A669B2F5A03FE2690CBF2E4394
:1014C400AE43B3F5C02F0CBF2A43AA43E26162695D
:1014D400B3F5802F0CBF154322EA0505A6616561AB
:1014E40070BCFFF71DBF01268E4025EA0605D7E72D
:1014F4000025845051482DE9F0410668002E61D042
:101504004F4B002599681B68DFF83CE1D3F808C00D
:10151400D1E903231340D1E90624224323EA020339
:10152400DCF8042014694A690121544023EA0404C4
:101534009BBB0360002301251F464248D0F80423C7
:1015440005FA03F1114210D09A0002F1A04202F50B
:101554005142116849B103F5A27150F82110176086
:10156400C1F3042105FA01F10C430133082BE5D141
:1015740054BB86B101240025314B334F98681B6856
:101584009E68D0E903231340D0E906210A4323EAE5
:101594000203002B36D1BDE8F0810B420FD09CF83A
:1015A400087005F01F0242EA47120EEB8202D2F8DD
:1015B400007223EA010327F44037C2F800720135B0
:1015C4004900B5E73446B5E71D4FD7F80880D8F889
:1015D40004100029CDD00D68002D38BF0025D8F89F
:1015E40010308A682340134203D0224638464B68A1
:1015F4009847002DBDD02B682946002B38BF002307
:101604001D46ECE71C4216D0327A05F01F0141EA70
:101614004211426907EB8101D1F800C2EA4002F0AD
:101624000102C2F103022CF4403C4CEA0242C1F82C
:10163400002223EA040301356400AAE77CD10050A8
:101644002C0F002000D0005000258450F0B54B79B9
:10165400012B2BD0032B26D110268B79032B22D1DF
:10166400CC792CB1012C1ED103689B681B79D3B1B2
:101674000A7912B1022A16D10E2205680B68AD68E8
:10168400B3F5164F2D6864D02DD8B3F5165F63D02B
:1016940016D8B3F5966F61D00AD8B3F5967F60D0AB
:1016A400B3F5167F60D06FF0220051E00026D4E736
:1016B400B3F5166F5BD0B3F5965FF4D1364B3CE0CF
:1016C400B3F5E14F56D007D8B3F5615F54D0B3F505
:1016D400964FE8D1314B30E047F61227BB42E2D1B6
:1016E4004FF4000329E0B3F5613F47D013D8B3F5B5
:1016F400963F46D009D84DF6C027BB4243D0B3F538
:10170400614FD0D14FF46B0317E0B3F5E13FCAD179
:101714004FF0EB7311E0B3F5612F37D008D8204FA9
:10172400BB4236D0B3F5E12FBDD14FF0E86304E0FE
:101734001C4FBB42B7D14FF08053C5F82435344316
:101744008368224303C9C5F86C2583E8030000209D
:10175400F0BD4FF41D03F0E7134BEEE74FF49E2367
:10176400EBE74FF4A033E8E74FF41C33E5E74FF41D
:101774001D23E2E70D4BE0E70D4BDEE74FF06C7302
:10178400DBE70C4BD9E74FF46503D6E74FF0706302
:10179400D3E74FF08063D0E700B0130000A04E0001
:1017A40090D0030040420F000050270000C0750095
:1017B40000F03A0000903A01026870B59268184B44
:1017C40014684FF00052856803219A601D26002298
:1017D400C3F87412C3F87022C4F80C651C26C4F84C
:1017E40014654FF000669E60C3F86C12C3F868225B
:1017F4001B23C4F808351A232946C4F81035FFF70B
:1018040025FF58B90823C4F800351D440123C4F842
:101814001001C4F83455C4F83835236070BD00BFD6
:1018240000258450064B1868043B1B68092B05D11E
:10183400013801288CBF0020012070470020704728
:101844003401FF00054B1868043B1B68092B03D1C6
:10185400431E584258417047002070473401FF002E
:1018640008B5FFF7DFFF30B14FF050230022C3F873
:101874001421C3F81821FFF7E5FF30B101233F4AD3
:101884001360A2F63822C2F878353D4B1B68092B49
:1018940007D13C4B1B68022B02BF01223A4BC3F811
:1018A4007825FFF7CFFF10B10E22384B1A60FFF7EF
:1018B400B9FF20B10022364B1A6001225A6000227F
:1018C400D30003F57F03D3F80013013108D0D3F814
:1018D40000130132D3F80433B2F5807F0B60EFD1EB
:1018E4002C4BDA69D1073BD52B4B1946D3F800248E
:1018F400012AFBD1C3F80425D1F80034012BFBD114
:10190400244BDA69D20708D5DA69234922F00102A7
:10191400DA61D1F80024012AFBD11A6A01320AD112
:101924001A6A22F0FF0242F020021A621A4AD2F81E
:101934000034012BFBD10022174BC3F80425D3F844
:101944000024012AFBD1BFF34F8F1449144BCA68FA
:1019540002F4E0621343CB60BFF34F8F00BFFDE797
:101964001B6A0133C0D00D4AD2F88C3043F4406373
:10197400C2F88C300B4B0C4A1A6008BD384A005030
:101984003001FF003401FF0000400050E4AE03507A
:101994000C4700500080FF000090035000ED00E071
:1019A4000400FA05CC0E00200090D00370B5002688
:1019B400084B53F82040013053F82050A54200D87A
:1019C40070BD236820465B68984700B166600C349C
:1019D400F4E700BFDC2E0000104B70B505461E4630
:1019E4000F4C9C4204D10E4CB44209D1002412E0A5
:1019F40062681AB122681268AA420CD00C34F0E76B
:101A040063680BB90C34EFE723682846196800F0C3
:101A1400E6FE0028F6D1204670BD00BF380F002036
:101A2400D80E002008B50B4D4FF02002EFF31183C0
:101A340082F31188BFF36F8F01F093F801210446FC
:101A44000228D8BF084601F09CF82C62FFF71AF967
:101A5400EAE700BF340100200248034A0021121AB9
:101A640000F0F4BE000000207801002008B506480C
:101A7400064A0749121A00F0BEFEBDE80840054AAE
:101A84000549064800F0B7BEB80E00204C0F0020F0
:101A9400702F000000000000702F000000000020E4
:101AA400012208B50B4B02201A70FFF77FFF0A4A88
:101AB4000A490B4800F03EFD0320FFF777FF00F0D2
:101AC4008BFBFEF7B9FC074A137B23F00103137366
:101AD40008BD00BF76010020642F0000212F000004
:101AE4003E2F0000C800002080B5344BA2B083F321
:101AF40008880024E023324D4FF0010885F8223095
:101B0400EC772C766C76AC766B6A2E4E43F4E0233D
:101B14006B62FFF7D9F9FFF7AFF84FF0FF33AB6211
:101B2400EB6207AB6C222146184600F08FFEB060D2
:101B340020468DF82980FFF739FF4046224DFFF7F4
:101B440035FFDFF89CA000F087FADFF898901F4B70
:101B54004FF4806249462846CDE90483CDE9024426
:101B64005346CDE90044756200F0FEFA6B7B2846CB
:101B740023F004036B7300F084FF154B154FCDE97C
:101B840004830F234FF4A0723846CDE9024312496F
:101B9400124BCDE9004400F0E7FA7B7B4FF48062FE
:101BA40023F004037B7306F11803C6E906334946A0
:101BB40053462846F760FFF743F800BFB80E0020ED
:101BC40000ED00E034010020C8000020652F000073
:101BD4006A2F00005C00002078050020291A00000C
:101BE400A51A00007801002010B5084C23685BB1E9
:101BF400FEF768FF03462068054A03440021BDE858
:101C04001040136100F0BDBF10BD00BF6C01002087
:101C140034010020F8B505460C464FF02003EFF3DD
:101C2400118683F31188BFF36F8F00224FF40047AE
:101C340040F2E73000210A4BE7FB05011A614FF43B
:101C44007A720023FEF77CFA064B1860064B1C6080
:101C5400FFF7CAFF86F31188BFF36F8FF8BD00BF8B
:101C6400340100206C010020680100204FF02003A3
:101C7400EFF3118183F31188BFF36F8F044B9A68DC
:101C8400D37B013BD37381F31188BFF36F8F70470C
:101C940034010020094B03F12802824205D19B68DC
:101CA4008B4202D14B7BDB0606D1D1E900321360B3
:101CB4005A600023C1E90033704700BF340100209B
:101CC40070B5104C064604F1280000F0D0FE05461D
:101CD400A368597B880644BF41F00801597305B9CC
:101CE400E5684EB95A7BD20606D1AA6922B9DA89C7
:101CF4007F2A01D9636270BDAB4201D0FFF774FF44
:101D04006562F8E73401002010B54FF02003EFF3CB
:101D1400118483F31188BFF36F8F084B00209A68F6
:101D2400D37B0133D373FFF7CBFF84F31188BFF365
:101D34006F8FBDE8104000F090BE00BF340100205A
:101D440070B4437BDB062AD1836943BB154A114631
:101D540051F8284F8C4218BF2346002B38BF00236C
:101D6400D46AB3B190F90E6093F90E50AE4203DB1E
:101D7400A3420ED01B68F4E75A68C0E90032106031
:101D84005860437B63F07F03437370BC0020FFF70C
:101D940097BFC0E90014D36A1860D062F1E770BC41
:101DA400704700BF3401002010B54FF02002EFF35C
:101DB400118482F31188BFF36F8F427B510704D4DF
:101DC40084F31188BFF36F8F10BD22F004024273B5
:101DD400FFF7B6FF2146BDE81040014800F026BEDB
:101DE400770100200146F8B54FF02003EFF311848A
:101DF40083F31188BFF36F8F90F90D30002B02DA53
:101E04001948FFF747FF194A104650F8283FD56A8A
:101E1400834208BF0023002B38BF0023EBB191F9A4
:101E24000E7093F90E60B74203DB9D4215D01B6818
:101E3400F4E75868C1E90030016059604B7B906851
:101E440063F07F034B73431A58425841FFF738FF3E
:101E540084F31188BFF36F8FF8BDC1E90005D36A1D
:101E64001960D162EAE700BF5C0100203401002060
:101E740038B5154A154B146801469868A0421C46AB
:101E840003D1BDE83840FFF7AFBE00251560104A06
:101E94001268B2B1C2897F2A13D80E4A90F90E5043
:101EA400126895420DDB0C4A90420AD0826942B90D
:101EB4001A698A4202DCFFF795FFE2E7521A1A61B7
:101EC40038BD00232361FBE76401002034010020B6
:101ED4006C010020680100205C00002070B50446FD
:101EE400183000F028FE4FF02003EFF3118683F33F
:101EF4001188BFF36F8F94F90D30002B07DA214658
:101F04000E48FFF7C7FE637B03F07F0363730C4D3A
:101F1400637BA86843F010036373031B5842584162
:101F2400FFF7CEFE86F31188BFF36F8FAB68A34231
:101F340003D1BDE8704000F090BD70BD5C0100208D
:101F44003401002038B5036D044603B1984704F109
:101F5400180000F0F0FD4FF02003EFF3118583F338
:101F64001188BFF36F8F637BD8061BD1A269CAB9EE
:101F7400190607D521461248FFF78CFE637B03F050
:101F84007F0363730F4B9868021B50425041FFF765
:101F940097FE637B43F00803637385F31188BFF3F3
:101FA4006F8F38BD9B07F4D52146A068FFF772FEFA
:101FB400637B23F0020363730023A360E9E700BF9C
:101FC4005C0100203401002008B590F90D30014671
:101FD400002B06DA0748FFF75DFE4B7B03F07F0317
:101FE4004B73054B9868431A58425841BDE8084062
:101FF400FFF766BE5C01002034010020F8B5451CE3
:1020040000F0D9FD2C184FF02003EFF3118783F370
:102014001188BFF36F8F0D4E0D4BB068186000F040
:102024006BFDB0680B492A46183000F069F9B268B4
:102034003846537B43F010035373FEF76BFD00F0F7
:10204400BAFD201A20EAE070F8BD00BF3401002078
:1020540064010020A72A00000021044B084603F174
:102064002802C3E90A22FFF7D5BD00BF34010020CE
:10207400F8B5244C244BA2689A4230D04FF0200388
:10208400EFF3118583F31188BFF36F8FA16804F117
:102094002800FFF7FFFDA36AA268834208BF00235C
:1020A400002B38BF0023E16A2BB392F90E7093F929
:1020B4000E60B74203DB8B421DD01B68F4E75968FE
:1020C400C2E900310A605A60537B012063F07F0348
:1020D4005373FFF7F5FD85F31188BFF36F8F4FF04E
:1020E4002003EFF3118083F31188BFF36F8FBDE8F2
:1020F400F840FEF70FBDC2E90001E36A1A60E2622C
:10210400E2E700BF340100205C00002038B5431C26
:10211400044605D1104B986800F03EF8204638BDBF
:102124004FF4004540F2E73000214FF47A72E5FBAA
:1021340004010023FEF704F8044648B9FFF798FFAA
:102144004FF47A7084FB0001C40B44EA4144E5E790
:10215400FFF754FF0446F3E734010020014B98686D
:10216400704700BF3401002030B587B00E9D04468F
:1021740004950D9D03950C9D02950B9D01950A9D5B
:102184000095FEF73BFD034B9B6803B11B6E236672
:1021940007B030BD3401002038B504464FF02003A9
:1021A400EFF3118583F31188BFF36F8FFFF796FE6A
:1021B400074B9B68A34205D12946BDE83840054832
:1021C40000F034BC85F31188BFF36F8F38BD00BFB6
:1021D40034010020770100202DE9F04F284E294DCD
:1021E400B04687B0B54205F1300410D3FFF73EFD89
:1021F4004FF4004940F2E7360027224CDFF888A06C
:10220400444521D307B0BDE8F04FFFF77DBD54F836
:10221400043C059354F8103C049354F8143C039381
:1022240054F8183C029354F81C3C019354F8203C95
:10223400009354E90A2354E90C01FFF795FF54F87D
:10224400303CDD642546CDE7616A4B1C04D025682B
:1022540021B92846FFF7A8FD3034D1E7B346BC4680
:10226400E9FB01BC4FF47A72002358466146FDF73E
:1022740067FF5146421C05F1180000F041F8EBE7F6
:10228400380F0020380F0020A72A0000034B1B68DA
:102294000BB9FEF717BC0020704700BF7001002087
:1022A400036840B1074A5268904204D01BB19A684F
:1022B40081680A449A60426813605A600023C0E946
:1022C40000337047D00E00200B4B10B51C689C42A5
:1022D40008BF0024FFF7DAFF54B1A368181A20EAF4
:1022E400E070064B1B6913B19842A8BF184610BD95
:1022F4006FF00040F5E700BFD00E0020340100204D
:1023040070B504461646C1604FF02003EFF3118503
:1023140083F31188BFF36F8FFFF7B8FF012EACBFB3
:1023240080190130164BA0601A689A4201D05E6889
:1023340032B95A68236062605A6814605C600AE0CB
:102344009068A168884215DD411A91605168C4E91A
:1023540000210C6054601A689A4206D0944204D159
:10236400FFF7B2FF0021FEF757FB85F31188BFF397
:102374006F8F70BD091A9642A160DAD01268D7E750
:10238400D00E00202DE9F0470646FFF771FD4FF00F
:102394002003EFF3118483F31188BFF36F8FDFF809
:1023A40084801F4DC146DFF880A02E60DAF800005B
:1023B4002A685045D8E9006705D020B18368934264
:1023C40013DD9B1A8360B61847EBE277C9E900670F
:1023D40000262E60FFF778FF3146FEF71DFB84F3DD
:1023E4001188BFF36F8FBDE8F087F61847EBE377EA
:1023F400D31A2B6000238360C8E90067FFF750FFFE
:1024040084F31188BFF36F8FC36898474FF020039C
:10241400EFF3118483F31188BFF36F8FC6E700BF16
:102424007001002000000020D00E002010B54FF0F5
:102434002003EFF3118483F31188BFF36F8FFEF74A
:1024440041FB064BD3E90023121843F1000384F344
:102454001188BFF36F8F1046194610BD000000208D
:1024640038B5074C074DAC4201D3002038BD04F108
:1024740014032046C4E9053300F006F81C34F2E7DF
:10248400380F0020380F0020FF232DE9F04F466855
:10249400C372324600234FF00C090789016806FB1A
:1024A40007FC90F80A806144984505DC002319462E
:1024B4008F4220DCBDE8F08FBCFBF2F509FB03FE84
:1024C400D0F80CA0202D0AEB0E0404F1040BC4E98F
:1024D40001BB05D8C372920822F003020133E3E77B
:1024E40015F11F0448BF05F13E0464114AF80E10AB
:1024F40001EB8401EFE7C268056802F1040CEC18F3
:1025040045F803C0956801316560956833442C60D3
:102514009460CDE70020704770B50D460446452011
:10252400A04729465220A04729462346BDE87040CB
:10253400522018470FB407B504A951F8040B0191B0
:10254400FEF79AF903B05DF804EB04B07047044653
:1025540008B5084611461A46A047FFF7FFFDFEF7E7
:10256400C7FC7047FFF77CB90C228368C9B202FB31
:1025740001314B7A23B9087AB0FA80F040097047E8
:10258400022070470268F8B597688668CCB24FF0AD
:102594002003EFF3118583F31188BFF36F8F0C22AF
:1025A4006243B1180B7A1BB3013BDBB20B7213BB52
:1025B400B3503A444B605368B3B90C23012103FB75
:1025C4000473DA7A1B8902F150221160002203F1AC
:1025D40050231A600C21002001FB0464607285F30F
:1025E4001188BFF36F8FF8BD98470028E5D1F1E754
:1025F4006FF04400F3E70020F1E7F8B50C2483689A
:10260400054604FB013401230E4663724FF0200398
:10261400EFF3118183F31188BFF36F8F23682BB11C
:1026240060681A688342226008BF626081F311887F
:10263400BFF36F8F03B9F8BD3146D3E90172284661
:10264400B847E3E72DE9F843036805469F68D0F8E7
:1026540008E0CEB24AB10C2373435EF803309A42C9
:1026640062D013B11B68002BF9D14FF02003EFF3B4
:10267400118C83F31188BFF36F8F0C2070430EEB22
:1026840000031C7A0134E4B21C728CF31188BFF38A
:102694006F8F62B34FF0502C4FF00308CCF80883CF
:1026A40093F809C0BCF1000F15D14FF02008EFF3E7
:1026B400118988F31188BFF36F8FC2F800C0D3F873
:1026C4000480B8F1000F22D15A604EF8002089F33B
:1026D4001188BFF36F8F4FF050230320C3F8040316
:1026E400BCF1000F03D0D2E9013228469847012CEF
:1026F4000BD10C237343FB586BB90C23012203FB4E
:102704000676B37A03F150231A6000200EE0C8F86D
:1027140000205A60DBE7284698470028EDD131466F
:102724002846FFF76AFFF0E76FF00F00BDE8F88373
:102734000022FFF787BF10B50022044601210520BF
:10274400FEF746FA0520FEF733FA4FF05023022233
:10275400C3F8182503220020C3F80423A368C3E99F
:102764000000A368C3E9030010BD70477047FEF77B
:102774008FBA00F03EB90146006800F03AB908B5D6
:10278400FEF790FABDE80840FEF7B6B930B54B68DD
:102794000C6885B00A898D7A0094013B24F01F04EB
:1027A400234402F01F0242EA451223F01F030F28BC
:1027B40004468DF80820039305D86946FEF7E8FB24
:1027C400204605B030BD6FF01504F9E740E800F38A
:1027D40013F4803FD8B208BF6FF015007047431E52
:1027E400013913F8012F11F8010F824201D1002A97
:1027F400F7D1101A7047F0B581EA0004A507034623
:102804000BD0013B0A4491421BD1F0BD002AFCD0FD
:1028140011F8014B013A03F8014B9C07F6D122F061
:1028240003041D1F96080F19B94205D16FF0030563
:10283400234405FB0622E4E751F804CB45F804CF12
:10284400F2E711F8014B03F8014FDCE7034670B5DA
:10285400C9B29C0711D141EA012422F0030644EADB
:1028640004451E449408B3420DD16FF0030505FBE3
:1028740004221A44934209D170BD002AFCD003F803
:10288400011B013AE5E743F8045BECE703F8011B9D
:10289400F0E74FF0FF307047036800209B685B68E7
:1028A4001B690B60704703689B685B68586842400B
:1028B4000A4042405A6000207047036800209B6829
:1028C4005B6899607047036800209B685B68D96007
:1028D4007047036800209B685A6853684B405360F4
:1028E4007047836830B5586858B10024814213D1C9
:1028F40008685CB99C685860A14200D198600020C7
:10290400086072B9002030BD2846EFE7206098685F
:10291400814208BF9C60F2E705680446002DF3D1AC
:102924003AB15A680A60986859600028EAD19960F7
:10293400E9E76FF01500E6E7012310B4846803FAB1
:1029440001F2236923EA0203236110BCFEF7E8BC09
:10295400012310B4846803FA01F223691343236149
:1029640010BCFEF7DDBC0B46826892E8030083E8E6
:1029740003000020704703689B681B68D3F8800439
:10298400C3F880047047036882689B681B68D3F8A7
:10299400100138B1127A00200A700122C3F8100124
:1029A4001A6070474FF0FF3070470022036882B00E
:1029B4009B688DF807101B68C3F820210DF10702EE
:1029C400C3F844250122C3F848259A60D3F820119E
:1029D4000029FBD0DA6002B070474FF02002EFF319
:1029E400118382F31188BFF36F8FFEE708B5FFF7F9
:1029F400F4FFF8B505460E464FF02003EFF31187B8
:102A040083F31188BFF36F8FFFF7A8FB31460446A9
:102A14002846FFF7EBFF87F31188BFF36F8F20463B
:102A2400BDE8F840FEF764BAFFF7A0BE21B9EFF3A2
:102A3400058008B9FEF76EB881F31188BFF36F8F74
:102A44007047034620B9EFF305820AB9FEF762B86E
:102A540083F31188BFF36F8F70474FF02003EFF3B8
:102A6400118083F31188BFF36F8FFFF7EABF03462A
:102A74000068834203D0002838BF0020704700203C
:102A8400704710B54FF02003EFF3118483F31188DE
:102A9400BFF36F8FFFF754F984F31188BFF36F8F7F
:102AA40010BD38B550F8103C0446A0F11801C3B16C
:102AB4004FF02003EFF3118583F31188BFF36F8F79
:102AC40050F8100CFFF7E6F814F80B3C23F002035F
:102AD40004F80B3C002344F8103C85F31188BFF341
:102AE4006F8F14F80B3C084623F0140304F80B3CD6
:102AF400BDE83840FFF7C5BF10B54FF02003EFF332
:102B0400118483F31188BFF36F8FFFF75DFA84F3A9
:102B14001188BFF36F8F10BD10B5029C83730473CB
:102B240000230424C0E90633C0E91333C0E91612B4
:102B34004473C37310BD10B54FF02002EFF311843A
:102B440082F31188BFF36F8F03683BB1FFF7A8FBD3
:102B5400002084F31188BFF36F8F10BD6FF0150050
:102B6400F7E710B54FF02003EFF3118483F31188D6
:102B7400BFF36F8FFFF7A8FB84F31188BFF36F8F48
:102B840010BD70B504460D464FF02003EFF31186D7
:102B940083F31188BFF36F8FFFF796FB012805DDE0
:102BA400A04203DD29462046FDF736FF86F311884F
:102BB400BFF36F8F70BD08B5FFF738FC08BD7047D1
:082BC400B0D5FF7F0100000005
:102BCC0000000000732700000000000073270000C5
:102BDC0000000000732700000000000073270000B5
:102BEC000000000073270000000000001D09000019
:102BFC000000000073270000000000007327000095
:102C0C000000000073270000000000007327000084
:102C1C000000000073270000000000007327000074
:102C2C00000000007327000000000000F9140000F1
:102C3C000000000073270000000000007327000054
:102C4C000000000073270000000000007327000044
:102C5C000000000073270000000000007327000034
:102C6C000000000073270000000000007109000044
:102C7C000000000073270000000000007327000014
:102C8C000000000073270000000000007327000004
:102C9C0000000000732700000000000073270000F4
:102CAC0000000000732700000000000073270000E4
:102CBC0000000000732700000000000073270000D4
:102CCC0000000000732700000000000073270000C4
:102CDC0000000000732700000000000073270000B4
:102CEC0000000000732700000000000073270000A4
:102CFC000000000073270000000000007327000094
:102D0C000000000073270000000000007327000083
:102D1C000000000073270000000000007327000073
:102D2C000000000073270000000000007327000063
:102D3C000000000073270000000000007327000053
:102D4C000000000073270000000000007327000043
:102D5C000000000073270000000000007327000033
:102D6C000000000073270000000000007327000023
:102D7C000000000073270000000000007327000013
:102D8C000000000073270000000000007327000003
:102D9C0000000000732700000000000073270000F3
:102DAC0000000000732700000000000073270000E3
:102DBC0000000000732700000000000073270000D3
:082DCC00000000007327000065
:102DD400642F00009908000000000000642F000028
:102DE4000109000000000000022F00003B27000042
:102DF400482E0000082F0000B10900000000000068
:102E0400642F00002511000000000000F42E0000D3
:102E14003D120000B42E0000FB2E0000BD17000080
:102E2400D42E0000642F0000652400000000000080
:102E34003527000089250000492600000000000015
:102E44006D250000000000000000000000010004E7
:102E540000000000000000000401080C0200000053
:102E6400682E000000000000122F00000600000081
:102E7400E0FF0F00000000201A2F000021000000D6
:102E8400E0FF00206D1200009D280000AB28000028
:102E9400BF280000CB280000D728000069140000D8
:102EA400E7280000552900003D290000000000002B
:102EB400FFFFFFFF00258450000000008B29000065
:102EC400AF2900007B290000511600006B29000087
:102ED4000080005001000000D80E0020200F0020C8
:102EE4002C0F0020380F0020380F0020F5FFFFFFC3
:102EF4004750494F5F3000554152545F3000434CB6
:102F04004F434B007379735F636C6F636B00464C84
:102F14004153485F30005352414D5F300076322EAA
:102F2400322E302D7263312D3239302D67653434B1
:102F3400373965326665636565002A2A2A20426F3F
:102F44006F74696E67205A6570687972204F5320D8
:102F54006275696C64202573202573202A2A2A0A45
:0C2F6400006D61696E0069646C6500001E
:102F7000192500009728000000C20100000103008D
:102F8000000000000090D003D00E0020D00E0020E2
:102F9000D42D00000000000000000000282E0000DA
:102FA0000000000000000000042E000000000000EF
:102FB00000000000EC2D0000342E00000C0000206A
:102FC0001C2E0000C02E0000C00E0020E02D0000CE
:102FD0000000000000000000F82D000000000000CC
:102FE00000000000102E0000882E00003C00002091
:102FF000380F0020380F0020000000000000000003
:043000000F000000BD
:0400000300000D1DCF
:00000001FF
