:100000000020001003010000D5000000D700000010
:1000100000000000000000000000000051DDFFEFC4
:10002000000000000000000000000000B903000014
:1000300000000000000000009D040000E504000036
:10004000DF000000DF000000DF000000DF00000034
:10005000DF000000DF000000DF000000DF00000024
:10006000DF000000DF000000DF000000DF00000014
:10007000DF000000DF000000DF000000DF00000004
:10008000DF000000DF000000DF000000DF000000F4
:10009000DF000000DF0000000000000000000000A2
:1000A000DF000000DF000000DF00000000000000B3
:1000B000DF000000DF000000DF000000DF000000C4
:1000C0003C1D0000000000100800000008000010A7
:1000D00098080000FEE7FEE7FEE7FEE7FEE7FEE722
:1000E000002310B5934203D21C585C500433F9E747
:1000F00010BD00231A008B4202D21A500433FAE7D3
:10010000704710B50C4C0D4B9C4206D2A26861683A
:100110002068FFF7E5FF0C34F5E7094B9C4205D258
:1001200061682068FFF7E5FF0834F6E700F0BCFEE1
:1001300001F092F9FEE7C046C0000000CC000000CC
:10014000D400000080B500AF72B6FEE780B500AF06
:1001500030BFC046BD4680BD80B582B000AF78607C
:10016000396072B6FEE7C04680B584B000AF7860F3
:100170000023FB607B680722134004D07B680722C2
:10018000934308337B6000F007FB184B1B68002B80
:1001900005D1174B072293431A00144B1A60154BD5
:1001A0001A687B68D318144A934213D8114B1A6803
:1001B0007B68D2180F4B1B689A420BD90B4B1A68FD
:1001C0000C4B1B68D318FB600A4B1A687B68D2186B
:1001D000084B1A6000F0ECFAFB68002B01D1FFF726
:1001E000B1FFFB681800BD4604B080BD0C060010CE
:1001F0001000001008060010F705000080B582B05E
:1002000000AF78607B68002B01D072B6FEE7C04675
:10021000BD4602B080BDC04680B582B000AF7860F8
:100220007B6808331A007B685A607B68012252425F
:100230009A607B6808331A007B68DA607B68083351
:100240001A007B681A617B6800221A60C046BD46AE
:1002500002B080BD80B582B000AF78607B680022BC
:100260001A61C046BD4602B080BDC04680B584B0AC
:1002700000AF786039607B685B68FB60FB685A6838
:100280003B685A607B685A683B689A60FB685B68A9
:100290003A689A60FB683A685A607B683A685A60C4
:1002A0003B687A681A617B681B685A1C7B681A6015
:1002B000C046BD4604B080BD80B584B000AF786054
:1002C00039603B681B68BB60BB68013303D17B6846
:1002D0001B69FB600CE07B680833FB6002E0FB6895
:1002E0005B68FB60FB685B681A68BB689A42F6D97A
:1002F000FB685A683B685A603B685B683A689A607A
:100300003B68FA689A60FB683A685A603B687A68AA
:100310001A617B681B685A1C7B681A60C046BD4620
:1003200004B080BD80B584B000AF78607B685B6846
:100330007A6892689A607B689B687A6852685A60AB
:100340007B681B69FB60FB685A687B689A4203D133
:100350007B689A68FB685A607B6800221A61FB68B8
:100360001B685A1EFB681A60FB681B681800BD46B4
:1003700004B080BD80B584B000AFF860B9607A6029
:10038000FB68043BFB60FB68802252041A60FB6838
:10039000043BFB60BA68FB681A60FB68183BFB60B3
:1003A0007A68FB681A60FB68203BFB60FB681800FA
:1003B000BD4604B080BDC046084B196808681030BF
:1003C000F0C8A046A946B246BB4680F3098820384B
:1003D000F0C871460D2001430847C04610060010C2
:1003E000C046C0460020006880F3088862B600DF7F
:1003F000C046C04680B500AF0C4B0C4A1268FF21C6
:1004000009040A431A60094B084A1268FF210906C9
:100410000A431A6000F07AF8054B00221A60FFF7D1
:10042000E1FF00231800BD4680BDC04620ED00E07E
:100430000000001080B500AF054B802252051A6005
:10044000BFF34F8FBFF36F8FC046BD4680BDC04620
:1004500004ED00E080B500AF72B6064B1B685A1C75
:10046000044B1A60BFF34F8FBFF36F8FC046BD467A
:1004700080BDC0460000001080B500AF064B1B6871
:100480005A1E054B1A60044B1B68002B00D162B644
:10049000C046BD4680BDC04600000010EFF3098095
:1004A0000E4B1A6820381060F0C044464D46564640
:1004B0005F46F0C008B572B600F098FA62B60CBCA0
:1004C000116808681030F0C8A046A946B246BB467D
:1004D00080F309882038F0C81847C046100600107D
:1004E000C046C04680B582B000AF074B802252059F
:1004F0001A6000237B6072B600F0DAF962B6C0467B
:10050000BD4602B080BDC04604ED00E0B0B500AF0E
:10051000084C094B1A68FA239900100001F03BFBC4
:100520000300013B2360054B07221A60C046BD460D
:10053000B0BDC04614E000E09C08001010E000E0F0
:1005400090B58BB002AFF860B9603B60BB1D1A80FC
:10055000FB68002B01D172B6FEE73B6B072B01D97C
:1005600072B6FEE7BA6BBB1D1B881100180000F0C5
:10057000ADFB0300BB61BB69002B00D186E0BB690A
:100580001A6BBB1D1B884D498C4663449B00D318D6
:100590007B617B69072293437B617B690722134060
:1005A00001D072B6FEE7FC6B3A6BB968B869BB1D47
:1005B0001B880093230000F09FFA3A68F9687B6972
:1005C0001800FFF7D7FE0200BB691A60BB691B6801
:1005D0001A000723134001D072B6FEE77B6B002B95
:1005E00002D07B6BBA691A60FFF734FF344B1B688B
:1005F0005A1C334B1A60334B1B68002B09D1314B0B
:10060000BA691A602E4B1B68012B0FD100F0AAFAB1
:100610000CE02D4B1B68002B08D12A4B1B68DA6AB3
:100620003B6B9A4202D8274BBA691A60BB69DA6AF7
:10063000264B1B689A4203D9BB69DA6A234B1A60BE
:10064000234B1B685A1C224B1A60214B1A68BB694A
:100650001A64BB69DA6A1F4B1B689A4203D9BB69EB
:10066000DA6A1C4B1A60BB69DA6A13009B009B189C
:100670009B00194A9A18BB69043319001000FFF750
:10068000F5FD0123FB61FFF7F7FE02E001235B426A
:10069000FB61FB69012B0BD10B4B1B68002B07D0B7
:1006A000084B1B68DA6A3B6B9A4201D2FFF7C2FE25
:1006B000FB691800BD4609B090BDC046FFFFFF3F73
:1006C0002407001010060010340700102C0700103B
:1006D00048070010300700101406001080B584B0E1
:1006E00000AF78600023FB607B68002B14D000F023
:1006F00053F80E4B1A687B68D318BB600C4B1B6811
:1007000004331800FFF70EFEBB68180000F0A8FACB
:1007100000F04EF80300FB60FB68002B01D1FFF7EF
:1007200089FEC046BD4604B080BDC0462807001003
:100730001006001080B586B004AF1349134800239B
:1007400003930023029300230193002300930023CB
:100750004022FFF7F5FE03007B607B68012B09D187
:1007600072B60B4B01221A600A4B00221A60FFF787
:1007700041FE04E07B68002B01D172B6FEE7C04663
:10078000BD4602B080BDC0465C1C0000D50A00001A
:10079000340700102807001080B500AF034B1B681A
:1007A0005A1C024B1A60C046BD4680BD3807001077
:1007B00090B583B000AF00237B60354B1B68002BE6
:1007C00001D172B6FEE7FFF745FE314B1B685A1E9A
:1007D0002F4B1A602E4B1B68002B52D12D4B1B68E0
:1007E000002B4ED000233B6027E02B4BDB68DC68FE
:1007F000230018331800FFF795FD231D1800FFF79D
:1008000091FDE26A254B1B689A4202D9E26A234BAA
:100810001A60E26A13009B009B189B00204A9B18F9
:10082000221D11001800FFF721FDE26A1D4B1B6815
:10083000DB6A9A4201D301233B60174B1B68002BF4
:10084000D3D1194B1B68002B0DD006E000F030F817
:10085000154B1B685A1E144B1A60134B1B68002B58
:10086000F4D101233B603B68012B03D00F4B1B6885
:10087000012B06D101237B600C4B00221A60FFF78D
:10088000D9FDFFF7F9FD7B681800BD4603B090BDA8
:100890003807001024070010E4060010300700108D
:1008A00014060010100600103C070010400700104E
:1008B00080B584B000AF444B1B68002B00D079E0BA
:1008C000424B1B685A1C414B1A60404B1B68002B63
:1008D00028D13F4B1B681B68002B01D072B6FEE786
:1008E0003B4B1B68FB603B4B1A68394B1A60394B1A
:1008F000FA681A60384B1B685A1C374B1A60344B25
:100900001B681B68002B04D1344B012252421A6031
:1009100008E02F4B1B68DB68DB68BB60BB685A686C
:100920002E4B1A60294B1A682C4B1B689A4247D3EE
:10093000274B1B681B68002B04D1284B0122524215
:100940001A603DE0224B1B68DB68DB68BB60BB685C
:100950005B687B601D4B1A687B689A4203D21F4B11
:100960007A681A602CE0BB6804331800FFF7DAFCE1
:10097000BB689B6A002B04D0BB6818331800FFF7D4
:10098000D1FCBB68DA6A164B1B689A4203D9BB6874
:10099000DA6A134B1A60BB68DA6A13009B009B1873
:1009A0009B00104A9A18BB68043319001000FFF727
:1009B0005DFCBDE70C4B1B685A1C0B4B1A60FFE734
:1009C000C046BD4604B080BD38070010280700109F
:1009D000DC060010E00600104407001004000010C0
:1009E00030070010140600103C07001080B582B0DC
:1009F00000AF324B1B68002B03D0314B01221A6031
:100A000057E0304B1B681A682E4B1B681B6B9A42D1
:100A100008D82C4B1A682B4B1B6834331900100074
:100A2000FFF79AFB274B1B681B6B27491422180002
:100A300000F074FD031E14D0224B1A68214B1B6872
:100A4000343319001000FFF787FB0AE01F4B1B68C7
:100A5000002B01D172B6FEE71C4B1B685A1E1B4BC4
:100A60001A601A4B1A681A4913009B009B189B00C6
:100A70005B58002BEAD0154B1A6813009B009B189B
:100A80009B00134A9B187B607B685B685A687B6895
:100A90005A607B685A687B6808339A4204D17B6845
:100AA0005B685A687B685A607B685B68DA68054BEC
:100AB0001A60C046BD4602B080BDC046380700106F
:100AC00040070010100600107C1C000030070010CA
:100AD0001406001080B582B000AF786000F086F890
:100AE000044B1B68012B01D9FFF7A4FCFFF72EFB79
:100AF000F4E7C0461406001080B584B000AFF8607B
:100B0000B9607A603B60FB683433B9680A22180028
:100B100000F070FDFB683D22002199547B68072B93
:100B200001D907237B60FB687A68DA62FB687A6820
:100B30009A64FB6804331800FFF78CFBFB681833DA
:100B40001800FFF787FBFB68FA681A617B680822C8
:100B5000D21AFB689A61FB68FA685A62C046BD46C1
:100B600004B080BD80B582B000AF00237B600CE094
:100B70007A6813009B009B189B00144A9B1818006E
:100B8000FFF74AFB7B6801337B607B68072BEFD95B
:100B90000F4B1800FFF740FB0E4B1800FFF73CFB14
:100BA0000D4B1800FFF738FB0C4B1800FFF734FB18
:100BB0000B4B1800FFF730FB0A4B054A1A600A4B33
:100BC000044A1A60C046BD4602B080BD140600103B
:100BD000B4060010C8060010E4060010F806001065
:100BE00010070010DC060010E006001080B582B08F
:100BF00000AF27E0FFF7D0FD164B1B685A42534168
:100C0000DBB27B60FFF7D4FD7B68002B1AD1FFF7C6
:100C100021FC104BDB68DB683B603B680433180049
:100C2000FFF780FB0C4B1B685A1E0B4B1A600B4BDB
:100C30001B685A1E094B1A60FFF71EFC3B68180020
:100C400000F07AF8054B1B68002BD3D1C046BD4697
:100C500002B080BDF8060010240700100C07001039
:100C600080B582B000AF7860134B1B687A685A6019
:100C7000124B1B687A689A4209D2114B1A680E4BC4
:100C80001B68043319001000FFF716FB10E00D4B32
:100C90001A68094B1B68043319001000FFF70CFB9E
:100CA000094B1B687A689A4202D2074B7A681A602D
:100CB000C046BD4602B080BD1006001028070010D7
:100CC000E0060010DC0600100400001080B584B0BF
:100CD00000AF02003960BB1D1A804C20FFF744FAB8
:100CE0000300FB60FB68002B21D03B68002B07D181
:100CF000BB1D1B889B001800FFF736FA020000E0BE
:100D00003A68FB681A63FB681B6B002B06D1FB6813
:100D10001800FFF773FA0023FB6008E0FB68186B0C
:100D2000BB1D1B889B001A00A52100F09EFBFB68E1
:100D30001800BD4604B080BD80B582B000AF7860B9
:100D40007B681B6B1800FFF759FA7B681800FFF7E8
:100D500055FAC046BD4602B080BDC04680B500AF62
:100D600000F014FA00F026F9C046BD4680BDC0462A
:100D700080B584B000AF78600F23FB1800221A7092
:100D80000F23FB181B781900002000F0F9F80F233F
:100D9000FB180F22BA18127801214A401A70FA2360
:100DA0009B001800FFF79AFCEAE7C04680B584B0C4
:100DB00000AF78600F23FB1800221A700F23FB1876
:100DC0001B781900012000F0DBF80F23FB180F221D
:100DD000BA18127801214A401A70024B1800FFF726
:100DE0007DFCEBE7A086010080B584B000AF7860A1
:100DF0000F23FB1800221A700F23FB181B78190011
:100E0000022000F0BDF80F23FB180F22BA18127849
:100E100001214A401A70024B1800FFF75FFCEBE714
:100E200050C3000080B584B004AFFFF797FF1849A6
:100E30001848002303930023029300230193012306
:100E4000009300234022FFF77BFB13491348002344
:100E500003930023029300230193012300930023B3
:100E60004022FFF76DFB0E490E4800230393002339
:100E70000293002301930123009300234022FFF7F4
:100E80005FFBFFF757FC01231800BD4680BDC0463D
:100E9000901C0000AD0D00009C1C0000E90D00003E
:100EA000A81C0000710D000080B500AF00F064F9CF
:100EB000C046BD4680BDC04690B583B000AF7860E7
:100EC0000C0010001900FB1C221C1A70BB1C021C19
:100ED0001A707B1C0A1C1A70FB1C1B781B047A6896
:100EE000D318BA1C1278012191400A00791C0878A5
:100EF000B91C0978884001009200D150C046BD4617
:100F000003B090BD80B582B000AF786008001100DA
:100F1000FB1C021C1A70BB1C0A1C1A70FB1C1B78E1
:100F20001B047A68D218FB1C1B781B047968C9184B
:100F300080231B02C958BB1C1B780120984003006A
:100F4000194380231B02D150C046BD4602B080BD6C
:100F500080B584B000AFF860B9607A607B68180033
:100F6000BD4604B080BDC04680B500AFA023DB0500
:100F7000072200211800FFF7C5FFC046BD4680BD0F
:100F800080B582B000AF0200FB1D1A70BB1D0A1CA9
:100F90001A70FB1D1B78002B08D1BB1D1A78A023EB
:100FA000D805130007220021FFF786FFC046BD4683
:100FB00002B080BD80B500AFA023DB05180000F0B3
:100FC000FFF9FFF7D1FFC046BD4680BD80B584B0B4
:100FD00000AF0200FB1D1A70074B1B6903229343ED
:100FE000FB60054BFA1D1178FA680A431A61C04686
:100FF000BD4604B080BDC04600C0034080B582B08D
:1010000000AF0200FB1D1A70BB1D0A1C1A70084BB2
:10101000FA1D12781F211140BA1D1278520160206A
:1010200002400A439A60C046BD4602B080BDC04639
:101030000080044080B500AF044BDB680122134000
:101040005A1E9341DBB21800BD4680BD00800440AB
:1010500080B582B000AF7860034B7A689A67C0466B
:10106000BD4602B080BDC0460080044080B582B05D
:1010700000AF0200FB1D1A700749074A8023D358AE
:10108000FA1D1278012090400200134380228B50F9
:10109000C046BD4602B080BD0080044080B584B02B
:1010A00000AFF8607A600B23FB180A1C1A700B2340
:1010B000FB181A78FB6892007968D150C046BD468B
:1010C00004B080BD80B582B000AF202000F0A4F94C
:1010D00000237B6002E07B6801337B607B68FF2B31
:1010E000F9DD012000F0A6F8802000F075F901215B
:1010F0000320FFF783FF802000F08EF9C046FFF742
:1011000099FF03001A0001235340DBB2002BF6D1F4
:101110000120FFF79DFF0220FFF758FF032000F09A
:101120009FF8C046BD4602B080BDC04680B582B0C3
:1011300000AF1020FFF79AFF00237B6010E00C4BFC
:101140007A689200D15C0A4B7A689200D3581B0AE5
:101150001A00084B1800FFF7A1FF7B6801337B6082
:101160007B68092BEBD9C046BD4602B080BDC046A6
:10117000B81C00000040044080B500AFFFF7A2FF9C
:10118000FFF7D4FFC046BD4680BDC04680B500AF66
:1011900000F0ECF80200024B1A60C046BD4680BD6C
:1011A0009C08001080B500AF024B1B681800BD46BC
:1011B00080BDC046B41C000080B500AF014B1800D4
:1011C000BD4680BD001BB70080B584B000AF78601D
:1011D0007B685B09DAB20F23FB180F210A401A70F3
:1011E0007B681F221340BB600F23FB181A78074B44
:1011F0009200D258BB6801335B001900100000F068
:10120000CAFC03001800BD4604B080BDE01C00000D
:1012100080B584B000AF786039607B681F221340CE
:101220000133FB603B68FA6853431800BD4604B0C5
:1012300080BDC04680B582B000AF0200FB1D1A70B1
:10124000064BFA1D12781A64044B00225A64034BB1
:1012500001225A64C046BD4602B080BD00800440F1
:1012600080B582B000AF0200FB1D1A70064BFA1D5C
:1012700012781A67044B00225A67034B01225A67FF
:10128000C046BD4602B080BD0080044080B500AFBE
:10129000044B5B6A1800FFF797FF03001800BD4678
:1012A00080BDC0460080044080B582B000AF0D4BC9
:1012B0001B6C1A000323134002D0012B05D009E058
:1012C000FFF77AFF03007B6006E0FFF76BFF030088
:1012D0007B6001E000237B607B681800BD4602B0A4
:1012E00080BDC04600800440B0B500AF064B9C688E
:1012F000FFF7DAFF030019002000FFF789FF030062
:101300001800BD46B0BDC0460080044080B582B024
:1013100000AF00237B60144B1B6F1A0003231340A4
:10132000012B0DD002DC002B05D018E0022B0CD0D5
:10133000032B0FD013E0FFF73FFF03007B600EE0AD
:10134000FFF7B2FF03007B6009E0FFF79FFF030098
:101350007B6004E0FFF7C8FF03007B60C0467B684A
:101360001800BD4602B080BD0080044080B500AFCB
:10137000FFF7CCFF0200054B9B6F1900100000F037
:101380000AFC03001800BD4680BDC0460080044032
:1013900080B582B000AF0200FB1D1A700749074AF2
:1013A0008023D358FA1D1278012090400200134385
:1013B00080228B50C046BD4602B080BD00800440F4
:1013C00080B582B000AF78600620FFF7E1FFC0462D
:1013D000BD4602B080BDC04680B584B000AF786025
:1013E0000C4A8E239B00D358FF221340FB607B687E
:1013F000FF221340FA681343FB600649FB68ED22A5
:1014000012021A438E239B00CA50C046BD4604B048
:1014100080BDC0460080044080B584B000AF7860D5
:101420000C4A8E239B00D358FF221340FB607B683D
:10143000FF221340DA43FB681340FB600549FB6859
:10144000ED2212021A438E239B00CA50C046BD46AD
:1014500004B080BD00800440002210B511001000CF
:1014600000F008F8FFF7DEFC10BD10B500F0CDFB72
:1014700010BDFFFFA02270B5214C520000212000BA
:10148000FFF7F3FFC02000F023FA1E4DC022002119
:101490002860FFF7EAFF2B681B4A1900C031136070
:1014A000183328328B42FAD122001849002000F06C
:1014B000EFF8802380225B01D2000021200000F0A1
:1014C0004BF8134D134C29002200012000F0E0F8E6
:1014D000802380225B01D2000021200000F03CF834
:1014E0000D4C29002200022000F0D2F88023802237
:1014F0005B01D2000021200000F02EF870BDC04634
:10150000500700104C07001074070010201D000049
:10151000221D000078070010A007001003000B43F5
:1015200030B59B0709D1032A07D903680C68A34289
:1015300003D104300431043AF5E70024A24208D074
:10154000035D651C0C5DA34201D0181B02E02C005A
:10155000F4E7002030BDFFFFF0B5C6680124B507F1
:101560001AD08025AD00AA420BD08025ED00AA42FA
:1015700004D080256D00AA420ED102E0416A23000A
:1015800004E0064F5D1E0124BD4205D8002432430D
:1015900001610160C361C2602000F0BDFEFFFF0079
:1015A000032210B5431C104206D00130411E0978B9
:1015B0000029F8D1C01A18E00C4C02680C495118E7
:1015C0009143214201D10430F7E7D4B2411C002CF1
:1015D0000AD0FF242402811C224205D0FF242404C7
:1015E000C11C224200D0011DC81A10BD808080801D
:1015F000FFFEFEFE70B504000C430300A4070CD1EF
:10160000104E032A09D90D680F4C2C19AC433442F3
:1016100003D120C30431043AF3E7013A541C0FD03C
:101620000C7801335D1E2C700131551E002C05D144
:101630009A18934204D01C700133FAE72A00EDE7B0
:1016400070BDC04680808080FFFEFEFE202310B566
:101650000400C2689A43436AE2605B6882699A4206
:101660000DD000F04FF8E268074B134010221343EF
:10167000626AE3605368A361236993602360E26850
:10168000024B1340E36010BDEFCFFFFFBFBFFFFF72
:10169000F7B50D0001901000140000F029F92B7827
:1016A000722B09D0772B04D0612B25D10823144A43
:1016B00004E00423022201E0002301220220691C2D
:1016C000032784460426012508782B2805D06228A4
:1016D00007D132432B430131F6E760463A430343D7
:1016E000F9E7E260019A62611B0706D50222002138
:1016F000200000F04FF900E000242000FEBDC046AD
:101700000280000070B50400436A056901689A68A8
:10171000C068134B0340E36082230340022B02D0D6
:10172000012040421AE080235B02184016D091420B
:1017300000D211008D4209D10020636AE2689D60E9
:10174000084B25601340A060E36007E0491B2200BE
:10175000280000F009F80028EED0E1E770BDC0468F
:10176000FFFFF7FFFFFFFEFFF7B5D66801900D0002
:1017700014005769F30205D5102338001E4300F00A
:101780005DFAA061114B1E4209D0A169380000F03A
:101790005EFA8023002811DB0D4B1E40E6602A0014
:1017A00001993800FFF7D4FB43005B08ED1AA369E9
:1017B0005D190023A561984205D08033E268134388
:1017C000E36001235B421800FEBDC046100002002A
:1017D000EFFFFDFFF7B5314EC51C3468AD0801962B
:1017E000002813D080222900EB1C002752050A3163
:1017F0009C4604E02368934213D02700A468002C81
:10180000F8D10C3000F076F9431C0FD1002043E0F2
:101810003E68964217D17E689B1903336360BB68AC
:10182000A360A7686368002FF2D10CE080239B05BA
:10183000036045608460002F02D1019B186000E0C6
:10184000B8600C3028E09D4205DC634503DC802352
:101850009B0523601EE08B4210D98022200080214E
:101860009205656022600C30AA005D1B8218490554
:10187000033DA2601160556097600DE0002FBCD160
:101880009B00C01A00F036F9431CBFD080239B0593
:10189000236065602000D4E7FEBDC04694080010B8
:1018A00010B5002812D080235B0519000C380360A6
:1018B0008268002A0AD013688B4207D154684368B3
:1018C0001B190333436093688360F1E710BDFFFF8A
:1018D00010B5FFF77FFF041E05D117220349FFF75C
:1018E00037FB00F0A7F9200010BDC046241D000002
:1018F000F0B5436AC5688BB004000193AB0728D0EC
:101900002B0718D44769066900F02AF8380000F060
:1019100092F92B0502D53000FFF7C2FF0F4BAD0D3A
:10192000AD059D4207D12022216A02A800F092F95C
:1019300002A800F0D5F818220021606AFFF795FD93
:10194000282200212000FFF790FD019B0020636208
:1019500001E0012040420BB0F0BDC046000080AD68
:1019600070B5002803D000F0E5F805000EE0A026D1
:101970000400050076000648201800F0DBF8002877
:1019800001D001256D422834B442F4D1280070BD45
:1019900050070010F7B5C36816000093009A3B4B40
:1019A00004000D001A426CD04769380000F049F974
:1019B0000190002865D1012E04D0022E07D0002E00
:1019C0005FD124E0200000F065F82D181FE03800FA
:1019D00000F034F9002805DA8023E2681343E3605D
:1019E00001234FE0626A23689168994200D90B0095
:1019F000A1695B1821695B1AE168890603D5526801
:101A0000934200DA1300834200DA0300ED18002D40
:101A100037DB009B616A9B0404D523688A689A427D
:101A200000D28B60A3699D420DDB886822688242E8
:101A300000D202002069D618361AB54203DCCF68FE
:101A4000DE19B54207DB2023009A13430022A2606F
:101A500062604D6011E0ED1A009B9B0701D5EF1B02
:101A6000A760009BDB0702D5121AAA1A6260202326
:101A7000009A45199A4313002560054A1340E36014
:101A800001E0022301930198FEBDC046030010004F
:101A9000BFCFF7FFC3689A0705D1212201200F4B62
:101AA00040421A6018E0202219030BD5134202D0DD
:101AB000436A586804E00368826900699B18181A31
:101AC000013809E0134202D0436A586804E0036811
:101AD000826900699B18181A7047C0469008001068
:101AE00010B50400FFF75CFD0100200000F0ACF829
:101AF00010BDFFFF70B50C4D2B68002B01D10B4BB7
:101B00002B600323C41C2E689C433419200000F072
:101B100035F8002802D12C60300004E00C220120AE
:101B2000034B40421A6070BD98080010A0080010D6
:101B300090080010C36870B50400032018401AD044
:101B40009B0605D5636A20005E68FFF77FFD04E011
:101B50002368A2699E182369F61AE268064B2000E2
:101B60001340E360FFF7CEFD0500002231002000A6
:101B7000FFF710FF280070BDFFCFFFFF034B0200EF
:101B8000181E02D000209A42404170470000000019
:101B900003000B4321D4002931D00122D2070309CD
:101BA00001E0090112099942FBD9430801E049000B
:101BB00052089942FBD900E04908401A07D3524124
:101BC000FAD301461046704749084018F7D29218D8
:101BD000FAD34018014610467047CB0F00D0494257
:101BE000021000D54042534008B5FFF7D4FF0CBCAB
:101BF000521000D34042002A00D549421847F4460B
:101C0000002000F001F8604770478446043A09D389
:101C1000830707D109060B0A19430B0C1943043A31
:101C200002C0FCD2043203D001700130013AFBD172
:101C300060467047FEE70120404270470120404265
:101C40007047012040427047012040427047012008
:101C500040427047012040427047FFFF49444C45D5
:101C6000000000000D0A00002573090925630925FD
:101C7000750925750925750D0A00FFFFA5A5A5A500
:101C8000A5A5A5A5A5A5A5A5A5A5A5A5A5A5A5A504
:101C9000765461736B4C6564310000007654617357
:101CA0006B4C656432000000765461736B4C656464
:101CB0003000FFFF001BB700040100000701000017
:101CC0000C0100000D0100001801000019010000C6
:101CD0001D010000290100002A0100001C01000074
:101CE00000000000C027090090051000C05C15002E
:101CF000F0B31A00200B2000009F2400E0322900DE
:101D0000C0C62D0050973100E067350070383900AB
:101D100000093D004016400080234300C0304600CB
:101D2000720077002A2A2A205F437379735F616CFF
:101D30006C6F63206661696C65640A00AAAAAAAA2E
:041D4000FFFFFFFFA3
:00000001FF
