:020000022000DC
:1060000000000120ED8802001589020017890200B6
:10601000198902001B8902001D890200000000008E
:106020000000000000000000000000001F890200C6
:106030002189020000000000238902002589020056
:106040002901030027890200B1060300BD65030092
:10605000756603002789020089010300F9630300C4
:106060002789020027890200278902002789020068
:106070002789020027890200278902002789020058
:1060800027890200D1ED020027890200278902003A
:1060900071EE020027890200A95F03002789020030
:1060A0002789020027890200A16A030027890200CC
:1060B000278902002789020000000000000000007C
:1060C000278902002789020027890200D966030078
:1060D00027890200DD62030027890200000000001A
:1060E00000000000000000000000000000000000B0
:1060F00000000000000000000000000000000000A0
:10610000000000000000000000000000000000008F
:10611000000000000000000000000000000000007F
:10612000000000000000000000000000000000006F
:10613000000000000000000000000000000000005F
:10614000000000000000000000000000000000004F
:10615000000000000000000000000000000000003F
:10616000000000000000000000000000000000002F
:10617000000000000000000000000000000000001F
:10618000000000000000000000000000000000000F
:1061900000000000000000000000000000000000FF
:1061A00000000000000000000000000000000000EF
:1061B00000000000000000000000000000000000DF
:1061C00000000000000000000000000000000000CF
:1061D00000000000000000000000000000000000BF
:1061E00000000000000000000000000000000000AF
:1061F000000000000000000000000000000000009F
:1062000010B5054C237833B9044B13B10448AFF3F0
:1062100000800123237010BD9C2E00200000000090
:10622000F09A03000C4B43B10C480D4910B5AFF385
:1062300000800C48036823B910BD0A48036833B9CD
:106240007047094B002BF7D0BDE810401847064BAC
:10625000002BF5D0184700BF00000000F09A0300A3
:10626000A02E0020F82D002000000000154B002B70
:1062700008BF134B9D46A3F5803A00218B460F467D
:106280001348144A121A10F02FFD0F4B002B00D0A8
:1062900098470E4B002B00D09847002000210400A7
:1062A0000D000D48002802D00C48AFF3008010F01C
:1062B0009FFC2000290000F04BF810F085FC00BF87
:1062C00000000800000001200000000000000000A5
:1062D0009C2E0020BC4E00200000000000000000AA
:1062E00034DF704735DF704708B505F053FE0028EE
:1062F000FBD10A4803F06AFF05F04CFE0028FBD1F1
:10630000BFF34F8F0649074BCA6802F4E06213439C
:10631000CB60BFF34F8F00BFFDE700BFC87A03001B
:1063200000ED00E00400FA0500B583B0064B0092D2
:106330001C8824040B460246044944F0010006F080
:10634000D1F8FFF7D1FF00BF2C2E0020847A030084
:10635000F0B54FF400418BB0002005F0B1FD08B15D
:1063600009F06EF8644D0FCD02AC0FC495E80F0034
:10637000032584E80F00062600954FF08054082579
:1063800002A9012300225D4802960395089403F0B8
:10639000DBFC08B109F054F8594C5A4A20885A4994
:1063A000000440F0030005F09FFF08F051FF08B122
:1063B00009F046F802F012FA00F00CFC01F0B8FB0C
:1063C000002302A80293FFF78BFF08B109F038F809
:1063D0002088029A4D49000440F0030005F084FF34
:1063E000029B3BB920884A49000440F0030005F0B5
:1063F00001FF029BDA0707D520884649000440F0D8
:10640000030005F0F7FE029B9F0707D5208842494D
:10641000000440F0030005F0EDFE029B5E0707D587
:1064200020883E49000440F0030005F0E3FE029B93
:106430001D0707D520883A49000440F0030005F005
:10644000D9FE029BD80307D520883649000440F0C6
:10645000030005F0CFFE029B990307D5208832493F
:10646000000440F0030005F0C5FE029B5A0307D567
:1064700020882E49000440F0030005F0BBFE029B7B
:106480001B0306D520882A49000440F0030005F0CC
:10649000B1FE05F07FFD0028FBD14FF0FF30FFF784
:1064A00021FF08B108F0CCFF002000F003FD1348E5
:1064B000204D074604F07CFF20881F49000440F06F
:1064C000030005F097FE002645F0010505F062FD8A
:1064D00000F076FB384603F079FE304601F046FBCB
:1064E00005F058FD0028FBD132244FF47A40A8472C
:1064F000013CFAD10136E9E7647A0300C87A030067
:106500002C2E00202C7B0300347B03003C7B0300FB
:10651000547B03005C7B0300687B0300707B0300FB
:10652000787B0300847B03008C7B0300987B030053
:10653000A07B0300C07A0300A87B03006DDF7047D7
:1065400076DF704778DF70477ADF70477CDF70470F
:106550007EDF70478FDF7047704700BF08F070BF65
:1065600010B504460EF0BCFA034A03460821204643
:10657000BDE8104003F086BCD87D030008B5037861
:1065800003B108BD054B3B211888FFF7D9FF002850
:10659000F7D0BDE8084008F053BF00BFC82B00206B
:1065A0000378052B00D07047034B0449188800047A
:1065B00040F0030005F01EBE402E0020E87E0300E0
:1065C00030B5364D364A2B8836490446180485B016
:1065D00040F0030005F088FE23780D2B1AD8DFE881
:1065E00003F02A1933194419201B1926191B071BFC
:1065F00028882D49000440F0030005F0FBFD2B4BDB
:106600001A78002A3AD1032129480BF09FF808B1E3
:1066100008F016FF05B030BDA0680028F8D105B01D
:1066200030BD07F069FC30F00803F3D0F0E72069D3
:106630000028EFD0ECE728881E49000440F0030052
:1066400005F0D8FD05B030BD2D8860880BF0AAFF9D
:106650002D04227A63881849009245F0030502460A
:10666000284605F03FFF05B030BD04A9002301F81E
:10667000043D60880EF030FA05B030BD00221A707B
:10668000BFF34F8F0D490E4BCA6802F4E06213430B
:10669000CB60BFF34F8F00BFFDE700BF402E00204F
:1066A000507C030028880300B47F0300303C0020A6
:1066B000543B0020487F0300747F030000ED00E09E
:1066C0000400FA0508F0BCBE30B5384A83B0002398
:1066D000054669461088009303228DF804308DF832
:1066E0000020FFF735FF60B3314B324A3249044690
:1066F0001888000440F00100234605F06FFE2F4A81
:106700000221284603F0BEFB082C3CD00ED9102CE9
:1067100027D043F202039C4241D00D2C39D02346AE
:106720002846274A022103F0ADFB18E0062C1ED0B4
:1067300023D8042CF3D12846224A022103F0A2FBDD
:106740000DE01B4B1B4A18881F49000440F0030052
:1067500005F0CAFD28461D4A082103F093FB03B04B
:1067600030BD28461A4A022103F08CFBF7E7284681
:10677000184A022103F086FBF1E72846164A022157
:1067800003F080FBEBE72846144A022103F07AFB72
:10679000E5E72846124A022103F074FBDFE72846AA
:1067A000104A022103F06EFBD9E700BFC82B00207E
:1067B000402E00206C7C0300307D0300447D0300EC
:1067C000D07D0300907D0300FC7C03001C7D030052
:1067D000607D0300B47D0300707D0300807D0300B5
:1067E000C47D03009C7D030070B50446D8B11E4BE8
:1067F0001E4A1888032C0DD1000440F003001C49E8
:1068000005F072FD1B4B012202201A7002F09CFA67
:1068100028BB70BD00042346174940F00300BDE8C3
:10682000704005F0DBBD104E104A3088134900045B
:1068300040F0030005F058FD114A0E4B15781C700E
:10684000002DE6D130880F4A0F49000440F00300C4
:1068500005F04AFD284602F077FA0028D9D0BDE8B5
:10686000704008F0EDBD00BF402E0020607C0300AA
:106870000C7F03000C3C00203C7F0300247F0300BE
:10688000303C0020887C03002888030030B50129B3
:106890008FB006D01368164A022103F0F3FA0FB046
:1068A00030BD044607A8FFF749FEE8B99DF81D2052
:1068B0009DF81E009DF820109DF81F5004929DF831
:1068C00021209DF8223003900191009209A80295A1
:1068D000084A122110F080FB09AB2046064A082125
:1068E00003F0D0FA0FB030BD08F0AAFDDEE700BF1C
:1068F0008C7E0300C07E0300E07E03002DE9F041A2
:1069000004460EF0EDF8002837D03C4E3C4A3D4995
:1069100005463088000440F0030005F0E5FC3A4BE2
:106920001A788AB3394B18884FF6FF7398420DD006
:106930001321FFF705FE074600284FD12B462046BE
:10694000334A0821BDE8F04103F09CBA314B1B7873
:10695000002B3DD030883049000440F0010005F0A4
:1069600049FC2E4A0221204603F08CFA20462C4A8C
:106970000221BDE8F04103F085BA2046294A0821EA
:10698000BDE8F04103F07EBA3088274900040122B7
:1069900040F003001A7005F02DFC244924480AF049
:1069A00097FF23480AF05AFF07460028BAD01B4A2F
:1069B0000221204603F066FA032F18D0082FD5D005
:1069C0003B4620461B4A0221BDE8F04103F05ABA7B
:1069D0000EF08EF807460028E9D1AFE73088164957
:1069E000000440F001003A4605F07EFCDFE7204657
:1069F000124A0221BDE8F04103F044BA402E0020C3
:106A0000387C030028880300303C0020C82B00207D
:106A1000207E03000C3C0020507E0300647E0300B7
:106A2000807D0300EC7D0300047E0300A47C030052
:106A3000543B0020D07D0300347E0300807E0300A1
:106A400038B5244D244A28882449000440F0030026
:106A500005F04AFC224B1A78CAB1224B18884FF62F
:106A6000FF73984206D01321FFF76AFD044638BB36
:106A7000204638BD1C4B1B78F3B128881B49000405
:106A800040F00100082405F0B5FB204638BD2888F9
:106A900017490004012240F003001A7005F0AAFB18
:106AA000144915480AF014FF13480AF0D7FE0446AB
:106AB0000028D2D0204638BDBDE838400EF018B8C6
:106AC00028880E49000440F00100224605F00CFC25
:106AD000204638BD402E0020387C03002888030063
:106AE000303C0020C82B00200C3C0020507E0300CE
:106AF000047E0300A47C0300543B0020347E03008A
:106B000010B50388212B82B004463DD01AD8102B33
:106B100024D0112B20D1244B027A18882349000459
:106B200040F0030005F0E0FB214B224A1B784FF6B2
:106B3000FF71118083B1FFF783FF68B108F080FC1B
:106B400002B010BD3B2B01D0562B05D1A0881321DC
:106B5000FFF7F6FC0028F1D102B010BD124B164928
:106B60001888000440F0030005F044FB072002F001
:106B7000EBF8B0B90F4BA188104819800BF028FF33
:106B80000028DBD102B010BD002380888DF80430CE
:106B900001A98DF80530FFF7DDFC0028CED102B049
:106BA00010BD08F04DFCE5E7402E0020BC7C030042
:106BB000303C0020C82B0020B07C0300483C002063
:106BC00008B505F0E7F900B108BDBDE8084007F0D9
:106BD00091BF00BFF0B5B7B008F03AFB002840F015
:106BE0004181A24AA248012108F086FB08B108F0C1
:106BF00027FC07F069FF08B108F022FC0FF0C6F887
:106C0000002840F02C8136AC002344F8AC3D012034
:106C100021460FF017FA002840F01E8120460FF0A1
:106C2000E7FA08B108F00CFC9DF8183091480122F1
:106C300062F3030336AD62F3071305F8C03D10F0AD
:106C400011FA8C4982B22846FFF780FC002840F0F8
:106C500000810020FFF776FC002840F0F78009A8AB
:106C60000822002110F040F8834B099309A84FF047
:106C7000C8730A93FFF768FC002840F0E48007A877
:106C8000FFF75CFC002840F0DB809DF81F009DF8BA
:106C900020109DF821209DF81D609DF81E50029047
:106CA0000191009212219DF8223004960395734AB7
:106CB000204610F091F9002171480BF077FD08B1E2
:106CC00008F0BEFB6F4B7048099309A90BF06EFEEC
:106CD000002840F0B28040220021204610F004F845
:106CE0006A4920460BF008FD62490DA80BF004FD2F
:106CF000674911A80BF000FD664913A80BF0FCFCD6
:106D0000654915A80BF0F8FC9DF868309DF86920DE
:106D1000012161F3030302F0F00261F307136FF343
:106D2000071220468DF868308DF869200AF03EFE83
:106D300008B108F085FBAC22002120460FF0D4FFFB
:106D400002210020062701264FF4967544F2506276
:106D5000524B8DF82C108DF82E00214650488DF89E
:106D60002F708DF8A8602D952E9234930AF076FC42
:106D700008B108F065FB012149480AF06BFC1C22B0
:106D8000002120460FF0B0FF4FF4203700234FF4CE
:106D9000702603254349444A0B932046ADF83A3008
:106DA0008DF83C300C970D968DF83850109111925B
:106DB0000BF020FB08B108F043FB0DF035FEC8BB1B
:106DC0000522002120460FF08FFF9DF82C309DF802
:106DD0002F109DF8302043F00103032003F0FD0342
:106DE00060F306136FF3C713204641F0030142F02E
:106DF0000302072510248DF82C308DF82F108DF804
:106E000030208DF82D508DF82E400DF05BFE70B9BE
:106E100026480DF03BFE38B9254806F047FD08B17D
:106E200008F00EFB37B0F0BD08F00AFBF4E708F0FD
:106E300007FBEDE708F004FBC2E708F001FB4AE7B7
:106E400008F0FEFA21E708F0FBFA18E708F0F8FA74
:106E500005E708F0F5FAFCE608F0F2FADEE608F0DD
:106E6000EFFAD0E608F0ECFABBE600BF5965020085
:106E7000F87E0300D87C030006000802C07E0300F1
:106E8000343C0020C5660200483C0020E87C03003A
:106E9000EC7C03002C7B0300F47C0300E967020018
:106EA000543B00207D6502005D650200C165020063
:106EB000A165020010B5002204464FF480310B4852
:106EC00008F02CFA70B91CB1FFF7BAFD30B910BD4B
:106ED000032107480AF03AFC0028F8D0BDE810402A
:106EE00008F0AEBA08F0ACFAEDE700BF103C0020A5
:106EF000543B0020022904D013680F4A022102F0FB
:106F0000C1BF70B5064682B0506815460C460FF0FA
:106F100057FE032807D80949094A0A4B095C5172F0
:106F2000186002B070BD2B68074A009021463046B9
:106F300002F0A8FFF5E700BF908203008C820300F7
:106F4000543C0020CC2B0020C4820300062904D02E
:106F50001368364A022102F095BF2DE9F043054639
:106F600083B0506814460FF02BFE8146A0680FF0E6
:106F700027FE0646E0680FF023FE074620690FF063
:106F80001FFE09F1FF33032B804623D8FF2E4FF05D
:106F900001032BD8FF2F34D8B8F1FF0F3BD8B3B182
:106FA000234D244A95F800E0234B12682349994465
:106FB000BEF1FF0F895C19F8010CF2B25FFA88F498
:106FC0001CBFFF262E70FBB2009401F015FC03B02D
:106FD000BDE8F08323681A4ACDF8009002212846C4
:106FE00002F050FFFF2E4FF00003D3D92368154A5B
:106FF00000960221284602F045FFFF2F4FF00003C4
:10700000CAD92368104A00960221284602F03AFFA6
:10701000B8F1FF0FDBD923680C4A009628460221FD
:1070200002F030FF03B0BDE8F08300BFE882030048
:10703000543C0020CC2B00208C8303008C82030066
:107040001C83030034830300508303007083030018
:107050002DE9F041A64CA74D2388A7490646180400
:10706000BAB040F0030032462E7005F03DF92B789F
:107070000E2B6DD8DFE813F07000B500FE00620142
:107080009F01F0014102A30301036404B002120452
:107090005203B6040F00994E994F0FCE08AD0FC59D
:1070A00020883B683268974F2A600004964917F899
:1070B0000380964F40F00300042205F015F9208864
:1070C0009349000440F00300FF2205F00DF92088E9
:1070D0009049000440F00300FF2205F005F92088E4
:1070E0008D49000440F00300FF2205F0FDF82088E0
:1070F0008A49000440F00300052205F0F5F808AEC7
:107100000025208856F8043B00042A4640F003007E
:107110003946013505F062F9052DF2D12088804904
:10712000804E000440F0030005F064F87E4B586880
:1071300083F8098008A9FF24142204271D721F70F8
:107140009C72DC6034700FF0AAFD784B00221A604C
:1071500000203AB0BDE8F081694B20881B68694A7D
:107160006949D55C6F4E000440F00300002205F031
:10717000BBF820886649000440F00300FF2205F0B8
:10718000B3F820886349000440F00300FF2205F0B3
:10719000ABF820886049000440F00300FF2205F0AE
:1071A000A3F820885D490004002240F0030005F0A8
:1071B0009BF820885E49000440F0030005F01AF8AF
:1071C000594B00245D7258681C70FF25224604A9A3
:1071D0001C729D72DD6035700FF061FD534B1C60B9
:1071E000B6E7474B20881B68464A4749D55C4D4E59
:1071F000000440F00300012205F076F8208844499D
:10720000000440F00300FF2205F06EF82088414999
:10721000000440F00300FF2205F066F820883E4994
:10722000000440F00300FF2205F05EF820883B498F
:107230000004002240F0030005F056F820883D4984
:10724000000440F0030004F0D5FF374B00245868D9
:107250005D720127FF25224603A91F709D72DD6024
:107260001C7235700FF01BFD304B00201C603AB0D3
:10727000BDE8F081224B20881B68224A2249D55C58
:10728000284E000440F00300022205F02DF820886B
:107290001F49000440F00300FF2205F025F8208874
:1072A0001C49000440F00300FF2205F01DF820886F
:1072B0001949000440F00300FF2205F015F820886A
:1072C00016490004002240F0030005F00DF8208864
:1072D0001949000440F0030004F08CFF124B002415
:1072E0005D7258680227FF25224602A9B5E700BF54
:1072F000242E00207D3C0020A08103008C8103000F
:10730000CC2B00208C820300B08103005482030048
:10731000C0810300D4810300E4810300F4810300F1
:10732000688203007C3C0020543C0020783C002014
:1073300004820300188203002C820300974B2088EC
:107340001B68974A9749D55C974E000440F00300AC
:10735000032204F0C9FF20889449000440F0030090
:10736000FF2204F0C1FF20889149000440F003008F
:10737000FF2204F0B9FF20888E49000440F003008A
:10738000FF2204F0B1FF20888B490004002240F066
:10739000030004F0A9FF20888849000440F003009E
:1073A00004F028FF864B00245D7258680327FF25F0
:1073B000224601A951E7834E784F0FCE35AD0FC558
:1073C00020883B683268764F2A600004754917F8B8
:1073D00003807D4F40F00300042204F085FF2088E5
:1073E0007249000440F00300FF2204F07DFF208872
:1073F0006F49000440F00300FF2204F075FF20886D
:107400006C49000440F00300FF2204F06DFF208867
:107410006949000440F00300052204F065FF35AE21
:107420000025208856F8043B00042A4640F003005B
:107430003946013504F0D2FF052DF2D12088634989
:10744000594E000440F0030004F0D4FE5C4B35A913
:10745000586883F809806EE65D4E504F0FCE30AD10
:107460000FC520883B6832684D4F2A6000044D49A3
:1074700017F80380544F40F00300042204F034FF57
:1074800020884A49000440F00300FF2204F02CFF4A
:1074900020884749000440F00300FF2204F024FF45
:1074A00020884449000440F00300FF2204F01CFF40
:1074B00020884149000440F00300052204F014FF35
:1074C00030AE0025208856F8043B00042A4640F0E0
:1074D00003003946013504F081FF052DF2D12088E3
:1074E0003A49314E000440F0030004F083FE344B6F
:1074F00030A9586883F809801DE6364E274F0FCE15
:107500002BAD0FC520883B683268254F2A600004E8
:10751000244917F803802C4F40F00300042204F0A4
:10752000E3FE20882149000440F00300FF2204F01C
:10753000DBFE20881E49000440F00300FF2204F017
:10754000D3FE20881B49000440F00300FF2204F012
:10755000CBFE20881849000440F00300052204F007
:10756000C3FE2BAE0025208856F8043B00042A46B3
:1075700040F003003946013504F030FF052DF2D10B
:1075800020881249084E000440F0030004F032FE47
:107590000B4B2BA9586883F80980CCE5CC2B002035
:1075A0008C820300B08103007C3C0020C08103007A
:1075B000D4810300E4810300F481030040820300CE
:1075C000543C0020CC8003005482030068820300F6
:1075D000E0800300F4800300A14EA24F0FCE17AD50
:1075E0000FC520883B6832689F4F2A6000049F497E
:1075F00017F803809E4F40F00300042204F074FE4D
:1076000020889C49000440F00300FF2204F06CFE37
:1076100020889949000440F00300FF2204F064FE32
:1076200020889649000440F00300FF2204F05CFE2D
:1076300020889349000440F00300052204F054FE22
:1076400017AE0025208856F8043B00042A4640F077
:1076500003003946013504F0C1FE052DF2D1208822
:107660008849894E000440F0030004F0C3FD874BB5
:1076700017A9586883F809805DE5854E794F0FCECC
:1076800021AD0FC520883B683268774F2A6000041F
:10769000764917F80380764F40F00300042204F087
:1076A00023FE20887349000440F00300FF2204F009
:1076B0001BFE20887049000440F00300FF2204F004
:1076C00013FE20886D49000440F00300FF2204F0FF
:1076D0000BFE20886A49000440F00300052204F0F4
:1076E00003FE21AE0025208856F8043B00042A46FC
:1076F00040F003003946013504F070FE052DF2D14B
:1077000020886049604E000440F0030004F072FDE0
:107710005E4B21A9586883F809800CE55D4E514FF6
:107720000FCE0DAD0FC520883B6832684E4F2A60E2
:1077300000044E4917F803804D4F40F00300042227
:1077400004F0D2FD20884B49000440F00300FF22E2
:1077500004F0CAFD20884849000440F00300FF22DD
:1077600004F0C2FD20884549000440F00300FF22D8
:1077700004F0BAFD20884249000440F003000522CD
:1077800004F0B2FD0DAE0025208856F8043B00043D
:107790002A4640F003003946013504F01FFE052D4E
:1077A000F2D120883749384E000440F0030004F03D
:1077B00021FD364B0DA9586883F80980BBE4364E8D
:1077C000284F0FCE26AD0FC520883B683268264F64
:1077D0002A600004254917F80380254F40F0030074
:1077E000042204F081FD20882249000440F00300B7
:1077F000FF2204F079FD20881F49000440F00300B7
:10780000FF2204F071FD20881C49000440F00300B1
:10781000FF2204F069FD20881949000440F00300AC
:10782000052204F061FD26AE0025208856F8043BB1
:1078300000042A4640F003003946013504F0CEFD2D
:10784000052DF2D120880F490F4E000440F00300AF
:1078500004F0D0FC0D4B26A9586883F809806AE42F
:1078600044810300CC2B00208C820300B0810300F4
:1078700054820300C0810300D4810300E48103002B
:10788000F4810300688203007C3C0020543C00200B
:107890001C8103006C81030008810300804E814F2E
:1078A0000FCE12AD0FC520883B6832687E4F2A602C
:1078B00000047E4917F803807D4F40F00300042246
:1078C00004F012FD20887B49000440F00300FF22F1
:1078D00004F00AFD20887849000440F00300FF22EC
:1078E00004F002FD20887549000440F00300FF22E7
:1078F00004F0FAFC20887249000440F003000522DD
:1079000004F0F2FC12AE0025208856F8043B000477
:107910002A4640F003003946013504F05FFD052D8D
:10792000F2D120886749684E000440F0030004F05B
:1079300061FC664B12A9586883F80980FFF7FBBB0E
:10794000634E584F0FCE1CAD0FC520883B68326880
:10795000554F2A600004554917F80380544F40F0F2
:107960000300042204F0C0FC20885249000440F0C7
:107970000300FF2204F0B8FC20884F49000440F0C7
:107980000300FF2204F0B0FC20884C49000440F0C2
:107990000300FF2204F0A8FC20884949000440F0BD
:1079A0000300052204F0A0FC1CAE0025208856F838
:1079B000043B00042A4640F003003946013504F038
:1079C0000DFD052DF2D120883E493F4E000440F0C8
:1079D000030004F00FFC3D4B1CA9586883F8098094
:1079E000FFF7A9BB2F493B4A0D6823882E4F07CAD2
:1079F0001B0405AE86E8070043F003000F222B4965
:107A000017F805802A4F04F06FFC208829490004EC
:107A100040F00300FF2204F067FC208826490004A0
:107A200040F00300FF2204F05FFC2088234900049B
:107A300040F00300FF2204F057FC20882049000496
:107A400040F00300032204F04FFC0025208856F884
:107A5000253000042A4640F003003946013504F081
:107A6000BDFC032DF2D120881B49174F000440F0C4
:107A7000030004F0BFFB154BFF24586883F809800E
:107A800031460C220F261D721E709C72DC603C7009
:107A90000FF005F9114B00221A60FFF759BB00BF28
:107AA00058810300CC2B00208C820300B08103009E
:107AB00054820300C0810300D4810300E4810300E9
:107AC000F4810300688203007C3C0020543C0020C9
:107AD000308103008081030070820300783C002025
:107AE000022904D01368104A022102F0CBB970B504
:107AF000064682B0506815460C460FF061F8431CEC
:107B00000F2B09D8C0B20E2801D902B070BD02B047
:107B1000BDE87040FFF79CBA2B68044A00902146EC
:107B2000304602F0AFF9F0E790820300C482030010
:107B300008B54FF0A04303214FF00072C3F864175B
:107B4000C3F8082500F00AFE044B05491A68054BE6
:107B5000895C054A59725A60002008BDCC2B002070
:107B60008C820300543C0020643C002070B5194C0A
:107B70002378FF2B10D0184D2046296800F034F8E8
:107B8000064668B9154A28601378FF2B04D083B1E4
:107B9000013BDBB2137063B100F046FE002070BD04
:107BA000431C0CD02B6801332B6000F03DFE0020FD
:107BB00070BDFF23237000F037FE002070BD084B1E
:107BC00008491888000440F0010004F013FB2670F7
:107BD000E2E700BF543C0020783C00207C3C0020C1
:107BE000242E00207C8203002DE9F04F067889B016
:107BF00004460D460F2E15D8DFE816F0500084001D
:107C0000A300CF00DC0010019201150215026B02E7
:107C10006B021A031A03C70310001A004368002BF3
:107C200040F0D5834FF0FF3B584609B0BDE8F08FD8
:107C30004368002BF6D0037A002BF3D0C668B24815
:107C4000A27AB24906EB860606EB8606A0FB06067C
:107C5000B60908BF012606FB02F2A1FB02124FEA99
:107C6000D21B002D40F04184A94ECDF808B0A346A8
:107C7000AB4200F31E84371D002316F8010B00935E
:107C80001A46194600F0B8FDB742F5D10135032D6B
:107C90003E4600F0FF849BF80830E9E79D4B9E4A82
:107CA0004908A3FB0103A2FB0502DB08520803EB12
:107CB000830302EB4202A1EB4303954203F1030667
:107CC00000F0C483954FDFF8488203EB430217446A
:107CD0005D1E052E00F277837A7A97F80BE0BB7A67
:107CE00018F8010B617ACDF800E0013E00F084FD48
:107CF000B542A7F10307ECD14FF0010B584609B08C
:107D0000BDE8F08F844B8549A3FB05252D09A3FB16
:107D100005239B0803EB4303A5EB430303EB43035A
:107D2000CA1811F80380577896780025617A009672
:107D3000E8B23B464246013500F05EFD042DF5D128
:107D4000DAE7754B7549724EA3FB05021209A3FBD6
:107D500002039B0803EB4303A2EB430303EB430340
:107D6000CA1811F803A092F8028092F801902346F5
:107D7000371D4446984615F0030F16F8010B98F886
:107D80000910009418BF00214B46524600F034FD04
:107D9000B74205F10105EED1AEE700252E46617A26
:107DA0000096E8B20023FF22013500F025FD042DE6
:107DB000F5D1A1E74368002B3FF434AF027A002AE3
:107DC0003FF430AFC6685048A27A504906EB8606A9
:107DD00006EB8606A0FB0606B60908BF012606FBD1
:107DE00002F2A1FB02124FEAD21B002D40F03884B0
:107DF000474E012001E06368705D53F82520617AE9
:107E0000C2F307430093C2F30723D2B200F0F4FC9D
:107E10000135237AEDB2AB42EDD805E74268002A7E
:107E20003FF400AF007A01287FF6FCAEE3683649E4
:107E300003EB830303EB8303A1FB03139B0900F014
:107E40002B83B5FBF3F6411E03FB165505FB01F131
:107E50005F1EB7EB050B4FEA0126B6FBF3F6F6B251
:107E6000B1FBF3F318BF4FF0010B5D1CC6F1FF0728
:107E70009B00B5FBF0F100FB1151D05852F82130B6
:107E8000657A2249C3F3074206FB02F2C3F3072EC9
:107E9000C0F3074407FB042406FB0EFEDAB2C0F36E
:107EA000072307FB03E306FB02F281FB04CE81FB01
:107EB00003C6C0B207FB0022A644F018E417DB1784
:107EC000C3EBE013C4EBEE1481FB02011144240464
:107ED0001B02D2179BB204F47F04C2EBE1121C43D5
:107EE000D3B21C435FFA84F8C4F307270026240C9E
:107EF000F0B200943B4642462946013600F07CFC35
:107F0000042EF5D190E600BFD34D621081808080B1
:107F100004840300CDCCCCCCABAAAAAA088403006D
:107F2000416800293FF47EAE027A012A7FF67AAEDC
:107F3000C368BB4803EB830303EB8303A0FB03038A
:107F40009B0900F0AE82B5FBF3FC02F1FF3E03FBA0
:107F50001C5C4FEA4E070CFB07F0B0FBF3F59542B3
:107F6000C0F0E2837F1B03F1FF380002B8EB0C0B7B
:107F7000B0FBF3F3B7FBF2F0DEB202FB107018BFF8
:107F80004FF0010BC6F1FF078000AE458CBF0135F5
:107F9000551BB5FBF2F302FB1352085851F822208F
:107FA000657AA049C2F30744C0F3074EC2F3072322
:107FB00006FB04F407FB0E4406FB03F3C0F3072E95
:107FC00007FB0E33D2B281FB04CE06FB02F2C0B235
:107FD00081FB03C607FB0022A644F018E417DB1759
:107FE000C3EBE013C4EBEE1481FB02011144240443
:107FF0001B02D2179BB204F47F04C2EBE1121C43B4
:10800000D3B21C435FFA84F8C4F307270026240C7C
:10801000F0B200943B4642462946013600F0ECFBA4
:10802000042EF5D100E64368002B3FF4FBAD007A47
:1080300000283FF4F7ADE368794A03EB830303EBD1
:108040008303A2FB03239B0900F04C82B1FBF3F2F4
:10805000591E03FB1252B1EB020B18BF4FF0010B7C
:108060009500B5FBF3F5072E6F4E00F01B83ED4333
:1080700005F003070023B84206F104084FF0000999
:108080001A46194612D816F8010BCDF8009000F0E8
:10809000B3FB464505F1FF353FF4C6AD207A05F048
:1080A00003070023B8421A461946ECD9636816F84C
:1080B000010B53F82720617AC2F307430093C2F300
:1080C0000723D2B200F098FBB04505F1FF35E5D1AA
:1080D000AAE54268002A3FF4A5AD017A01297FF69E
:1080E000A1ADC3684E4803EB830303EB8303A0FBFE
:1080F00003039B0900F0C681B5FBF3F7481E03FBA1
:108100001755C00005FB00F05F1EB0FBF3F3D80865
:10811000B7EB050B00F101054FEA800018BF4FF0E7
:10812000010B03F007030490C3EB0323B5FBF1F04D
:1081300001FB10516FF43F755D1999463346890074
:10814000092B394FDFF8DC8002910396CDF814B08B
:10815000AE465DD0002DB8BF05F1030E029B17F8A7
:10816000010BD158049B4FEAAE0E52F803A08EF3D8
:10817000080E6FEA0E0CC1F307435FFA8CFC0EFB8E
:1081800003F3CAF3074BC1F307220CFB0B330EFBBF
:1081900002F2CAF3072B0CFB0B22C9B20EFB01F152
:1081A0005FFA8AFA88FB03EB88FB026E0CFB0A116C
:1081B00096444FEAE27C9B44DB17C3EBEB1BCCEB12
:1081C000EE1E88FB01230B444FEA0B42C9174FEA0E
:1081D0000E2E1FFA8EFEC1EBE31302F47F0242EA79
:1081E0000E02DBB21A43130C617A0093C2F3072329
:1081F000D2B200F001FB0D4BBB42A9F1FF0905F122
:10820000FF0500F01F81039B6268092BAE46A1D1D8
:10821000B9F1000FCE46A1DA09F1030E9EE700BFC7
:10822000D34D6210818080800484030008840300A1
:108230004268002A3FF4F6AC007A01287FF6F2ACDF
:10824000E368BB4903EB830303EB8303A1FB031345
:108250009B0900F01B81B5FBF3F7411E03FB175789
:10826000090107FB01F1B1FBF3F1CD08854205F1EE
:10827000010EC0F04A82C5EB4005023D013BAD0056
:10828000B3EB070B029518BF4FF0010B01F007018C
:10829000864503D3CEEB4003A3F1020EC1EB0123CD
:1082A0006FF43F701D18994633464FEA8E010B2B31
:1082B000A04FDFF88C8203910496CDF814B0AE463F
:1082C0005CD0002DB8BF05F1030E039B17F8010B1E
:1082D000D158029B4FEAAE0E52F803A08EF3080E5F
:1082E0006FEA0E0CC1F307435FFA8CFC0EFB03F33D
:1082F000CAF3074BC1F307220CFB0B330EFB02F250
:10830000CAF3072B0CFB0B22C9B20EFB01F15FFA7B
:108310008AFA88FB03EB88FB026E0CFB0A11964479
:108320004FEAE27C9B44DB17C3EBEB1BCCEBEE1E6E
:1083300088FB01230B444FEA0B42C9174FEA0E2E6C
:108340001FFA8EFEC1EBE31302F47F0242EA0E0233
:10835000DBB21A43130C617A0093C2F30723D2B243
:1083600000F04AFA744BBB42A9F1FF0905F1FF0581
:1083700068D0049B62680B2BAE46A2D1B9F1000F06
:10838000CE46A2DA09F1030E9FE74368002B3FF4C3
:1083900049AC037A002B3FF445ACC368644A03EB55
:1083A000830303EB8303A2FB03239B0900F0CA8032
:1083B000B1FBF3F203FB1215002D00F0B281013B7B
:1083C000A3EB050B30E400239E461A4688E4017AAD
:1083D00000293FF427ACC2685548677A554E02EB36
:1083E000820202EB8202A0FB0224A409B5FBF4F294
:1083F00004FB125505FB01F2B2FBF4F2B2FBF1F003
:1084000001FB10224FF0000853F82230C3F3072A73
:10841000C3F307495FFA83FB16F80800CDF8009014
:1084200008F1010853465A46394600F0E5F9B8F11B
:10843000040FF1D1013CB4EB050B18BF4FF0010B59
:10844000FFF7F2BBDDF814B0FFF7EEBB3B4C394F42
:1084500003EB4302144403F1FF38052E0ED8627A71
:10846000E57AA37A17F8010B00950021013E00F090
:10847000C3F94645A4F10304EFD13DE400231D46B2
:108480001A46EFE79B46049301254DE69B4602936F
:1084900019464FF0010E01E79B461E46FF270125B6
:1084A000E7E49B461E4618461D4602F1FF3EFF27A5
:1084B0006BE5DBF804309BF809A053F82540371D25
:1084C0005FFA84F9C4F30728C4F3074416F8010BD4
:1084D000009443464A46514600F08EF9B742F5D122
:1084E000FFF7D4BB9B461D46BDE5B54280F0D68064
:1084F0005D45FFF401AC0027DFF83890B846012055
:1085000001E019F80700CDF8008000231A4619464B
:1085100000F072F90137237AFFB2BB42F1D8B5FB04
:10852000F6F3721E06FB1355A2EB050BFFF77CBB9F
:10853000D34D621004840300088403000884030000
:10854000818080809B460025A37A02932E460023DB
:10855000E8B200961A461946013500F04DF9042D8F
:10856000F5D1029B0796002B3FF45EAB07AB4FF0B3
:108570000009DFF8E0A1CDF80CB0A0469B464C46C0
:10858000661E07AB53FA86F6704800F005F9704B8B
:108590004008A3FB0035ED08C5EB0515401BC5B22F
:1085A00064B19DF81C30AB4218BF07AB04D1EBE7B8
:1085B00013F8012FAA42E7D09E42F9D163480BF885
:1085C000015B98F80860D8F8047000F0E5F84008FE
:1085D000B0FBF6F306FB130098F8091057F820607B
:1085E000C6F307275FFA86F9C6F307464A463B46B5
:1085F0000096284600F000F9544800F0CDF84008F5
:10860000AAFB0023DB09C3EB0323C31A03FB06F613
:1086100003FB07F703FB09F98AFB063131448AFBA8
:1086200007308AFB0932F6173844C6EBE1164A4494
:10863000FF174FEAE979C7EBE013F6B2C9EBE21294
:1086400098F809100096DBB22846D2B200F0D4F8B0
:10865000029B0134A34293D1DDF80CB0FFF7E4BADA
:10866000B5421BD25D45FFF447AB0027DFF8E89029
:10867000B846012001E019F80700CDF8008000237A
:108680001A46194600F0B8F80137237AFFB2BB4208
:10869000F1D844E7DDF808B0FFF7C6BA4FF0000B99
:1086A000FFF7C2BA6D4205F003070023874206F1C7
:1086B00004084FF000091A4619461AD2636816F8E2
:1086C000010B53F82720617AC2F307430093C2F3EA
:1086D0000723D2B200F090F8464505F101053FF4BA
:1086E000A3AA207A05F00307002387421A461946F9
:1086F000E4D316F8010BCDF8009000F07DF8B045FA
:1087000005F10105EDD1FFF78FBA013BB3EB070B84
:108710004FEA850318BF4FF0010B01F007010293E8
:10872000B6E503F1FF3B0EE75F1E0002B7EB0C0B53
:10873000B0FBF3F3B5FBF2F0DEB202FB105018BF52
:108740004FF0010BC6F1FF0780001EE4803C0020C3
:1087500089888888818080800484030008B5034963
:10876000034800F007F8002008BD00BF15CD5B07E7
:10877000803C002010B4054C054A064B826080E81E
:108780001200C3605DF8044B00207047A0559A1595
:10879000B53B121FB1CB7400F0B402464368C46805
:1087A0000C4F806811680C4E83EA43330025E7FBC9
:1087B000004583EA534343F2390006FB010183EA93
:1087C000431308195360D560946011601844F0BCDD
:1087D000704700BFAD5EA629CD0D010008B500F0C1
:1087E0005BF80F20FFF7C2F9002008BD014B012202
:1087F0001A707047913C002070B404289DF80C60FA
:108800000DD8084D00B205EB800461F01F0105F89A
:1088100020106670A370E270002070BC70470120C9
:1088200070BC7047D02B0020154B1B78B3B110B52E
:10883000144C237884B09BB1134B0FCB8DE80F0001
:108840006946002211480EF087F810B9002004B0E4
:1088500010BD06F0F5FD002004B010BD01207047EA
:108860000B4B0C491888000440F0020003F0C2FCD6
:108870002378002BE0D120BF2378002BFBD0DBE74F
:10888000903C0020913C00201C8403005C84030089
:10889000602E00203C8403000F4B70B50FCB84B0DA
:1088A0008DE80F004FF0004603250224694600239F
:1088B0000A4A0B4802968DF801508DF800400DF0E1
:1088C00043FF08B106F0BCFD064A074B01201070BB
:1088D000187004B070BD00BF2C840300ED87020047
:1088E0005C840300903C0020913C00200649074A2C
:1088F000074B9B1A03DD043BC858D050FBDC07F044
:1089000011FAFDF7B3FC0000D89C0300982B00205F
:108910009C2E0020FEE7FEE7FEE7FEE7FEE7FEE70F
:10892000FEE7FEE7FEE7FEE700B550E8002F0B4646
:1089300040E8003E9EF0000FF7D110465DF804FBC2
:1089400000B550E8002F42EA010340E8003E9EF0E7
:10895000000FF6D110465DF804FB00BF00B550E8EB
:10896000003F43EA010240E8002E9EF0000FF6D1DE
:1089700010465DF804FB00BF00B550E8003F03EA75
:10898000010240E8002E9EF0000FF6D110465DF87F
:1089900004FB00BF00B550E8002F02EB010340E8E4
:1089A000003E9EF0000FF6D110465DF804FB00BFBC
:1089B00000B550E8003F03EB010240E8002E9EF0B6
:1089C000000FF6D110465DF804FB00BF00B550E87B
:1089D000003FA3EB010240E8002E9EF0000FF6D10D
:1089E00010465DF804FB00BF00B5012350E800EF1E
:1089F0004EEA030240E8002191F0000FF6D17046E4
:108A00005DF804FB00B5012350E8002F42EA030E95
:108A100040E800E191F0000FF6D170465DF804FBEC
:108A200000B5002350E800EF0EEA030240E8002101
:108A300091F0000FF6D170465DF804FB00B50023FD
:108A400050E8002F02EA030E40E800E191F0000F29
:108A5000F6D170465DF804FB99B110B4B2FBF3F4A3
:108A600003FB1424A4B21CB109205DF8044B704729
:108A700080E8120084608281C38120465DF8044B47
:108A800070470E20704700BF82B050E8022FC188A7
:108A9000B2EB324F4FF0000317BF92B241EA0141EF
:108AA00042EA014104E04268B2EB324F08BF0123C1
:108AB00040E80212002AE8D18DF807309DF807300F
:108AC000002B0CBF1120002002B0704730B482B0E0
:108AD00050E8013F9DB2C48925448489A54228BF3E
:108AE0002D1B0489A54202BFBFF32F8F002207E090
:108AF000C5EA030540E80154002CE9D14FF001021A
:108B00008DF803200193019B9DF803200B602AB18F
:108B10000B880068184402B030BC704702F0FF03B5
:108B2000184602B030BC70470A884B889A4201D080
:108B30000020704750E8012FC2EA024240E80123BA
:108B4000002BF7D10120704730B482B050E8023FCB
:108B50001FFAA3F5C488A54202BFBFF32F8F0022DE
:108B60000DE0C48925448489A54228BF2D1BC3EA92
:108B7000054540E80254002CE8D14FF001028DF881
:108B800003200193019B9DF803200B602AB14B88C1
:108B90000068184402B030BC704702F0FF0318466A
:108BA00002B030BC704700BF0A884B889A4201D09F
:108BB0000020704750E8022FC2EA224240E8022318
:108BC000002BF7D10120704701F01F024B09012152
:108BD00000EB83009140FFF7C1BE00BF01F01F0210
:108BE00001234909934000EB8100D943FFF7C4BE3C
:108BF0004B0901F01F0150F82300C84000F00100AC
:108C0000704700BF2DE9F84F01F1FF394FEA5919BC
:108C100009F101090F46064600EB890904460025C3
:108C20004FF0010823686FEA030B9BFAABFBBBFA1A
:108C30008BFBBBF1200F20D0AB445F450CD81CE070
:108C40002368DB4393FAA3F3B3FA83F3202B05EBFA
:108C5000030B12D05F4510D90BF01F0A4FEA5B10CF
:108C600008FA0AF106EB8000FFF76AFE20FA0AF024
:108C7000C307E5D45846BDE8F88F04344C4505F1E8
:108C80002005CFD1BB46F5E7B8B130B44168826862
:108C90000468521AD2B2531E2160DBB242B101689D
:108CA0000A685C1E551C0D601370E3B2FF2BF6D1F1
:108CB00003680020187130BC70470E20704700BF59
:108CC000F0B583B002AB002503F8015D04461846F9
:108CD00006F0C6FB236861681A688A4210D9511EE3
:108CE00019602168A3680E6812F8015C0A79A78AE6
:108CF000E0689B1BDBB29A4207FB050538BF0B718E
:108D00009DF8070006F0D2FB284603B0F0BD00BF77
:108D100030B583B002AB002203F8012D054618469A
:108D20000C4606F09DFB2A681368591C1160E9681F
:108D3000AA8A641AB4FBF2F41C709DF8070006F0CE
:108D4000B5FB03B030BD00BF0020704730B18A686A
:108D500092F83C3143F0200382F83C31704700BF69
:108D600010B544696068036801219B689847A3684F
:108D700010B104221A7010BD03221A7010BD00BF7A
:108D8000096800680EF05CB92DE9F041054680687D
:108D9000484E82B000248022214694308DF8034052
:108DA0000DF0A2FF2869444906F0A4FB286906F0EB
:108DB00095FB46F001064FF47A7868680368012253
:108DC0001F690DF1030101ABB847019AD2B19DF8BB
:108DD0000320AB681B2A04F1010105D093F894002D
:108DE0001B28EAD1522A1CD02344CCB2092C83F888
:108DF0009420E2D9AB68002283F89420042002B0CA
:108E0000BDE8F0814FF6C010B047019B002BD4D1D4
:108E100008F1FF371FFA87F8B8F1000FCDD10D2008
:108E2000EDE72344002283F89420AE6896F895304D
:108E30005B2B05D00B2086F8942002B0BDE8F081B2
:108E400006F19507022304E05FFA8EF3802B8AB2C5
:108E50002ED017F8014F02EB8201A4F130003B2C19
:108E600003F1010E00EB4101EED15FFA8EF318061B
:108E70001ED4002002E088B2190619D4F41800EBC1
:108E8000800194F89440013304EB41013039DBB2A6
:108E9000002CF0D1FA2828BFFA203072AB68FA2AE9
:108EA00088BFFA229A72AB68002083F89400A6E784
:108EB0000C20A4E700850300D8840300F8B50C4615
:108EC00001F1080508B30EF0CDF8C0B20146E27C0E
:108ED000637BA77CA0730A440F4492FBF3F603FB69
:108EE000162297FBF3F0013203FB1073002162F3AB
:108EF00007010133013663F30F2166F31741013097
:108F000060F31F61A1602846F8BD0146DFE700BF9E
:108F10002DE9F84F0746002003468846144638607E
:108F20000646814605E084F8009001343B682F2B0B
:108F30002AD8257845B30DF083FE2844437813F0F2
:108F40000803F0D13A68511C396048F8224025786E
:108F50001E46002DEAD0EEB9272D2FD05C2D04F14E
:108F60000106204635D0222D28D00DF069FE284478
:108F700043781B0700F1AE8014F8015F002DEBD1A0
:108F80002E463B682F2BD4D9002248F823203046A8
:108F9000BDE8F88FAE4204D05C2D657826D0013450
:108FA000D7E720460EF05EF8611C024620460DF021
:108FB00081FE2578002DE3D0272DCFD120460EF05D
:108FC00051F8611C024620462E460DF073FE2578AE
:108FD000BFE70EF047F83146024620460DF06AFE24
:108FE00065783446002DB7D12E46CAE7AE4224D06C
:108FF000302D2FD02B46782BD1D1A278A2F130037F
:10900000DBB2092B4ED9A2F16103052B64D9A2F181
:109010004103052BC3D8373AD5B2E278A2F1300329
:10902000DBB2092B45D843EA0515EDB24FF0030A30
:109030004FF0040B2046A24428E020460EF012F820
:1090400004F1010A0246514620460DF033FE6578D0
:1090500054467EE7A378A3F13001C9B20729CAD8E4
:10906000E378303BDBB2072B42D82279303AD2B2D8
:1090700043EAC103072A5BB23FD842EAC303DDB229
:109080004FF0050B0423204604EB030A0DF0EAFF22
:10909000821CA2EB0B02514620460DF00BFE257000
:1090A00065787CE71D46E278A2F13003DBB2092B3C
:1090B000B9D9A2F16103052B11D9A2F14103052B06
:1090C00020D8373A42EA0515EDB24FF0030A4FF0C7
:1090D000040BAFE7002629E7573AD5B2E3E7573A42
:1090E00042EA0515EDB24FF0030A4FF0040BA1E779
:1090F0000D4602234FF0030BC5E7DDB24FF0040B22
:109100000323C0E74FF0020A4FF0030B92E700BFC2
:10911000002900F0DA802DE9F04F8B4685B09246A9
:1091200006464C1E002700E001370DF089FD14F8BB
:10913000013F184443781B07F6D45FFA8AF3019382
:1091400058460DF08FFFB36893F80D80C01BA8EB55
:109150000A08404560D90BEB0709002400E0013400
:109160000DF06EFD19F8013B18440AEB040142783A
:10917000100707EB040502D50A2B07D0A046B368F9
:109180005B7B9942EBD307EB08054446306906F058
:10919000A5F9A4B103AB4FF000080095994670689B
:1091A000036807EB0801DD6859444B462246A8478F
:1091B000039B9844FBB1E41A002CF0D1009D0BEB0B
:1091C000050400E001350DF03BFD14F8013B1844A7
:1091D00043781B07F6D4404A4049306906F08AF9C3
:1091E000019B0BB92F46ABE71A463D49306906F0A3
:1091F00081F92F46A4E7B2681378032BDCD0D2F8AC
:109200003C319906FBD592F83C316FF3451382F857
:109210003C31002CC3D1D1E70BEB070188B11BF81F
:1092200007300A2B0BEB070150D00B46002403E05C
:1092300013F8012F0A2A0FD00134A04207EB0405CE
:10924000F6D1306906F056F93069234A234906F011
:1092500051F905B0BDE8F08F306906F03FF94FF0E5
:1092600000080DF10C0AA9467068036807EB0801B5
:10927000DD68594453462246A847039BA3B198444E
:10928000E41A002CF0D14D46134A1449306906F017
:1092900031F9019B013523B11A461149306906F0B5
:1092A00029F90BEB0501CCE7B2681378032BE8D062
:1092B000D2F83C319D06FBD592F83C316FF3451353
:1092C00082F83C31002CCFD1DDE7704730693D4654
:1092D00006F004F9D8E700BFB4840300288803002F
:1092E000088503000CB4F0B585B00AAB816853F86B
:1092F000045B0193D1F83C315B07044602D5CB7B7C
:10930000082B09D12946206901AA06F093F905B076
:10931000BDE8F04002B0704702220F3168460DF000
:10932000BEFCA368DA7B082A0AD02B4A2B4902929A
:1093300008220391DA73206929496A4406F0DAF8B1
:1093400001AA2946206906F075F99DF80030A26847
:10935000002B39D0D17B994214D01F4902916D2046
:109360000021332603F12F058DF80E008DF80F1024
:109370008DF80C608DF80D50D3732069184902AA3E
:1093800006F0B8F89DF80130002BC0D0A268117C1F
:109390009942BCD01B218DF808105B27342603F1BD
:1093A0002F056D2000218DF80C008DF80D108DF823
:1093B00009708DF80A608DF80B5013742069084904
:1093C00002AA06F097F8A2E7D3732069054A044978
:1093D00006F090F8D6E700BF1B5B313B33376D00DA
:1093E00028880300B88403002DE9F047804686B042
:1093F00054480DF037FE044653480DF033FED8F8BC
:10940000083052495B68524A1B680091241A0821AF
:109410004046FFF767FFD8F808305B681868A4B2C9
:10942000002800F08D800DF01DFE85B247480DF03C
:1094300019FED8F808305B682844596882B2404663
:10944000FFF766FE434A08214046FFF74BFF3E48C0
:109450000DF008FE02300444A4B23A4B00933E4A99
:10946000234608214046FFF73DFFE21C92B23B49EC
:109470004046FFF74DFED8F808305B689F68002F24
:1094800054D0002528462E460FE07C6860592C44B5
:10949000B8B10DF0E7FDB04205D92668304616B1E7
:1094A0000DF0E0FD86B2103548463B7800F1010929
:1094B000002BEAD07B6802A99847029808B102AC59
:1094C000E7E7B9F1010F31D0254ADFF88C90082188
:1094D0004046FFF707FF3B78B51C0024ADB24FEACA
:1094E000041AD3B97B6853F80A209A44F2B10821D0
:1094F00000922B464A464046FFF7F4FEDAF8043065
:10950000721D1946404692B29BB1FFF701FE3B78AF
:1095100001344FEA041A002BE4D002A97B682046EC
:109520009847029A12B10DF1080AE0E706B0BDE8CB
:10953000F0870C4A0C49D8F8100005F0DBFFE6E78D
:10954000054673E7108503004C880300E0840300A0
:1095500070870300348703004087030048870300B7
:109560005C870300B484030028880300022910B537
:1095700004460BD020690A4A0A4905F0BBFF20695E
:10958000094A0849BDE8104005F0B4BF8368D3F824
:109590003C319B07EED5BDE81040FFF725BF00BF6B
:1095A000C084030028880300C4840300F8B504467F
:1095B0000068A668002841D00DF054FDC0B20346F3
:1095C000F17C727BB57CB07319442B4491FBF2F0B3
:1095D00002FB101193FBF2F5013102FB1533C9B206
:1095E00000270133DBB2013061F30707C0B263F338
:1095F0000F276A1C60F31747D2B262F31F679942C4
:10960000B76018D0904203D2121A12F0FF0217D19D
:10961000994207D85B1A13F0FF021AD1A3689A7C0B
:10962000DA74F8BDCB1A13F0FF02F7D00B492069AA
:1096300005F060FFF2E79042E4D1F2E70346BFE7AE
:109640000749206905F056FF317A737A9942E1D9CA
:10965000E8E70449206905F04DFFDFE7EC840300EB
:10966000E484030008850300F8B505460068AC688B
:10967000002843D00DF0F6FCC0B2064600F1010E02
:10968000E37C617BA77CA673034493FBF1F201FBAF
:1096900012333844013390FBF1FCDBB201FB1C01B7
:1096A0000027013163F30707501C61F30F27C1B294
:1096B0000CF1010C61F317476CF31F677345A7604A
:1096C00019D001291ED8B34208D80136F31A13F075
:1096D000FF021FD1AB680022DA74F8BD013B9E1B6C
:1096E00016F0FF02F6D00F49286905F003FFAB68BA
:1096F0000022DA74F8BD0129E3D1F8BD06464FF027
:10970000010EBDE7D2B20849286905F0F3FE237ABD
:10971000A67BD8E70549286905F0ECFEAB68002276
:10972000DA74F8BDEC840300F484030008850300B8
:10973000F0B585B00025019502958DF80C500446D2
:10974000836871BBD3F83831002B00F088800E4657
:10975000FFF78AFFA26801AFD2F838013346092229
:10976000394603F083F9A368029AC3F83821A36845
:10977000D3F838019D7C002833D103F194000DF01B
:1097800071FC002840F08F80A3681875A36813F15E
:10979000140003D00DF066FCA368C0B28DF80C0075
:1097A00031E0D3F83811D3F83421914257D0D3F8AF
:1097B0003031002B53D0FFF757FFA368D3F838019F
:1097C00000285DD001AF2B460922394603F04EF93F
:1097D000A368019AC3F83821A3689DF80C50D3F808
:1097E000380139460023092203F040F9A1689DF8A9
:1097F0000C20D1F8380109231431013203F036F975
:109800009DF80C00A368D874A368A842987431D35B
:10981000A3682E4A204614330821FFF763FDA2688F
:109820002068D57CE8B10DF01DFCA268537B28446C
:10983000B0FBF3F503FB150060B12068957C18B10F
:109840000DF010FCA3685B7B2844B0FBF3F203FB34
:10985000120020B920691E4A1C4905F04BFE05B0D4
:10986000F0BD537BB5FBF3F103FB1155002DF1D097
:10987000957CE9E7174A1549206905F03BFEC7E7E3
:1098800003F114000DF0EEFBA368C5B2D3F830214C
:10989000C3F8382175B9A36883F89450A36801AF61
:1098A000D3F838019DE7A06800F1940114300DF061
:1098B000D1FB6BE7A06800F1140194300DF0CAFBF6
:1098C000A36801AFD3F838018BE700BF28880300F5
:1098D000B4840300A88403002DE9F0410546006824
:1098E000AC68002878D00DF0BDFBC0B20146E27C28
:1098F000637BA67CA0730A44314492FBF3F603FB1E
:109900001622013291FBF3F74FF0000E03FB171301
:1099100062F3070E01360133F6B263F30F2E0137FF
:1099200066F3174EFFB267F31F6EC4F808E0AA682B
:10993000286892F81380002838D00DF093FBAA68AD
:10994000537B4044B0FBF3F803FB180068B1286870
:1099500092F8128018B10DF085FBAB685B7B404438
:10996000B0FBF3F203FB120020B91F4A1F4928691C
:1099700005F0C0FDBE4223D0E27AA37AD21A12F0DB
:10998000FF022BD1237A627A934205D8D21A12F0C1
:10999000FF021BD1BDE8F0819A1A12F0FF02F9D044
:1099A00028691349BDE8F04105F0A4BD537BB8FB1D
:1099B000F3F103FB11810029D7D092F81280CEE792
:1099C000627A237AD21A12F0FF02E3D02869094999
:1099D000BDE8F04105F08EBD014688E706492869DB
:1099E00005F088FDCEE700BFB4840300288803009B
:1099F00008850300EC840300F4840300F8B5836851
:109A00009E7CB4187F2C00DC02B9F8BD0F46D97CCF
:109A10000446761A8818F6B21430143119441546E3
:109A20001844721C0DF046F9A068C37C1433394603
:109A300018442A460DF03EF9A76817F1140002D029
:109A40000DF010FBC0B2B874A1681E4ACB7C143371
:109A50000B4420460821FFF745FCA368DA7C2A4422
:109A6000DA74A2682068D57C10B30DF0FBFAA26806
:109A7000537B2844B0FBF3F503FB150060B120686D
:109A8000957C18B10DF0EEFAA3685B7B2844B0FB1F
:109A9000F3F203FB120020B90B4A0A49206905F0D2
:109AA00029FD002EB1D02046BDE8F840FFF714BFD5
:109AB000537BB5FBF3F103FB1155002DECD0957CE6
:109AC000E4E700BF28880300B48403002DE9F041D7
:109AD0008368D3F83C619A7C0446D87CC6F30006C0
:109AE000151AF7B28846EDB2002F38D17E2A34D845
:109AF000002D40F0E08003441975A268937C013387
:109B0000DBB2D11893740D7542468649206905F081
:109B1000F1FCA268D37C0133D374A5682068EE7C85
:109B200000286FD00DF09EFAA5686B7B3044B0FB27
:109B3000F3F603FB1600002800F0B6802068AE7C28
:109B4000002867D00DF08EFAA5686B7B3044B0FB1F
:109B5000F3F603FB1600002864D0BDE8F0817E2AEE
:109B60004AD9002D00F09E80034419752068A6682C
:109B7000002800F0D2800DF075FAC0B20146F27CE8
:109B8000737B96F812C0B0730A448C4492FBF3F0D6
:109B900003FB102201329CFBF3F14FF0000E03FB9C
:109BA00011C362F3070E01330130C2B263F30F2E0B
:109BB0004B1CDBB262F3174E63F31F6E9A42C6F87A
:109BC00008E000F097802069574A584905F092FC58
:109BD000A168564ACB7C14330B4420460821FFF77A
:109BE00081FB2069524A514905F084FC0122514908
:109BF000206905F07FFC8CE703441975002D3FF4C4
:109C00007CAFB3E76B7BB6FBF3F003FB1066002E73
:109C10004AD0AE7CB6FBF3F203FB1262002A9CD161
:109C2000104608E02068002879D00DF01BFA6B7B05
:109C3000AE7CC0B20246E97CA8731144164491FB85
:109C4000F3F003FB101196FBF3F2013103FB1266F4
:109C5000002761F30707431C0136DBB2D2B266F37B
:109C60000F27511C63F31747D21A61F31F6712F0D5
:109C7000FF02AF6039D1304A2C49206905F03AFC27
:109C8000EA7AAB7AD21A12F0FF0229D12A7A013A83
:109C900012F0FF023FF461AF20692649BDE8F041B0
:109CA00005F028BCBDE8F0812069234A1F49BDE8C2
:109CB000F04105F01FBC00F114011530194418449F
:109CC0002A460CF0F7FFA368DA7C134483F814806B
:109CD000A268937C0133DBB2D11893740E7545E70B
:109CE0001649206905F006FCD0E71549206905F002
:109CF00001FCC0E7A1680D4ACB7C14330B4420461D
:109D00000821ED1BFFF7EEFA15F0FF023FF401AF5B
:109D10000C49206905F0EEFBFBE601462FE7024601
:109D2000AE7C88E774840300AC84030028880300B9
:109D3000B084030008850300B4840300F4840300A6
:109D4000E4840300EC8403002DE9F0410446C0687C
:109D50009DF8187044616068056890462D682E4A29
:109D60001E462346A847054610B12846BDE8F081A7
:109D7000606902F0C3FD05460028F6D1A368C3F868
:109D80003001A368C3F834014FF4A0722946A068DB
:109D90000CF0AAFFA068214B90F83C21204942F02A
:109DA000200280F83C21A06890F83C2168F38202F0
:109DB00080F83C21A06890F83C2142F0080280F82D
:109DC0003C21A26801201070A26850205073A26844
:109DD000C91A1820C90810730ED0124A03EBC10E1D
:109DE00058680833006842F8040B9E45F8D10E4BC2
:109DF0000C4804220CF0B9FF002EB6D03946E068BA
:109E000002F0FCFB0028A5BFE368012204255A727A
:109E10002846BDE8F08100BF4D8D0200989C0300EC
:109E2000D09C0300802E0020818D02004AB32DE9D2
:109E3000F043054683B08846144600270E466868FE
:109E400003682246D3F80C90314601ABC847019B0A
:109E50002BB1E41A1F4411D008EB0706EFE7AA68FC
:109E60001378032BEBD0D2F83C319B06FBD592F84C
:109E70003C316FF3451382F83C31E0E703B0BDE8B5
:109E8000F08370470CB4F0B585B00AAB826853F824
:109E9000046B0193D2F83C315B07044603D5D37BB6
:109EA0008B420D4609D13146206901AA05F0C2FB5B
:109EB00005B0BDE8F04002B0704702F10F016846FE
:109EC00002220CF0ECFEA368002D64D0DA7BAA42DB
:109ED00016D0332005F12F016D220027DFF8C8E0EE
:109EE0008DF80C008DF80D108DF80E208DF80F7088
:109EF000CDF808E0DD7320692A4902AA05F0FAFAD4
:109F000001AA3146206905F095FB9DF80030A26852
:109F1000002B39D0D17B994214D0234902916D2076
:109F20000021332603F12F058DF80E008DF80F1058
:109F30008DF80C608DF80D50D3732069194902AA71
:109F400005F0D8FA9DF80130002BB1D0A268117C41
:109F50009942ADD01B218DF808105B27342603F100
:109F60002F056D2000218DF80C008DF80D108DF857
:109F700009708DF80A608DF80B5013742069094937
:109F800002AA05F0B7FA93E7D3732069074A054997
:109F900005F0B0FAD6E7DD732069044A014905F0FF
:109FA000A9FAADE7288803001B5B313BB8840300A6
:109FB0002DE9F041C36890B007460C46D86803A964
:109FC000002204F0AFFE002840F0AA80002C78D1D7
:109FD000BD683868002800F0A7800DF043F8C0B2D3
:109FE0000646EB7C697B95F812E0A873334493FB3B
:109FF000F1F201FB12337644013396FBF1FEDBB242
:10A0000001FB1E610020013163F30700561C61F360
:10A010000F20F1B20EF1010E61F317406EF31F60D5
:10A020000129A86005D9D2B24749386905F062FA1A
:10A030002B7A012B7AD8454A4549386905F05AFAF6
:10A04000002C7AD1A0460AE0039802F0BFFCFB681E
:10A050000022D86803A904F065FE002842D100233D
:10A06000082204A9039802F001FD9DF8103006981B
:10A0700005998DF8258003F00302012A07900891C5
:10A0800034D0022AE0D1BDF81250C3F3C2038DF8D8
:10A090002430C5F389150826082D2C4628BF08242E
:10A0A000334622460AA9039802F0E0FC2D1B214604
:10A0B0003B6907AA0AA8264402F072FB002DEBD1E7
:10A0C000C2E7039802F082FCBA68D2F82C3101335F
:10A0D000C2F82C31BD68D5F82C3103F00703012BF1
:10A0E0003FF477AF012010B0BDE8F081BDF81060FB
:10A0F000049C0398C6F38316C3F3C205B2000AA9F1
:10A1000008238DF82450C4F3952402F0AFFC3B697A
:10A1100000933246204607AB0AA902F09BFA93E768
:10A12000002010B0BDE8F08106465AE7013BDAB2E4
:10A130000849386905F0DEF97DE73846064A02210C
:10A14000FFF7A0FE2046CEE7F4840300A8840300B6
:10A1500028880300EC8403007884030010B50346CC
:10A1600082B00022C0685C6901A904F0DBFD18B967
:10A1700001462046FFF71CFF02B010BDF0B545694F
:10A1800083B0AB6801911F78042F17D0044601A952
:10A19000C06804F053FD60B1FE1E18BF01263146B1
:10A1A0002846FFF705FF01A9E06804F047FD0028F5
:10A1B000F5D1019802F006FC032F01D003B0F0BDE9
:10A1C00028460021FFF7F4FE03B0F0BD2DE9F04F63
:10A1D00082468068CBB0102100F59E70FEF7BEFB72
:10A1E000DAF808301B78022B40F08C80DFF834B3AB
:10A1F000C34B0DF594780022A3EB0B0348F8EC2D2C
:10A200004FEAD309DAF80400036801221C690DF152
:10A210003B014346A0470F9B002B58D09DF93B3094
:10A22000002BEFDB04F08EFCDAF808004378012BFA
:10A230002AD076D3022B2CD100234370DAF80840C1
:10A24000D4F83C31190742D59DF83B30413B0B2BEC
:10A25000D8D801A252F823F027A6020031A60200A6
:10A26000A7A5020029A5020005A202009FA50200E1
:10A2700005A202001FA6020005A2020005A202001C
:10A2800005A202003BA602009DF83B305B2B00F0CC
:10A29000308100234370B5E79A4A9B49DAF81000F1
:10A2A00005F028F9DAF80830974A02211970DAF82F
:10A2B000081000230B75DAF80810CB74DAF80810D0
:10A2C0008B74DAF8003003215046FFF7DBFD0021E4
:10A2D0005046FFF76DFEA8B1DAF800308A4A032134
:10A2E0005046FFF7CFFDDAF80830D3F83C211207CB
:10A2F00008D550461433844A0821FEF7F3FF504630
:10A30000FFF7EAFADAF8100005F0E8F8DAF80800E2
:10A310006FF0100100F59E70FEF72EFB4BB0BDE80C
:10A32000F08F9DF83B309AF818209A4200F0B183E4
:10A33000092B00F0B78178D8002B3FF463AF082BCE
:10A3400040F08881D0F83C311D077FF55BAF827CFF
:10A35000002A3FF457AFC37C002B3FF453AFD21A0F
:10A3600003F11401D5B213336A1C014418440CF0F4
:10A37000A1FCDAF80820D37C013BD374DAF808207A
:10A38000937C013B9374002D00F02886DAF81000CE
:10A390005E49082205F0AEF8DAF80000DAF8084065
:10A3A000002800F0AE860CF05DFEC0B20146E27CF3
:10A3B000637BA77CA0730A440F4492FBF3F603FB74
:10A3C0001622013297FBF3F1002003FB117362F3B5
:10A3D000070001330136F2B263F30F204B1CDBB2EE
:10A3E00062F3174063F31F609A42A06000F0AF86EB
:10A3F000DAF81000464A444905F07CF8DAF8100013
:10A40000444A414905F076F8DAF808103E4ACB7C18
:10A4100014330B4450460821FEF764FF3E4A3A4984
:10A42000DAF8100005F066F8ECE61B2B64D07F2B01
:10A4300040F01081D0F83C311C077FF5E3AEC27CC0
:10A44000837C9B1A13F0FF053FF4DCAE02F115018B
:10A450001432014410442A460CF02CFCDAF808208F
:10A46000937C013B9374DAF80000DAF80840002886
:10A4700000F0CA850CF0F6FDC0B20146E27C637BB9
:10A48000A77CA0730A440F4492FBF3F603FB162249
:10A49000013297FBF3F1002003FB117362F3070015
:10A4A00001330136F2B263F30F204B1CDBB262F3CF
:10A4B000174063F31F609A42A06099D1DAF8081040
:10A4C000114ACB7C14330B4450460821FEF70AFF97
:10A4D000124A0D49DAF8100005F00CF86B1E13F063
:10A4E000FF023FF48FAE0E49DAF8100005F002F8D3
:10A4F00088E60223437085E60123437082E600BFAD
:10A50000D09C0300B48403002888030074840300F3
:10A51000AC840300A8840300B0840300BC8403005F
:10A52000EC840300989C0300DAF80000002800F097
:10A5300095830CF097FDC1B20E4635460131E27CA1
:10A54000637BA77CA6732A4492FBF3F003FB1022E3
:10A550002F440132D2B297FBF3F6002503FB1673AA
:10A56000013062F307050133C0B263F30F2560F3D6
:10A570001745013666F31F659142A56000F06482BD
:10A58000012A00F06682B0490122DAF8100004F0D6
:10A59000B1FFDAF80820D37C013BD37432E6504691
:10A5A000FFF704F82EE6DAF80000002800F05A83DE
:10A5B0000CF058FDC0B20546E37C617BA27CA07321
:10A5C0002B442A4493FBF1F001FB103392FBF1F58D
:10A5D000013301FB1522DBB2002601320130D2B279
:10A5E00063F30706C7B262F30F26681C67F31746CA
:10A5F000C0B260F31F669342A66000F020829942C9
:10A600004FF0010200F03A829049DAF8100004F0AD
:10A6100071FFDAF80820D37C0133D374F2E5504699
:10A62000FFF722F8EEE501215046FFF781F8E9E552
:10A6300000215046FFF77CF8E4E5D4F83C3194F86B
:10A640003C2103F0010383F0010363F3000284F86B
:10A650003C21D7E50CF0F4FA9DF83B100844437810
:10A6600013F0970F3FF4CEADDAF80820D2F83C3162
:10A67000C3F3C00313F0FF0F40F09280907C7E285C
:10A680003FF6C0ADD07C14180130D0742175DAF8D3
:10A690000820D17C0A441375DAF80820937C013332
:10A6A0009374AFE5D0F83C311B077FF5ABAD837CED
:10A6B000C3F17F0313F0FF0309933FF4A3AD00F14F
:10A6C0001401C27C94300CF0EAFADAF80830DA7C33
:10A6D0001344002483F894400CF0B2FADAF80830FE
:10A6E000DA7C1A4419A9D27C024410A85578C3F820
:10A6F0003841DAF8082005F008030C939432C5F3CA
:10A70000C0030B93FEF704FC1998002800F079842D
:10A710000CF0A8FCC3B207930022109BCDF80C806C
:10A7200004920A9215460D920892CDF808A0904620
:10A73000002B00F007810B9A013A13449D4280F0F0
:10A7400001814AAA02EB850200260595334606924E
:10A750004546059A5F1C3ABBB14540F2EB803C4B45
:10A76000DA46904603EB8604DAF80430206819686C
:10A770000CF066FC002800F0588108F10108C14582
:10A780000AF1080AF0D1DDF808A0DDF80C80002FEE
:10A790007FF438AD2F4A04215046FFF773FB31E5B3
:10A7A0005046FFF793F92DE5002D00F0C3802A787D
:10A7B000002A40F0598133016C68E1581C4400299B
:10A7C00000F0B880002F00F02785069B53F8C40CDA
:10A7D0000CF036FC01363B460028BAD1059DD4F872
:10A7E0000880B8F1000F06D0109B0B9A0135EDB22E
:10A7F0001A4495429CD3049B05954746DDF808A072
:10A80000DDF80C80002B3FF4FDAC089B0D9A9342C1
:10A8100000F03A84DAF808304FF000025A746ED330
:10A820000D9BCDF80C801A0102921D46059B002B52
:10A8300040F0D3824D4580F00B829846044B5E4633
:10A8400003EB85040FE000BFEC84030008850300E0
:10A85000802E0020E887030008F10108C14506F1B9
:10A86000080600F0F5817368206819680CF0E8FBB1
:10A870000028F1D173681E68002E00F0F8838A4822
:10A880000CF0F0FB0A9BDAF808101A18D2B28648CE
:10A890004C7B0B920CF0E6FB069030460CF0E2FB92
:10A8A000DAF80830069993F811E00B9A611AB1FBB7
:10A8B000F2F1C9B2121ABEFBF1F001FB10E111F086
:10A8C000FF0F0EF1010ED4B283F811E040F0938235
:10A8D0000096754B754A07215046FFF7D3FA2CB105
:10A8E00022467349DAF8100004F004FE029B10338C
:10A8F0000293089B01359D4298D9DDF80C80DAF867
:10A9000000306C4A50460321FFF7BCFADAF80830F1
:10A91000694A143308215046FEF7E4FC5046FEF71E
:10A92000DBFF049B099A1968079B50461944FFF7FF
:10A9300065F867E4DDF808A0DDF80C80002F7FF4EF
:10A9400061AC27E70C9B002B40F085814AAB03EB01
:10A95000850353F8C40C002800F06A820CF082FBD7
:10A96000C3B207934AAB03EB850300240693059417
:10A97000002D2ED1A1457FF63EAF504B5F46AA4633
:10A9800003EB840606E00AF1010ACA4507F108074D
:10A990003FF431AF7B68306819680CF051FB002838
:10A9A000F1D17E68002E3FF426AF3168069B079AEE
:10A9B00053F8C40C0CF05EFB049BD8B1002B7FF461
:10A9C00010AF1E46089B0593059B0496013408931F
:10A9D000CDE7B8F1000F3FF40EAF98F80030002B30
:10A9E00040F0F0812301D8F80460F1581E4400299A
:10A9F000DCD100E7002B00F00582306838B10CF0A4
:10AA000031FB0A9BC0B2834238BF03460A93099BBD
:10AA1000002B40F09981671CD6D1294A02980496F0
:10AA200004210894FFF72EFADBE6DAF80440002F41
:10AA300000F0F283002C00F0F5832168C5E6874220
:10AA40007FF4DDADFFF7DEBB01287FF499ADFFF7A2
:10AA5000D9BB1C49DAF8100004F04CFD627B002AD7
:10AA60003FF497AD124990E5184611A96B689847D5
:10AA7000119900293FF45EAF11ACA3E61249DAF850
:10AA8000100004F037FD627B002A3FF4C2AD0F498D
:10AA9000BBE5837C0446002B3FF4FEAB037D002B1B
:10AAA00061D0002419E000BF20880300248803003F
:10AAB000088503001888030028880300802E0020E2
:10AAC000E8870300F4840300E4840300EC840300BB
:10AAD0000134B4F5807F00F00F830CF0B1F8DAF8A0
:10AAE00008201319E5B21B7D03445B781907EFD4E6
:10AAF00095B1937C02F114005A1C121B41190CF001
:10AB0000D9F8DAF80820937C5D1B9574DAF80830E0
:10AB10009A7CDA74DAF80820947C133414442746BB
:10AB20000CF08EF83B780344E51B5B7813F00803C8
:10AB30003E46EDB207F1FF37F2D1DAF80840A27CC9
:10AB400002F1130121448E420DD0521B144423758F
:10AB5000DAF80820937C5D1B9574DAF808309A7C4B
:10AB6000DA74DAF8084014F1140000F025820CF0D1
:10AB700079FADAF808300027C5B2C3F83871002D29
:10AB800000F01C82DAF80830D3F8300119AE48B171
:10AB900031463B46092201F069FF9DF86C40AC420A
:10ABA00000F0B2820A354FF0080811E0234609226E
:10ABB000314601F05BFFDAF808201994D2F834012D
:10ABC00023460922314601F023FFB8F101087AD06B
:10ABD0002946DAF8140001F093FEDAF8083004464A
:10ABE000002841D1D3F83471002FEED0034609225A
:10ABF0003146384601F03AFFDAF808301A9AC3F8BD
:10AC000034212146092230460CF06EF823460922F1
:10AC10003146384601F0FCFE384601F0B9FEDAF85C
:10AC20000830D3F834010028C0D1C3F83001CCE794
:10AC3000B8F1000F0CD098F80030002B40F07D8266
:10AC4000089BD8F804201B01D058002840F09F80B2
:10AC500000231B68FFDE0023079383E605460646B4
:10AC600001216CE40546A7E4D3F83001002800F088
:10AC7000A68200230922314601F0F8FEDAF80830F6
:10AC80001A94D3F8300109220023314601F0C0FEA6
:10AC9000DAF8083000221A92D3F8302119929A7CFF
:10ACA0008DF86C20C3F8304100230922314620463C
:10ACB00001F0AEFEDAF808108A7C20460132143129
:10ACC000092301F0A5FE5046FEF770FCDAF80820D3
:10ACD000DAF80000D47C18B10CF0C4F9DAF80820D6
:10ACE000517B2044B0FBF1F301FB1300002840F03E
:10ACF0007F811432314611A8FEF70AF9119A0346F2
:10AD0000002A3FF4C9AA002840F08181B9F1000F60
:10AD100010D0AB4D04466B68199819680CF090F987
:10AD2000002800F0888001344C4500F2848005F151
:10AD30000805F0D1A34A0092199BA34A022150466C
:10AD4000FFF7A0F8FFF7AEBA002D7FF471AF089AB5
:10AD50004A45BFF47DAF9D49049501EB820A2A461E
:10AD600027465D46144605E001344C4505F10805CB
:10AD70003FF46EAF6A68DAF8000011680CF060F911
:10AD80000028F1D13C462F46049D7B681868D6F810
:10AD900000E0DDF81CC0002307E0415C91420BD1CC
:10ADA0000133B3F5807F3FF436AE0CEB0301DFB225
:10ADB0001EF80120002AF0D1099BBB4228BF3B4668
:10ADC000099328E611A9D8F804302046984711992C
:10ADD00000293FF410AD11AEE8E5002F3FF438AF85
:10ADE0003B78002B40F047817B68029A9E58002EEA
:10ADF0007FF445AD2CE73346754A07215046FFF7EF
:10AE000041F86CE53368002B00F0168118460CF011
:10AE100029F9C3B20A931846079B099AC01A8242BD
:10AE200040F3E4800A9A0D94D31ADBB20993F2E559
:10AE30000C9B079396E56B68DA680A921AB1DAF808
:10AE4000082053606B689B68059300230693079363
:10AE500008931F460BEBC90309930125CDF8089011
:10AE6000CDF80CA00496119BAB422BD9AC004AAB99
:10AE70001E19584956F8C40C0CF0E2F8002800F0EE
:10AE8000CD8056F8C40C54490CF0DAF8002800F0D4
:10AE9000C58007F10109002D4FD1029B9F426FD25F
:10AEA0004A4BDDF8248003EB8706DA46DAF80430F3
:10AEB000306819680CF0C4F8002866D00AF1080A56
:10AEC000C245F3D1DDF80890DDF80CA0049E069B86
:10AED000002B00F0C380089B002B40F0AF80079A46
:10AEE0004A4580F0B980394D354C05EB820504E0C8
:10AEF000099B0834A34200F0AF8063682868196892
:10AF00000CF09EF80028F3D16368DAF8082008985E
:10AF10005360DAF8083011995B6806EB8002091A71
:10AF2000DB6850469847DAF8082092F83C316FF316
:10AF3000410382F83C31FFF7B5B9059B002BC1D026
:10AF40001B785BBB059A3B015668F1581E440029EB
:10AF5000B8D0B9F1000FB5D04AAB1C4454F8C40CBA
:10AF60000CF06EF850B9F36813B3059B089506937F
:10AF7000B3680593013507974FF000094F4672E714
:10AF80009946DDF80CA0049EA1E7B9F1000F99D015
:10AF9000DAF80460002E95D03168DDE7059B15A92D
:10AFA0005B6838469847159900298BD015AED0E7D5
:10AFB000069B0593079FDAE7C4F8380119AE82E6CD
:10AFC000989C03009087030088870300802E002050
:10AFD00028880300BC870300C0870300A84AA9494A
:10AFE000DAF8100004F086FAFFF70CB90D9412E5B8
:10AFF000A54AA449DAF8100004F07CFADAF808202F
:10B0000077E60790FFF788BB0146FFF737BA9F4AFC
:10B0100002215046FEF736FFFFF744B9DDF80CA0D9
:10B02000DDF80890DAF80820049E92F83C3143F0ED
:10B03000020382F83C314AE70A90EDE6069B1B7852
:10B04000002B40F0DB80079B1A01069B5B68995838
:10B05000134400297FF459AF002356E70A9B002BC5
:10B0600000F0C68032461199504698475BE7DAF8FF
:10B07000082056743AE47B6811A928469847119E27
:10B08000002E7FF4FCABE3E53B78002B77D1049BEB
:10B09000186808B10BF0E6FF079C844206D0049BB9
:10B0A000099A196850462144FEF7A8FC0BF0C8FD28
:10B0B000DAF80810CC7C0B191B7D03445B7813F085
:10B0C000080240F0BB80D1F83C31DE0740F1B0808F
:10B0D00091F83C3162F3000381F83C315046202165
:10B0E000FEF7F4FCDAF8082092F83C3143F0010353
:10B0F00082F83C31FFF786B800231375DAF8084070
:10B1000031E50146FFF753B9DAF80820092302F1C7
:10B110009401D2F83001621C01F0A8FCDAF80800B2
:10B1200000F1940114300BF08BFF2546DAF808305B
:10B1300000286ED083F8947034E50898D8F804306D
:10B1400015A99847159800287FF421AE80E5DAF814
:10B1500008104C4ACB7C14330B4450460821FEF7B0
:10B16000C1F8DAF810004A4A464904F0C3F92A4601
:10B170004849DAF8100004F0BDF9FFF743B8059B21
:10B180005BBB089989457FF663ADB9F1000F3FF4C9
:10B190005FAD41481D4600EB81065C4605E0013588
:10B1A000A94504F108043FF453AD63683068196899
:10B1B0000BF046FF0028F2D16368049367E7C3F8F9
:10B1C0003041DAF80830C3F83441DAF80830199021
:10B1D0001A909B7C8DF86C3066E508987B6811A905
:10B1E0009847119800283FF433AD11AB049351E711
:10B1F0002A4A02215046FEF745FE94E6069B079830
:10B200005B6815A99847159B002B3FF425AF15AB3C
:10B210007BE683F8940056E5DDF808A0DDF80C80A5
:10B22000FFF7B8BADDF808A0DDF80C80FEF7EABF3A
:10B2300020215046FEF74AFCFEF7E4BF8B7CA34278
:10B240007EF6E0AFDAF80000FDF738FEDAF8082005
:10B250008478D37C0133D374DAF80810DAF800006C
:10B26000FDF72CFE8378DAF81000A34207BF012215
:10B270000B49054A034904F03DF9FEF7C3BF00BF7F
:10B28000D484030028880300B4840300A487030047
:10B29000A8840300EC840300802E0020C8870300EC
:10B2A0000885030001290AD0022903D0054A02219A
:10B2B000FEF7E8BD8368D3F83C319B07F6D5FEF76F
:10B2C00093B800BFC8870300F0B5012983B00446D6
:10B2D0001AD08368D3F83C41A40727D402290AD89E
:10B2E000516813682A4A019100920221294AFEF707
:10B2F000C9FD03B0F0BD5B68274A1B68022103B09B
:10B30000BDE8F040FEF7BEBD8568FDF73DFD90B19C
:10B31000A368224A50215973A36818211973204643
:10B32000042103B0BDE8F040FEF7ACBD03B0BDE8BA
:10B33000F040FEF759B8A368194920691F7A9E7A30
:10B34000FA2204F0D7F820691649FA2204F0D2F85C
:10B350002046FDF719FD0028DAD1A3681A7A6A732E
:10B36000A368D21B9B7A2B7312F0FF020AD19B1B9E
:10B3700013F0FF02BDD020690B4903B0BDE8F040D7
:10B3800004F0B8B80949206904F0B4F82B7BEEE763
:10B390001C87030010870300B8860300D4860300CF
:10B3A00008850300E4840300F4840300EC840300B4
:10B3B000F0B583681B78012B83B018BF082502D035
:10B3C000284603B0F0BD04464068036800219B682E
:10B3D000984705460028F3D1A368DA7B082A0BD0EA
:10B3E0001E4A00921E4901910822DA7320691D4904
:10B3F0006A4604F07FF8A3681A7C012A18D01B2142
:10B400005B226D208DF800108DF8012000210122B3
:10B41000342730268DF804008DF805108DF8027061
:10B420008DF803601A7420690E496A4604F062F8C8
:10B4300020690D4904F05EF8A3680A4A02211970D8
:10B44000A16800230B75A168CB74A1688B74236875
:10B4500020460321FEF716FDB2E700BF1B5B313B20
:10B4600033376D00288803003C8803008268D2F8D7
:10B470003C31C3F3400383B9012908D110B4C2F8A9
:10B480002C31C3685DF8044BD86803F09DBC536849
:10B49000034A1B680221FEF7F5BCFDF7A5BF00BFFC
:10B4A000B886030010B58268D2F83C41A30716D4D1
:10B4B00001290CD104460C4A0C49006904F01AF821
:10B4C000A36850225A73A36818221A7310BD5368D8
:10B4D000074A1B680221BDE81040FEF7D3BCBDE857
:10B4E0001040FDF781BF00BFCC8403002888030013
:10B4F000B88603008268D2F83C31C3F3400373B9C5
:10B50000012906D192F83C1163F3820182F83C11C3
:10B5100070475368034A1B680221FEF7B3BCFDF76E
:10B5200063BF00BFB88603008368D3F83C2192074D
:10B530000ED4012906D193F83C2142F0040283F88D
:10B540003C2170475B68034A1B680221FEF79ABCE6
:10B55000FDF74ABFB88603008268D2F83C31C3F3D6
:10B56000400373B9012906D192F83C1163F3C3017A
:10B5700082F83C1170475368034A1B680221FEF7AA
:10B5800081BCFDF731BF00BFB88603008368D3F8E4
:10B590003C2192070ED4012906D193F83C2142F0B8
:10B5A000080283F83C2170475B68034A1B6802214C
:10B5B000FEF768BCFDF718BFB8860300F0B58368D6
:10B5C000D3F83C41C4F3400487B08CBB012927D198
:10B5D000D3F83451FDB1184F0646284600230922FE
:10B5E00003A901F043FA9DF81420B16828460132FE
:10B5F0009431092301F03AFAB368049D943300931F
:10B600003A462346082130460134FDF76BFE0DB162
:10B61000082CE2D1B368002283F8942007B0F0BD73
:10B620005B68064A1B680221FEF72CFC07B0F0BDE0
:10B63000FDF7DAFE07B0F0BDAC860300B886030064
:10B6400010B58268D2F83C41A30784B026D4012902
:10B650001BD1C3680446D86803F0B2FBE268A36854
:10B66000D268D3F82C3191680291C0B2642202FBF7
:10B6700000F2B2FBF1F2D2B20190009220460A4AE7
:10B680000821FDF72FFE04B010BD5368074A1B6860
:10B69000022104B0BDE81040FEF7F4BB04B0BDE8E1
:10B6A0001040FDF7A1BE00BF54860300B88603001A
:10B6B00030B58368D3F83C41A40783B01AD402297B
:10B6C0000FD81CD0D3F83C411249134B134A14F045
:10B6D000080F18BF0B46082103B0BDE83040FDF746
:10B6E00001BE5B680E4A1B68022103B0BDE8304012
:10B6F000FEF7C8BB03B0BDE83040FDF775BE92E869
:10B700001800084A8DE81400074AFEF7BBFB03B097
:10B7100030BD00BF90860300948603009886030026
:10B72000B88603001C8703001087030070B5012949
:10B7300082B0044619D08568D5F83C61B30714D4AB
:10B74000022909D192E818000B4A8DE814000B4A2F
:10B75000FEF798FB02B070BD6B68094A1B680221B6
:10B7600002B0BDE87040FEF78DBB204602B0BDE8D8
:10B770007040FDF739BE00BF1C870300108703002F
:10B78000B886030010B5012982B0044614D00229FE
:10B790000B4617D08268D2F83C1189070CD4022BD3
:10B7A00001D802B010BD53680B4A1B68022102B0D9
:10B7B000BDE81040FEF766BB204602B0BDE8104071
:10B7C000FDF712BE92E81800044A8DE81400044AFE
:10B7D000FEF758FB02B010BDB88603001C870300BB
:10B7E000108703002DE9F04F064689B0AF480D469B
:10B7F00017460BF037FC0446AD480BF033FCB3683A
:10B80000AC495B68AC4A1B680091241A0821304699
:10B81000FDF768FDB3685B681868A4B2002800F003
:10B820005F810BF01FFC1FFA80F8A2480BF01AFC96
:10B83000B3685B68404482B259683046FDF768FCE3
:10B840009E4A08213046FDF74DFD97B38DB305F1B3
:10B8500004084FF0000922E018460BF003FC824672
:10B8600058F8040C08B10BF0FDFB5044A0420FD96E
:10B87000D8F80000002800F017810BF0F3FB84B229
:10B8800058F8040C10B10BF0EDFB80B20444A4B2E4
:10B8900009F101094F4508F10C0800F08A80D8F839
:10B8A0000030002BD8D158F8040C0028F0D09A466C
:10B8B000D9E77F480BF0D6FB02300444A4B27B4B9F
:10B8C00000937F4A082130462346FDF70BFDE21C1A
:10B8D00092B27C493046FDF71BFCB3685B68D3F835
:10B8E0000880B8F1000F5BD0002528462F4610E0F5
:10B8F000D8F8044060592C44C8B10BF0B3FB874220
:10B9000005D22768384617B10BF0ACFB87B210356B
:10B91000484698F8003000F10109002BE8D0D8F82B
:10B92000043004A99847049808B104ACE5E7B9F1DC
:10B93000010F35D0644ADFF8889108213046FDF7C1
:10B94000D1FC98F80030BD1C0024ADB24FEA041AB7
:10B95000E3B9D8F8043053F80A209A4402B3082116
:10B9600000922B464A463046FDF7BCFCDAF804301C
:10B970007A1D1946304692B2ABB1FDF7C9FB98F873
:10B98000003001344FEA041A002BE2D004A9D8F8A1
:10B99000043020469847049A12B10DF1100ADEE7F0
:10B9A00009B0BDE8F08F494A4949306903F0A2FD6A
:10B9B000E5E73F480BF056FB00F1020BA3441FFAEA
:10B9C0008BFB3A4B00930BF1030A5B463C4A082180
:10B9D00030461FFA8AFAFDF785FC5246394930464F
:10B9E000FDF796FB0BF10203DBB2023B039300274A
:10B9F0006B68002B37D02A68002A37D02C49304694
:10BA00008DE80600334A0821FDF76CFC68680028C1
:10BA100043D00BF027FBC4B2286800283BD00BF0C2
:10BA200021FB5FFA80F822480BF01CFB039B1C1BD8
:10BA3000A4EB0808A8EB000010F0FF022FD13A2277
:10BA40002549306903F056FDA9680137C9B152464E
:10BA50003046FDF75DFBB94505F10C053FF43DAF00
:10BA60006B68002BC7D12B68002BEDD00093082109
:10BA70005B46134A3046FDF735FCA96801370029BB
:10BA8000E5D1124A1249306903F034FDB94505F198
:10BA90000C05ADD121E78046C5E70446BCE70F4958
:10BAA000306903F027FDCAE70446E9E61085030084
:10BAB0004C880300E0840300708703003487030090
:10BAC00040870300488703005C870300B4840300B9
:10BAD000288803006C870300748403000885030032
