:020000040800F2
:10000000901900206D370008437B0008FD3600087A
:10001000FD360008FD360008FD360008FD360008F4
:10002000FD360008FD360008FD360008F9350008E9
:10003000FD360008FD360008B1350008B53300086C
:1000400045370008453700084537000845370008A0
:100050004537000845370008453700084537000890
:100060004537000845370008453700084537000880
:100070004537000845370008453700084537000870
:100080004537000845370008453700084537000860
:100090004537000845370008453700084537000850
:1000A0004537000845370008453700084537000840
:1000B0004537000845370008453700084537000830
:1000C0004537000845370008453700084537000820
:1000D0004537000845370008453700084537000810
:1000E0004537000845370008453700084537000800
:1000F00045370008453700084537000845370008F0
:1001000045370008453700084537000845370008DF
:1001100045370008453700084537000845370008CF
:1001200045370008453700084537000845370008BF
:1001300045370008453700084537000845370008AF
:10014000453700084537000845370008453700089F
:10015000453700084537000845370008453700088F
:10016000453700084537000845370008453700087F
:10017000453700084537000845370008453700086F
:0801800045370008453700086F
:1001880053B94AB9002908BF00281CBF4FF0FF31F6
:100198004FF0FF3000F06EB9ADF1080C6DE904CEF8
:1001A80000F006F8DDF804E0DDE9022304B070474A
:1001B8002DE9F047089D0E4604468C46002B40F07A
:1001C80081808A42174645D9B2FA82F24AB1C2F111
:1001D800200106FA02F320FA01F1974041EA030CE4
:1001E80094404FEA174E230CBCFBFEF6B9B20EFB47
:1001F80016CC43EA0C4306FB01F0984209D9FB18D8
:1002080006F1FF3C80F01581984240F21281023ECF
:100218003B441B1AA4B2B3FBFEF00EFB103344EAB6
:10022800034400FB01F1A14209D93C1900F1FF3355
:1002380080F00181A14240F2FE8002383C44641AF9
:1002480040EA064000211DB1D4400023C5E900431F
:10025800BDE8F08702B9FFDEB2FA82F2002A4FD178
:10026800CB1B4FEA174E1FFA87F80121B3FBFEFCA0
:10027800260C0EFB1C3346EA034608FB0CF3B3427C
:1002880007D9BE190CF1FF3002D2B34200F2EB805D
:100298008446F61AA3B2B6FBFEF00EFB106643EADC
:1002A800064408FB00F8A04507D93C1900F1FF33C4
:1002B80002D2A04500F2D2801846A4EB080440EA16
:1002C8000C40C0E78B4208D9002D00F0AF80002118
:1002D800C5E900060846BDE8F087B3FA83F10029AE
:1002E80049D1B34202D3824200F2BB80841A66EB42
:1002F800030301209C46002DAAD0C5E9004CA7E7BE
:10030800C2F120039740D8409140DE404FEA174E93
:1003180008434FEA104CB6FBFEF11FFA87F80EFBB4
:1003280011664CEA064601FB08F3B34204FA02F4EC
:1003380009D9BE1901F1FF3C80F08E80B34240F22A
:100348008B8002393E44F31A86B2B3FBFEF00EFBF3
:10035800103346EA034600FB08F3B34207D9BE1937
:1003680000F1FF3C74D2B34272D902383E44F31A0A
:1003780040EA01417AE7C1F1200703FA01F422FAC1
:1003880007F31C4320FA07F906FA01F34FEA144C65
:10039800FE4049EA03094FEA1943B6FBFCFE1FFA7F
:1003A80084F80CFB1E6643EA06460EFB08FAB245C3
:1003B80002FA01F200FA01F308D9A6190EF1FF308A
:1003C80048D2B24546D9AEF1020E2644A6EB0A063B
:1003D8001FFA89F9B6FBFCF00CFB106649EA0646E1
:1003E80000FB08F8B04507D9A61900F1FF3C2DD24B
:1003F800B0452BD90238264440EA0E40A6EB080641
:10040800A0FB02894E45C446CE4618D315D075B315
:10041800B3EB0C0266EB0E0606FA07F722FA01F3B5
:10042800CE401F43C5E90076002111E7294628463A
:100438000EE76646EDE6184601E74345E7D2B8EB16
:10044800020C69EB04040138A646E0E76046D3E7EE
:1004580060468CE78646B9E7614674E702383C4453
:100468002BE7084647E7ACF1020C3E4411E7294662
:10047800EEE600BF704700BF0A46014610B10248C9
:1004880005F0CEBF704700BFBE950008064B074871
:100498001B78022B96BF064A064952F82310064AD3
:1004A8001378527805F0BCBF26090020EB950008A8
:1004B80044900008E3950008240900202DE9F74F2F
:1004C8000024DFF85C80DFF85C90DFF85CA0ADF812
:1004D80004402746A346D8F80000436801A91B69D1
:1004E80098479DF804609DF80520BE42054603D153
:1004F800A24201D183450DD0022D96BF074B51462C
:1005080053F8251048463346144605F089FF374608
:10051800AB46E0E7642005F053FAF9E74490000899
:10052800D8000020FC950008E395000870B5154A2E
:1005380088B010685168128901AB03C31A80124B46
:1005480018681249114D124C124E01AA02F0E0F837
:100558000146114805F064FF4FF0FF3204A9284610
:1005680004F0D4FD9DF81510022903BFBDF816301C
:10057800190241EA1321304604BF89B2204605F02A
:100588004FFFE9E738900008D8000020B42A00207F
:100598005B960008449600082D9600080F4B82B021
:1005A800ADF8041018700E4BBDF804200D491A80E0
:1005B800BFF35B8F51E8003F43F0010241E80020A0
:1005C8000028F7D1BFF35B8FDB0704D4064808394E
:1005D80002B008F031B802B0704700BF2609002009
:1005E8002409002010020020A40800200346084621
:1005F80011B90C4805F014BF9B7953B1012B0FD1E9
:100608008B681B68DA0408D44368DB684FF48051B0
:1006180018478B681B68DB04F6D443681B69F5E749
:10062800704700BF719600082DE9F043002493B08D
:100638001025234665F312230894ADF82440079348
:1006480001238DF82130214640F2FF730E220AA8BB
:10065800ADF8223007F0ADFB234665F312230A9369
:100668000E22012321460EA88DF82D3007F0A1FB9C
:100678004A4B0E934FF4007307AFADF83C3048482F
:10068800484C04F0E3FB206028B9474805F0C8FE51
:1006980013B0BDE8F083454804F0D8FB064608B916
:1006A8004348F3E7856843680C211B684FF42062D0
:1006B8009847011E16D12B6823F480532B603D4BBD
:1006C8003D4A3E490025C3E901251D60CDE9006783
:1006D8003B4B3C4A206802F027F8431C014606D1F0
:1006E8003948D3E7EBDA394805F09AFEE7E73848A6
:1006F80005F096FE0223CDE90253CDE90455CDE974
:100708000055344B344935484FF4007205F00AFA65
:1007180010B9334805F084FE00230222CDE90232E5
:10072800CDE90433CDE900332E492F4B2F484FF440
:10073800007205F0F7F910B92D4805F071FE206830
:100748002C494368DFF8B8805B692B4F98472B48E2
:1007580005F066FE00256E1C06F0010320688DF882
:100768002E304368CDF80080D3F804904FF0FF3264
:100778003B460AA9C847FA206DBA05F021F9ADF839
:100788003E502068B5B200234268009356680EA90F
:100798006422B047FA2005F013F9DCE7014523018C
:1007A80085960008D80000208B960008AA960008B5
:1007B800B09600080802002095040008A40800204C
:1007C800F5050008B4010020F9960008CF96000846
:1007D80016970008350500089009002048010020F8
:1007E80030970008900B0020C5040008DC000020AA
:1007F8004A970008A5050008810400086C970008BE
:100808007C9700080B6801330B60014B1B68184785
:10081800EC2800202DE9F04F85B09B460E9CDFF8B0
:100828009090012CB8BF0124012B0CBF302320234A
:10083800154606468A46029301274FF00A08002209
:10084800B5FBF9F301930AB9A9451FD8019B514695
:1008580003F13000B04701370122019B08F1FF384E
:10086800B8F1010F09FB13554FF00A03B9FBF3F96F
:10087800E6D1514605F13000B047BBF1030F02D174
:10088800E41B002C0EDC05B0BDE8F08F4445E4DB2A
:10089800BBF1020FE1D8029803925146B0470137E5
:1008A800039ADAE751462020B047013CE9E700BF48
:1008B80000CA9A3B014B1860704700BFEC28002023
:1008C8002DE9F04F8DB01C460027531E05468B4678
:1008D80003934FF0FF39B846002605E06EB9252886
:1008E80000F071815946A847039B13F8010F039341
:1008F8000028F3D10DB0BDE8F08F7A280AD8622815
:1009080010D8302854D045D8252800F05A812D28F1
:1009180000F05F8159462520A847039B187859465F
:10092800A847D9E7A0F16303172BF3D801A252F81F
:1009380023F000BFC30B0008070A00081D090008C0
:100948001D0900081D090008E9090008070A000830
:100958001D0900081D090008E90900081D0900080B
:100968001D0900081D090008A90A00081D0900083A
:100978001D090008930B00081D090008770A0008E4
:100988001D0900081D090008A50900081D0900081F
:10099800E909000839281AD95828BBD1039B1B78C4
:1009A800702B40F0888054F8043B0693002290E0B6
:1009B800B9F1000F0EDAB8F1000F00F00D81A0F1C7
:1009C8003009B8F1000F08BF4FF002088CE7B9F101
:1009D800000FF4DB0A2303FB0909A9F13009F0E74A
:1009E800682803D1682F06D148277DE76C2802D1F3
:1009F8006C2F00F0F480002F8CD1074674E77A2F13
:100A080002D154F8046B21E06C2FFAD04C2FF8D1A6
:100A1800073424F00704F4E80223CDE90423049BF7
:100A280013F10041059B089143F100010991DDE9AB
:100A3800082300214FF0FF30994208BF904204D2AA
:100A48005946284605F0DEFC46E7049E002E05DAE6
:100A580059462D20A847764209F1FF39CDF8009074
:100A68004346324659462846FFF7D4FE34E77A2FE4
:100A780002D154F8042B0FE06C2FFAD04C2FF8D188
:100A8800073424F00704F4E8022300214FF0FF3074
:100A9800994208BF9042D3D3CDF800904346E1E78E
:100AA80059463020A84759467820A8474FF00809EA
:100AB8004FF0010872E76C2F3FF475AF4C2F7FF4AD
:100AC80072AFE31D23F007031C4654F8082B069267
:100AD8005A6800211023049107914FF0400AAAF1A7
:100AE800040A0699CAF1200EAAF1200C21FA0AF08C
:100AF80002FA0EFE40EA0E0022FA0CFC40EA0C0054
:100B080010F00F0007D1079911B9BAF1000F25D1DC
:100B18004FF0300C05E009288CBF4FF0570C4FF010
:100B2800300C6044594640B20A920793A847049B88
:100B38000A9A01330493079BBAF1000F23D1B8F145
:100B4800030F7FF4C9AE049BC3EB4906002E7FF761
:100B5800C3AE59462020A847013EF7E7591E9945DC
:100B68000A9107DBB8F1010F06D10B9259463020E4
:100B7800A8470B9A0A9BB2E7B8F1020FFAD10B9279
:100B880059462020F4E70796A9E754F8046BB246C3
:100B980053461AF8010B68B9B8F1030F21D19E1B0F
:100BA800A9EB0606002E7FF797AE59462020A847E6
:100BB800013EF7E75946A847EAE754F8040B5946B7
:100BC800AEE65946ACE63746B0464FF0FF39012647
:100BD8008AE64FF0030887E64FF0010884E64C27C1
:100BE80082E6064680E600BF07B50B4600210246AE
:100BF8000191034801A9FFF763FE03B05DF804FB08
:100C08000D0800084FF01002EFF3118382F31188EA
:100C1800BFF36F8F83F31188BFF36F8F024B034AC3
:100C28001A600020704700BF8C2900200024F400BF
:100C38002DE9F0410F4A104C104E114FDFF8448057
:100C48000021054605F03CFEB44202D10020BDE873
:100C5800F08163685BB123683A46002128461B6827
:100C680005F02EFE42460021284605F029FE0C34E8
:100C7800EAE700BFAA97000898290020A02A0020C8
:100C8800B4970008F2980008F8B50C4B0C4F53F8CD
:100C980021400131054653F821600020A64200D8C2
:100CA800F8BD63683BB1236828461B683A460021B3
:100CB80005F006FE01200C34F0E700BF6490000840
:100CC800B997000810B51F4A0446002105F0F8FD41
:100CD80002212046FFF7D8FF014618B91A4A2046D4
:100CE80005F0EEFD194A0021204605F0E9FD032133
:100CF8002046FFF7C9FF014618B9134A204605F0F8
:100D0800DFFD134A0021204605F0DAFD00212046C8
:100D1800FFF7BAFF014618B90B4A204605F0D0FD87
:100D28000C4A0021204605F0CBFD01212046FFF7A3
:100D3800ABFF014618B9044A204605F0C1FD002062
:100D480010BD00BFBF970008CD970008D5970008D1
:100D5800E3970008F297000837B58368D3F858225C
:100D6800520604460D4608D5B3F85822C0686FF3FA
:100D78008612A3F8582206F095FAE368DB6863B98F
:100D88009DB3A068383005F071FDA36878B303F10E
:100D9800380103F59C7006F06DFFA268E0680DF15C
:100DA80006033832294606F080FA58B9A06800F5DB
:100DB8009C71383006F05EFFA068383005F056FDAB
:100DC800ADF80600204606F041F80A4A0A4960696B
:100DD80005F052FD204600F0A5FEA368BDF80620E8
:100DE8009A865A86204600F05FFE03B030BD83F82D
:100DF8003801D2E711990008B69700082DE9F04F9D
:100E08009DB004460023039306F026F8204605F01B
:100E1800ABFF18B98B49606905F02EFDA068142254
:100E28000021083006F0C5FF204605F04AFFA168FA
:100E3800E0684A8E383106F06FFA204606F0F3FA79
:100E4800A2680C2338320FA904A805F0CEFD049A35
:100E580003462AB96FF0070528461DB0BDE8F08F94
:100E680028B1794A0221204606F08FF8F2E70546B4
:100E7800834680468146064682463EE0734957F8D7
:100E8800340C06F029FF002845D057F8342C514679
:100E9800204601F0F3F9022828D1B8F1000F09D053
:100EA800204606F0E4FAA2680C2338320FA904A8F9
:100EB80005F09BFDA0684369002B40F08C80002D55
:100EC800C8D0C3689D420CD00B9500F1080503E01B
:100ED800A3680B9503F108050AAE0FCE0FC533685A
:100EE8002B60204605F0D5FC0125B5E703281AD06C
:100EF80001365F464FF00108BB46049AB242CCD98E
:100F08008EB11CAB03EB8607514957F8340C06F039
:100F1800E3FE0028B2D1002DDAD14E4A0221204644
:100F280006F033F896E705AB03AA0BF10107019326
:100F380000925B4632465146204600F065FD0FB1EF
:100F4800039B83B9002EA8D1A368DB6913B1DB68C2
:100F5800002BA2D1404B0093404A0F9B0221204610
:100F680006F013F876E719681CAB03EB860353F811
:100F7800340C06F0B1FE0028BED1039FFB68BBB15C
:100F8800B8F1000F07D0204605F066FF204600F0B4
:100F98008BFD334AC2E7A368BE4603F1080CBEE8DE
:100FA8000F00ACE80F00DEF80030CCF80030B14696
:100FB800D7F804C0BCF1000F08D0BE46BEE80F0049
:100FC8000AAD0FC5DEF800302B606546D7F808A0DB
:100FD8000136002790E7049D037EA5EB09058BB138
:100FE8009D42427E02D313449D420BD983681D4A19
:100FF8000221204605F0C9FF204605F04AFC6FF0A3
:10100800150529E700F53B7005F02EFCA368B3F839
:10101800582242F08002A3F858220FAA29465B6999
:1010280002EB8902204698470546A068B0F8583276
:101038006FF3C713A0F8583200F53B7005F03CFC7D
:101048000AE700BFF2980008579800086E98000851
:101058006B9800087598000893980008439B00084F
:10106800A7980008D69800082DE9F041044686B0F4
:101078000F464FF44172002180681E4606F099FE23
:10108800A3682268E0681A6006F0B3F9A06800F562
:101098003B7007F065FA4FF427784FF41775A0688E
:1010A800284407F09DFDA06800224319012140440F
:1010B800103507F078FDB5F5277F08F11408EED153
:1010C800A36900221A60A268B2F85832106843F087
:1010D8001003A2F85832B2F8583243F00403A2F8C9
:1010E8005832B2F8583243F02003A2F8583201239C
:1010F8001371184B936205F0B9FBA36883F82C00B1
:10110800A268B2F8583243F00203A2F85832606875
:10111800114A036839461D682346A8470546A0B901
:10112800D4E909010E2303930C9B0094CDE90163D4
:10113800CDE90455094B4FF4006204F0F3FCA368B1
:10114800216AC3F8000307F0D0FB284606B0BDE8C3
:10115800F08100BF18005000AD6800082919000888
:1011680038B583681B79012B054614D1002100F09E
:10117800E1FC0A49686905F07FFBAB6802221A7135
:10118800AB680024284683F838409C865C8600F0CB
:10119800CBFD204638BD6FF02200FBE7F198000830
:1011A8002DE9F04F8368BFF35B8FADB0044603F5BC
:1011B800167353E8002F42F0080243E80021002983
:1011C800F7D1BFF35B8FA3681B79022B40F095839F
:1011D80000230B936068036801221D690DF12B0140
:1011E8000BABA8470B9B002B00F087839DF92B20A6
:1011F8009DF82B30002AEDDBA0684179012900F029
:10120800E982022900F00A83002940F074830D2B3B
:101218001CD00A2B1AD0B0F8582261F30F22A0F87C
:101228005822092B5FD044D8002BD3D0082B00F0CC
:101238003782A3F120025E2A00F24182B0F85822D8
:1012480042F04002A0F8582219462FE1D0F858225F
:1012580012F47F4F05D0D0F85822C2F307229342E8
:10126800DFD1B0F8582263F30F22438EA0F858223A
:10127800DBB9C269CAB9B0F8583262F38613A0F86C
:101288005832E06806F00EF88D49606905F0F4FA06
:10129800A36802221A71A368002283F838209A866C
:1012A8005A86204600F040FD94E72046FFF7A6FD49
:1012B800EEE71B2B14D07F2BBBD1D0F858325F0739
:1012C80088D5B0F8583243F04003A0F85832D0F827
:1012D80058329E0600F1EF81204605F097FE79E727
:1012E8000123437176E7D0F85832C3F380025907D7
:1012F80004927FF56FAFB0F8583243F04003A0F87E
:101308005832438EFF2B3FF465AF828E00F13801CF
:1013180000F59C7006F022FDA268938E134400210C
:1013280083F8381102F59C720C231FA90DA805F04B
:101338005CFBA3689A8E134493F83730202B59D05E
:10134800093B042B8CBF002301230D9919B1002BF5
:1013580053D1012950D100250C950C9B2CAA02EBE6
:1013680083031AAE53F8349C484605F07FFA0023ED
:1013780007460293059303939B469A46002D49D04E
:10138800A9680196B5F1000818BF4FF0010815AB20
:10139800009342465B46204600F036FB159B002B27
:1013A8003DD01868002837D0DA68002A34D19B6805
:1013B800B3FA83F84FEA58183A46494606F098FCBB
:1013C80050EA080313D1159B186806F07EFC059BAC
:1013D800834238BF03469BB20593029B01330293B5
:1013E800BAF1000F03D1DDF810A0CDF80CB00BF165
:1013F800010BC3E70123A8E701390023019310ABD0
:1014080000931FAA0CAB204605F0DBFB054600281D
:10141800A3D1DFE62946B4E74FF00008CCE7029AEB
:10142800012A4FD10C9B2CAA02EB830353F8340CEE
:1014380005F01CFA074605B1AD68A3680833CDE985
:1014480000634246039B2946204600F0DDFA1A9BBA
:10145800186805F00BFA874207D01A9B1968C01B59
:1014680082B23944204605F0CFFDA3689A8E1A440B
:1014780092F83820202A1DD0093A042A1AD9D3F81C
:101488005822D20711D5B3F858226FF30002A3F8F7
:1014980058222021204600F015FCA268B2F85832E4
:1014A80043F00103A2F8583294E62021204600F0C8
:1014B80009FC8FE60121204605F06AFC8AE600BF98
:1014C800F298000804937FF685AE0C9ADFF84893EB
:1014D8002CAB03EB820252F8346C304605F0C6F9A7
:1014E800A268049B1386029B0693039B08900493AF
:1014F800002D7BD0A968A368083301931AAB009329
:101508002046049B424600F07FFA049B0133049373
:101518001A9B186800286BD11A9BD3F800B0BBF14E
:10152800000F74D1A368A3F830B0069B013B069363
:10153800DED1B349606905F09FF9204600F0F4FB5D
:101548000C9B2CAA02EB830353F8340C05F08EF99C
:10155800039B064603F10109002D00F09280A9685B
:1015680015AB01930EAB00934246039B204600F057
:101578004BFA0E9BA0681968FF2200F59C7006F0D4
:1015880083FB0E9BD3F800A04FF6FF77002D7AD08F
:10159800A9681AAB01930FAB009342464B4620460D
:1015A80000F032FA0F9B09F1010B002B6DD018687F
:1015B800A368002203F59C7313F801CB815C614595
:1015C80005D121B101324FF6FF718A42F4D10EB133
:1015D800B24209DB029B974203F1FF33A8BF1746CB
:1015E800012B0293BFB250D0D946CFE7294682E7F4
:1015F800DA681AB99B68002B3FF47AAF002E8BD0BB
:10160800089A314606F074FB002885D070E74846F2
:1016180005F02CF9059B00EB030AA36848465B8D8F
:10162800079305F023F90990584605F01FF9A168BA
:10163800099B0A8E1FFA8AFAAAEB0007501C088633
:101648000799CB1A93FBFAFA1FFA8AFAB2FBFAF354
:101658000AFB132292B2BFB262B96A4ACDF800B04F
:101668004B460721204605F090FC3946204600F0FD
:101678000BFA5AE7644A5B460721204605F085FCC9
:10168800F3E729466CE7294683E7002F3FF4A2AD2C
:10169800BA1B92B20AEB0601204605F0B5FC99E5A3
:1016A800D0F858325B077FF595ADB0F8583243F063
:1016B8004003A0F85832204605F0C3FC8AE5D0F86C
:1016C800582255077FF586AD013B162B3FF682ADB4
:1016D80001A252F823F000BFC51800083D17000802
:1016E80045170008E1120008B91800086B17000830
:1016F800DD110008DD110008DD110008DD1100080A
:10170800731700087B170008DD11000891170008FF
:10171800DD1100089B170008DD110008DD11000825
:10172800DD110008DD1100089F170008DD11000811
:10173800CB170008204605F096FB4BE5204605F040
:101748008BFB204605F010FB18B92D49606905F0A0
:1017580093F8A368B3F8582242F04002A3F858223D
:1017680097E5204605F087FB34E5204605F08CFB1D
:1017780030E56069254A244905F07EF8244A224963
:10178800606905F079F88CE500212046FFF7E4FA56
:1017980020E50121F9E7204605F058FBA3681A491E
:1017A800002283F838209A865A86A268B2F85832FE
:1017B80043F04003A2F858326069164A05F05CF815
:1017C80008E5204600F000FAA268B2F8583243F063
:1017D800400367E65B2B01D1022382E5D0F858224B
:1017E800500709D5622B05D14FF0FF31204605F08F
:1017F800F3FA01E0662BF9D0A36800225A71E9E4F4
:10180800F2980008F4980008B6970008159900089F
:10181800199900081199000845A000080022427192
:10182800A268D2F8581249077FF5D4AC313B1B2B7C
:101838003FF6D0AC01A151F823F000BFC118000851
:10184800CD180008ED180008B5180008DD110008CB
:10185800DD110008DD110008DD110008DD110008A8
:10186800DD110008DD110008DD110008DD11000898
:10187800DD110008DD110008DD1100089B170008C4
:10188800911700086B1700083D170008DD110008C4
:10189800B9180008DD110008C5180008DD11000896
:1018A800DD110008DD110008D11800080323537169
:1018B800204605F0D1FA8DE403235371204605F044
:1018C800C5FA87E403235371A268D2F85832B2F8F4
:1018D800581203F0010383F0010363F30001A2F837
:1018E800581277E403235371A368D3F858325B077F
:1018F8007FF570ACF0E40023F3E4A368BFF35B8FDB
:1019080003F5167353E8002F22F0080243E800217C
:101918000029F7D1BFF35B8F2DB0BDE8F08F00BF72
:1019280037B504464068036800219B689847C0B9EA
:101938002046FFF715FCA0B9A06800F527704FF006
:10194800FF32032104F08AFA0546A06800F53B70CF
:1019580004F0B2FF3DB1214A2B460221204605F092
:1019680014FB03B030BD606803685B6903B1984736
:10197800A56801AA694605F51F7007F036F9009BAE
:10198800B3B10023C5F88432A368D3F858321B07D3
:101998000AD4606803685B689847054620B9E06820
:1019A80005F0AEFCA3681D7104F028F801F0C4FF2F
:1019B800A56801AA694605F5177007F016F9009B96
:1019C8002BB10023C5F864322046FFF7E9FBA06875
:1019D80000F53B7004F048FFAEE700BFFA98000836
:1019E80010B5044613460A460146064802F076F842
:1019F80023691B7923B12046BDE8104004F08DBF50
:101A080010BD00BF3B69000868B5DDE904561846FB
:101A180000232B6052B90E4B0E4AD21AB0EBD20FEC
:101A28000DD203EBC00043682B6008E039B10B7896
:101A38004A682BB131469047336803B12E6068BDC0
:101A48001423584313181258002AEDD1F7E700BFA2
:101A5800F88F000830900008014A024905F063B980
:101A680025990008B697000859B1002981EAE17262
:101A7800A2EBE17240690349CCBF4123422305F040
:101A880052B970471E99000859B1002981EAE172DC
:101A9800A2EBE17240690349CCBF4323442305F01C
:101AA80042B970471E99000810B5044605F05CF964
:101AB80028B160690549BDE8104005F034B904F162
:101AC800080005F03DF90028F3D110BDF298000890
:101AD8002DE9F0410646054656F8084F04F1200066
:101AE800628EA18E04F06BFF3046B4F82480E78C38
:101AF80005F026F918B10A49686905F014F9B845DE
:101B080007D1218C638C2846C91ABDE8F041FFF73C
:101B1800BBBFE18CA38C2846C91AFFF7A5FFF0E7E5
:101B2800F2980008826802494069383205F0FBB82B
:101B3800B697000807B5836893F82E208A4212D01A
:101B480083F82E10406989B1094B009333238DF82F
:101B580004302F316D238DF80510ADF806306A4634
:101B6800044905F0E0F803B05DF804FB024AF7E722
:101B78001B5B313BB69700082F99000837B50D4617
:101B880009780446FFF7D6FF6B78CBB1A26892F8C4
:101B98002F10994214D045F61B31ADF800103421AE
:101BA8008DF8021003F12F0182F82F308DF8031001
:101BB8006D21ADF80410606902496A4605F0B3F872
:101BC80003B030BDB6970008F8B583685A8E05464D
:101BD800002A46D0988E002843D03730184403F1A5
:101BE80038060346C41AB342A4B219460DD311F8F5
:101BF8000179202F33D01946013B0878202804D0DA
:101C080001349E42A4B21946F5D9631C4E1C121B1E
:101C18001944304606F08BF8A9684A8E121B92B216
:101C28004A860A440027614282F83870284609B279
:101C380005F0AEF868690B4A0B4905F074F83946A7
:101C4800094A3346284605F0A0F96869FFF704FFFA
:101C58006869064A0449BDE8F84005F064B80B46CF
:101C6800C0E7F8BD29990008B69700082C99000824
:101C780070B504460D46164612B14069FFF7ECFEF2
:101C8800A268938E3833134420460C4A002105F08D
:101C98007CF9204650F8083F5A8E9A8605F050F88D
:101CA80028B106B11DB10649606905F03CF86942E2
:101CB800204609B2BDE8704005F06AB8B69700083A
:101CC800F298000813B583688DF80710D3F85822E6
:101CD800D20704461DD5998E5A8E8A4219D0481CBF
:101CE80098860B449DF8072083F83820A368D3F81A
:101CF80058325B070BD56069094905F014F820468E
:101D080005F032F818B10749606905F00CF802B01F
:101D180010BD01220DF10701204605F043F9F6E751
:101D280022990008F298000883680A4A1B6810B5CF
:101D38000446032105F029F9A368D3F858325B0754
:101D480007D52046FFF7EEFE2046BDE81040FFF716
:101D5800BFBE10BDB697000838B5154642680C4698
:101D680011688B606368C1E9004523B19B6C13B1AE
:101D780004492046984763689B6A0BB120469847F8
:101D8800002038BD0D71000813B5074803F05EF850
:101D980000240123014600941A460448FFF764F919
:101DA800204602B010BD00BF33990008CC9000084F
:101DB8002DE9F047044690460E4600296ED00025CE
:101DC800735D202B25D0093B042B22D9DFF8D09056
:101DD800304605F07AFFA368598D80B2401BA1EB0D
:101DE8000803984206EB050A15D95046002710F853
:101DF800012B202A06D0A2F1090CBCF1040F02D84D
:101E08000A2A31D03B4608EB070291422BD9013709
:101E1800EDE70135D4E753460027B84217D013F849
:101E2800012B0A2A05EB07091BD1606904F075FD2F
:101E38003A465146204605F04BF81949606905F0C5
:101E4800CBF94146204609F10105FFF71DFE6069FF
:101E5800711905F0C1F960691149BDE8F04705F04D
:101E6800BBB90137D9E71F46606904F056FD3A4609
:101E78005146204605F02CF83D44735D202B0BD0CD
:101E8800093B042B08D96069494605F0A5F9414684
:101E98002046FFF7F9FD9BE70135EEE7BDE8F0873F
:101EA800F29800082DE9F04F82688FB0126900237C
:101EB80004460893002A54D098461D4609AE08AF38
:101EC800CDE90076A168C1464B4609690122204642
:101ED800FFF79AFD089B08F10108002B3ED018680F
:101EE80010B105F0F2FE80B2854238BF0546B9F15F
:101EF800FF3FE5D1214ADFF88890DFF888A0DFF8B6
:101F080088B00021204605F040F80023CDE900768E
:101F1800A1685A1C0592096901222046FFF774FD41
:101F2800089BF3B1196816480791D3F8048005F0A7
:101F3800CCFE0799069079B1CDE9011900954B4679
:101F480052460021204605F020F8B8F1000F0BD1C9
:101F58006069594605F040F9059BD7E7B8F1010FCC
:101F6800C8D10FB0BDE8F08F069B6A1C02EB430294
:101F780092B241462046FFF71BFFEDE74E99000855
:101F88006A9900085C990008F2980008836873B59C
:101F980005469868C8B105F098FE84B20C4E3046E4
:101FA80005F093FEAB6800969B680A4A044400213A
:101FB800284604F0EAFFAB68A4B2D968224628464E
:101FC80002B0BDE87040FFF7F3BE0446E6E700BF85
:101FD80066990008F598000838B5074D074A044681
:101FE8002946406905F03FF96069054A294605F028
:101FF8003AF9002038BD00BFB6970008839F000853
:10200800879F000810B50446044A0549406905F051
:102018002AF9A368034A9A62002010BD8C9F000821
:10202800B69700081800500008B58369034A1B6872
:10203800002104F045FC002008BD00BF6D99000890
:1020480010B5064A0446002104F03AFC2046044A2A
:10205800002104F035FC002010BD00BF7C99000869
:102068006B9A0008F0B5104F85B004460025A268A9
:10207800E0680DF10E0302F59C72012105F015F9D7
:10208800BDF80E00A36858B103F59C7300936E1C4D
:102098002B463A460021204604F012FC3546E6E776
:1020A80083F8380105B0F0BD339B0008022907B555
:1020B8000CD1536801930D4B009313680C4A04F03C
:1020C800FFFB6FF0150003B05DF804FB8368094A55
:1020D800D3F8583213F0040F4FF00001064B18BF25
:1020E8001346064A04F0ECFB0020ECE7499B000885
:1020F800409B00083D9B0008A69700085E9B0008CF
:10210800F0B5012985B005460DD053680193534BAE
:1021180000931368524A022104F0D2FB6FF01504B1
:10212800204605B0F0BD4F4A4F49406905F09BF87D
:102138006FF0F9012846FFF797FCFA212846FFF7C8
:10214800A3FCA86800244FF48072214600F59C7017
:102158008DF80B4005F02DFE4449686905F083F8B9
:10216800686904F0DAFB4FF47A766868036801223C
:102178001F690DF10B0103ABB847039B53B9013E2F
:102188004FF47A70B6B203F09FFC002EEDD16FF0D9
:10219800220431E09DF80B30AA681B2B53D092F82B
:1021A80038111B29E1D1522B4DD11444002384F856
:1021B800383192F839115B294DD102F59D701F46CF
:1021C800022610F8011B01363B29B6B226D1B6F516
:1021D800807FDCD006F59C701044002310F8014B7A
:1021E80034BBFA2B28BFFA23FA2F53853B4628BF66
:1021F800FA2382F8384113851D4A1B49686905F09E
:1022080032F8002C8CD0AB681A4A9A6204211A4A18
:10221800284604F055FB6FF0070481E707EB8703B6
:1022280001EB4303303BB6F5807F9FB2C9D1AEE7DF
:1022380003EB8303013604EB4304B6B2303CFF2EB4
:10224800A3B2CBD9A3E711190134A4B2092C81F8A0
:1022580038318AD9002382F8383198E7499B000839
:10226800409B00087D9F0008B6970008929F0008D1
:10227800809F0008180050006F9B00082DE9F04F60
:1022880089B080461546019121B90324204609B03A
:10229800BDE8F08F104605F0B2F80028F5D0002709
:1022A800BB460224019A019B12785B6878428AB186
:1022B80003A99847039B002B5AD1BBF1000FE5D027
:1022C800D8F808002A4600F1360100F59C7004F0A1
:1022D80051FCDBE76FF013027A439E189B58002BE2
:1022E800EBD031680022284604F0BBFA88BBD6F848
:1022F8000090D8F808A0B9F1000F2DD0484605F095
:10230800E4FC84B2BAF8362001322244B2F5807F68
:1023180024DC29460AF59C7005F08CFC064628B397
:1023280005F0D3FC82B2601C01323146304405F01E
:10233800FEFC22464946304605F010FD2023335561
:10234800BAF8360004440134AAF836400BF1010B00
:102358000024013FA6D1B0E74C46D3E7054A2B46F7
:102368000421404604F011FE0124A6E70224A4E754
:1023780003AEB6E7979F00080A2838B5074D04460C
:1023880004D1286843680D215B689847286843682A
:10239800E1B25B689847204638BD00BF9C05002025
:1023A80010B5044C204602F089F82046BDE81040DC
:1023B800FEF780BA8123000808B5044802F046FDFC
:1023C800034B1860FFF7ECFF002008BD33990008A5
:1023D8009C0500202DE9F84396680D4F04460D46EC
:1023E8004FF0010806F10409AC4201DBBDE8F883AF
:1023F8007A6908FA04F333EA020207D17B6156F8D6
:1024080034301BB159F83410204698470134EBE7B3
:10241800003C0140044A0123116883400B431360C8
:10242800024B185601F0F4B8003C0140F49F000834
:102438001F2807DC044901220B6802FA00F023EA8E
:1024480000000860704700BF003C014003290FD816
:10245800DFE801F0020F1723154B0122996802FAF1
:1024680000F021EA00019960DA6822EA0000D860E9
:102478007047012303FA00F00D4B9A6802439A60F3
:10248800F2E7012303FA00F0094BDA680243DA6045
:102498009A6822EA000098607047012303FA00F066
:1024A800034B9A6802439A60DA681043DFE700BF7B
:1024B800003C01400346074830B5846854F83300AF
:1024C80004EBC30518B944F833106A6030BD6FF0E7
:1024D8000F00FBE7D4290020044B9A6802EBC001E7
:1024E800002342F830304B60704700BFD4290020E9
:1024F8000B6884B0032B2DD8DFE803F0020E1822F6
:10250800164A4B68116B19431163126B1340009301
:10251800009B002004B07047104A4B68516B194368
:102528005163526B13400193019BF2E70B4A4B68CE
:10253800116C19431164126C13400293029BE8E773
:10254800064A4B68516C19435164526C134003930B
:10255800039BDEE76FF02200DCE700BF0038024093
:102568000B68032B20D8DFE803F0020A1118104A81
:102578004968136B23EA01031363002070470C4A70
:102588004968536B23EA01035363F6E7084A49682D
:10259800136C23EA01031364EFE7054A4968536C97
:1025A80023EA01035364E8E76FF02200704700BF95
:1025B800003802400968084B02291B6805D005D974
:1025C800032906D06FF0220070479B081360002093
:1025D80070475B08FAE700BF8C29002030B500215E
:1025E80087B04FF4A053CDE900134FF40043029392
:1025F80000F038F803A804F0B8FF184B1A689007E1
:1026080006D41A6842F001021A601A689207FCD5CB
:10261800124CA36823F00303A360A36823F0F0031C
:10262800A360A56815F00C05FBD123680C4823F0BE
:1026380080732360636823F0706343F0E063636032
:1026480003AA6B46294602F0A1FB236823F0010385
:10265800236004F092FF284607B030BD00380240DE
:1026680000127A00064B1A6C42F080521A641B6CF6
:1026780082B003F080530193019B02B0704700BF02
:102688000038024073B5044606090D46104612B9D3
:10269800114802F0DBFB00230093104B53F826305F
:1026A8000193013302D16FF0040012E043686946D8
:1026B8001B6898470028F6D12011800200F180405D
:1026C80005F00F032A4604F00F0100F5003005F06D
:1026D8008EFC02B070BD00BF0BA000083493000848
:1026E800F8B504460D46094802F0B0FB0026074637
:1026F800AE4204F1080400D1F8BD54F8041C14F8E3
:10270800080C3A46FFF7BEFF0136F1E70BA00008B8
:102718001346426810B494680A46A446014910BC9E
:10272800604700BFCD750008F0B44668094FB4682B
:10273800D3640025049B1560C2E90175D160136557
:10274800A2F84850059BA2F84A50A4460249F0BC9A
:10275800604700BF85750008D9750008036843F015
:10276800010370B50360044600F0E0FE094E05461B
:102778006368DB0701D500200AE000F0D7FE401BA4
:10278800B042F5D9236823F0010323604FF0FF30EE
:1027980070BD00BF80A2190003682DE9F74FD3F878
:1027A80008A086685446884654F8105B1746364891
:1027B80002F04CFB436801AADB68214698470028D1
:1027C8005CD10FB9DAF808709AF80DB09AF80E4093
:1027D80001990BEB040909FB0777B1FBF7F101F14C
:1027E800FF39B9F5806F4CD29AF80CA0B8F1000FF8
:1027F80009D0B8F1020F36D0B8F1010F0CBF4FF075
:1028080000484FF04048304605F026F82846FFF7C4
:10281800A5FF074600BB013C0BF1FF312405090465
:1028280001F4702104F4E0040C430AF1FF310906B5
:1028380001F0E061214341EA090141EA0801E96147
:102848002B68DFF8488023F001032B6000F06EFE50
:1028580004466B68DB0709D4304604F09DFF384610
:1028680003B0BDE8F08F4FF08048CCE700F05EFE83
:10287800001B4045EDD94FF0FF37EDE76FF0040737
:10288800EDE76FF01507EAE70BA0000880A2190032
:102898002DE9F84303688568D3F808800746D8E926
:1028A8000049284605F05CFE0122002105F11400CC
:1028B80006F005F80122002105F1340005F0FFFFBC
:1028C8000122002105F1580005F0F9FF012200213D
:1028D80005F17C0005F0F3FF00266FF07F434FF011
:1028E800FF32C5E926233146EE622E656E67C5F8CC
:1028F800C860142205F1A00005F05BFA14223146E5
:1029080005F1B40005F055FA264802F09FFA43682D
:1029180008F110011B68984700283FD12368224E10
:1029280023F00203236000F001FE054663689B075D
:102938002CD42046FFF712FF054620BBD9F80032F9
:1029480023F47C53C9F80032236843F0040323605E
:10295800236823F0F8032360236843F040032A46E2
:10296800294623603846FFF717FF054658B92368FC
:1029780023F0020323602046D8F81830984763698B
:1029880043F0010363612846BDE8F88300F0CEFDFB
:10299800401BB042CAD94FF0FF35F4E76FF0040589
:1029A800F1E700BF0BA0000880A2190000282DE95C
:1029B800F84304464FF00005B8BFC41CDFF8449044
:1029C80003460E461746A410A846A5420CDB012074
:1029D80000FA04F43C4211D134420FD003F003034F
:1029E80008EB0300BDE8F8833A462846314605F06F
:1029F80093F819F8002001359044E6E7C3F3400343
:102A0800EEE700BF14A000082DE9F04F0368D0F8E6
:102A180008809B685C6885B040460E4604F01CFF41
:102A2800D4F804B2D4F80C220392002E594630464A
:102A38003546B8BFF51CFFF7B9FFAD10039A5946E4
:102A48008146284605F068F82A4B1B5C012707FADF
:102A580005FA9F40013FD8F89830B7401F43D4F893
:102A68000032C8F8987043F00103C4F80032D4F873
:102A78001C3223EA0A03C4F81C324FF0000B05F19C
:102A880048014FF0FF330246009304EBC1015B4657
:102A9800304604F04EFED8E92630AD00C5F12001DD
:102AA80000FA01F1A5F1200223FA05F520FA02F255
:102AB8000D435B461543002B05F00F020FBF0F2A8D
:102AC800D4F81C324AEA0303C4F81C32D4F80032A2
:102AD80008EB890923F00103C4F8003240460023BB
:102AE800C9F8A030C9F8B43005B0BDE8F04F04F01B
:102AF80053BE00BF18A000082DE9F04F1F46836899
:102B0800044691B01846CDE90E12079304F0A4FECE
:102B18002368D4F808B09B6878785D683B78BC78FF
:102B2800BA79F97913F001061CD104F00704C3F34C
:102B3800400340EA04201B0143EA401301F0070167
:102B48000C9342EA012240F2FF739A4200F0898016
:102B58007979520101F0010142EA011242F00803B9
:102B6800069328E040EA0420FC7840EA04403C79D7
:102B780004F01F0440EA046003F0020343EAC003C0
:102B880043F004030C933B7A42EA012242EA0342EF
:102B98007B7A03F01F0342EA03626FF060439A42B4
:102BA80062D07B79D20003F0010342EA430242F08B
:102BB800040306930226834B13F806900122A9F119
:102BC8002000C9F1200102FA00F322FA01F102FA09
:102BD80009F70B4317F1FF37DBE926A843F1FF3369
:102BE80000240D93C4F1200108FA01F1A4F1200298
:102BF8002AFA04F30B4328FA02F21343029328FA41
:102C080004F30393A310D5F80412D5F80C22059306
:102C1800184604F081FFA3109900C1F1200EA1F11C
:102C2800200C2AFA01F208FA0EFE42EA0E0228FAED
:102C38000CFC42EA0C0202F00F03089300230993EC
:102C4800DDE90823002B08BF0F2A0FD086420DD0DC
:102C58000C1DDDE90223134300F0B180372CC1DDE0
:102C680022E0012600237BE70326FBE7029B0D9A5F
:102C78003B400A93039B13400B93DDE90A2313435C
:102C880074D00D9BA4F1200107FA01F1C4F12002D0
:102C9800A34027FA02F20B431343A7402AEA070787
:102CA80028EA0303CBE92673059B4FF0010808FACD
:102CB80003F8D5F8003243F00103C5F80032D5F81F
:102CC8001C32864223EA08036FEA0801C5F81C3261
:102CD8006AD0059FD5F80422D5F80C324FEA560A77
:102CE8000B400AFA07FA4AEA030A06F00109364BCA
:102CF8000A4009FA07F949EA02091A5C9B5D02923F
:102D08009B1A4946524620460893FFF74FFE089BF8
:102D180007466BBBC5F80492C5F80CA20599069B3B
:102D2800009348310C9B324605EBC101204604F064
:102D380000FDD5F81C3248EA0303C5F81C32D5F863
:102D4800003223F00103C5F80032631C07D00BEBF7
:102D580087070E9BC7F8A0300F9BC7F8B4300798B9
:102D680004F01AFD204611B0BDE8F08F4C4470E71E
:102D7800029A0244382A1146CCDC1A460BF1A0000C
:102D88000A93089104F02BFD0A9B029008991A46B1
:102D98000BF1B40004F023FD042F02DC029B034373
:102DA800B8D04FF0FF34C4E7D5F80412D5F80C2298
:102DB8002046FFF7FBFD37280746AFDDF1E74FF068
:102DC800FF34CCE718A0000814A000082DE9FF4143
:102DD800044600786378A27810F0010F0D462CD1D4
:102DE80002F007021E4943EA022310F0020F1D48B1
:102DF8001D4A009108BF024660791C4FDFF87C80AD
:102E0800CDE9012000211A4A284603F059FD002681
:102E18006379B3421DDDA31D42469B5D0021284610
:102E280003F04EFD0136082EF2D1124A0021284641
:102E380004B0BDE8F04103F043BD43EA0223E27861
:102E48000D4943EA0243227902F01F0243EA026372
:102E5800CBE73A460021284603F032FDE2E700BFFF
:102E680020A0000844A0000824A0000842A00008F0
:102E780028A0000848A000081CA000083AA00008E4
:102E88002DE9F04752F82150DDF820801F462B78B5
:102E98002D2B06460C4622D1DFF848A04FF0010939
:102EA80015F8013F0BB9013419E0652B04D0722BDA
:102EB8000ED187F80090F3E7B8F1000F05D152461C
:102EC8000221304603F0FCFCEAE788F80090E7E7C7
:102ED800044A0221304603F0F3FC6FF01504204643
:102EE800BDE8F0874BA000087FB50C4605461046A4
:102EF80003A950F8240000221E4604F025FE039B77
:102F08001B7843B1144A0221284603F0D9FC6FF01C
:102F1800150004B070BDB0F1005F07D2BEB9B0F5BE
:102F2800006F14DB0D4B40F2FF7209E00C4A0B4BAB
:102F3800002E18BF134640F2FF7218BF6FF06042B0
:102F480000920221074A284603F0BAFCDFE7089BF3
:102F58001860601CDDE700BFB9A10008F3980008FD
:102F68005EA0000863A000082DE9F0478AB04FF082
:102F780000090446884650688DF8119016468DF869
:102F880012908DF8139001F061FF074650B97368ED
:102F9800744A0221204603F093FC6FF015000AB032
:102FA800BDE8F0870DF11203009302210DF1110322
:102FB80032462046FFF764FF011EEEDB9DF81C2019
:102FC8009DF812309DF8110063F3000260F341028E
:102FD8008DF81C2005AA009220463246FFF784FF90
:102FE800051EDADB9DF81C30059A9DF812A043EA0D
:102FF800022307939DF8173003F01F029DF8203035
:1030080023F01F03134345458DF8203076D056F83A
:1030180025004A4606A904F097FD069B1B782BB1AC
:10302800514A0221204603F04BFCB6E7B0F1005F9D
:1030380009D2BAF1000F18D1B0F5006F15DB4B4B70
:1030480040F2FF720AE04A4A484BBAF1000F18BF33
:10305800134640F2FF7218BF6FF0604200920221DF
:10306800444A204603F02CFC97E7691C95D4C0F32A
:103078000C43ADF82200BDF8240000F4604018436A
:103088004145ADF824004DD19DF821309DF813003D
:103098009DF8122060F300038DF82130079B002A69
:1030A8004BD09DF82020BDF8241002F01F02120614
:1030B80042EA1323BDF82220C1F30C0142EA01427F
:1030C8002D490091CDE9012000212C4A204603F02A
:1030D800F7FB07ABCDE90043294A2A4B2A49384672
:1030E800FFF722FB031E36DA5A1C2ED1274A02218B
:1030F800204603F0E5FB6FF0040050E7BAF1000F3B
:1031080040F2FF7308BF1A46BDF8243018BF6FF0AD
:10311800604203F4604343EA1243ADF82220ADF85D
:103128002430B1E70023009332460DF11303204603
:10313800FFF7A6FE0028A7DA2FE7BDF822201449DA
:10314800C3F30A23C2F30A02BBE7124A022120464C
:1031580003F0B6FBCFE720460F4A002103F0B0FB8F
:1031680000201CE7B0A00008D2A00008F3980008CF
:103178005EA00008E8A000089EA0000827A100089B
:1031880058060020D52D0008A408002062A10008D8
:10319800A7A0000885A10008A3A1000873B50546EB
:1031A8001646506801F052FE044648B97368134A3F
:1031B8000221284603F084FB6FF0150002B070BDB1
:1031C800B068002201A904F0BFFC019B1B780646E9
:1031D8002BB10B4A0221284603F072FBECE70028CA
:1031E80004DA084A0221284603F06AFB636820468D
:1031F800DB68314698470020E0E700BFB0A0000830
:10320800B2A10008CDA100082DE9F0478AB000233B
:103218000546894650688DF80E3016468DF80F30F1
:1032280001F014FE804630B97368494A02212846E5
:1032380003F046FB0BE00DF10F03009302210DF1A3
:103248000E0332462846FFF71BFE011E04DA6FF014
:1032580015000AB0BDE8F0879DF818209DF80F30DA
:103268009DF80E0063F3000260F341028DF8182008
:1032780004AA009228463246FFF736FE041EE6DB13
:103288009DF81830049A43EA022306939DF81330F8
:1032980003F01F029DF81C3023F01F0313438DF821
:1032A8001C30A9EB0403082B49D92A4A0823BDE797
:1032B80056F82700002205A904F046FC059B1B7858
:1032C8002BB1254A0221284603F0FAFABFE730F06D
:1032D800FF0301D0214AF5E70AF8010B0137B94588
:1032E800E6D83C1BE4B2002F8DF81D40AFDB9DF8FB
:1032F8000F20069B3AB39DF81C2002F01F0212060D
:1033080042EA1323164ACDE900240021154A28462B
:1033180003F0D6FA0023D8F804200093546806A9CD
:103328004FF0FF324046A047002892D003460E4A8D
:103338002846022103F0C4FA6FF0040089E7274603
:103348000DF11E0ACBE7094AC3F30A23DBE700BFE6
:10335800B0A00008EDA100080CA2000828A20008EF
:103368009EA0000849A200087CA20008A7A00008A7
:103378000B4B9A68196898680A4B11F4803F10B58E
:10338800094901D1824205D21A680C6822441A60A0
:10339800034A12681B680A681344181A10BD00BF54
:1033A80010E000E0B8060020B406002008B5FFF7DA
:1033B800DFFF0C4B0C4A18681168084410600022A3
:1033C8001A600A4A116844F2A013401AB0FBF3F0DD
:1033D80003FB0013136002F0D3FCBDE8084000F0C3
:1033E800BBB800BFB8060020B0060020AC0600201D
:1033F800094B102283F82320084B44F29F121A60CD
:10340800074B00201860074B5A6098601A6842F012
:1034180007021A60704700BF00ED00E0B406002004
:10342800B806002010E000E070B52B4D044651B1FD
:10343800431C0ED1294A136823F0010313604FF08F
:103448007F432B6070BD40F2E533B0F1FF3F08BF0A
:103458001C464FF01003EFF3118683F31188BFF376
:103468006F8FFFF785FF1E4B1A68104418601D4BBD
:1034780000221A601C4B1B68C21A0DD540F21A4371
:103488002B602B68154A013B53600023936086F339
:103498001188BFF36F8FD5E7013C24EAE47440F24A
:1034A800E5318C4202F58342A8BF0C46181A44F253
:1034B800A0111F3201FB042440F21A43B4FBF1F4BB
:1034C80001FB04049C4204D9084B9C42D8D82C60C8
:1034D800D7E71C46FBE700BFB406002010E000E079
:1034E800B0060020B8060020AC0600202094FF009B
:1034F80010B54FF01003EFF3118483F31188BFF375
:103508006F8FFFF735FF074B074A1B6812689B1A36
:10351800034484F31188BFF36F8F44F2A010B3FB08
:10352800F0F010BDB0060020AC06002010B54FF03A
:103538001003EFF3118483F31188BFF36F8FFFF744
:1035480017FF044B1B68184484F31188BFF36F8F6F
:1035580010BD00BFB006002004488168006A884298
:1035680003D003494FF080520A6070476C0800206E
:1035780004ED00E0094A0A4993680968996609490F
:1035880058664B6843F080534B60002383F31188DF
:10359800BFF36F8F9368986E704700BF6C08002068
:1035A800B495000800ED00E00F498A684FF0280044
:1035B8001044EFF3098C80E8F01F102080F3118885
:1035C800BFF36F8F094F4FF000660A6A8A603E604A
:1035D800506E0023536680F3118802F1280090E8AA
:1035E800F01F8CF3098870476C08002004ED00E098
:1035F8001EF0040F0CBFEFF30880EFF30980816918
:1036080011F8021C0229FFD001B504F092FA01BD9D
:1036180043B2002B08DB012200F01F0002FA00F081
:103628005B09024A42F82300704700BF00E100E04E
:1036380043B2002BA8BF03F1604301F10101B8BFF9
:10364800064B4FEA0111ACBF03F5614300F00F00D0
:10365800C9B2B4BF195483F80013704714ED00E0E1
:1036680073B51E460A9B00938C18099B054605F006
:103678003FF9A4F120020A4B22F0070223F00103CC
:103688009361069B5360079B9360089BD3604FF040
:103698008073D36100231660AA646B6602B070BDA4
:1036A80043640008F8B506460C4617461D4600F068
:1036B80069F9094B3C4424F007049E60284684F3CA
:1036C8000988002163B681F31188BFF36F8F002248
:1036D800002302F0B2FE00BF6C080020014910224E
:1036E8000A60704710ED00E0404080F3118830BF59
:1036F800704700BFEFF30880EFF30981724601B508
:1037080000F092F801BD00BF30BFFFF7FDBF00BF5A
:1037180008B5084B084A23F07F039360BFF34F8F27
:10372800BFF36F8F01F0BEFB01F0D4FB00F0F8F897
:1037380001F01AFC0000000800ED00E001B5EFF30D
:103748000580A0F110004FEAC0000449014409C9EE
:103758009847BDE80140024908470000608C00080E
:1037680061350008102080F3118808484FF4006183
:10377800401880F30988EFF314800221084380F38E
:103788001488BFF36F8FFFF7C3FF0000D01A002023
:103798000C4B9A6A9A6A9A6A920708D55A6B9A6A7F
:1037A800120604D518B19A6A22F080029A62054B73
:1037B8009A6A9A6A9A6A9A6A002042F0FF029A62A2
:1037C8000870704700ED00E00D4B9A6A9A6A9A6A91
:1037D800920508D59A6B9A6A120404D518B19A6AA8
:1037E80022F400429A62064B9A6A9A6AD20558BF36
:1037F8009A6A9A6A002042F47F429A620870704777
:1038080000ED00E0074B9A6A9A6A9A6A9A6A9A6A7D
:103818009A6A9A6A6FEA02426FEA12429A62002032
:10382800704700BF00ED00E070B5364B5B688AB0AA
:103838000E46C3F30803002585F31188BFF36F8F85
:1038480002F07F41B1F17F4F11D102F00C0108293C
:103858000DD0110701D4064601250022033B8DF83F
:103868000720032B47D8DFE803F0043E423B2E46EF
:10387800F3E7244BDA6A92073DD4DC6A14F08044FB
:1038880008D028331B78EBB10DF107010120FFF7B1
:103898007FFF04469DF8073093B92022314602A8DD
:1038A80004F05CFA099B45B3C3F3080222B96FEA36
:1038B80053236FEA4323099302A9204604F037F9FA
:1038C8000AB070BD104B1B782BB10DF10701012018
:1038D800FFF77AFFDDE70D4B188884B2002CD9D0AA
:1038E800FFF790FFD5E70DF107010020CFE70DF1B5
:1038F80007010020ECE70024CCE723F4FF7323F052
:103908000103D8E700ED00E029ED00E02AED00E032
:10391800024A536943F010035361704700ED00E019
:10392800044800231021C2180133522B82F80013D7
:10393800F9D1704700E100E038B504464FF01003B4
:10394800EFF3118583F31188BFF36F8F01F090FEB9
:103958000A4B9B68A3420BD1094B5A68C2F3080271
:1039680012B92846FFF706FE5A6842F080525A609C
:103978002846BDE8384004F0DDBE00BF6C080020D2
:1039880000ED00E01FB5084B0193084B0293084B6C
:10399800039301AB0093074A074B0121684600F0E7
:1039A80093F805B05DF804FB00000020000000005B
:1039B80000000B060000002000000220DFF884C091
:1039C800F0B50646002710468F4200DBF0BD56F8DA
:1039D80027E0DEF8044094B343B1651E2C4219D1A8
:1039E8001F2C17D9DEF80020154213D1202CC2B2A3
:1039F800DEF80050DEF808000FD9B4F1004F0ED8F9
:103A0800013CB4FA84F4C4F11F046400072A44EAB0
:103A1800000406D96FF01500D8E70824F6E73E241D
:103A2800F4E725F01F05154345F0100544F001049F
:103A3800CCF80820501CCCF80C50CCF810400137BA
:103A4800C2E700BF90ED00E0034B05225A60BFF3C8
:103A58004F8FBFF36F8F704790ED00E0BFF35F8F1C
:103A6800014B00225A60704790ED00E01349086846
:103A7800082810B51ED8FFF7F1FF114C496800223D
:103A8800904201F10C0105D10E4B1870FFF7DCFFD5
:103A9800002010BDA26051F80C3C23F01F03134313
:103AA80043F01003E36051F8043C43F00103236141
:103AB8000132E5E74FF0FF30EBE700BF0094000864
:103AC80090ED00E08D09002010B5034C0123227809
:103AD800FFF774FF207010BD8D0900202DE9F04F0D
:103AE800A1B01E460023039089460293134613F89B
:103AF800010B069358B1252800F081804946039BA5
:103B08009847013040F04A844FF0FF3302930298FF
:103B180021B0BDE8F08F2B2D65D05CD8202D65D065
:103B2800232D66D0002DF2D0CDF81880DDF818804E
:103B3800A44818F8015B294604F0B9F80028EAD12E
:103B48002A2D63D156F8043B0793002BBFBF5B4275
:103B5800079301230D93069B98F8005003F1020880
:103B68002E2D78D198F800302A2B71D156F8044BB5
:103B780008F1010818F8015B934829462F4604F01C
:103B880096F800286AD04346682F13F8015B06931D
:103B980007D1682D05D108F1020398F80150069362
:103BA8004827782D08D8572D5CD8252D00F0F283AA
:103BB80000F2A280002DAAD0039B494625209847F1
:103BC8000130A1D0039B49462846984701309BD035
:103BD800029B0233E4E32D2D0ED0302D089B08BF45
:103BE80001230893A0E7012309939DE701230C9380
:103BF8009AE74FF0010A97E701230D9394E7002312
:103C080008930C9309930D939A468FE7A5F1300317
:103C1800092B0790A4D80A22DDF8188018F8015B50
:103C2800A5F13003092B9BD8079B02FB0355A5F18F
:103C38003003CDE90683EFE701FB0434303C9046BE
:103C4800424612F8013BA3F130000928F4D991E764
:103C580000240A21F4E74FF0FF348DE7CDF81880EF
:103C680007469EE7A5F15803202BA5D801A252F8D4
:103C780023F000BF01430008C13B0008C13B000816
:103C8800C13B0008C13B0008C13B0008C13B00081C
:103C9800C13B0008C13B0008C13B0008C13B00080C
:103CA800D53D0008AB3E00080D3D00080D3D00085D
:103CB8000D3D0008C13B0008AB3E0008C13B0008B1
:103CC800C13B0008C13B0008C13B00088D42000809
:103CD80001430008B7420008C13B0008C13B000887
:103CE800D9420008C13B000801430008C13B000855
:103CF800C13B000801430008A5F14503DBB2022BD4
:103D08003FF65AAF073626F007031946F1E80223B3
:103D1800D80240EA5250D60220F00040049605909E
:103D2800DDE90467002A0191C3F30A5173F1000326
:103D3800CDE9146780F2E5802D238DF864300DF10C
:103D4800650740F2FF73994240F0F680DDE90412FE
:103D58000A43A5F1410507F1030340F0E280192D5C
:103D680000F2D98049223A704E227A704622002405
:103D780019AEBA70FC709B1BA246A346099A002A8A
:103D880040F07D820C9A002A40F079829DF8648088
:103D9800A8F12D02D2F1000848EB02080BEB0A0645
:103DA80033441E1920AB434413F81C3C303B092B09
:103DB80000F2FE82089B002B00F0FD82079B19AFE2
:103DC8009B1B14E035A400083BA4000832464FF0C2
:103DD800000852F8043B01928DF8643001264446ED
:103DE80019AF04EB080300249B1BA246A34623EA51
:103DF800E3739A190892079A9919551A0D9A12B9E4
:103E0800002D00F3ED8207EB0802BA4240F0EA8287
:103E1800013B80F0F582A6EB0806BBF1000F10D03D
:103E2800387807EB0608A0F13003092BA8EB070642
:103E380040F2F182D846B8F1010880F0F582A6EB8D
:103E48000B06BAF1000F16D007EB060817F801BBEE
:103E5800039B49465846984701303FF455AEBBF19D
:103E68002E0FA8EB0706F1D1D046B8F1000F00F3EA
:103E7800E482A6EB0A0694B1387807EB0608A0F1AD
:103E88003003092BA8EB070640F2E2822E2800F047
:103E9800DF82A046B8F1000F00F3E382361B3E44F0
:103EA800F2E23568331D002D01931CDA2D238DF8BD
:103EB800643069420DF1650630460A2203F09CFF22
:103EC800099B064419A8361A002B40F06C820C9BFB
:103ED800002B40F068824FEAD578002C80DA002465
:103EE800A246A34666E7099B23B12B238DF86430CD
:103EF8002946DFE70C9B0BB12023F7E7294619AECB
:103F0800DAE7099B0BB12B2317E70C9B0BB1202396
:103F180013E719AF15E769223A706E227A706622A4
:103F280025E7192D99BF4E2241216E22612194BFA8
:103F38003A703A7079701AE7049B05980B430E9310
:103F4800CB1703430F93DDE90E23462D08BF6625E3
:103F5800134300F00781002900F09F80159B43F070
:103F68000043A1F2FE381593002618F1020FC0F2A3
:103F7800A880B8F1000F00F3D48014A808F1010854
:103F880003F05EFFB8F1040FF7D1002C05F0DF0352
:103F9800B8BF0624472B40F0EE80F11C02DBB44288
:103FA80080F2E380023DEDB2002C00F0EA80013C93
:103FB800BAF1000F40F0E580002CD4BF4FF00008A4
:103FC8004FF00108662D40F0DE8014EB060B4FF031
:103FD800660500F1DB80BBF1100FA8BF4FF0100B96
:103FE8001023139300224FF00063CDE91623BBF191
:103FF800010B80F0CE80149B169A17999B18159A7E
:1040080041EB0202CDE9143202F070431093002311
:104018001193DDE91023134306D014A803F022FFFF
:1040280014A803F00DFF0136662D40F0CF80002E56
:1040380040F3B680139B002B07DD13A914A803F0E7
:104048003AFF013E07F8010BF4D1B3463B46002680
:10405800BAF1000F01D1002C15DD2E2203F8012B37
:10406800002E00F0AE80002C40F3AD80C6F1000AAF
:10407800A245A8BFA246A4EB0A04002C03DD139AAC
:10408800002A00F39480B8F1000F40F0B4800022B9
:1040980019AE1A709B1B71E60139049BDB18049357
:1040A800059B5B410593DDE90423002A73F10003B6
:1040B800F2DADDE90423CDE914234FE714A803F06D
:1040C800BFFEDDE9142C0023CDF828C00B93DDE9F1
:1040D8000A01002908BFB0F1333F08F10108EDD209
:1040E8000520A2FB002300FB0C33CDE91423013E7D
:1040F8004FF0000E00214FF0000C6FF0004B8C4584
:1041080008BF9B4506D2BEF1000F3FF42EAFCDE9A4
:1041180014232AE792185B4108F1FF384FF0010E8B
:10412800E8E714A803F09EFEDDE9141008F1FF3853
:1041380001364FF0000E00234FF0000C6FF0004BDB
:104148009C4508BF834506D2BEF1000F3FF411AF6E
:10415800CDE914100DE74918404108F1FF384FF038
:10416800010EE8E70026B04607E7A41BBAF1000FE6
:1041780004D1662520E74FF0000823E74FF0000838
:1041880023E74FF0000804F1010B24E74FF0000B80
:1041980026E716A803F066FE16A803F051FE26E7E8
:1041A8003B46302203F8012B4FF0000B50E713A9D0
:1041B80014A80A9303F07FFE0A9B013C03F8010B45
:1041C8005BE7B24659E74FF0000A5CE713A914A869
:1041D80003F071FE3028387018BF06F1FF36BAF1C7
:1041E800000F37D1002C35DC7B1CB8F1000F43D011
:1041F8004FF0000BDA46194613F8012D302AFAD091
:104208002E2A18BF0B46002405F0DF02452A7FF44A
:104218003EAF002E1946BABF76422D222B22632EBE
:1042280001F8025B5A7008DD642096FBF0F202F197
:104238003005D91C9D7000FB12660A200B4696FBC0
:10424800F0F200FB126602F13005303603F8025B2B
:104258004E701CE72E22BB1C7A70002CC5DD139A09
:10426800002AC2DD13A914A80A9303F024FE0A9BAE
:10427800013C03F8010BF0E7C346C246C4E74FF020
:1042880001088BE53246682F52F8043B019206D0AC
:104298006C2F09D0482F07D1029A1A7001E0029AB0
:1042A8001A80019E069A21E4029A1A60F9E747F6F5
:1042B8003003ADF864303346102253F8041B0193E1
:1042C8000DF1660003F098FD4FF00208861C04E625
:1042D8003346002C53F8047B0193B8BF6FF00044B9
:1042E8000026B44203D126460024A04679E5BB5DEA
:1042F800002B5BD00136F4E7331D6F2D3168019335
:1043080019D1BAF1000F08D030238DF8643079B98B
:104318008DF8651088460126DFE519AD2846082284
:1043280003F06AFD19AEAD1B2E184FF00008D4E556
:104338000DF16505F2E7752D05D10A2219A803F0DC
:104348005BFD0646F1E7BAF1000F11D047F63003DE
:10435800ADF864300DF166071022384603F04CFDC5
:10436800582D07D019AEBF1B3E184FEA4A08B4E5CE
:1043780019AFF1E719AA12F8013BA3F16101192954
:1043880003D8203B02F8013CF5E712F8013C002B6A
:10439800F1D1E7E749462846FFF7B1BB029B013355
:1043A800CDE901637DE74FF0010896E51C469CE7DF
:1043B80019AF00231DE5089B19AF1AE50993494673
:1043C800039B0792202098470130079A099B3FF4E6
:1043D8009BAB013AF2D2029929440291154612E5A3
:1043E8002A46F6E7099317F8010B039B07924946FB
:1043F80098470130079A099B7FF407ADFFF784BB04
:1044080007934946039B302098470130079B7FF468
:10441800FFACFFF779BB039B4946984701303FF44F
:1044280073AB17F8010FFEE4039B49463020984709
:1044380001307FF400ADFFF767BB039B494630208E
:104448009847013008F1FF387FF40FADFFF75CBBE8
:10445800039B4946984701303FF456AB17F8010FC4
:104468000DE5039B494630209847013008F1FF3895
:104478007FF410ADFFF748BB17F8010B039B4946C3
:10448800984701303FF440ABF31B002BF4DC029B50
:10449800089A002D134402937FF703AF2C4606E0D9
:1044A800039B49462020984701303FF42DAB013C3F
:1044B800F6D2029B2B440293F3E600BF014B18602F
:1044C800704700BF7829002008B503480521FEF78A
:1044D80007F9002008BD00BF209400082DE9F3412A
:1044E8001E4603688768D3F80880B2F5005F0C465B
:1044F8002BD101F0030304339A000F23934043EABE
:104508009103DAB23E49023251F82220190C02EA2C
:10451800134391FAA1F2B2FA82F2D340D8F80820F4
:104528009A4210D12046FDF783FF2046FDF7D4FFBD
:1045380020460021FDF78AFF012303FA04F47B6873
:1045480023EA04037B6000254BE0B2F5804F50D08E
:1045580002462C492046FDF7ADFF054600284BD101
:10456800012303FA04F27B6813437B60D8F80870D0
:10457800254800F06BFC2549034603C96A4682E8D2
:10458800030059681846D1F800801146C04704F066
:10459800030104318B000F21994041EA9401CAB20A
:1045A800920002F1804202F59C320B0C906820EADE
:1045B800114193FAA3F3B3FA83F39F400F43B6F57F
:1045C800802F976011D0B6F5C02F10D0B6F5003FF8
:1045D80014BF002102212046FDF738FF2046FDF7D1
:1045E80019FF284602B0BDE8F0810121F3E7032155
:1045F800F1E76FF02205F4E76FF00F05F1E700BF70
:1046080000380140F37E00080BA000083090000835
:10461800036810B59C68064800F018FC436804F16C
:104628000C011B689847002818BF6FF0040010BDE4
:104638000BA00008F0B589B01F4686689DF8383091
:1046480092B3BA4230D363BB03689B6801398C00CC
:104658001968324B99425ED0B1F1804F27D030486B
:1046680021F40063834253D021F4805500F5806023
:1046780085424DD021F4806500F50060854247D021
:1046880021F4804500F57440854241D000F5705012
:1046980083423DD0234B99423DD003F58063994234
:1046A80039D06FF0220031E06FF015002EE084B1B0
:1046B80024F00803042B03D0082C01D03C2CF0D1A3
:1046C800B1F1804F05D0184B994202D0B2F5803F26
:1046D800E7D80025336C3160013A7360F2603561C8
:1046E800B5607561304603F08AFE602301A9224651
:1046F8003046CDE90455CDE9065501930395029757
:1047080003F097FE2146304603F001FF09B0F0BDE3
:10471800002CCDD1D7E7002CCAD1D7E70000014043
:1047280000040040001C0040000C004038B503683D
:1047380085689C68064800F089FB436868641B68C4
:10474800211D9847002818BF6FF0040038BD00BF2E
:104758000BA0000803689B681B685A6942F00102B5
:104768005A61104A934213D0A2F54C4293420FD09B
:1047780002F5806293420BD002F58062934207D023
:1047880002F58062934203D002F54442934203D17A
:104798001A6942F040021A61DA6842F48072DA60FB
:1047A800704700BF0010014003689B681B685A6986
:1047B80022F001025A61104A934213D0A2F54C42EA
:1047C80093420FD002F5806293420BD002F58062CB
:1047D800934207D002F58062934203D002F5444227
:1047E800934203D11A6922F040021A61DA6822F46E
:1047F8008072DA60704700BF001001402DE9F8436D
:1048080003680A799B6886681C68012A0D4675D07A
:10481800022A0CBF4FF48061002195F8058095F8B5
:104828000690EF79B8F1020F96BF374B4FF4005E50
:1048380033F818E0B9F1040F0CBF4FF4805300238C
:10484800033A012F14BF4FF0000C4FF4407C012AAB
:1048580057D918F0FD0F54D0B9F1020F51D987B1CB
:104868002A4A94420BD0A2F54C42944207D002F552
:104878008062944203D002F54C42944241D1012F08
:104888003FD1E26822F40052E260E26802F4C062BA
:1048980091421FBFE76827F4C0670F43E7602269AA
:1048A80002F4405296451FBF216921F4405141EA64
:1048B8000E012161E268296802F4805293421FBF09
:1048C800E26822F480521A43E260636903F4407399
:1048D8009C451FBF636923F4407343EA0C0363617B
:1048E8003368994203D003F030FD2B683360E368E6
:1048F80043F40053E3600020BDE8F8834FF4C0613F
:104908008BE76FF02200F7E7B89500080010014028
:1049180003682DE9F0419F68D0F808803E460546B7
:1049280056F80C4B1A4800F091FA4368C8F804008E
:1049380031461B689847064638BBE36823F40053A2
:10494800E360E36843F00C03E360E36823F4B053E7
:10495800E360236923F4405323613B7D33B12B6823
:104968009B681A68536943F4407353612846D8F822
:10497800001003F0EAFCE36843F40053E3602846C0
:10498800BB6898473046BDE8F0816FF00406F9E748
:104998000BA00008036A23F001030362036A70B5E1
:1049A800446882690D6822F073022A438D6823F0F7
:1049B80002032B430E4DA84202D00E4EB04210D136
:1049C800CE6823F008033343A84223F0040302D03F
:1049D800084DA84205D1D1E9055624F44074354361
:1049E8002C43446082614A684263036270BD00BF21
:1049F8000000014000040140036A23F4807303624D
:104A0800036A70B54468C2690D6822F073022A43CC
:104A18008D6823F4007343EA0523114DA84203D09F
:104A280005F58065A84214D1CD6823F4006343EAF4
:104A380005230B4DA84223F4806303D005F5806558
:104A4800A84206D1D1E9055624F44054354344EA36
:104A580005144460C2614A68C263036270BD00BF46
:104A680000000140036A23F480530362036A30B5EF
:104A78004468C2690D6822F4E64242EA05228D685C
:104A880023F4005343EA0533084DA84203D005F543
:104A98008065A84204D14D6924F4804444EA851411
:104AA8004460C2614A680264036230BD000001408C
:104AB800304A0368904212D0B0F1804F0FD0A2F56F
:104AC8007C4290420BD002F58062904207D002F5FA
:104AD8008062904203D002F57842904219D14A6828
:104AE80023F070031343234A904229D0B0F1804F3A
:104AF80026D0A2F57C42904222D002F580629042F4
:104B08001ED002F5806290421AD002F57842904297
:104B180016D0194A904213D002F5806290420FD005
:104B280002F5806290420BD0A2F59832904207D0ED
:104B380002F58062904203D002F58062904203D170
:104B4800CA6823F4407313434A6923F0800313436C
:104B580003608B68C3620B688362064B984203D07C
:104B680003F58063984201D10B6903630123436114
:104B7800704700BF0000014000400140036A23F075
:104B880010030362036A70B5446882690D6822F4F1
:104B9800E64242EA05228D6823F0200343EA051322
:104BA800104DA84203D005F58065A84214D1CD6800
:104BB80023F0800343EA05130A4DA84223F040037B
:104BC80003D005F58065A84206D1D1E9055624F43D
:104BD8004064354344EA8504446082614A688263DC
:104BE800036270BD0000014010B504460122006850
:104BF80003F07FFC23680B4A934203D002F58062DE
:104C0800934203D15A6C42F400425A649A6802F003
:104C18000702062A1EBF1A6842F001021A60002025
:104C280010BD00BF00000140054B1A681B6802F068
:104C3800007203F00063134314BF01200020704783
:104C480000380240214B1B6813F480431BD0204BD3
:104C5800984209D81F4B984201D9042305E01E4BFE
:104C6800984206D9032300E00523012B38BF01230E
:104C780009E01A4B984201D9022304E0184B9842E4
:104C88004FF00003F1D8114A1268520411D4154AA2
:104C9800904208D9104A002B08BF0423904205D837
:104CA8000E4A904202D80E4A904202D9012B38BFD0
:104CB80001230D490A6822F00F021A430A600868A6
:104CC80000F00F00C01A18BF0120704700700040A4
:104CD80080D1F008000E2707804A5D0500879303FE
:104CE80080C3C901001BB700003C02400B68244A7E
:104CF800C3F3031370B5D35C224E20FA03F4336870
:104D0800A3420D4627D3204B1A6842F080721A60DE
:104D18001A689201FCD59A68296822F0F0020A43C1
:104D28009A609A6822F0030242F002029A60164BD7
:104D38009A6802F00C02082AFAD19A68696822F483
:104D4800E0520A439A609A68A96822F460420A43CA
:104D58009A60002005E074B12046FFF773FF002831
:104D6800D1D03368A34203D93CB12046FFF76AFF8C
:104D780000B9346070BD0120F3E70120FAE700BFF5
:104D880084A400088C290020003802402DE9F04155
:104D98000D46044690461946FFF746FF002838D1CD
:104DA800D8F80060D8F80470D8F8083006F03F004A
:104DB800B4FBF0F4C7F308004443180C013040007A
:104DC800B4FBF0F0144C226892030FD42268012D32
:104DD8000CBF42F4802222F480222260226842F42E
:104DE800803222600C4C22689203FCD50A4C0B4A94
:104DF80065682A4042EA8712324342F480026260C0
:104E0800626822F440321A436260BDE8F041FFF75D
:104E18006DBF0120BDE8F081003802400080BFFF6F
:104E2800094B70B553F820400130002653F8205044
:104E3800A54200D870BD236820465B68984700B13A
:104E480066600C34F4E700BFA0950008104B70B5FD
:104E5800104C05461E469C4204D10E4CB44209D162
:104E6800002412E062681AB122681268AA420CD0C3
:104E78000C34F0E763680BB90C34EFE72368284675
:104E8800196802F029FF0028F6D1204670BD00BF3E
:104E9800A02A002098290020014B986854307047B8
:104EA8006C08002008B50748074A0021121A02F0CA
:104EB80080FF0648064ABDE80840121A002102F0A1
:104EC80078BF00BF000000209009002000000010FB
:104ED8000000001009480A4A0A4908B5121A02F0E7
:104EE8003DFF094A09490A4802F038FF09480A4AB9
:104EF8000A49BDE80840121A02F030BFEC28002029
:104F0800DC2A0020F8A4000800000000F8A400082B
:104F1800000000200000001000000010E8A60008B3
:104F280008B50C4B012202201A70FFF779FF0A4AD4
:104F38000A490B4801F074FA0320FFF771FF00F0EB
:104F480037FEFBF771FB074A137B23F0010313734A
:104F580008BD00BF8E090020F398000894A400083B
:104F6800B1A400080008002080B5364BA2B083F336
:104F78000888354D354E6B69DFF8ECA0DFF8EC900A
:104F8800334F43F400736B610024F02385F822301B
:104F9800EC772C766C76AC766B6A43F4E0236B6224
:104FA800FEF7B6FCFEF79AFB4FF0FF33AB62EB62FD
:104FB80007AB6C222146184602F0FBFE4FF00108B1
:104FC800B06020468DF82980FFF72AFF4046214D22
:104FD800FFF726FF00F09AFC1F4B35624FF4806202
:104FE8004946CDE9048328465346CDE90244CDE934
:104FF800004400F07FFD6B7B23F004036B732846AD
:1050080003F0D5FB154B1649CDE904830F23CDE9F1
:1050180002434FF4A072134B3846CDE9004400F028
:1050280069FD7B7BF76023F004037B7306F11803AB
:10503800C6E906334FF48062534649462846FEF7D0
:1050480031FB00BFD022002000ED00E06C080020FA
:105058009407002000080020D8A40008DDA4000858
:1050680090190020FD8B0008294F0008901500209A
:105078002DE9F041134604460E4600F108084FF0AA
:105088001002EFF3118782F31188BFF36F8F016A63
:10509800C268914229D203F0D5FBA2680546314681
:1050A80070B10024406902F059FE2846AC6603F04E
:1050B8007EFB4046394603F032FB2046BDE8F081CE
:1050C800E06902F04BFEE369A26813446269E36198
:1050D800934204BF2369E361236A013323620020FA
:1050E80087F31188BFF36F8FE8E74BB1064A9268E0
:1050F8003946566102464046BDE8F04100F0AEBB75
:105108006FF04F00ECE700BF6C0800202DE9F0417C
:1051180004461346084604F108074FF01002EFF35F
:10512800118682F31188BFF36F8F226A002A31D06B
:10513800A268A16902F012FEA369A2681344626919
:10514800A361934204BF2369A361236A013B2362DD
:10515800204603F077FB054648B34169A268E06939
:1051680002F0FCFDE369A26813446269E3619342BB
:1051780004BF2369E361236A0133236200242846BC
:10518800AC6603F014FB3846314603F0C8FA2046F3
:10519800BDE8F0814BB1084A926838465161224611
:1051A8003146BDE8F04100F059BB6FF04F0086F37F
:1051B8001188BFF36F8FEBE76C080020F8B5044641
:1051C8000E464FF01003EFF3118783F31188BFF3F6
:1051D8006F8FC368304A5BB180689168884215D088
:1051E800B6B987F31188BFF36F8F6FF00F000CE02B
:1051F800916891F90E1021610133E3609368A3600F
:1052080087F31188BFF36F8F0020F8BD2169F2E79B
:1052180090F90E3091F90E109942A8BF194621EA6B
:10522800E1718B422BDD00F02DFB05461B48334610
:105238002246394600F012FB0028E6D04FF0100352
:10524800EFF3118683F31188BFF36F8F2368216909
:105258009C4207D033B193F90E309942A8BF194642
:1052680021EAE171A06890F90E30994209D16DB137
:105278000A48314603F053FA6FF00A00C5E70025E3
:10528800D4E700F0FFFA0028F2D1F0E786F311889E
:10529800BFF36F8FF0E700BF6C0800208F09002074
:1052A80038B583680446002B36D01E4A926893426C
:1052B80035D1DA7B013ADA73C368012B05D0013B9B
:1052C800C36000F0B7F8002038BD4FF01003EFF3CB
:1052D800118583F31188BFF36F8F0169806890F996
:1052E8000E30994201D000F0CDFA204603F0AAFA18
:1052F800A06058B190F90E2022610022826603F066
:1053080056FA0948294603F00AFADAE7E06085F315
:105318001188BFF36F8FD4E76FF01500D4E74FF013
:10532800FF30D1E76C0800208F09002010B5084C29
:1053380023685BB1FEF7DCF803462068054A03449E
:10534800BDE810401361002103F007BB10BD00BF8A
:10535800A00800206C08002010B54FF01003EFF3F0
:10536800118483F31188BFF36F8F084B00221A61F1
:105378000A235843064B1860064B1960FFF7D6FFFF
:1053880084F31188BFF36F8F10BD00BF6C08002035
:10539800A00800209C0800204FF01003EFF31181B3
:1053A80083F31188BFF36F8F044B9A68D37B013B5B
:1053B800D37381F31188BFF36F8F70476C08002097
:1053C800094B03F12402824205D19B688B4202D12A
:1053D8004B7BDB0606D1D1E9003213605A6000230B
:1053E800C1E90033704700BF6C08002070B5104C4D
:1053F800064604F1240003F0D0F9A368597B05465A
:10540800880644BF41F00801597305B9E5684EB9EB
:105418005A7BD20606D1AA6922B9DA897F2A01D92C
:10542800236270BDAB4201D0FFF780FF2562F8E729
:105438006C08002010B54FF01003EFF3118483F3CC
:105448001188BFF36F8F084B9A68D37B0133D373EE
:105458000020FFF7CBFF84F31188BFF36F8FBDE8FF
:10546800104003F073B900BF6C08002070B4437B90
:10547800DB062AD1836943BB154A114651F8244FEC
:105488008C4218BF2346002B946A38BF0023B3B15F
:1054980090F90E6093F90E50AE4203DBA3420ED092
:1054A8001B68F4E75A68C0E9003210605860437B13
:1054B80063F07F03437370BC0020FFF797BFC0E918
:1054C8000014936A18609062F1E770BC704700BFDF
:1054D8006C08002010B54FF01002EFF3118482F32E
:1054E8001188BFF36F8F427B510704D484F311886E
:1054F800BFF36F8F10BD22F004024273FFF7B6FFAF
:1055080021460248BDE8104003F009B98F09002080
:10551800F8B501464FF01003EFF3118483F31188B7
:10552800BFF36F8F90F90D30002B02DA1948FFF79F
:1055380047FF194A1046956A50F8243F834208BF2E
:105548000023002B38BF0023EBB191F90E7093F9BB
:105558000E60B74203DB9D4215D01B68F4E758681C
:10556800C1E90030016059604B7B906863F07F03AC
:105578004B73431A58425841FFF738FF84F3118898
:10558800BFF36F8FF8BDC1E90005936A1960916296
:10559800EAE700BF900800206C08002038B5154ADB
:1055A800154B146801469868A0421C4603D1BDE813
:1055B8003840FFF7BBBE00251560104A1268B2B12B
:1055C800C2897F2A13D80E4A90F90E501268954264
:1055D8000DDB0C4A90420AD0826942B91A698A42A4
:1055E80002DCFFF795FFE2E7521A1A6138BD002383
:1055F8002361FBE7980800206C080020A008002021
:105608009C0800209407002070B50446183003F069
:105618007EF94FF01003EFF3118683F31188BFF37F
:105628006F8F94F90D30002B07DA0F482146FFF7EA
:10563800C7FE637B03F07F0363730C4D637BA8682D
:1056480043F010036373031B58425841FFF7CEFE23
:1056580086F31188BFF36F8FAB68A34203D1BDE80F
:10566800704003F073B870BD900800206C080020EB
:1056780038B5036D044603B1984704F1180003F0E8
:1056880046F94FF01003EFF3118583F31188BFF348
:105698006F8F637BD8061BD1A269CAB9190607D5D3
:1056A80012482146FFF78CFE637B03F07F03637388
:1056B8000F4B9868021B50425041FFF797FE637BDF
:1056C80043F00803637385F31188BFF36F8F38BD08
:1056D8009B07F4D5A0682146FFF772FE637B23F091
:1056E800020363730023A360E9E700BF900800206A
:1056F8006C08002008B590F90D30002B014606DA39
:105708000748FFF75DFE4B7B03F07F034B73054BA8
:105718009868431A58425841BDE80840FFF766BEEA
:10572800900800206C080020F8B5451C03F02FF9FC
:105738002C184FF01003EFF3118783F31188BFF390
:105748006F8F0D4E0D4BB068186003F06BF8B068A2
:105758000B492A46183000F0D1FAB268537B43F05F
:10576800100353733846FDF705FF03F010F9201AAC
:1057780020EAE070F8BD00BF6C08002098080020FF
:10578800D7870008F8B504460D4616464FF01003B3
:10579800EFF3118783F31188BFF36F8FFFF7AAFF29
:1057A800637B43F002036373C5B12B68A5609D4218
:1057B80008BF0023002B38BF00230BB394F90E1049
:1057C80093F90E20914204DB6A68934218D01B6853
:1057D800F3E75A68C4E9003214605C6087F3118803
:1057E800BFF36F8F731C12D026EAE6760A22724343
:1057F80004F118000649BDE8F840013200F07EBA0D
:105808006B6863606B6825601C606C60E6E7F8BDD8
:10581800D787000870B50F4D0F4C0646A868FFF7EC
:10582800B1FFAB6823603046FDF7A4FE4FF01002CD
:10583800EFF3118382F31188BFF36F8F2268A96891
:10584800914204BF0022226083F31188BFF36F8F57
:1058580070BD00BF6C0800209808002010B50C46E9
:105868001146064A9068064A10601A46FFF78AFFF2
:105878002046BDE81040FDF77DBE00BF6C08002043
:10588800980800202DE9F04104464FF01003EFF38B
:10589800118883F31188BFF36F8F437BDB064EB209
:1058A8002ED1856965BB184F214607F12400FFF703
:1058B80087FD7B6ABA6AA673834218BF1D46002D0E
:1058C80038BF0025B5B195F90E10B14203DCAA42E4
:1058D80010D02D68F6E76A68C4E9005214606C605D
:1058E8000120FFF783FD012088F31188BFF36F8F34
:1058F800BDE8F081C4E90002BB6A1C60BC62EFE746
:10590800A6730020F0E700BF6C080020044B0021BC
:1059180003F12402C3E909220846FFF71DBD00BFB1
:105928006C080020F8B5244C244BA2689A4230D069
:105938004FF01003EFF3118583F31188BFF36F8FD6
:10594800A16804F12400FFF73BFD636AA268A16A1D
:10595800834208BF0023002B38BF00232BB392F9E2
:105968000E7093F90E60B74203DB8B421DD01B68A3
:10597800F4E75968C2E900310A605A60537B63F062
:105988007F0353730120FFF731FD85F31188BFF3BF
:105998006F8F4FF01003EFF3118083F31188BFF37B
:1059A8006F8FBDE8F840FDF7E5BDC2E90001A36AC5
:1059B8001A60A262E2E700BF6C080020940700208A
:1059C800431C10B5044605D10B4B986800F0D0F87D
:1059D800204610BD0A20444309D1FFF7A3FF204603
:1059E800E1170A220023FAF7CBFB0446F0E720462A
:1059F800FFF79AFE0446F2E76C080020014B98680E
:105A0800704700BF6C08002038B504464FF01003FB
:105A1800EFF3118583F31188BFF36F8F02F012FF44
:105A280048B10022826602F0C2FE29460848BDE855
:105A3800384002F074BED4E902329A4218BF0133EA
:105A4800A360022104F1100003F0BCF8EDE700BFE9
:105A58008F09002002460B464FF01000EFF311812A
:105A680080F31188BFF36F8F906838B10138906068
:105A780081F31188BFF36F8F0020704733B981F32A
:105A88001188BFF36F8F6FF00F0070470148FFF761
:105A9800E5BE00BF8F09002010B5084C08494FF03B
:105AA800FF334FF48062204600F0CAF8054904F13C
:105AB800100002F01AFF002010BD00BFA40800204B
:105AC800D0220020E2A400080849094A38B5A0FB02
