:020000040800F2
:10000000500600206D100008F3240008FD0F0008C2
:10001000FD0F0008FD0F0008FD0F0008FD0F000890
:10002000FD0F0008FD0F0008FD0F0008F90E000885
:10003000FD0F0008FD0F0008B10E0008E10C0008DC
:10004000451000084510000845100008451000083C
:10005000451000084510000845100008451000082C
:10006000451000084510000845100008451000081C
:10007000451000084510000845100008451000080C
:1000800045100008451000084510000845100008FC
:1000900045100008451000084510000845100008EC
:1000A00045100008451000084510000845100008DC
:1000B00045100008451000084510000845100008CC
:1000C00045100008451000084510000845100008BC
:1000D00045100008451000084510000845100008AC
:1000E000451000084510000845100008451000089C
:1000F000451000084510000845100008451000088C
:10010000451000084510000845100008451000087B
:10011000451000084510000845100008451000086B
:10012000451000084510000845100008451000085B
:10013000451000084510000845100008451000084B
:10014000451000084510000845100008451000083B
:10015000451000084510000845100008451000082B
:10016000451000084510000845100008451000081B
:10017000451000084510000845100008451000080B
:1001800045100008451000084510000845100008FB
:04019000451000080E
:1001940053B94AB9002908BF00281CBF4FF0FF31EA
:1001A4004FF0FF3000F06EB9ADF1080C6DE904CEEC
:1001B40000F006F8DDF804E0DDE9022304B070473E
:1001C4002DE9F047089D0E4604468C46002B40F06E
:1001D40081808A42174645D9B2FA82F24AB1C2F105
:1001E400200106FA02F320FA01F1974041EA030CD8
:1001F40094404FEA174E230CBCFBFEF6B9B20EFB3B
:1002040016CC43EA0C4306FB01F0984209D9FB18CB
:1002140006F1FF3C80F01581984240F21281023EC3
:100224003B441B1AA4B2B3FBFEF00EFB103344EAAA
:10023400034400FB01F1A14209D93C1900F1FF3349
:1002440080F00181A14240F2FE8002383C44641AED
:1002540040EA064000211DB1D4400023C5E9004313
:10026400BDE8F08702B9FFDEB2FA82F2002A4FD16C
:10027400CB1B4FEA174E1FFA87F80121B3FBFEFC94
:10028400260C0EFB1C3346EA034608FB0CF3B34270
:1002940007D9BE190CF1FF3002D2B34200F2EB8051
:1002A4008446F61AA3B2B6FBFEF00EFB106643EAD0
:1002B400064408FB00F8A04507D93C1900F1FF33B8
:1002C40002D2A04500F2D2801846A4EB080440EA0A
:1002D4000C40C0E78B4208D9002D00F0AF8000210C
:1002E400C5E900060846BDE8F087B3FA83F10029A2
:1002F40049D1B34202D3824200F2BB80841A66EB36
:10030400030301209C46002DAAD0C5E9004CA7E7B1
:10031400C2F120039740D8409140DE404FEA174E87
:1003240008434FEA104CB6FBFEF11FFA87F80EFBA8
:1003340011664CEA064601FB08F3B34204FA02F4E0
:1003440009D9BE1901F1FF3C80F08E80B34240F21E
:100354008B8002393E44F31A86B2B3FBFEF00EFBE7
:10036400103346EA034600FB08F3B34207D9BE192B
:1003740000F1FF3C74D2B34272D902383E44F31AFE
:1003840040EA01417AE7C1F1200703FA01F422FAB5
:1003940007F31C4320FA07F906FA01F34FEA144C59
:1003A400FE4049EA03094FEA1943B6FBFCFE1FFA73
:1003B40084F80CFB1E6643EA06460EFB08FAB245B7
:1003C40002FA01F200FA01F308D9A6190EF1FF307E
:1003D40048D2B24546D9AEF1020E2644A6EB0A062F
:1003E4001FFA89F9B6FBFCF00CFB106649EA0646D5
:1003F40000FB08F8B04507D9A61900F1FF3C2DD23F
:10040400B0452BD90238264440EA0E40A6EB080634
:10041400A0FB02894E45C446CE4618D315D075B309
:10042400B3EB0C0266EB0E0606FA07F722FA01F3A9
:10043400CE401F43C5E90076002111E7294628462E
:100444000EE76646EDE6184601E74345E7D2B8EB0A
:10045400020C69EB04040138A646E0E76046D3E7E2
:1004640060468CE78646B9E7614674E702383C4447
:100474002BE7084647E7ACF1020C3E4411E7294656
:10048400EEE600BF704700BF70B5154801F024FACE
:10049400044608B3856843684FF4D0521B680521AD
:1004A4009847002817D12B6823F020032B600125DF
:1004B400A3681B6885F0010613F0200F18BFF5B27E
:1004C4005DB16368DB68202120469847F5B2C820F7
:1004D40001F07AFDECE7EADA70BD63681B69F2E7C4
:1004E4003A3000080B6801330B60014B1B68184756
:1004F400900F00202DE9F04F85B09B460E9CDFF84D
:100504009090012CB8BF0124012B0CBF3023202371
:10051400154606468A46029301274FF00A08002230
:10052400B5FBF9F301930AB9A9451FD8019B5146BC
:1005340003F13000B04701370122019B08F1FF3875
:10054400B8F1010F09FB13554FF00A03B9FBF3F996
:10055400E6D1514605F13000B047BBF1030F02D19B
:10056400E41B002C0EDC05B0BDE8F08F4445E4DB51
:10057400BBF1020FE1D8029803925146B04701370C
:10058400039ADAE751462020B047013CE9E700BF6F
:1005940000CA9A3B014B1860704700BF900F0020BF
:1005A4002DE9F04F8DB01C460027531E05468B469F
:1005B40003934FF0FF39B846002605E06EB92528AD
:1005C40000F071815946A847039B13F8010F039368
:1005D4000028F3D10DB0BDE8F08F7A280AD862283C
:1005E40010D8302854D045D8252800F05A812D2819
:1005F40000F05F8159462520A847039B1878594687
:10060400A847D9E7A0F16303172BF3D801A252F846
:1006140023F000BF9F080008E3060008F90500085E
:10062400F9050008F9050008C5060008E3060008F6
:10063400F9050008F9050008C5060008F9050008D1
:10064400F9050008F905000885070008F905000800
:10065400F90500086F080008F905000853070008A9
:10066400F9050008F905000881060008F9050008E5
:10067400C506000839281AD95828BBD1039B1B7812
:10068400702B40F0888054F8043B0693002290E0DD
:10069400B9F1000F0EDAB8F1000F00F00D81A0F1EE
:1006A4003009B8F1000F08BF4FF002088CE7B9F128
:1006B400000FF4DB0A2303FB0909A9F13009F0E771
:1006C400682803D1682F06D148277DE76C2802D11A
:1006D4006C2F00F0F480002F8CD1074674E77A2F3A
:1006E40002D154F8046B21E06C2FFAD04C2FF8D1CE
:1006F400073424F00704F4E80223CDE90423049B1F
:1007040013F10041059B089143F100010991DDE9D2
:10071400082300214FF0FF30994208BF904204D2D1
:100724005946284601F03AFE46E7049E002E05DAB3
:1007340059462D20A847764209F1FF39CDF800909B
:100744004346324659462846FFF7D4FE34E77A2F0B
:1007540002D154F8042B0FE06C2FFAD04C2FF8D1AF
:10076400073424F00704F4E8022300214FF0FF309B
:10077400994208BF9042D3D3CDF800904346E1E7B5
:1007840059463020A84759467820A8474FF0080911
:100794004FF0010872E76C2F3FF475AF4C2F7FF4D4
:1007A40072AFE31D23F007031C4654F8082B06928E
:1007B4005A6800211023049107914FF0400AAAF1CE
:1007C400040A0699CAF1200EAAF1200C21FA0AF0B3
:1007D40002FA0EFE40EA0E0022FA0CFC40EA0C007B
:1007E40010F00F0007D1079911B9BAF1000F25D104
:1007F4004FF0300C05E009288CBF4FF0570C4FF038
:10080400300C6044594640B20A920793A847049BAF
:100814000A9A01330493079BBAF1000F23D1B8F16C
:10082400030F7FF4C9AE049BC3EB4906002E7FF788
:10083400C3AE59462020A847013EF7E7591E994503
:100844000A9107DBB8F1010F06D10B92594630200B
:10085400A8470B9A0A9BB2E7B8F1020FFAD10B92A0
:1008640059462020F4E70796A9E754F8046BB246EA
:1008740053461AF8010B68B9B8F1030F21D19E1B36
:10088400A9EB0606002E7FF797AE59462020A8470D
:10089400013EF7E75946A847EAE754F8040B5946DE
:1008A400AEE65946ACE63746B0464FF0FF3901266E
:1008B4008AE64FF0030887E64FF0010884E64C27E8
:1008C40082E6064680E600BF07B50B4600210246D5
:1008D4000191034801A9FFF763FE03B05DF804FB2F
:1008E400E90400084FF01002EFF3118382F311883A
:1008F400BFF36F8F83F31188BFF36F8F024B034AEB
:100904001A600020704700BFB40F00200024F400D8
:100914000A2838B5074D044604D1286843680D21D8
:100924005B68984728684368E1B25B68984720464B
:1009340038BD00BF0800002010B5044C204600F06C
:100944004FFD2046BDE81040FFF724BE15090008FE
:1009540008B5044800F0C0FF034B1860FFF7ECFF34
:10096400002008BD40300008080000202DE9F843AD
:1009740096680D4F04460D464FF0010806F1040930
:10098400AC4201DBBDE8F8837A6908FA04F333EA80
:10099400020207D17B6156F834301BB159F8341088
:1009A400204698470134EBE7003C0140044A012308
:1009B400116883400B431360024B185600F0AABA27
:1009C400003C0140523000081F2807DC0449012282
:1009D4000B6802FA00F023EA00000860704700BFC9
:1009E400003C014003290FD8DFE801F0020F172370
:1009F400154B0122996802FA00F021EA000199607E
:100A0400DA6822EA0000D8607047012303FA00F094
:100A14000D4B9A6802439A60F2E7012303FA00F04F
:100A2400094BDA680243DA609A6822EA00009860A7
:100A34007047012303FA00F0034B9A6802439A605B
:100A4400DA681043DFE700BF003C01400346074873
:100A540030B5846854F8330004EBC30518B944F87E
:100A640033106A6030BD6FF00F00FBE7FC0F00200D
:100A7400044B9A6802EBC001002342F830304B600B
:100A8400704700BFFC0F00200B6884B0032B2DD8E7
:100A9400DFE803F0020E1822164A4B68116B194363
:100AA4001163126B13400093009B002004B0704745
:100AB400104A4B68516B19435163526B13400193B5
:100AC400019BF2E70B4A4B68116C19431164126CD9
:100AD40013400293029BE8E7064A4B68516C1943A2
:100AE4005164526C13400393039BDEE76FF02200C2
:100AF400DCE700BF003802400B68032B20D8DFE896
:100B040003F0020A1118104A4968136B23EA01031F
:100B14001363002070470C4A4968536B23EA0103AE
:100B24005363F6E7084A4968136C23EA0103136424
:100B3400EFE7054A4968536C23EA01035364E8E785
:100B44006FF02200704700BF003802400968074B6D
:100B540002291B6805D005D9032903D06FF02200B0
:100B640070475B0813600020704700BFB40F00207B
:100B740030B587B000234FF48052CDE900320293A0
:100B840000F038F803A801F0A0FC184B1A6891078C
:100B940006D41A6842F001021A601A689207FCD55A
:100BA400124CA36823F00303A360A36823F0F003AB
:100BB400A360A56815F00C05FBD123680C4823F04D
:100BC40080732360636823F0706343F0E0636360C1
:100BD40003AA6B46012100F01FFE236823F00103E2
:100BE400236001F07BFC284607B030BD003802408A
:100BF40000127A00064B1A6C42F080521A641B6C85
:100C040082B003F080530193019B02B0704700BF90
:100C14000038024073B5044606090D46104612B961
:100C2400114800F059FE00230093104B53F826306E
:100C34000193013302D16FF0040012E04368694666
:100C44001B6898470028F6D12011800200F18040EB
:100C540005F00F032A4604F00F0100F5003001F0FF
:100C64002CFD02B070BD00BF69300008F42E0008EE
:100C7400F8B504460D46094800F02EFE0026074646
:100C8400AE4204F1080400D1F8BD54F8041C14F871
:100C9400080C3A46FFF7BEFF0136F1E76930000859
:100CA4000B4B9A68196898680A4B11F4803F10B589
:100CB400094901D1824205D21A680C6822441A609B
:100CC400034A12681B680A681344181A10BD00BF4F
:100CD40010E000E0D0000020CC00002008B5FFF7B1
:100CE400DFFF0C4B0C4A186811680844106000229E
:100CF4001A600A4A116842F2D003401AB0FBF3F0BA
:100D040003FB0013136001F07FFABDE8084000F014
:100D1400A5B800BFD0000020C8000020C4000020F7
:100D2400094B102283F82320084B42F2CF021A60A9
:100D3400074B00201860074B5A6098601A6842F00D
:100D440007021A60704700BF00ED00E0CC000020ED
:100D5400D000002010E000E070B52B4D044651B1E6
:100D6400431C0ED1294A136823F0010313604FF08A
:100D74007F432B6070BD40F2CC73B0F1FF3F08BFDE
:100D84001C464FF01003EFF3118683F31188BFF371
:100D94006F8FFFF785FF1E4B1A68104418601D4BB8
:100DA40000221A601C4B1B68C21A0DD54FF48063D5
:100DB4002B602B68154A013B53600023936086F334
:100DC4001188BFF36F8FD5E7013C24EAE47440F245
:100DD400CC718C4202F50352A8BF0C460F3242F28A
:100DE400D001181A01FB0424B4FBF1F401FB040440
:100DF400B4F5806F04D9094B9C42D9D82C60D8E74C
:100E04004FF48064FAE700BFCC00002010E000E05B
:100E1400C8000020D0000020C4000020C0D5FF007E
:100E240010B54FF01003EFF3118483F31188BFF36F
:100E34006F8FFFF735FF074B074A1B6812689B1A31
:100E4400034484F31188BFF36F8F42F2D000B3FBE5
:100E5400F0F010BDC8000020C400002004488168E0
:100E6400006A884203D003494FF080520A607047F9
:100E74000C02002004ED00E0094A0A49936809685D
:100E84009966094958664B6843F080534B600023C8
:100E940083F31188BFF36F8F9368986E704700BF18
:100EA4000C0200203030000800ED00E00F498A6891
:100EB4004FF028001044EFF3098C80E8F01F102055
:100EC40080F31188BFF36F8F094F4FF000660A6AF1
:100ED4008A603E60506E0023536680F3118802F1ED
:100EE400280090E8F01F8CF3098870470C0200205A
:100EF40004ED00E01EF0040F0CBFEFF30880EFF3E5
:100F04000980816911F8021C0229FFD001B501F0A2
:100F1400EAFA01BD43B2002B08DB012200F01F00F6
:100F240002FA00F05B09024A42F82300704700BF4E
:100F340000E100E043B2002BA8BF03F1604301F1DC
:100F44000101B8BF064B4FEA0111ACBF03F5614381
:100F540000F00F00C9B2B4BF195483F800137047EE
:100F640014ED00E073B51E460A9B00938C18099B90
:100F7400054601F09FFDA4F120020A4B22F007026E
:100F840023F001039361069B5360079B9360089BC6
:100F9400D3604FF08073D36100231660AA646B663C
:100FA40002B070BDD7230008F8B506460C461746B4
:100FB4001D4600F069F9094B3C4424F007049E6087
:100FC400284684F30988002163B681F31188BFF3AE
:100FD4006F8F0022002301F0FCF900BF0C020020F7
:100FE400014910220A60704710ED00E0404080F390
:100FF400118830BF704700BFEFF30880EFF3098119
:10100400724601B500F092F801BD00BF30BFFFF792
:10101400FDBF00BF08B5084B084A23F07F03936067
:10102400BFF34F8FBFF36F8F00F07CFC00F084FCA4
:1010340000F0F8F800F0BEFC0000000800ED00E04D
:1010440001B5EFF30580A0F110004FEAC000044998
:10105400014409C99847BDE8014002490847000016
:10106400902B0008610E0008102080F311880848B6
:101074004FF40061401880F30988EFF314800221D3
:10108400084380F31488BFF36F8FFFF7C3FF00009A
:10109400900700200C4B9A6A9A6A9A6A920708D5BC
:1010A4005A6B9A6A120604D518B19A6A22F0800221
:1010B4009A62054B9A6A9A6A9A6A9A6A002042F07E
:1010C400FF029A620870704700ED00E00D4B9A6AC7
:1010D4009A6A9A6A920508D59A6B9A6A120404D598
:1010E40018B19A6A22F400429A62064B9A6A9A6A82
:1010F400D20558BF9A6A9A6A002042F47F429A62E3
:101104000870704700ED00E0074B9A6A9A6A9A6A81
:101114009A6A9A6A9A6A9A6A6FEA02426FEA124271
:101124009A620020704700BF00ED00E070B5364BB6
:101134005B688AB00E46C3F30803002585F3118863
:10114400BFF36F8F02F07F41B1F17F4F11D102F0F5
:101154000C0108290DD0110701D4064601250022EF
:10116400033B8DF80720032B47D8DFE803F0043E48
:10117400423B2E46F3E7244BDA6A92073DD4DC6AFD
:1011840014F0804408D028331B78EBB10DF107012B
:101194000120FFF77FFF04469DF8073093B9202212
:1011A400314602A801F0B6F9099B45B3C3F308021E
:1011B40022B96FEA53236FEA4323099302A9204615
:1011C40001F08FF90AB070BD104B1B782BB10DF1F3
:1011D40007010120FFF77AFFDDE70D4B188884B281
:1011E400002CD9D0FFF790FFD5E70DF107010020BF
:1011F400CFE70DF107010020ECE70024CCE723F44E
:10120400FF7323F00103D8E700ED00E029ED00E0CF
:101214002AED00E0024A536943F01003536170471A
:1012240000ED00E0044800231021C2180133552BBF
:1012340082F80013F9D1704700E100E038B50446A4
:101244004FF01003EFF3118583F31188BFF36F8F11
:1012540000F0D6FD0A4B9B68A3420BD1094B5A6898
:10126400C2F3080212B92846FFF706FE5A6842F094
:1012740080525A602846BDE8384001F0B0BB00BF38
:101284000C02002000ED00E01FB5084B0193084B51
:101294000293084B039301AB0093074A074B0121C8
:1012A400684600F093F805B05DF804FB00000020E8
:1012B4000000000000000B06000000200080012058
:1012C400DFF884C0F0B50646002710468F4200DBE5
:1012D400F0BD56F827E0DEF8044094B343B1651E30
:1012E4002C4219D11F2C17D9DEF80020154213D136
:1012F400202CC2B2DEF80050DEF808000FD9B4F199
:10130400004F0ED8013CB4FA84F4C4F11F04640005
:10131400072A44EA000406D96FF01500D8E7082428
:10132400F6E73E24F4E725F01F05154345F01005C4
:1013340044F00104CCF80820501CCCF80C50CCF834
:1013440010400137C2E700BF90ED00E0034B0522D7
:101354005A60BFF34F8FBFF36F8F704790ED00E07B
:10136400BFF35F8F014B00225A60704790ED00E09D
:1013740013490868082810B51ED8FFF7F1FF114C6F
:1013840049680022904201F10C0105D10E4B1870FE
:10139400FFF7DCFF002010BDA26051F80C3C23F0E5
:1013A4001F03134343F01003E36051F8043C43F07C
:1013B400010323610132E5E74FF0FF30EBE700BFA3
:1013C400202F000890ED00E04802002010B5034CE7
:1013D40001232278FFF774FF207010BD480200201B
:1013E400014B1860704700BFA80F002008B50348E0
:1013F4000221FFF73DFC002008BD00BF402F00087C
:101404002DE9F3411E4603688768D3F80880B2F5D6
:10141400005F0C462BD101F0030304339A000F2321
:10142400934043EA9103DAB23E49023251F8222052
:10143400190C02EA134391FAA1F2B2FA82F2D340F0
:10144400D8F808209A4210D12046FFF7BDFA20466A
:10145400FFF70EFB20460021FFF7C4FA012303FA2D
:1014640004F47B6823EA04037B6000254BE0B2F5B7
:10147400804F50D002462C492046FFF7E7FA054634
:1014840000284BD1012303FA04F27B6813437B60E9
:10149400D8F80870254800F01FFA2549034603C907
:1014A4006A4682E8030059681846D1F8008011465C
:1014B400C04704F0030104318B000F21994041EA35
:1014C4009401CAB2920002F1804202F59C320B0CE4
:1014D400906820EA114193FAA3F3B3FA83F39F408F
:1014E4000F43B6F5802F976011D0B6F5C02F10D0FA
:1014F400B6F5003F14BF002102212046FFF772FA1F
:101504002046FFF753FA284602B0BDE8F0810121D6
:10151400F3E70321F1E76FF02205F4E76FF00F051D
:10152400F1E700BF00380140BB250008693000081E
:10153400EC2E0008036810B59C68064800F0CCF94E
:10154400436804F10C011B689847002818BF6FF02A
:10155400040010BD693000082DE9F84303680A79D6
:101564009B6886681C68012A0D4671D0022A0CBF4C
:101574004FF48061002195F8058095F80690EF7985
:10158400B8F1020F96BF354B4FF4005E33F818E004
:10159400B9F1040F0CBF4FF480530023033A012F19
:1015A40014BF4FF0000C4FF4407C012A53D918F0BB
:1015B400FD0F50D0B9F1020F4DD967B1284A9442BA
:1015C40007D0A2F54C42944203D002F55042944213
:1015D40041D1012F3FD1E26822F40052E260E26877
:1015E40002F4C06291421FBFE76827F4C0670F434B
:1015F400E760226902F4405296451FBF216921F435
:10160400405141EA0E012161E268296802F48052E6
:1016140093421FBFE26822F480521A43E260636976
:1016240003F440739C451FBF636923F4407343EA8A
:101634000C0363613368994203D001F045F92B68C8
:101644003360E36843F40053E3600020BDE8F883AB
:101654004FF4C0618FE76FF02200F7E734300008E1
:101664000010014003682DE9F041D3F80880876831
:101674004646054656F8084B184800F02DF94368CD
:10168400786031461B689847064620BBE36823F41C
:101694000053E360E36843F00C03E360E36823F47E
:1016A400B053E360236923F44053236198F8103066
:1016B40033B12B689B681A68536943F440735361D0
:1016C4003968284601F000F9E36843F40053E36005
:1016D4003046BDE8F0816FF00406F9E76930000890
:1016E400054B1A681B6802F0007203F00063134391
:1016F40014BF012000207047003802401A4B1A68BA
:101704001A6802F44042B2F5004F1A4615D1174B3D
:10171400984214D8164B984294BF002301231268B0
:1017240002F44042B2F5804F0ED1104A904208D9DB
:10173400BBB1012B38BF012306E00023EFE70223EE
:10174400EDE70B4A9042F4D80A490A6822F00F02E6
:101754001A430A60086800F00F00C01A18BF01207D
:1017640070470223F0E700BF007000400087930336
:1017740080C3C901003C02400B68244AC3F303132D
:1017840070B5D35C224E20FA03F43368A3420D46AD
:1017940027D3204B1A6842F080721A601A689201AB
:1017A400FCD59A68296822F0F0020A439A609A6884
:1017B40022F0030242F002029A60164B9A6802F089
:1017C4000C02082AFAD19A68696822F4E0520A43A2
:1017D4009A609A68A96822F460420A439A600020D9
:1017E40005E074B12046FFF789FF0028D1D03368A3
:1017F400A34203D93CB12046FFF780FF00B934600F
:1018040070BD0120F3E70120FAE700BFA93000080A
:10181400B40F0020003802402DE9F0410D46044683
:1018240090461946FFF75CFF002838D1D8F80060CD
:10183400D8F80470D8F8083006F03F00B4FBF0F490
:10184400C7F308004443180C01304000B4FBF0F027
:10185400144C226892030FD42268012D0CBF42F469
:10186400802222F480222260226842F480322260A4
:101874000C4C22689203FCD50A4C0B4A65682A403A
:1018840042EA8712324342F480026260626822F4C0
:1018940040321A436260BDE8F041FFF76DBF01209A
:1018A400BDE8F081003802400080BFFF094B70B5ED
:1018B40053F820400130002653F82050A54200D8A8
:1018C40070BD236820465B68984700B166600C349D
:1018D400F4E700BF1C300008104B70B5104C0546EF
:1018E4001E469C4204D10E4CB44209D1002412E09D
:1018F40062681AB122681268AA420CD00C34F0E76C
:1019040063680BB90C34EFE723682846196800F0C4
:10191400F5FD0028F6D1204670BD00BF74100020EC
:10192400C00F00200248034A0021121A00F01DBE15
:10193400000000204C02002008B50648064A07496A
:10194400121A00F0E7FDBDE80840054A05490648BB
:1019540000F0E0BD900F002088100020083100083E
:1019640000000000083100080000002008B50C4BFE
:10197400012202201A70FFF799FF0A4A0A490B480C
:1019840000F01AFD0320FFF791FF00F079FBFEF74A
:101994007BFD074A137B23F00103137308BD00BFCB
:1019A40049020020FC300008B9300008D630000895
:1019B400A001002080B5364BA2B083F30888354DD2
:1019C400354E6B69DFF8ECA0DFF8EC90334F43F44D
:1019D40000736B610024F02385F82230EC772C76B9
:1019E4006C76AC766B6A43F4E0236B62FFF712FC0F
:1019F400FFF7F6FA4FF0FF33AB62EB6207AB6C22F2
:101A04002146184600F0B1FD4FF00108B0602046B1
:101A14008DF82980FFF74AFF4046214DFFF746FF26
:101A240000F078FA1F4B35624FF480624946CDE9E5
:101A3400048328465346CDE90244CDE9004400F02E
:101A4400E7FA6B7B23F004036B73284600F0E7FF8F
:101A5400154B1649CDE904830F23CDE902434FF416
:101A6400A072134B3846CDE9004400F0D1FA7B7BD9
:101A7400F76023F004037B7306F11803C6E9063309
:101A84004FF48062534649462846FFF78DFA00BF5B
:101A9400900F002000ED00E00C0200203401002033
:101AA400A0010020FD30000802310008500600208B
:101AB4005F2B0008711900085002002010B5084C73
:101AC40023685BB1FFF7ACF903462068054A034479
:101AD400BDE810401361002101F021B810BD00BF22
:101AE400400200200C02002010B54FF01003EFF369
:101AF400118483F31188BFF36F8F084B00221A619E
:101B04000A235843064B1860064B1960FFF7D6FFAB
:101B140084F31188BFF36F8F10BD00BF0C02002047
:101B2400400200203C0200204FF01003EFF311812B
:101B340083F31188BFF36F8F044B9A68D37B013B07
:101B4400D37381F31188BFF36F8F70470C020020A9
:101B5400094B03F12402824205D19B688B4202D1D6
:101B64004B7BDB0606D1D1E9003213605A600023B7
:101B7400C1E90033704700BF0C02002070B5104C5F
:101B8400064604F1240000F040FFA368597B054693
:101B9400880644BF41F00801597305B9E5684EB998
:101BA4005A7BD20606D1AA6922B9DA897F2A01D9D9
:101BB400236270BDAB4201D0FFF780FF2562F8E7D6
:101BC4000C02002010B54FF01003EFF3118483F3DF
:101BD4001188BFF36F8F084B9A68D37B0133D3739B
:101BE4000020FFF7CBFF84F31188BFF36F8FBDE8AC
:101BF400104000F000BF00BF0C02002070B4437B13
:101C0400DB062AD1836943BB154A114651F8244F98
:101C14008C4218BF2346002B946A38BF0023B3B10B
:101C240090F90E6093F90E50AE4203DBA3420ED03E
:101C34001B68F4E75A68C0E9003210605860437BBF
:101C440063F07F03437370BC0020FFF797BFC0E9C4
:101C54000014936A18609062F1E770BC704700BF8B
:101C64000C02002010B54FF01002EFF3118482F340
:101C74001188BFF36F8F427B510704D484F311881A
:101C8400BFF36F8F10BD22F004024273FFF7B6FF5B
:101C940021460248BDE8104000F096BE4A020020EA
:101CA400F8B501464FF01003EFF3118483F3118864
:101CB400BFF36F8F90F90D30002B02DA1948FFF74C
:101CC40047FF194A1046956A50F8243F834208BFDB
:101CD4000023002B38BF0023EBB191F90E7093F968
:101CE4000E60B74203DB9D4215D01B68F4E75868C9
:101CF400C1E90030016059604B7B906863F07F0359
:101D04004B73431A58425841FFF738FF84F3118844
:101D1400BFF36F8FF8BDC1E90005936A1960916242
:101D2400EAE700BF300200200C02002038B5154A53
:101D3400154B146801469868A0421C4603D1BDE8BF
:101D44003840FFF7BBBE00251560104A1268B2B1D7
:101D5400C2897F2A13D80E4A90F90E501268954210
:101D64000DDB0C4A90420AD0826942B91A698A4250
:101D740002DCFFF795FFE2E7521A1A6138BD00232F
:101D84002361FBE7380200200C02002040020020FF
:101D94003C0200203401002070B50446183000F0E5
:101DA40098FE4FF01003EFF3118683F31188BFF30D
:101DB4006F8F94F90D30002B07DA0F482146FFF797
:101DC400C7FE637B03F07F0363730C4D637BA868DA
:101DD40043F010036373031B58425841FFF7CEFED0
:101DE40086F31188BFF36F8FAB68A34203D1BDE8BC
:101DF400704000F000BE70BD300200200C020020D4
:101E040038B5036D044603B1984704F1180000F097
:101E140060FE4FF01003EFF3118583F31188BFF3D5
:101E24006F8F637BD8061BD1A269CAB9190607D57F
:101E340012482146FFF78CFE637B03F07F03637334
:101E44000F4B9868021B50425041FFF797FE637B8B
:101E540043F00803637385F31188BFF36F8F38BDB4
:101E64009B07F4D5A0682146FFF772FE637B23F03D
:101E7400020363730023A360E9E700BF300200207C
:101E84000C02002008B590F90D30002B014606DA4B
:101E94000748FFF75DFE4B7B03F07F034B73054B55
:101EA4009868431A58425841BDE80840FFF766BE97
:101EB400300200200C020020F8B5451C00F049FE59
:101EC4002C184FF01003EFF3118783F31188BFF33D
:101ED4006F8F0D4E0D4BB068186000F0DBFDB068DD
:101EE4000B492A46183000F04DF9B268537B43F091
:101EF400100353733846FEF7BFFF00F02AFE201A82
:101F040020EAE070F8BD00BF0C0200203802002077
:101F1400432A0008044B002103F12402C3E90922E7
:101F24000846FFF7E1BD00BF0C020020F8B5244CC1
:101F3400244BA2689A4230D04FF01003EFF311857E
:101F440083F31188BFF36F8FA16804F12400FFF7B6
:101F5400FFFD636AA268A16A834208BF0023002BC5
:101F640038BF00232BB392F90E7093F90E60B74279
:101F740003DB8B421DD01B68F4E75968C2E90031CA
:101F84000A605A60537B63F07F0353730120FFF7A9
:101F9400F5FD85F31188BFF36F8F4FF01003EFF356
:101FA400118083F31188BFF36F8FBDE8F840FEF70B
:101FB40063BFC2E90001A36A1A60A262E2E700BF3C
:101FC4000C02002034010020431C10B5044605D146
:101FD4000B4B986800F034F8204610BD0A204443A7
:101FE40009D1FFF7A3FF2046E1170A220023FEF7D9
:101FF400CFF80446F0E72046FFF75EFF0446F2E719
:102004000C020020014B9868704700BF0C020020AE
:1020140030B587B004460E9D04950D9D03950C9D27
:1020240002950B9D01950A9D0095FEF79BFF034BBE
:102034009B6803B11B6E236607B030BD0C02002001
:1020440038B504464FF01003EFF3118583F311887C
:10205400BFF36F8FFFF7A0FE074B9B68A34205D128
:1020640029460648BDE8384000F0AEBC85F3118827
:10207400BFF36F8F38BD00BF0C0200204A0200205E
:10208400F0B5204E204D87B03746B54205F13004F7
:102094000BD3FFF749FD1C4C1C4E0A25BC4221D32F
:1020A40007B0BDE8F040FFF78DBD54F8043C05933C
:1020B40054F8103C049354F8143C039354F8183C1B
:1020C400029354F81C3C019354F8203C009354E9C7
:1020D4000A2354E90C01FFF79BFF54F8303CDD64FC
:1020E4002546D2E7626A531C03D020681AB9FFF769
:1020F400B9FD3034D2E76A4301323146183000F07A
:1021040041F8F6E77410002074100020432A0008F8
:10211400034B1B680BB9FEF783BE0020704700BF5A
:1021240044020020036840B1074A5268904204D038
:102134001BB19A6881680A449A60426813605A60C5
:102144000023C0E900337047B80F00200B4B10B5D3
:102154001C689C4208BF0024FFF7DAFF54B1A3684F
:10216400181A20EAE070064B1B6913B19842A8BF05
:10217400184610BD6FF00040F5E700BFB80F00200F
:102184000C02002070B504461646C1604FF01003DF
:10219400EFF3118583F31188BFF36F8FFFF7B8FF57
:1021A400184B1A68012EACBF801901309A42A06006
:1021B40001D05E6832B95A6862605A68236014605C
:1021C4005C600AE09068A168884215DD411A91605C
:1021D4005168C4E900210C6054601A689A4206D020
:1021E400944204D1FFF7B2FF0021FEF7B5FD85F359
:1021F4001188BFF36F8F70BD091A9642A160DAD0BF
:102204001268D7E7B80F00202DE9F0470646FFF71C
:102214008DFD4FF01003EFF3118483F31188BFF3A6
:102224006F8F204DDFF88080DFF880A02E60C146DC
:10223400DAF800002A685045D8E9006705D020B1D3
:102244008368934213DD9B1A8360B61847EBE277E9
:10225400C9E9006700262E60FFF778FF3146FEF7D4
:102264007BFD84F31188BFF36F8FBDE8F087F61808
:1022740047EBE377D31A2B6000238360C8E9006738
:10228400FFF750FF84F31188BFF36F8FC36898473B
:102294004FF01003EFF3118483F31188BFF36F8FB2
:1022A400C6E700BF4402002000000020B80F002051
:1022B40010B54FF01003EFF3118483F31188BFF3CB
:1022C4006F8FFEF7ADFD064BD3E90023121843F1DF
:1022D400000384F31188BFF36F8F1046194610BDB5
:1022E4000000002038B5074C074DAC4201D3002054
:1022F40038BD04F114032046C4E9053300F006F8A0
:102304001C34F2E774100020741000202DE9F04F03
:1023140046680789016890F80A80FF2306FB07FCDA
:10232400C3726144324600234FF00C09984505DC22
:10233400002319468F4220DCBDE8F08FD0F80CA0B2
:10234400BCFBF2F509FB03FE0AEB0E0404F1040BDB
:10235400202DC4E901BB05D8C372920822F0030200
:102364000133E3E715F11F0448BF05F13E0464118E
:102374004AF80E1001EB8401EFE7C268056802F128
:10238400040CEC1845F803C0956865609568013144
:102394002C6033449460CDE70020704770B5044648
:1023A4000D464520A04729465220A04729462346EA
:1023B4005220BDE8704018470FB407B504A951F87E
:1023C400040B0191FEF780FA03B05DF804EB04B04E
:1023D4007047044608B5084611461A46A047FFF759
:1023E40011FEFEF72BFF7047024601210020FEF785
:1023F400BDBA024602210120FEF7B8BA0246032103
:102404000220FEF7B3BA024604210320FEF7AEBA57
:10241400024605210420FEF7A9BA02460A21052036
:10242400FEF7A4BA024610210A20FEF79FBA02461C
:1024340011211020FEF79ABA024613211220FEF74A
:1024440095BA024616211520FEF790BA02461721C6
:102454001620FEF78BBA002208B511460620FEF7B7
:1024640069FD002211460720FEF764FD0022114693
:102474000820FEF75FFD002211460920FEF75AFDF1
:10248400002211460A20FEF755FD002211461720AE
:10249400FEF750FD002211462820FEF74BFD0022D6
:1024A40011460120FEF746FD002211462A20FEF7C0
:1024B40041FD002211460220FEF73CFD0022114698
:1024C4000320FEF737FD002008BD4FF4A87308224F
:1024D400C0E900234FF48033836070477047FEF7F0
:1024E4008BBD00F056BA0146006800F052BA08B538
:1024F400FEF78CFDBDE80840FEF7B0BC431E013971
:1025040013F8012F11F8010F824201D1002AF7D1EB
:10251400101A7047F0B581EA0004A50703460BD0F2
:10252400013B0A4491421BD1F0BD002AFCD011F8B2
:10253400014B03F8014B013A9C07F6D122F0030446
:102544001D1F96080F19B94205D16FF0030505FB4D
:1025540006222344E4E751F804CB45F804CFF2E71C
:1025640011F8014B03F8014FDCE770B5C9B203461B
:102574009C0711D141EA012422F0030644EA0445F0
:102584001E449408B3420DD16FF0030505FB0422E9
:102594001A44934209D170BD002AFCD003F8011BF0
:1025A400013AE5E743F8045BECE703F8011BF0E7C5
:1025B4004FF0FF3070478A685368C340DB0770B53B
:1025C4000E4615D5916899B10C680125002C38BFC9
:1025D400002485408A682A4002D04B6830469847D8
:1025E40034B12368002B38BF002321461C46F1E791
:1025F40070BD03689B685B681B690B6000207047B3
:1026040003689B685B68586942400A4042405A61CB
:102614000020704703689B685B68002099617047DD
:1026240003689B685B68090499610020704703682C
:102634009B685A6853694B40536100207047836814
:10264400986830B558B10024814213D108685CB948
:10265400DC689860A14200D1D8600020086072B99B
:10266400002030BD2846EFE72060D868814208BFCB
:10267400DC60F2E705680446002DF3D13AB19A68AC
:102684000A60D86899600028EAD1D960E9E76FF058
:102694001500E6E78268012303FA01F153680B434E
:1026A4005360002070478268012303FA01F15368E4
:1026B40023EA0103536000207047F0B50124D0F8E9
:1026C40000C08C4002F03006C2F3011594FAA4F75E
:1026D400B7FA87F74FF0030E7F000EFA07F72CEADC
:1026E400070C94FAA4F7B7FA87F77F00BD4045EAD0
:1026F4000C05202E056015D1072948DC076A94FAD9
:10270400A4F50DB1B5FA85F60F25B60005FA06F65F
:1027140027EA060694FAA4F5B5FA85F5AD00AB40B0
:10272400334303624568C2F3801303FA01F125EAD7
:10273400040319434160C2F3C113856894FAA4F1F8
:10274400B1FA81F10326490006FA01F125EA0105EF
:1027540094FAA4F1B1FA81F149008B402B438360D0
:10276400C2F34122C16894FAA4F3B3FA83F35B0081
:1027740006FA03F321EA030394FAA4F4B4FA84F402
:10278400640002FA04F41C43C4600020F0BD476AEC
:10279400250A95FAA5FCBCF1000F01D0BCFA8CF611
:1027A4004FF00F0CB6000CFA06F627EA060695FA67
:1027B400A5F5B5FA85F5AD00AB4033434362B1E707
:1027C40038B51346026895689A050C4616D59907DC
:1027D4000DD55A072ED55022D9060AD542F40072D7
:1027E40019051BD50121A140FFF714FF0FE01022AA
:1027F400F2E79906F4D542F48062F1E7D90514D5DD
:10280400DA0614D413F0200218BF4FF4806268680B
:1028140000232146FFF751FF002038BD5B05F6D5A4
:102824000121A140FFF7FCFEF1E73022EFE74FF46E
:102834000072ECE76FF02200EFE782B003680193C7
:10284400019B43680193019B02B0704708B503687C
:102854009B68186803681A0701D5FFF7EEFF036841
:102864009B0643BF43680B7000204FF0FF3008BD48
:1028740003689B681B681A681206FCD56FF0400257
:102884001A605960704708B503689B681868026845
:102894000368DB070368C2F3C00248BF42F00202C8
:1028A400990748BF42F00402D30701D5FFF7C5FFDB
:1028B400910701D5FFF7C1FF530701D5FFF7BDFF0E
:1028C400FFF7BBFF104608BD036837B50D4699688E
:1028D400836851F8084B5868436801AADB68984735
:1028E400002812DB0199642219234B43A900B3FB8E
:1028F400F1F1B1FBF2F002FB10131B013233B3FB15
:10290400F2F303EB00139BB2A36003B030BD836802
:102914001B680B6003689B681A68D36803F4C06380
:10292400B3F5806F23D0A3F5C060434243410B71DC
:10293400136903F44053B3F5805F1AD0B3F5405FD5
:1029440019D0002B14BF032301234B71D36813F454
:10295400805F14BF042303238B71536903F4407312
:10296400A3F5407253425341CB71002070470223B8
:10297400DDE70023E9E70223E7E74FF01002EFF376
:10298400118382F31188BFF36F8FFEE708B5FFF759
:10299400F4FFF8B505460E464FF01003EFF3118728
:1029A40083F31188BFF36F8FFFF72CFB3146044686
:1029B4002846FFF7EBFF87F31188BFF36F8F20469C
:1029C400BDE8F840FEF73ABC21B9EFF3058008B939
:1029D400FEF752BA81F31188BFF36F8F7047034635
:1029E40020B9EFF305820AB9FEF746BA83F31188DA
:1029F400BFF36F8F70474FF01003EFF3118083F331
:102A04001188BFF36F8FFFF7EABF03460068834264
:102A140003D0002838BF002070470020704710B54D
:102A24004FF01003EFF3118483F31188BFF36F8F1A
:102A3400FFF7E4F884F31188BFF36F8F10BD38B546
:102A440050F8103C0446A0F11801C3B14FF0100334
:102A5400EFF3118583F31188BFF36F8F50F8100CD7
:102A6400FFF776F814F80B3C23F0020304F80B3C50
:102A7400002344F8103C85F31188BFF36F8F14F8DA
:102A84000B3C23F0140304F80B3C0846BDE8384023
:102A9400FFF7C5BF10B54FF01003EFF3118483F3B4
:102AA4001188BFF36F8FFFF7EDF984F31188BFF33B
:102AB4006F8F10BD10B5029C04738373042400232C
:102AC400C0E90633C0E91333C0E916124473C37373
:102AD40010BD10B54FF01002EFF3118482F311888A
:102AE400BFF36F8F03683BB1FFF71CFB002084F337
:102AF4001188BFF36F8F10BD6FF01500F7E710B5A5
:102B04004FF01003EFF3118483F31188BFF36F8F39
:102B1400FFF71CFB84F31188BFF36F8F10BD70B5F2
:102B240004460D464FF01003EFF3118683F311882A
:102B3400BFF36F8FFFF70AFB012805DDA04203DD19
:102B440029462046FEF708F986F31188BFF36F8FF4
:102B540070BD08B5FFF7ACFB08BD08B54FF0100217
:102B6400EFF3118382F31188BFF36F8FFFF7C7FF71
:102B740001210228D8BF0846FFF7D1FFFEF736FA35
:042B8400ECE77047C3
:082B88003CD6FF7F01000000B4
:102B900000000000E3240008FC0F0020332400089C
:102BA000FC0F002047240008FC0F002051240008DF
:102BB00000000000E324000800000000E3240008F7
:102BC000FC0F0020ED230008FC0F0020F723000875
:102BD000FC0F002001240008FC0F00200B2400083B
:102BE000FC0F00201524000800000000E32400086A
:102BF00000000000E324000800000000E3240008B7
:102C000000000000E324000800000000E3240008A6
:102C100000000000E324000800000000E324000896
:102C200000000000E324000800000000E324000886
:102C300000000000E324000800000000E324000876
:102C400000000000E3240008FC0F00201F240008FF
:102C500000000000E324000800000000E324000856
:102C600000000000E324000800000000E324000846
:102C700000000000E324000800000000E324000836
:102C800000000000E324000800000000E324000826
:102C900000000000E324000800000000E324000816
:102CA00000000000E324000800000000E324000806
:102CB00000000000E324000800000000E3240008F6
:102CC00000000000E324000800000000E3240008E6
:102CD000FC0F00202924000800000000E324000865
:102CE000FC0F00203D24000800000000E324000841
:102CF00000000000E324000800000000E3240008B6
:102D000000000000E324000800000000E3240008A5
:102D100000000000E324000800000000E324000895
:102D200000000000E324000800000000E324000885
:102D300000000000E324000800000000E324000875
:102D400000000000E324000800000000E324000865
:102D500000000000E324000800000000E324000855
:102D600000000000E324000800000000E324000845
:102D700000000000E324000800000000E324000835
:102D800000000000E324000800000000E324000825
:102D900000000000E324000800000000E324000815
:102DA00000000000E324000800000000E324000805
:102DB00000000000E324000800000000E3240008F5
:102DC00000000000E324000800000000E3240008E5
:102DD00000000000E324000800000000E3240008D5
:102DE00000000000E324000800000000E3240008C5
:102DF00000000000E324000800000000E3240008B5
:102E000000000000E324000800000000E3240008A4
:102E100000000000E324000800000000E324000894
:102E200000000000E324000800000000E324000884
:082E300000000000E32400088B
:102E3800FC300008E908000800000000FC30000829
:102E48005509000800000000473000085B2400080E
:102E58000000000069300008750B00080000000041
:102E680072300008250D000800000000FC30000842
:102E78007513000800000000FC300008F11300087A
:102E8800000000008B30000839150008B42F000836
:102E98009130000839150008A02F00089730000865
:102EA800391500088C2F00089D30000839150008D6
:102EB800782F0008A330000839150008642F00088F
:102EC8003A30000839150008502F00084030000833
:102ED80069160008F42F0008FC300008E9220008F1
:042EE80000000000E6
:102EEC000300000000400000010000000200000090
:102EFC00040000000800000010000000FFFFFFFFAE
:102F0C00FFFFFFFF80000000FFFFFFFFFFFFFFFF41
:102F1C00FFFFFFFF02000000282F00080000000840
:102F2C007C300008240002070000002084300008D8
:102F3C0020000B110200000027020000030000001B
:102F4C0027000000FFFF000000000240000000000E
:102F5C000000000001000000FFFF00000004024020
:102F6C00010000000000000002000000FFFF000054
:102F7C0000080240020000000000000004000000F5
:102F8C00FFFF0000000C02400300000000000000E6
:102F9C0008000000FFFF00000010024004000000C9
:102FAC000000000010000000FFFF0000001C0240A9
:102FBC00070000000000000080000000C52700088A
:102FCC00F725000805260008192600082526000804
:102FDC00332600080514000843260008992600082B
:102FEC00AB26000800000000004400400000000078
:102FFC000200000000000200000000005128000840
:10300C00752800088B2800085D1500081329000896
:10301C00C00F0020201000202C1000207410002065
:10302C0074100020F5FFFFFF001000000030475027
:10303C00494F4100554152545F320073746D333225
:10304C002D6578746900060708090A1717171717F2
:10305C0028282828282801FF2AFFFF020373746DF3
:10306C0033322D6363007379735F636C6F636B0032
:10307C00464C4153485F30005352414D5F3000473E
:10308C0050494F48004750494F45004750494F441D
:10309C00004750494F43004750494F420000000041
:1030AC000000000000010203040607080976322E16
:1030BC00322E302D7263312D3238302D6735383940
:1030CC00303861613564303036002A2A2A20426F4C
:1030DC006F74696E67205A6570687972204F53203F
:1030EC006275696C64202573202573202A2A2A0AAC
:0C30FC00006D61696E0069646C65000085
:103108009D2300088D0A0008FD0A00080000000041
:10311800510B000800000000B525000800C201009E
:10312800000000000024F400B80F0020B80F0020B1
:10313800382E000800000000000000005C2E000887
:10314800940F002000000000802E000800000000FE
:1031580000000000E02E0008000000000000000051
:10316800742E00080000000000000000502E000827
:10317800000000000C000020D42E000808300008D1
:10318800AC0F0020442E00080000000000000000E2
:10319800682E000800000000000000008C2E0008C7
:1031A800C82F000824010020982E0008C82F000806
:1031B80014010020A42E0008C82F000804010020D4
:1031C800B02E0008C82F0008F4000020BC2E00080C
:1031D800C82F0008E4000020C82E0008C82F0008E7
:0431E800D4000020EF
:1031EC00741000207410002000000000000000008B
:0431FC000F000000C0
:040000050800106D72
:00000001FF
