:020000040800F2
:10000000300600204510000819270008D50F000809
:10001000D50F0008D50F0008D50F0008D50F000830
:10002000D50F0008D50F0008D50F0008E10E000815
:10003000D50F0008D50F0008990E0008CD0C000858
:100040001D1000081D1000081D1000081D100008DC
:100050001D1000081D1000081D1000081D100008CC
:100060001D1000081D1000081D1000081D100008BC
:100070001D1000081D1000081D1000081D100008AC
:100080001D1000081D1000081D1000081D1000089C
:100090001D1000081D1000081D1000081D1000088C
:1000A0001D1000081D1000081D1000081D1000087C
:1000B0001D1000081D1000081D1000081D1000086C
:1000C0001D1000081D1000081D1000081D1000085C
:1000D0001D1000081D1000081D1000081D1000084C
:1000E0001D1000081D1000081D1000081D1000083C
:1000F0001D1000081D1000081D1000081D1000082C
:100100001D1000081D1000081D1000081D1000081B
:100110001D1000081D1000081D1000081D1000080B
:100120001D1000081D1000081D1000081D100008FB
:100130001D1000081D1000081D1000081D100008EB
:100140001D1000081D1000081D1000081D100008DB
:100150001D1000081D1000081D1000081D100008CB
:100160001D1000081D1000081D1000081D100008BB
:100170001D1000081D1000081D1000081D100008AB
:0C0180001D1000081D1000081D100008D4
:10018C0053B94AB9002908BF00281CBF4FF0FF31F2
:10019C004FF0FF3000F06EB9ADF1080C6DE904CEF4
:1001AC0000F006F8DDF804E0DDE9022304B0704746
:1001BC002DE9F047089D0E4604468C46002B40F076
:1001CC0081808A42174645D9B2FA82F24AB1C2F10D
:1001DC00200106FA02F320FA01F1974041EA030CE0
:1001EC0094404FEA174E230CBCFBFEF6B9B20EFB43
:1001FC0016CC43EA0C4306FB01F0984209D9FB18D4
:10020C0006F1FF3C80F01581984240F21281023ECB
:10021C003B441B1AA4B2B3FBFEF00EFB103344EAB2
:10022C00034400FB01F1A14209D93C1900F1FF3351
:10023C0080F00181A14240F2FE8002383C44641AF5
:10024C0040EA064000211DB1D4400023C5E900431B
:10025C00BDE8F08702B9FFDEB2FA82F2002A4FD174
:10026C00CB1B4FEA174E1FFA87F80121B3FBFEFC9C
:10027C00260C0EFB1C3346EA034608FB0CF3B34278
:10028C0007D9BE190CF1FF3002D2B34200F2EB8059
:10029C008446F61AA3B2B6FBFEF00EFB106643EAD8
:1002AC00064408FB00F8A04507D93C1900F1FF33C0
:1002BC0002D2A04500F2D2801846A4EB080440EA12
:1002CC000C40C0E78B4208D9002D00F0AF80002114
:1002DC00C5E900060846BDE8F087B3FA83F10029AA
:1002EC0049D1B34202D3824200F2BB80841A66EB3E
:1002FC00030301209C46002DAAD0C5E9004CA7E7BA
:10030C00C2F120039740D8409140DE404FEA174E8F
:10031C0008434FEA104CB6FBFEF11FFA87F80EFBB0
:10032C0011664CEA064601FB08F3B34204FA02F4E8
:10033C0009D9BE1901F1FF3C80F08E80B34240F226
:10034C008B8002393E44F31A86B2B3FBFEF00EFBEF
:10035C00103346EA034600FB08F3B34207D9BE1933
:10036C0000F1FF3C74D2B34272D902383E44F31A06
:10037C0040EA01417AE7C1F1200703FA01F422FABD
:10038C0007F31C4320FA07F906FA01F34FEA144C61
:10039C00FE4049EA03094FEA1943B6FBFCFE1FFA7B
:1003AC0084F80CFB1E6643EA06460EFB08FAB245BF
:1003BC0002FA01F200FA01F308D9A6190EF1FF3086
:1003CC0048D2B24546D9AEF1020E2644A6EB0A0637
:1003DC001FFA89F9B6FBFCF00CFB106649EA0646DD
:1003EC0000FB08F8B04507D9A61900F1FF3C2DD247
:1003FC00B0452BD90238264440EA0E40A6EB08063D
:10040C00A0FB02894E45C446CE4618D315D075B311
:10041C00B3EB0C0266EB0E0606FA07F722FA01F3B1
:10042C00CE401F43C5E90076002111E72946284636
:10043C000EE76646EDE6184601E74345E7D2B8EB12
:10044C00020C69EB04040138A646E0E76046D3E7EA
:10045C0060468CE78646B9E7614674E702383C444F
:10046C002BE7084647E7ACF1020C3E4411E729465E
:10047C00EEE600BF704700BF70B5154801F064FB95
:10048C00044608B3856843684FF4D0521B680321B7
:10049C009847002817D12B6823F008032B600125FF
:1004AC00A3681B6885F0010613F0080F18BFF5B29E
:1004BC005DB16368DB68082120469847F5B2C82017
:1004CC0001F0BAFEECE7EADA70BD63681B69F2E78B
:1004DC00A23300080B6801330B60014B1B681847F3
:1004EC00700F00202DE9F04F85B09B460E9CDFF875
:1004FC009090012CB8BF0124012B0CBF302320237A
:10050C00154606468A46029301274FF00A08002238
:10051C00B5FBF9F301930AB9A9451FD8019B5146C4
:10052C0003F13000B04701370122019B08F1FF387D
:10053C00B8F1010F09FB13554FF00A03B9FBF3F99E
:10054C00E6D1514605F13000B047BBF1030F02D1A3
:10055C00E41B002C0EDC05B0BDE8F08F4445E4DB59
:10056C00BBF1020FE1D8029803925146B047013714
:10057C00039ADAE751462020B047013CE9E700BF77
:10058C0000CA9A3B014B1860704700BF700F0020E7
:10059C002DE9F04F8DB01C460027531E05468B46A7
:1005AC0003934FF0FF39B846002605E06EB92528B5
:1005BC0000F071815946A847039B13F8010F039370
:1005CC000028F3D10DB0BDE8F08F7A280AD8622844
:1005DC0010D8302854D045D8252800F05A812D2821
:1005EC0000F05F8159462520A847039B187859468F
:1005FC00A847D9E7A0F16303172BF3D801A252F84F
:10060C0023F000BF97080008DB060008F10500087E
:10061C00F1050008F1050008BD060008DB0600081E
:10062C00F1050008F1050008BD060008F1050008F9
:10063C00F1050008F10500087D070008F105000828
:10064C00F105000867080008F10500084B070008D1
:10065C00F1050008F105000879060008F10500080D
:10066C00BD06000839281AD95828BBD1039B1B7822
:10067C00702B40F0888054F8043B0693002290E0E5
:10068C00B9F1000F0EDAB8F1000F00F00D81A0F1F6
:10069C003009B8F1000F08BF4FF002088CE7B9F130
:1006AC00000FF4DB0A2303FB0909A9F13009F0E779
:1006BC00682803D1682F06D148277DE76C2802D122
:1006CC006C2F00F0F480002F8CD1074674E77A2F42
:1006DC0002D154F8046B21E06C2FFAD04C2FF8D1D6
:1006EC00073424F00704F4E80223CDE90423049B27
:1006FC0013F10041059B089143F100010991DDE9DB
:10070C00082300214FF0FF30994208BF904204D2D9
:10071C005946284601F07AFF46E7049E002E05DA7A
:10072C0059462D20A847764209F1FF39CDF80090A3
:10073C004346324659462846FFF7D4FE34E77A2F13
:10074C0002D154F8042B0FE06C2FFAD04C2FF8D1B7
:10075C00073424F00704F4E8022300214FF0FF30A3
:10076C00994208BF9042D3D3CDF800904346E1E7BD
:10077C0059463020A84759467820A8474FF0080919
:10078C004FF0010872E76C2F3FF475AF4C2F7FF4DC
:10079C0072AFE31D23F007031C4654F8082B069296
:1007AC005A6800211023049107914FF0400AAAF1D6
:1007BC00040A0699CAF1200EAAF1200C21FA0AF0BB
:1007CC0002FA0EFE40EA0E0022FA0CFC40EA0C0083
:1007DC0010F00F0007D1079911B9BAF1000F25D10C
:1007EC004FF0300C05E009288CBF4FF0570C4FF040
:1007FC00300C6044594640B20A920793A847049BB8
:10080C000A9A01330493079BBAF1000F23D1B8F174
:10081C00030F7FF4C9AE049BC3EB4906002E7FF790
:10082C00C3AE59462020A847013EF7E7591E99450B
:10083C000A9107DBB8F1010F06D10B925946302013
:10084C00A8470B9A0A9BB2E7B8F1020FFAD10B92A8
:10085C0059462020F4E70796A9E754F8046BB246F2
:10086C0053461AF8010B68B9B8F1030F21D19E1B3E
:10087C00A9EB0606002E7FF797AE59462020A84715
:10088C00013EF7E75946A847EAE754F8040B5946E6
:10089C00AEE65946ACE63746B0464FF0FF39012676
:1008AC008AE64FF0030887E64FF0010884E64C27F0
:1008BC0082E6064680E600BF07B50B4600210246DD
:1008CC000191034801A9FFF763FE03B05DF804FB37
:1008DC00E10400084FF01002EFF3118382F311884A
:1008EC00BFF36F8F83F31188BFF36F8F024B034AF3
:1008FC001A600020704700BF940F002000093D00D3
:10090C000A2838B5074D044604D1286843680D21E0
:10091C005B68984728684368E1B25B689847204653
:10092C0038BD00BF0800002010B5044C204600F074
:10093C0093FC2046BDE81040FFF724BE0D090008CB
:10094C0008B5044801F000F9034B1860FFF7ECFF01
:10095C00002008BDA8330008080000202DE9F8434A
:10096C0096680D4F04460D464FF0010806F1040938
:10097C00AC4201DBBDE8F8837A6908FA04F333EA88
:10098C00020207D17B6156F834301BB159F8341090
:10099C00204698470134EBE700040140044A012348
:1009AC00116883400B431360024B185600F0A2BA37
:1009BC0000040140BA3300081F2807DC0449012257
:1009CC000B6802FA00F023EA00000860704700BFD1
:1009DC000004014003290FD8DFE801F0020F1723B0
:1009EC00154B0122996802FA00F021EA0001996086
:1009FC00DA6822EA0000D8607047012303FA00F09D
:100A0C000D4B9A6802439A60F2E7012303FA00F057
:100A1C00094BDA680243DA609A6822EA00009860AF
:100A2C007047012303FA00F0034B9A6802439A6063
:100A3C00DA681043DFE700BF0004014003460748B3
:100A4C0030B5846854F8330004EBC30518B944F886
:100A5C0033106A6030BD6FF00F00FBE7D00F002041
:100A6C00044B9A6802EBC001002342F830304B6013
:100A7C00704700BFD00F00200B6886B0042B38D80D
:100A8C00DFE803F0030F192D23001B4A4B68916C10
:100A9C0019439164926C13400193019B002006B0A2
:100AAC007047154A4B68D16C1943D164D26C134012
:100ABC000293029BF2E7104A4B68916D19439165C2
:100ACC00926D13400393039BE8E70B4A4B68D16D7F
:100ADC001943D165D26D13400493049BDEE7064A9B
:100AEC004B68116E19431166126E13400593059BEA
:100AFC00D4E76FF02200D2E7001002400B68042B01
:100B0C0028D8DFE803F0030B12201900134A4968B8
:100B1C00936C23EA01039364002070470F4A4968E1
:100B2C00D36C23EA0103D364F6E70C4A4968936D4E
:100B3C0023EA01039365EFE7084A4968D36D23EA7A
:100B4C000103D365E8E7054A4968136E23EA0103FC
:100B5C001366E1E76FF02200704700BF00100240FF
:100B6C000B68042B9FBF044B1B681360002088BFCD
:100B7C006FF02200704700BF940F002010B586B0B4
:100B8C0000231D4C0293CDE9003301F0B6FD03A800
:100B9C0001F0ABFD23685A0506D4236843F4807337
:100BAC00236023685B05FCD5A36823F0030343F0A3
:100BBC000103A360A36823F0F003A360A36803F010
:100BCC000C03042BFAD1236823F080732360E368B1
:100BDC0023F4C00343F48003E360694603A800F0E8
:100BEC006DFF236823F4803323602368002023F0F7
:100BFC000103236006B010BD0010024073B504461B
:100C0C0006090D46104612B9104800F09DFF01234D
:100C1C0000930F4B53F826300193013302D16FF040
:100C2C00040010E0436869461B6898470028F6D119
:100C3C002011800205F00F032A4604F00F0100F189
:100C4C00904001F048FE02B070BD00BFCA330008EE
:100C5C0088320008F8B504460D46094800F074FFC8
:100C6C0000260746AE4204F1080400D1F8BD54F842
:100C7C00041C14F8080C3A46FFF7C0FF0136F1E7E4
:100C8C00CA3300080B4B9A68196898680A4B11F420
:100C9C00803F10B5094901D1824205D21A680C680F
:100CAC0022441A60034A12681B680A681344181A13
:100CBC0010BD00BF10E000E0980000209400002060
:100CCC0008B5FFF7DFFF0C4B0C4A18681168084495
:100CDC00106000221A600A4A11684FF4FA53401A45
:100CEC00B0FBF3F003FB0013136001F0C5FBBDE890
:100CFC00084000F0A3B800BF98000020900000202E
:100D0C008C000020094B102283F82320084B41F65D
:100D1C003F721A60074B00201860074B5A609860AE
:100D2C001A6842F007021A60704700BF00ED00E03D
:100D3C00940000209800002010E000E070B52A4DCF
:100D4C00044651B1421C0CD1284A136823F001030C
:100D5C0013604FF07F432B6070BD431C08BF4FF4F2
:100D6C0003644FF01003EFF3118683F31188BFF384
:100D7C006F8FFFF787FF1E4B1A68104418601D4BCE
:100D8C0000221A601C4B1B68C21A0DD54FF48063ED
:100D9C002B602B68154A013B53600023936086F34C
:100DAC001188BFF36F8FD7E7013C24EAE474B4F5E4
:100DBC00036F02F5F9524FF4FA51A8BF4FF40364D4
:100DCC001F32181A01FB0424B4FBF1F401FB0404D8
:100DDC00B4F5806F04D9094B9C42D9D82C60D8E764
:100DEC004FF48064FAE700BF9400002010E000E0AC
:100DFC0090000020980000208C00002000DCFF00F8
:100E0C0010B54FF01003EFF3118483F31188BFF387
:100E1C006F8FFFF737FF074B074A1B6812689B1A47
:100E2C00034484F31188BFF36F8F4FF4FA50B3FB74
:100E3C00F0F010BD900000208C0000200448816868
:100E4C00006A884203D003494FF080520A60704711
:100E5C00EC01002004ED00E0094A0A499368096896
:100E6C0019660949D8654B6843F080534B600023E1
:100E7C0083F31188BFF36F8F9368186E704700BFB0
:100E8C00EC0100209833000800ED00E00F498A685F
:100E9C004FF028001044EFF3098C80E8F01F10206D
:100EAC0080F31188BFF36F8F094F4FF000660A6A09
:100EBC008A603E60D06D0023D36580F3118802F107
:100ECC00280090E8F01F8CF309887047EC01002093
:100EDC0004ED00E01EF0040F0CBFEFF30880EFF3FD
:100EEC000980816911F8021C0229FFD001B501F0BB
:100EFC0009FC01BD43B2002B08DB012200F01F00EE
:100F0C0002FA00F05B09024A42F82300704700BF66
:100F1C0000E100E043B2002BA8BF03F1604301F1F4
:100F2C000101B8BF064B4FEA0111ACBF03F5614399
:100F3C0000F00F00C9B2B4BF195483F80013704706
:100F4C0014ED00E073B51E460A9B00938C18099BA8
:100F5C00054601F08BFFA4F120020A4B22F0070298
:100F6C0023F001039361069B5360079B9360089BDE
:100F7C00D3604FF08073D36100231660AA64EB65D5
:100F8C0002B070BD4F2600081144084A21F0070139
:100F9C009060184681F30988002163B681F31188AB
:100FAC00BFF36F8F0022002301F04BFBEC010020FC
:100FBC00014910220A60704710ED00E0404080F3B8
:100FCC00118830BF704700BFEFF30880EFF3098141
:100FDC00724601B500F092F801BD00BF30BFFFF7BB
:100FEC00FDBF00BF08B5084B084A23F07F03936090
:100FFC00BFF34F8FBFF36F8F00F0CCFD00F0D4FD2B
:10100C0000F0F8F800F00EFE0000000800ED00E023
:10101C0001B5EFF30580A0F110004FEAC0000449C0
:10102C00014409C99847BDE801400249084700003E
:10103C004C2F0008490E0008102080F31188084836
:10104C004FF40061401880F30988EFF314800221FB
:10105C00084380F31488BFF36F8FFFF7C3FF0000C2
:10106C00700700200C4B9A6A9A6A9A6A920708D504
:10107C005A6B9A6A120604D518B19A6A22F0800249
:10108C009A62054B9A6A9A6A9A6A9A6A002042F0A6
:10109C00FF029A620870704700ED00E00D4B9A6AEF
:1010AC009A6A9A6A920508D59A6B9A6A120404D5C0
:1010BC0018B19A6A22F400429A62064B9A6A9A6AAA
:1010CC00D20558BF9A6A9A6A002042F47F429A620B
:1010DC000870704700ED00E0074B9A6A9A6A9A6AAA
:1010EC009A6A9A6A9A6A9A6A6FEA02426FEA12429A
:1010FC009A620020704700BF00ED00E070B5364BDF
:10110C005B688AB00E46C3F30803002585F311888B
:10111C00BFF36F8F02F07F41B1F17F4F11D102F01D
:10112C000C0108290DD0110701D406460125002217
:10113C00033B8DF80720032B47D8DFE803F0043E70
:10114C00423B2E46F3E7244BDA6A92073DD4DC6A25
:10115C0014F0804408D028331B78EBB10DF1070153
:10116C000120FFF77FFF04469DF8073093B920223A
:10117C00314602A801F0DDFA099B45B3C3F308021E
:10118C0022B96FEA53236FEA4323099302A920463D
:10119C0001F0B6FA0AB070BD104B1B782BB10DF1F3
:1011AC0007010120FFF77AFFDDE70D4B188884B2A9
:1011BC00002CD9D0FFF790FFD5E70DF107010020E7
:1011CC00CFE70DF107010020ECE70024CCE723F476
:1011DC00FF7323F00103D8E700ED00E029ED00E0F8
:1011EC002AED00E0024A536943F010035361704743
:1011FC0000ED00E0044800231021C2180133532BEA
:10120C0082F80013F9D1704700E100E038B50446CC
:10121C004FF01003EFF3118583F31188BFF36F8F39
:10122C0000F026FF0A4B9B68A3420BD1094B5A686E
:10123C00C2F3080212B92846FFF70EFE5A6842F0B4
:10124C0080525A602846BDE8384001F0A4BD00BF6A
:10125C00EC01002000ED00E0014B1860704700BF6E
:10126C00880F002008B503480321FFF7F3FC00208A
:10127C0008BD00BFB43200082DE9F3411E460368D7
:10128C008768D3F80880B2F5005F0C462BD101F0CB
:10129C00030304339A000F23934043EA9103DAB219
:1012AC003E49023251F82220190C02EA134391FAFA
:1012BC00A1F2B2FA82F2D340D8F808209A4210D1A7
:1012CC002046FFF779FB2046FFF7CAFB204600219A
:1012DC00FFF780FB012303FA04F47B6823EA040381
:1012EC007B6000254BE0B2F5804F50D002462C4974
:1012FC002046FFF7A3FB054600284BD1012303FA38
:10130C0004F27B6813437B60D8F80870254800F022
:10131C001BFC2549034603C96A4682E80300596849
:10132C001846D1F800801146C04704F0030104317F
:10133C008B000F21994041EA9401CAB2920002F14C
:10134C00804202F580320B0C906820EA114193FA2E
:10135C00A3F3B3FA83F39F400F43B6F5802F976046
:10136C0011D0B6F5C02F10D0B6F5003F14BF002138
:10137C0002212046FFF72EFB2046FFF70FFB2846E5
:10138C0002B0BDE8F0810121F3E70321F1E76FF032
:10139C002205F4E76FF00F05F1E700BF00000140F4
:1013AC00E1270008CA33000880320008036810B532
:1013BC009C68064800F0C8FB436804F10C011B68EC
:1013CC009847002818BF6FF0040010BDCA330008FE
:1013DC00F0B589B01F4686689DF83830002A47D092
:1013EC00BA4245D3C3B903689B6801398C001968AC
:1013FC00224B99420BD0B1F1804F3CD0204821F4C4
:10140C008063834203D000F59830834204D16CB1E1
:10141C00142C04D93C2C06D06FF0220026E0194B7A
:10142C00E340DB07F8D5B1F1804F02D0B2F5803F35
:10143C00F2D80025336C3160013A7360F26035618B
:10144C00B5607561304601F0B4FB602301A92246FA
:10145C003046CDE90455CDE9065501930395029725
:10146C0001F0C1FB2146304601F051FC09B0F0BD42
:10147C006FF01500FAE7002CDBD0C9E7002C014017
:10148C00001000401011110038B5036885689C6885
:10149C00064800F059FB436868641B68211D984797
:1014AC00002818BF6FF0040038BD00BFCA33000815
:1014BC002DE9F84303680A799B6886681C68012A41
:1014CC000D4674D0022A0CBF4FF48061002195F8B0
:1014DC00059095F80680B9F1020F96BF384B4FF482
:1014EC00005E33F819E0B8F1020F63D0B8F1040FC5
:1014FC000CBF4FF480530023EF79033A012F14BF34
:10150C004FF0000C4FF4407C012A56D919F0FD0F16
:10151C0053D0B8F1010F50D967B12A4A944207D081
:10152C00A2F57442944203D002F57052944244D115
:10153C00012F42D1226822F001022260226802F4BB
:10154C00C06291421FBF276827F4C0670F43276012
:10155C00626802F4405296451FBF616821F4405105
:10156C0041EA0E0161602268296802F01022934260
:10157C001FBF226822F010221A432260A36803F4D2
:10158C0040739C451FBFA36823F4407343EA0C03CC
:10159C00A3603368994203D001F07BFA2B68336067
:1015AC00236843F0010323600020BDE8F8834FF467
:1015BC00C0618CE74FF080539EE76FF02200F4E798
:1015CC009C3300080038014003682DE9F041D3F842
:1015DC00088087684646054656F8084B1D4800F0BB
:1015EC00B3FA4368786031461B6898470646002872
:1015FC002CD1236823F001032360236843F00C03F0
:10160C002360236823F0805323F4B0532360636872
:10161C0023F44053636098F8103033B12B689B6807
:10162C001A68936843F4407393603968284601F054
:10163C0030FA236843F001032360E3699A02FCD576
:10164C00E3695B02FCD53046BDE8F0816FF004061F
:10165C00F9E700BFCA330008036A23F001030362F1
:10166C00036A70B5456882690C6822F4803222F0F6
:10167C00730222438C6823F002032343124CA042D2
:10168C0006D0124EB04203D006F58066B04214D19B
:10169C00CE6823F008033343A04223F0040306D0A2
:1016AC000A4CA04203D004F58064A04205D1D1E9D4
:1016BC00054625F4407534432543456082614A68EC
:1016CC004263036270BD00BF002C0140004001402A
:1016DC00036A23F480730362036A426870B5C469B9
:1016EC000D6824F4803424F073042C438D6823F4A7
:1016FC00007343EA05230F4DA8420ED1CD6823F4A5
:10170C00006343EA052323F48063D1E9055622F4F0
:10171C004052354342EA051205E0074DA842F4D089
:10172C00064DA842F1D042604A68C461C2630362AC
:10173C0070BD00BF002C014000400140004401403E
:10174C00036A23F480530362026A30B54468C369A8
:10175C000D6823F0807323F4E64343EA05238D6878
:10176C0022F4005242EA05320A4DA84207D005F590
:10177C00A055A84203D005F58065A84204D14D6957
:10178C0024F4804444EA85144460C3614B680364C8
:10179C00026230BD002C0140036A23F480330362E3
:1017AC00026A30B54468436D0D6823F4803323F02E
:1017BC0070032B438D6822F4003242EA05420B4D34
:1017CC00A84207D005F5A055A84203D005F58065C1
:1017DC00A84204D14D6924F4803444EA05244460C1
:1017EC0043654B688365026230BD00BF002C01402D
:1017FC00036A23F480130362026A30B54468436DB4
:10180C000D6823F0807323F4E04343EA05238D68CD
:10181C0022F4001242EA05520A4DA84207D005F5FF
:10182C00A055A84203D005F58065A84204D14D69A6
:10183C0024F4802444EA8524446043654B68C365E2
:10184C00026230BD002C01401A4A0368904210B568
:10185C0002D0B0F1804F09D14C6823F07003904254
:10186C0043EA040309D0B0F1804F06D0124A9042EB
:10187C0003D002F58062904203D1CA6823F440730E
:10188C0013434A6923F08003134303608B68C362DC
:10189C000B688362074B984207D003F5A05398421C
:1018AC0003D003F58063984201D10B6903630123D4
:1018BC00436110BD002C014000400140036A23F03D
:1018CC0010030362036A426870B584690D6824F0E2
:1018DC00807424F4E64444EA05248D6823F0200344
:1018EC0043EA05130E4DA8420ED1CD6823F08003B8
:1018FC0043EA051323F04003D1E9055622F4406274
:10190C00354342EA850205E0064DA842F4D0064D67
:10191C00A842F1D042604A6884618263036270BD60
:10192C00002C0140004001400044014010B5044629
:10193C000122006801F0DDF923680E4A934207D0BA
:10194C0002F5A052934203D002F58062934203D178
:10195C005A6C42F400425A649968074A0A40062AB3
:10196C0006D0B2F5803F1EBF1A6842F001021A6021
:10197C00002010BD002C014007000100054B1A6827
:10198C001B6802F0007203F00063134314BF0120C4
:10199C000020704700100240174B1B6803F4C06313
:1019AC00B3F5007F1AD1154B98421FD8144B9842AF
:1019BC001ED8144B98421DD8134B984294BF00204C
:1019CC000120124A136823F00703034313601368C2
:1019DC0003F00703181A18BF012070470C4B9842EC
:1019EC0006D80C4B984205D80B4BE6E70420E8E7E9
:1019FC000320E6E70220E4E7007000400090D003EB
:101A0C00006CDC020048E8010024F40000200240D5
:101A1C0080A81201001BB700808D5B0038B50B68E5
:101A2C00234A244DC3F30313D35C20FA03F42B682D
:101A3C00A34228D3204B1A6842F080721A60DA68ED
:101A4C0042F08072DA601A689201FCD59A680868D4
:101A5C0022F0F00202439A609A6842F003029A6004
:101A6C009A6802F00C020C2AFAD19A68486822F49F
:101A7C00E06202439A609A68896822F460520A43D1
:101A8C009A60002005E074B12046FFF785FF00281E
:101A9C00D0D02B68A34203D93CB12046FFF77CFF82
:101AAC0000B92C6038BD0120F3E70120FAE700BF34
:101ABC00F5330008940F00200010024070B5054665
:101ACC000C46FFF75BFF00BB2946114801F021F9DA
:101ADC00104A1368590506D4136843F480731360D5
:101AEC0013685B05FCD5D6680B4B6968334043EA39
:101AFC00012329680B43A9680B4343F002032146D9
:101B0C00D360BDE87040FFF789BF012070BD00BFF6
:101B1C000024F400001002408C80FFF9094B70B5D2
:101B2C0053F820400130002653F82050A54200D82D
:101B3C0070BD236820465B68984700B166600C3422
:101B4C00F4E700BF84330008104B70B5104C054609
:101B5C001E469C4204D10E4CB44209D1002412E022
:101B6C0062681AB122681268AA420CD00C34F0E7F1
:101B7C0063680BB90C34EFE723682846196800F04A
:101B8C00CCFD0028F6D1204670BD00BF3C100020D3
:101B9C00A00F00200248034A0021121A00F0F4BDE5
:101BAC00000000202C02002008B50648064A074910
:101BBC00121A00F0BEFDBDE80840054A054906486A
:101BCC0000F0B7BD700F00205010002054340008F6
:101BDC0000000000543400080000002008B50C4B35
:101BEC00012202201A70FFF799FF0A4A0A490B4892
:101BFC0000F01AFD0320FFF791FF00F079FBFEF7D0
:101C0C003BFC074A137B23F00103137308BD00BF91
:101C1C00280200204834000805340008223400084B
:101C2C008801002080B5364BA0B083F30888354D71
:101C3C00354E6B69DFF8ECA0DFF8EC90334F43F4D2
:101C4C0000736B610024F02385F82230EC772C763E
:101C5C006C76AC766B6A43F4E0236B62FFF7C2FAE6
:101C6C00FFF7A6F94FF0FF33AB62EB6207AB6422D0
:101C7C002146184600F088FD4FF00108B060204660
:101C8C008DF82980FFF74AFF4046214DFFF746FFAC
:101C9C0000F078FA1F4B35624FF480624946CDE96B
:101CAC00048328465346CDE90244CDE9004400F0B4
:101CBC00E7FA6B7B23F004036B73284601F08BF877
:101CCC00154B1649CDE904830F23CDE902434FF49C
:101CDC00A072134B3846CDE9004400F0D1FA7B7B5F
:101CEC00F76023F004037B7306F11803C6E906338F
:101CFC004FF48062534649462846FFF745F900BF2A
:101D0C00700F002000ED00E0EC0100202401002009
:101D1C0088010020493400084E34000830060020A9
:101D2C00192F0008E91B00083002002010B5084CE0
:101D3C0023685BB1FFF764F803462068054A034447
:101D4C00BDE810401361002101F0C2B810BD00BF06
:101D5C0020020020EC01002010B54FF01003EFF32F
:101D6C00118483F31188BFF36F8F084B00221A6123
:101D7C000A235843064B1860064B1960FFF7D6FF31
:101D8C0084F31188BFF36F8F10BD00BFEC010020EE
:101D9C00200200201C0200204FF01003EFF31181F1
:101DAC0083F31188BFF36F8F044B9A68D37B013B8D
:101DBC00D37381F31188BFF36F8F7047EC01002050
:101DCC00094B03F12402824205D19B688B4202D15C
:101DDC004B7BDB0606D1D1E9003213605A6000233D
:101DEC00C1E90033704700BFEC01002070B5104C06
:101DFC00064604F1240000F0E4FFA368597B054675
:101E0C00880644BF41F00801597305B9E5684EB91D
:101E1C005A7BD20606D1AA6922B9DA897F2A01D95E
:101E2C00236270BDAB4201D0FFF780FF2562F8E75B
:101E3C00EC01002010B54FF01003EFF3118483F385
:101E4C001188BFF36F8F084B9A68D37B0133D37320
:101E5C000020FFF7CBFF84F31188BFF36F8FBDE831
:101E6C00104000F0A4BF00BFEC01002070B4437B15
:101E7C00DB062AD1836943BB154A114651F8244F1E
:101E8C008C4218BF2346002B946A38BF0023B3B191
:101E9C0090F90E6093F90E50AE4203DBA3420ED0C4
:101EAC001B68F4E75A68C0E9003210605860437B45
:101EBC0063F07F03437370BC0020FFF797BFC0E94A
:101ECC000014936A18609062F1E770BC704700BF11
:101EDC00EC01002010B54FF01002EFF3118482F3E7
:101EEC001188BFF36F8F427B510704D484F31188A0
:101EFC00BFF36F8F10BD22F004024273FFF7B6FFE1
:101F0C0021460248BDE8104000F03ABF29020020EB
:101F1C00F8B501464FF01003EFF3118483F31188E9
:101F2C00BFF36F8F90F90D30002B02DA1948FFF7D1
:101F3C0047FF194A1046956A50F8243F834208BF60
:101F4C000023002B38BF0023EBB191F90E7093F9ED
:101F5C000E60B74203DB9D4215D01B68F4E758684E
:101F6C00C1E90030016059604B7B906863F07F03DE
:101F7C004B73431A58425841FFF738FF84F31188CA
:101F8C00BFF36F8FF8BDC1E90005936A19609162C8
:101F9C00EAE700BF10020020EC01002038B5154A1A
:101FAC00154B146801469868A0421C4603D1BDE845
:101FBC003840FFF7BBBE00251560104A1268B2B15D
:101FCC00C2897F2A13D80E4A90F90E501268954296
:101FDC000DDB0C4A90420AD0826942B91A698A42D6
:101FEC0002DCFFF795FFE2E7521A1A6138BD0023B5
:101FFC002361FBE718020020EC01002020020020E6
:10200C001C0200202401002070B50446183000F09A
:10201C0039FF4FF01003EFF3118683F31188BFF3F0
:10202C006F8F94F90D30002B07DA0F482146FFF71C
:10203C00C7FE637B03F07F0363730C4D637BA8685F
:10204C0043F010036373031B58425841FFF7CEFE55
:10205C0086F31188BFF36F8FAB68A34203D1BDE841
:10206C00704000F0A4BE70BD10020020EC010020F6
:10207C0038B5036D044603B1984704F1180000F01D
:10208C0001FF4FF01003EFF3118583F31188BFF3B9
:10209C006F8F637BD8061BD1A269CAB9190607D505
:1020AC0012482146FFF78CFE637B03F07F036373BA
:1020BC000F4B9868021B50425041FFF797FE637B11
:1020CC0043F00803637385F31188BFF36F8F38BD3A
:1020DC009B07F4D5A0682146FFF772FE637B23F0C3
:1020EC00020363730023A360E9E700BF1002002022
:1020FC00EC01002008B590F90D30002B014606DAF2
:10210C000748FFF75DFE4B7B03F07F034B73054BDA
:10211C009868431A58425841BDE80840FFF766BE1C
:10212C0010020020EC010020F8B5451C00F0EAFE7E
:10213C002C184FF01003EFF3118783F31188BFF3C2
:10214C006F8F0D4E0D4BB068186000F07FFEB068BD
:10215C000B492A46183000F04DF9B268537B43F016
:10216C00100353733846FEF777FE00F0CBFE201AAF
:10217C0020EAE070F8BD00BFEC010020180200203E
:10218C00032E0008044B002103F12402C3E90922A9
:10219C000846FFF7E1BD00BFEC010020F8B5244C68
:1021AC00244BA2689A4230D04FF01003EFF3118504
:1021BC0083F31188BFF36F8FA16804F12400FFF73C
:1021CC00FFFD636AA268A16A834208BF0023002B4B
:1021DC0038BF00232BB392F90E7093F90E60B742FF
:1021EC0003DB8B421DD01B68F4E75968C2E9003150
:1021FC000A605A60537B63F07F0353730120FFF72F
:10220C00F5FD85F31188BFF36F8F4FF01003EFF3DB
:10221C00118083F31188BFF36F8FBDE8F840FEF790
:10222C001BBEC2E90001A36A1A60A262E2E700BF0A
:10223C00EC01002024010020431C10B5044605D1FC
:10224C000B4B986800F034F8204610BD0A2044432C
:10225C0009D1FFF7A3FF2046E1170A220023FDF75F
:10226C008FFF0446F0E72046FFF75EFF0446F2E7D7
:10227C00EC010020014B9868704700BFEC01002076
:10228C0030B587B004460E9D04950D9D03950C9DAD
:10229C0002950B9D01950A9D0095FEF753FE034B8D
:1022AC009B6803B19B6DA36507B030BDEC010020AA
:1022BC0038B504464FF01003EFF3118583F3118802
:1022CC00BFF36F8FFFF7A0FE074B9B68A34205D1AE
:1022DC0029460648BDE8384000F052BD85F3118808
:1022EC00BFF36F8F38BD00BFEC0100202902002026
:1022FC00F0B5204E204D87B03746B54205F130047D
:10230C000BD3FFF749FD1C4C1C4E0A25BC4221D3B4
:10231C0007B0BDE8F040FFF78DBD54F8043C0593C1
:10232C0054F8103C049354F8143C039354F8183CA0
:10233C00029354F81C3C019354F8203C009354E94C
:10234C000A2354E90C01FFF79BFF54F8303CDD6481
:10235C002546D2E7626A531C03D020681AB9FFF7EE
:10236C00B9FD3034D2E76A4301323146183000F0FF
:10237C0041F8F6E73C1000203C100020032E00082A
:10238C00034B1B680BB9FEF73BBD0020704700BF29
:10239C0024020020036840B1074A5268904204D0DE
:1023AC001BB19A6881680A449A60426813605A604B
:1023BC000023C0E900337047980F00200B4B10B579
:1023CC001C689C4208BF0024FFF7DAFF54B1A368D5
:1023DC00181A20EAE070064B1B6913B19842A8BF8B
:1023EC00184610BD6FF00040F5E700BF980F0020B5
:1023FC00EC01002070B504461646C1604FF0100386
:10240C00EFF3118583F31188BFF36F8FFFF7B8FFDC
:10241C00184B1A68012EACBF801901309A42A0608B
:10242C0001D05E6832B95A6862605A6823601460E1
:10243C005C600AE09068A168884215DD411A9160E1
:10244C005168C4E900210C6054601A689A4206D0A5
:10245C00944204D1FFF7B2FF0021FEF76FFC85F325
:10246C001188BFF36F8F70BD091A9642A160DAD044
:10247C001268D7E7980F00202DE9F0470646FFF7C2
:10248C008DFD4FF01003EFF3118483F31188BFF32C
:10249C006F8F204DDFF88080DFF880A02E60C14662
:1024AC00DAF800002A685045D8E9006705D020B159
:1024BC008368934213DD9B1A8360B61847EBE2776F
:1024CC00C9E9006700262E60FFF778FF3146FEF75A
:1024DC0035FC84F31188BFF36F8FBDE8F087F618D5
:1024EC0047EBE377D31A2B6000238360C8E90067BE
:1024FC00FFF750FF84F31188BFF36F8FC3689847C1
:10250C004FF01003EFF3118483F31188BFF36F8F37
:10251C00C6E700BF2402002000000020980F002016
:10252C0010B54FF01003EFF3118483F31188BFF350
:10253C006F8FFEF765FC064BD3E90023121843F1AD
:10254C00000384F31188BFF36F8F1046194610BD3A
:10255C000000002038B5074C074DAC4201D30020D9
:10256C0038BD04F114032046C4E9053300F006F825
:10257C001C34F2E73C1000203C1000202DE9F04FF9
:10258C0046680789016890F80A80FF2306FB07FC60
:10259C00C3726144324600234FF00C09984505DCA8
:1025AC00002319468F4220DCBDE8F08FD0F80CA038
:1025BC00BCFBF2F509FB03FE0AEB0E0404F1040B61
:1025CC00202DC4E901BB05D8C372920822F0030286
:1025DC000133E3E715F11F0448BF05F13E04641114
:1025EC004AF80E1001EB8401EFE7C268056802F1AE
:1025FC00040CEC1845F803C09568656095680131CA
:10260C002C6033449460CDE70020704770B50446CD
:10261C000D464520A04729465220A047294623466F
:10262C005220BDE8704018470FB407B504A951F803
:10263C00040B0191FEF740F903B05DF804EB04B014
:10264C007047044608B5084611461A46A047FFF7DE
:10265C0011FEFEF7DBFD7047024601210020FEF75C
:10266C007DB9024602210120FEF778B9024603210A
:10267C000220FEF773B9024604210320FEF76EB95F
:10268C00024605210420FEF769B902460A210520FD
:10269C00FEF764B9024610210A20FEF75FB900224A
:1026AC0008B511460620FEF735FC0022114607201E
:1026BC00FEF730FC002211460820FEF72BFC00220E
:1026CC0011460920FEF726FC002211460A20FEF7CF
:1026DC0021FC002211461720FEF71CFC002211469B
:1026EC002820FEF717FC002008BD14230022C0E9A7
:1026FC0000234FF00073836070477047FEF764BC93
:10270C0000F023BB0146006800F01FBB08B5FEF7C4
:10271C0065FCBDE80840FEF791BB431E013913F878
:10272C00012F11F8010F824201D1002AF7D1101AA2
:10273C007047F0B581EA0004A50703460BD0013BB6
:10274C000A4491421BD1F0BD002AFCD011F8014B78
:10275C0003F8014B013A9C07F6D122F003041D1F2C
:10276C0096080F19B94205D16FF0030505FB062237
:10277C002344E4E751F804CB45F804CFF2E711F811
:10278C00014B03F8014FDCE770B5C9B203469C0757
:10279C0011D141EA012422F0030644EA04451E4407
:1027AC009408B3420DD16FF0030505FB04221A44C3
:1027BC00934209D170BD002AFCD003F8011B013AE9
:1027CC00E5E743F8045BECE703F8011BF0E74FF097
:1027DC00FF3070478A685368C340DB0770B50E46FC
:1027EC0015D5916899B10C680125002C38BF0024CF
:1027FC0085408A682A4002D04B683046984734B1ED
:10280C002368002B38BF002321461C46F1E770BD1E
:10281C0003689B685B681B690B600020704703684A
:10282C009B685B68586942400A4042405A610020EC
:10283C00704703689B685B68002099617047036868
:10284C009B685B6800209962704703689B685A68B4
:10285C0053694B405361002070478368986830B5CA
:10286C0058B10024814213D108685CB9DC689860C7
:10287C00A14200D1D8600020086072B9002030BDA0
:10288C002846EFE72060D868814208BFDC60F2E799
:10289C0005680446002DF3D13AB19A680A60D868ED
:1028AC0099600028EAD1D960E9E76FF01500E6E7F6
:1028BC008268012303FA01F153680B435360002033
:1028CC0070478268012303FA01F1536823EA01037C
:1028DC00536000207047F0B50124D0F800C08C4044
:1028EC0002F03006C2F3011594FAA4F7B7FA87F791
:1028FC004FF0030E7F000EFA07F72CEA070C94FA40
:10290C00A4F7B7FA87F77F00BD4045EA0C05202EE7
:10291C00056015D1072948DC076A94FAA4F50DB1B6
:10292C00B5FA85F60F25B60005FA06F627EA06066F
:10293C0094FAA4F5B5FA85F5AD00AB4033430362C8
:10294C004568C2F3801303FA01F125EA0403194325
:10295C004160C2F3C113856894FAA4F1B1FA81F114
:10296C000326490006FA01F125EA010594FAA4F1BF
:10297C00B1FA81F149008B402B438360C2F34122B1
:10298C00C16894FAA4F3B3FA83F35B0006FA03F379
:10299C0021EA030394FAA4F4B4FA84F4640002FA6E
:1029AC0004F41C43C4600020F0BD476A250A95FA64
:1029BC00A5FCBCF1000F01D0BCFA8CF64FF00F0C4B
:1029CC00B6000CFA06F627EA060695FAA5F5B5FA4E
:1029DC0085F5AD00AB4033434362B1E738B51346E0
:1029EC00026895689A050C4616D599070DD55A07B5
:1029FC002ED55022D9060AD542F4007219051BD5E2
:102A0C000121A140FFF715FF0FE01022F2E7990614
:102A1C00F4D542F48062F1E7D90514D5DA0614D462
:102A2C0013F0200218BF4FF480626868002321461F
:102A3C00FFF751FF002038BD5B05F6D50121A14001
:102A4C00FFF7FDFEF1E73022EFE74FF40072ECE701
:102A5C006FF02200EFE7036837B599688568144674
:102A6C008AB1686C436801AADB6804319847002876
:102A7C000CDB2A6C019B00200132B3FBF2F3C4E99E
:102A8C00003003B030BD6FF01500FAE76FF00400B2
:102A9C00F7E7036837B50C469968836851F8085B0B
:102AAC005868436801AADB689847002806DB019B3D
:102ABC0003EB5403B3FBF4F39BB2EB6003B030BDF8
:102ACC0003689B681B68DA691206FCD5402289B240
:102ADC001A621985704703689B681B68D869DA69A4
:102AEC00D207DA69C0F3C00048BF40F0020091077A
:102AFC0048BF40F00400C20744BF08221A62810795
:102B0C0044BF01221A62420744BF02221A62042205
:102B1C001A62704703689B681B68DA69100744BF28
:102B2C0008221A62DA69920643BF9B8C0B70002054
:102B3C004FF0FF30704783681B680B6003689B681D
:102B4C001A68136803F4C063B3F5806F28D0A3F53B
:102B5C00C060434243410B71536803F44053B3F5D7
:102B6C00805F1FD0B3F5405F1ED0002B14BF032332
:102B7C0001234B71136803F01023B3F5805F15D05C
:102B8C00B3F1805F14BF032302238B71936803F4AA
:102B9C004073A3F5407253425341CB7100207047F0
:102BAC000223D8E70023E4E70223E2E70423ECE75F
:102BBC00704710B50446A0B190F83D3003F0FF0209
:102BCC001BB980F83C20FFF7F3FF0223206884F840
:102BDC003D30211DFEF738FE012384F83D300020E6
:102BEC0010BD0120FCE738B590F83C30012B0446B1
:102BFC004FF0020012D001230C2A84F83C3084F8E8
:102C0C003D0054D00BD8042A2FD0082A3ED0DAB17C
:102C1C000123002084F83D3084F83C0038BD102A94
:102C2C0056D0142AF4D12068FEF7E2FD2368096916
:102C3C005A6D42F400625A655A6D22F480625A65EC
:102C4C005A6D42EA012252E02068FEF705FD236826
:102C5C0009699A6942F008029A619A6922F00402A1
:102C6C009A619A690A439A61D2E72068FEF726FEB8
:102C7C00236809699A6942F400629A619A6922F49C
:102C8C0080629A619A6942EA0122ECE72068FEF7B9
:102C9C001FFD23680969DA6942F00802DA61DA6912
:102CAC0022F00402DA61DA690A43DA61B0E72068DB
:102CBC00FEF746FD23680969DA6942F40062DA61BD
:102CCC00DA6922F48062DA61DA6942EA0122ECE71D
:102CDC002068FEF761FD236809695A6D42F008020D
:102CEC005A655A6D22F004025A655A6D0A435A65A8
:102CFC008EE7036A01F01F0110B501248C4023EA12
:102D0C0004030362036A8A401A43026210BDFEF791
:102D1C000DBE0B681B090133B0FBF3F04B6803F0DD
:102D2C007F0358438B685B0E01335B00B0FBF3F001
:102D3C0070474FF01002EFF3118382F31188BFF349
:102D4C006F8FFEE708B5FFF7F4FFF8B505460E46A2
:102D5C004FF01003EFF3118783F31188BFF36F8FDC
:102D6C00FFF788FA314604462846FFF7EBFF87F356
:102D7C001188BFF36F8F2046BDE8F840FEF746BAC6
:102D8C0021B9EFF3058008B9FEF766B881F3118815
:102D9C00BFF36F8F7047034620B9EFF305820AB972
:102DAC00FEF75AB883F31188BFF36F8F70474FF05B
:102DBC001003EFF3118083F31188BFF36F8FFFF7CC
:102DCC00EABF03460068834203D0002838BF0020C6
:102DDC0070470020704710B54FF01003EFF31184CB
:102DEC0083F31188BFF36F8FFFF740F884F31188DA
:102DFC00BFF36F8F10BD38B550F8103C0446A0F1EE
:102E0C001801C3B14FF01003EFF3118583F3118850
:102E1C00BFF36F8F50F8100CFEF7D2FF14F80B3C79
:102E2C0023F0020304F80B3C002344F8103C85F318
:102E3C001188BFF36F8F14F80B3C23F0140304F8C4
:102E4C000B3C0846BDE83840FFF7C5BF10B54FF046
:102E5C001003EFF3118483F31188BFF36F8FFFF727
:102E6C0049F984F31188BFF36F8F10BD009A027378
:102E7C00837304220023C0E90633C0E91333427381
:102E8C00C373704710B54FF01002EFF3118482F347
:102E9C001188BFF36F8F03683BB1FFF77BFA0020FB
:102EAC0084F31188BFF36F8F10BD6FF01500F7E737
:102EBC0010B54FF01003EFF3118483F31188BFF3B7
:102ECC006F8FFFF77BFA84F31188BFF36F8F10BD00
:102EDC0070B504460D464FF01003EFF3118683F3E3
:102EEC001188BFF36F8FFFF769FA012805DDA04247
:102EFC0003DD29462046FDF721FF86F31188BFF339
:102F0C006F8F70BD08B5FFF70BFB08BD08B54FF010
:102F1C001002EFF3118382F31188BFF36F8FFFF769
:102F2C00C7FF01210228D8BF0846FFF7D1FFFEF7E3
:062F3C0045F8ECE77047C8
:022F4200FFFF8F
:082F440078D2FF7F01000000BC
:102F4C000000000009270008000000000927000805
:102F5C0000000000092700080000000009270008F5
:102F6C0000000000092700080000000009270008E5
:102F7C00D00F002065260008D00F00206F26000817
:102F8C00D00F002079260008D00F002083260008DF
:102F9C00D00F00208D260008000000000927000833
:102FAC0000000000092700080000000009270008A5
:102FBC000000000009270008000000000927000895
:102FCC000000000009270008000000000927000885
:102FDC000000000009270008000000000927000875
:102FEC000000000009270008000000000927000865
:102FFC000000000009270008D00F002097260008C9
:10300C000000000009270008000000000927000844
:10301C000000000009270008000000000927000834
:10302C000000000009270008000000000927000824
:10303C000000000009270008000000000927000814
:10304C000000000009270008000000000927000804
:10305C0000000000092700080000000009270008F4
:10306C0000000000092700080000000009270008E4
:10307C0000000000092700080000000009270008D4
:10308C00D00F0020A126000800000000092700082E
:10309C0000000000092700080000000009270008B4
:1030AC0000000000092700080000000009270008A4
:1030BC000000000009270008000000000927000894
:1030CC000000000009270008000000000927000884
:1030DC000000000009270008000000000927000874
:1030EC000000000009270008000000000927000864
:1030FC000000000009270008000000000927000854
:10310C000000000009270008000000000927000843
:10311C000000000009270008000000000927000833
:10312C000000000009270008000000000927000823
:10313C000000000009270008000000000927000813
:10314C000000000009270008000000000927000803
:10315C0000000000092700080000000009270008F3
:10316C0000000000092700080000000009270008E3
:10317C0000000000092700080000000009270008D3
:10318C0000000000092700080000000009270008C3
:10319C0000000000092700080000000009270008B3
:1031AC0000000000092700080000000009270008A3
:1031BC000000000009270008000000000927000893
:1031CC000000000009270008000000000927000883
:0831DC000000000009270008B3
:1031E40048340008E10800080000000048340008E2
:1031F4004D09000800000000AF330008AB260008AA
:1032040000000000CA330008890B00080000000019
:10321400D3330008110D00080000000048340008F2
:103224007112000800000000DD330008B913000823
:1032340008330008E3330008B9130008F432000827
:10324400A2330008B9130008E0320008E93300088B
:10325400B9130008CC320008EF33000895140008B5
:1032640048330008A8330008D51500085C3300086B
:0C3274004834000861250008000000003C
:103280000300000001000000010000000200000037
:1032900004000000FFFFFFFFFFFFFFFFFFFFFFFF36
:1032A000FFFFFFFF80000000FFFFFFFFFFFFFFFFAA
:1032B000FFFFFFFF02000000270200000F000000D8
:1032C000230000000000000021000000FFFF0000BC
:1032D00000000048000000000100000001000000A4
:1032E000FFFF000000040048010000000100000092
:1032F00002000000FFFF000000080048020000007C
:103300000100000004000000FFFF0000001C004856
:10331000070000000100000080000000E92900080B
:103320001D2800082B2800083F2800084B2800080B
:10333000572800088512000867280008BD280008E3
:10334000CF2800080000000000000040020000003C
:1033500001000000DD130008632A0008004400405B
:103360000000000002000000000002000000000059
:10337000212B0008CD2A0008E32A0008BD1400080C
:10338000432B0008A00F0020F40F002000100020A5
:103390003C1000203C100020F5FFFFFF0010000053
:1033A00000304750494F4200554152545F3200733C
:1033B000746D33322D6578746900060708090A17A1
:1033C0001717171728282828282873746D33322DCB
:1033D0006363007379735F636C6F636B004750497D
:1033E0004F48004750494F43004750494F41005014
:1033F000574D5F3200000000000000000001020392
:10340000040607080976322E322E302D7263312DD4
:103410003238302D673538393038616135643030B5
:1034200036002A2A2A20426F6F74696E67205A6517
:1034300070687972204F53206275696C642025731F
:10344000202573202A2A2A0A006D61696E006964AA
:043450006C650000A7
:1034540015260008850A0008090B00080000000072
:103464006D0B000800000000DB27000800C201000B
:103474000000000000093D00980F0020980F002074
:10348400E4310008000000000000000008320008D9
:10349400740F00200000000020320008000000002B
:1034A400000000007432000800000000000000006A
:1034B400FC310008000000000C0000206832000805
:1034C400703300088C0F0020F03100080000000069
:1034D400000000001432000800000000000000009A
:1034E4002C3200081C330008CC00002038320008BD
:1034F4001C330008BC000020443200081C330008C0
:10350400AC000020503200081C3300089C0000204E
:0C3514005C32000854330008DC0000208A
:103520003C1000203C1000200000000000000000C3
:043530000F00000088
:04000005080010459A
:00000001FF
