:10000000200A0020110E000085270000890D000045
:10001000890D0000890D0000890D0000890D000088
:10002000890D0000890D0000890D0000850C00007D
:10003000890D0000890D00003D0C000063270000C1
:10004000D10D0000D10D0000D10D0000D10D000038
:10005000D10D0000D10D0000D10D0000D10D000028
:10006000D10D0000D10D0000D10D0000D10D000018
:10007000D10D0000D10D0000D10D0000D10D000008
:10008000D10D0000D10D0000D10D0000D10D0000F8
:10009000D10D0000D10D0000D10D0000D10D0000E8
:1000A000D10D0000D10D0000D10D0000D10D0000D8
:1000B000D10D0000D10D0000D10D0000D10D0000C8
:1000C000D10D0000D10D0000D10D0000D10D0000B8
:0C00D000D10D0000D10D0000D10D00008A
:1000DC0053B94AB9002908BF00281CBF4FF0FF31A3
:1000EC004FF0FF3000F06EB9ADF1080C6DE904CEA5
:1000FC0000F006F8DDF804E0DDE9022304B07047F7
:10010C002DE9F047089D0E4604468C46002B40F026
:10011C0081808A42174645D9B2FA82F24AB1C2F1BD
:10012C00200106FA02F320FA01F1974041EA030C90
:10013C0094404FEA174E230CBCFBFEF6B9B20EFBF3
:10014C0016CC43EA0C4306FB01F0984209D9FB1884
:10015C0006F1FF3C80F01581984240F21281023E7C
:10016C003B441B1AA4B2B3FBFEF00EFB103344EA63
:10017C00034400FB01F1A14209D93C1900F1FF3302
:10018C0080F00181A14240F2FE8002383C44641AA6
:10019C0040EA064000211DB1D4400023C5E90043CC
:1001AC00BDE8F08702B9FFDEB2FA82F2002A4FD125
:1001BC00CB1B4FEA174E1FFA87F80121B3FBFEFC4D
:1001CC00260C0EFB1C3346EA034608FB0CF3B34229
:1001DC0007D9BE190CF1FF3002D2B34200F2EB800A
:1001EC008446F61AA3B2B6FBFEF00EFB106643EA89
:1001FC00064408FB00F8A04507D93C1900F1FF3371
:10020C0002D2A04500F2D2801846A4EB080440EAC2
:10021C000C40C0E78B4208D9002D00F0AF800021C4
:10022C00C5E900060846BDE8F087B3FA83F100295A
:10023C0049D1B34202D3824200F2BB80841A66EBEE
:10024C00030301209C46002DAAD0C5E9004CA7E76A
:10025C00C2F120039740D8409140DE404FEA174E40
:10026C0008434FEA104CB6FBFEF11FFA87F80EFB61
:10027C0011664CEA064601FB08F3B34204FA02F499
:10028C0009D9BE1901F1FF3C80F08E80B34240F2D7
:10029C008B8002393E44F31A86B2B3FBFEF00EFBA0
:1002AC00103346EA034600FB08F3B34207D9BE19E4
:1002BC0000F1FF3C74D2B34272D902383E44F31AB7
:1002CC0040EA01417AE7C1F1200703FA01F422FA6E
:1002DC0007F31C4320FA07F906FA01F34FEA144C12
:1002EC00FE4049EA03094FEA1943B6FBFCFE1FFA2C
:1002FC0084F80CFB1E6643EA06460EFB08FAB24570
:10030C0002FA01F200FA01F308D9A6190EF1FF3036
:10031C0048D2B24546D9AEF1020E2644A6EB0A06E7
:10032C001FFA89F9B6FBFCF00CFB106649EA06468D
:10033C0000FB08F8B04507D9A61900F1FF3C2DD2F7
:10034C00B0452BD90238264440EA0E40A6EB0806ED
:10035C00A0FB02894E45C446CE4618D315D075B3C2
:10036C00B3EB0C0266EB0E0606FA07F722FA01F362
:10037C00CE401F43C5E90076002111E729462846E7
:10038C000EE76646EDE6184601E74345E7D2B8EBC3
:10039C00020C69EB04040138A646E0E76046D3E79B
:1003AC0060468CE78646B9E7614674E702383C4400
:1003BC002BE7084647E7ACF1020C3E4411E729460F
:1003CC00EEE600BF704700BF70B5164801F06AFB3F
:1003DC00044618B38568436840F201621B6811211A
:1003EC009847002819D12B6843F400332B60012562
:1003FC00A3681B6885F0010613F4003F18BFF5B223
:10040C006DB16368DB684FF4003120469847F5B254
:10041C004FF47A7001F0E4FEEAE7E8DA70BD636845
:10042C001B69F0E7382E00000B6801330B60014BA1
:10043C001B681847601300202DE9F04F85B09B46D0
:10044C000E9CDFF89090012CB8BF0124012B0CBF3F
:10045C0030232023154606468A46029301274FF087
:10046C000A080022B5FBF9F301930AB9A9451FD874
:10047C00019B514603F13000B04701370122019B2B
:10048C0008F1FF38B8F1010F09FB13554FF00A03BF
:10049C00B9FBF3F9E6D1514605F13000B047BBF199
:1004AC00030F02D1E41B002C0EDC05B0BDE8F08F6D
:1004BC004445E4DBBBF1020FE1D8029803925146AC
:1004CC00B0470137039ADAE751462020B047013C88
:1004DC00E9E700BF00CA9A3B014B1860704700BFA8
:1004EC00601300202DE9F04F8DB01C460027531EE1
:1004FC0005468B4603934FF0FF39B846002605E0BE
:10050C006EB9252800F071815946A847039B13F852
:10051C00010F03930028F3D10DB0BDE8F08F7A28BA
:10052C000AD8622810D8302854D045D8252800F095
:10053C005A812D2800F05F8159462520A847039B3E
:10054C0018785946A847D9E7A0F16303172BF3D8BD
:10055C0001A252F823F000BFEB0700002F060000A9
:10056C00450500004505000045050000110600008A
:10057C002F0600004505000045050000110600008F
:10058C00450500004505000045050000D1060000AA
:10059C004505000045050000BB07000045050000AF
:1005AC009F0600004505000045050000CD05000034
:1005BC00450500001106000039281AD95828BBD16E
:1005CC00039B1B78702B40F0888054F8043B0693F7
:1005DC00002290E0B9F1000F0EDAB8F1000F00F034
:1005EC000D81A0F13009B8F1000F08BF4FF00208DF
:1005FC008CE7B9F1000FF4DB0A2303FB0909A9F11D
:10060C003009F0E7682803D1682F06D148277DE729
:10061C006C2802D16C2F00F0F480002F8CD107468F
:10062C0074E77A2F02D154F8046B21E06C2FFAD0C6
:10063C004C2FF8D1073424F00704F4E80223CDE959
:10064C000423049B13F10041059B089143F1000125
:10065C000991DDE9082300214FF0FF30994208BFD2
:10066C00904204D25946284601F0C0FF46E7049E4A
:10067C00002E05DA59462D20A847764209F1FF399C
:10068C00CDF800904346324659462846FFF7D4FE33
:10069C0034E77A2F02D154F8042B0FE06C2FFAD0E8
:1006AC004C2FF8D1073424F00704F4E8022300217E
:1006BC004FF0FF30994208BF9042D3D3CDF8009051
:1006CC004346E1E759463020A84759467820A847C9
:1006DC004FF008094FF0010872E76C2F3FF475AF2B
:1006EC004C2F7FF472AFE31D23F007031C4654F824
:1006FC00082B06925A6800211023049107914FF0A1
:10070C00400AAAF1040A0699CAF1200EAAF1200C9B
:10071C0021FA0AF002FA0EFE40EA0E0022FA0CFC54
:10072C0040EA0C0010F00F0007D1079911B9BAF18B
:10073C00000F25D14FF0300C05E009288CBF4FF08D
:10074C00570C4FF0300C6044594640B20A92079354
:10075C00A847049B0A9A01330493079BBAF1000F34
:10076C0023D1B8F1030F7FF4C9AE049BC3EB490648
:10077C00002E7FF7C3AE59462020A847013EF7E76D
:10078C00591E99450A9107DBB8F1010F06D10B925E
:10079C0059463020A8470B9A0A9BB2E7B8F1020FD2
:1007AC00FAD10B9259462020F4E70796A9E754F8A2
:1007BC00046BB24653461AF8010B68B9B8F1030F33
:1007CC0021D19E1BA9EB0606002E7FF797AE59464A
:1007DC002020A847013EF7E75946A847EAE754F816
:1007EC00040B5946AEE65946ACE63746B0464FF0D8
:1007FC00FF3901268AE64FF0030887E64FF001081F
:10080C0084E64C2782E6064680E600BF07B50B4619
:10081C00002102460191034801A9FFF763FE03B0D2
:10082C005DF804FB350400000A2838B5074D044672
:10083C0004D1286843680D215B6898472868436891
:10084C00E1B25B689847204638BD00BF0800002025
:10085C0010B5044C204600F093FC2046BDE8104037
:10086C00FFF73ABE3508000008B5044801F01AF944
:10087C00034B1860FFF7ECFF002008BD3F2E000073
:10088C00080000202DE9F8430368D0F808C0D3F81D
:10089C00088006460F46CDB24AB10C236B435CF878
:1008AC0003309A4268D013B11B68002BF9D14FF07A
:1008BC002003EFF3118083F31188BFF36F8F0C21AA
:1008CC0069430CEB01031C7A0134E4B21C7280F313
:1008DC001188BFF36F8F3AB34FF080404FF0030E87
:1008EC00C0F808E3587AA0B94FF0200EEFF3118945
:1008FC008EF31188BFF36F8F1060D3F804E0BEF154
:10090C00000F2BD15A604CF8012089F31188BFF3EA
:10091C006F8F4FF080430321C3F8041320B1D2E949
:10092C000132394630469847012C23D10C236B43B6
:10093C0058F80330B3B9012F07D1114C237823B9E0
:10094C004FF4A57002F0E5F827700C2303FB058526
:10095C000122AB7A03F180431A600BE0CEF8002041
:10096C005A60D2E7304698470028E4D129463046F1
:10097C0001F070FE002001E06FF00F00BDE8F8837D
:10098C0008020020164B07B51A6882B14FF080425E
:10099C00D2F80423D1070AD500221A601B6811482B
:1009AC000093009B8368597A09B901F053FE0E4BF2
:1009BC001A688AB14FF08042D2F8042392070BD503
:1009CC0000221A601B680193019B0648012103B0A9
:1009DC005DF804EB01F03EBE03B05DF804FB00BF14
:1009EC0000010040AC130020040100400D4B00221C
:1009FC00C3F840214FF02002EFF3118182F31188EC
:100A0C00BFF36F8F084AD3F804051368C01A20F09F
:100A1C007F400344136081F31188BFF36F8F01F0A3
:100A2C001BBD00BF001001402400002073B5184806
:100A3C0001F038F848B34368164D1B6801219847FC
:100A4C00002401264FF48033C5F80845C5F84065ED
:100A5C00C5F8043303F1804303F58A534FF4003295
:100A6C001C601B680193019B0B4B3146C3F8802122
:100A7C001120224600F020F9112000F00DF9074B4F
:100A8C0020461E602E6002B070BD4FF0FF30FAE7BA
:100A9C00462E00000010014000E100E0081001406B
:100AAC00254BF0B5B0F1FF3F08BF18464FF02002C0
:100ABC00EFF3118582F31188BFF36F8F1F49204A22
:100ACC00D1F804451268A71A27F07F463F0219D4C3
:100ADC00013820EAE0709842A8BF1846013630442D
:100AEC00984294BF1318D3181C1B24F07F4423F096
:100AFC007F42022CC1F8402506D985F31188BFF33B
:100B0C006F8FF0BD0020E9E7D1F804250D489A1A43
:100B1C0022F07F42541E844205D90B4B4FF4003215
:100B2C00C3F80021E9E7012A02BF023323F07F4317
:100B3C00C1F84035E1E700BFFEFFFF0000100140A7
:100B4C0024000020FEFF7F0000E100E04FF02002B7
:100B5C00EFF3118382F31188BFF36F8F064AD2F83B
:100B6C000405064A1268801A20F07F4083F311882E
:100B7C00BFF36F8F704700BF0010014024000020AE
:100B8C0010B5114C114AA2610323C4E90433104B74
:100B9C00E36122664FF480630E4A0F49236262665A
:100BAC0000231022E01DA3626362E3622367E36605
:100BBC006367A26601F0E7FD0849204601F0E3FDFA
:100BCC002023A37110BD00BF28000020562E00006A
:100BDC0019020020090200205F2E0000632E000085
:100BEC0004488168406A884203D003494FF0805220
:100BFC000A607047C801002004ED00E0094A0A4968
:100C0C00936809689966094958664B6843F08053A4
:100C1C004B60002383F31188BFF36F8F9368986E3A
:100C2C00704700BFC8010020342E000000ED00E02A
:100C3C000F498A684FF028001044EFF3098C80E8C4
:100C4C00F01F202080F31188BFF36F8F094F4FF0F6
:100C5C0000664A6A8A603E60506E0023536680F3D9
:100C6C00118802F1280090E8F01F8CF30988704776
:100C7C00C801002004ED00E01EF0040F0CBFEFF3E0
:100C8C000880EFF30980816911F8021C0229FFD05A
:100C9C0001B501F06DFD01BD43B2002B08DB012253
:100CAC0000F01F0002FA00F05B09024A42F8230030
:100CBC00704700BF00E100E043B2002BA8BF03F176
:100CCC00604301F10101B8BF064B4FEA4111ACBFC3
:100CDC0003F5614300F00F00C9B2B4BF195483F897
:100CEC000013704714ED00E073B51E460A9B009389
:100CFC008C18099B054601F00EFFA4F120020A4B4B
:100D0C0022F0070223F001039361069B5360079BBB
:100D1C009360089BD3604FF08073D36100231660FF
:100D2C00AA646B6602B070BD2F260000F8B50646AB
:100D3C000C4617461D4600F077F9094B3C4424F04D
:100D4C0007049E60284684F30988002163B681F36A
:100D5C001188BFF36F8F0022002301F062FC00BFEB
:100D6C00C8010020014910220A60704710ED00E014
:100D7C00404080F3118830BF704700BFEFF308800C
:100D8C00EFF30981724601B500F0A0F801BD00BF78
:100D9C0030BFFFF7FDBF00BF08B5084B084A23F072
:100DAC007F039360BFF34F8FBFF36F8F00F0BAFEDA
:100DBC0000F0C2FE00F006F900F0FCFE000000009E
:100DCC0000ED00E001B572B60B4A106A00281EBF98
:100DDC000021116201F025FE62B6EFF30580A0F14F
:100DEC0010004FEAC0000549014409C99847BDE805
:100DFC000140034908470000C8010020D42B000023
:100E0C00ED0B000001F026FD202080F3118808482E
:100E1C004FF40061401880F30988EFF3148002212D
:100E2C00084380F31488BFF36F8FFFF7B5FF000002
:100E3C00600B00200C4B9A6A9A6A9A6A920708D542
:100E4C005A6B9A6A120604D518B19A6A22F080027B
:100E5C009A62054B9A6A9A6A9A6A9A6A002042F0D8
:100E6C00FF029A620870704700ED00E00D4B9A6A21
:100E7C009A6A9A6A920508D59A6B9A6A120404D5F2
:100E8C0018B19A6A22F400429A62064B9A6A9A6ADC
:100E9C00D20558BF9A6A9A6A002042F47F429A623D
:100EAC000870704700ED00E0074B9A6A9A6A9A6ADC
:100EBC009A6A9A6A9A6A9A6A6FEA02426FEA1242CC
:100ECC009A620020704700BF00ED00E070B5364B11
:100EDC005B688AB00E46C3F30803002585F31188BE
:100EEC00BFF36F8F02F07F41B1F17F4F11D102F050
:100EFC000C0108290DD0110701D40646012500224A
:100F0C00033B8DF80720032B47D8DFE803F0043EA2
:100F1C00423B2E46F3E7244BDA6A92073DD4DC6A57
:100F2C0014F0804408D028331B78EBB10DF1070185
:100F3C000120FFF77FFF04469DF8073093B920226C
:100F4C00314602A801F035FC099B45B3C3F30802F6
:100F5C0022B96FEA53236FEA4323099302A920466F
:100F6C0001F004FC0AB070BD104B1B782BB10DF1D5
:100F7C0007010120FFF77AFFDDE70D4B188884B2DB
:100F8C00002CD9D0FFF790FFD5E70DF10701002019
:100F9C00CFE70DF107010020ECE70024CCE723F4A8
:100FAC00FF7323F00103D8E700ED00E029ED00E02A
:100FBC002AED00E0024A536943F010035361704775
:100FCC0000ED00E0044800232021C2180133272B38
:100FDC0082F80013F9D1704700E100E038B50446FF
:100FEC004FF02003EFF3118583F31188BFF36F8F5C
:100FFC0001F012F80A4B9B68A3420BD1094B5A68BB
:10100C00C2F3080212B92846FFF7F8FD5A6842F0FD
:10101C0080525A602846BDE8384001F00FBD00BF31
:10102C00C801002000ED00E01FB5084B0193084BF0
:10103C000293084B039301AB0093074A074B012122
:10104C00684600F093F805B05DF804FB0000002042
:10105C000000000000000B06000000200000012032
:10106C00DFF884C0F0B50646002710468F4200DB3F
:10107C00F0BD56F827E0DEF8044094B343B1651E8A
:10108C002C4219D11F2C17D9DEF80020154213D190
:10109C00202CC2B2DEF80050DEF808000FD9B4F1F3
:1010AC00004F0ED8013CB4FA84F4C4F11F04640060
:1010BC00072A44EA000406D96FF01500D8E7082483
:1010CC00F6E73E24F4E725F01F05154345F010051F
:1010DC0044F00104CCF80820501CCCF80C50CCF88F
:1010EC0010400137C2E700BF90ED00E0034B052232
:1010FC005A60BFF34F8FBFF36F8F704790ED00E0D6
:10110C00BFF35F8F014B00225A60704790ED00E0F7
:10111C0013490868082810B51ED8FFF7F1FF114CC9
:10112C0049680022904201F10C0105D10E4B187058
:10113C00FFF7DCFF002010BDA26051F80C3C23F03F
:10114C001F03134343F01003E36051F8043C43F0D6
:10115C00010323610132E5E74FF0FF30EBE700BFFD
:10116C00B42D000090ED00E01906002010B5034CE2
:10117C0001232278FFF774FF207010BD19060020A0
:10118C00014B1860704700BF641300204FF0200320
:10119C00EFF3118283F31188BFF36F8F064901239C
:1011AC00C1F840354FF08041C1F8783582F3118891
:1011BC00BFF36F8F0020704700E0014020B1034B5C
:1011CC00800143F001031847704700BF802D0000D9
:1011DC0008B5094B1A786AB9012119700620052146
:1011EC00FFF76AFD0620FFF757FD044B4FF0004256
:1011FC00C3F80423002008BD1A060020006000403C
:10120C0003682B48F0B59E682A4B1340834240D0AC
:10121C000DD8062B15D005D89BB1022B3BD06FF007
:10122C00150035E0B3F5801FF9D1012309E0224800
:10123C00834232D0B3F5A00F31D0B3F5800FEED18D
:10124C000223D00654BFC2F34015032582F48074E8
:10125C009705C2F34020C4F3002407D512F4006FA5
:10126C0077681ED001228A40C7F80825327A01F02F
:10127C001F0141EA421140EA440242EA032301F50C
:10128C00E0714FF0A04243EA850342F82130002080
:10129C00F0BD0723D5E70423D3E70523D1E70323C8
:1012AC00CFE7520542BF01228A40C7F80C25DDE783
:1012BC00060010000600F0000200400073B5036841
:1012CC004F4C9B6885681A7AD4F8040301F01F030D
:1012DC0043EA4213C0B2002202F5A27654F826600B
:1012EC00C6F30426B34272D120FA02F6F6076ED585
:1012FC00900000F1804000F5C040D0F8106526F059
:10130C000106C0F81065012000FA02F2C4F80823A7
:10131C009C0004F1A044E868D4F80027C84022F4EB
:10132C00403210F00100C4F800274ED02869C840A4
:10133C0010F0010049D0A869C84010F0010050D04D
:10134C00EA69CA40D20758BF6A692D4D5FBFCA40CF
:10135C0002F00102C2F10202D2B248BF0322002401
:10136C0004F5A27155F8210010F0030033D1A1004F
:10137C0001F1804101F5C0411B02D1F8106503F465
:10138C00F85343EA024226F4473604F1400326F4AC
:10139C0040769B00C1F810659BB2D1F8106503F143
:1013AC00804303F5C0433243C1F8102518601B6815
:1013BC000193019BD1F8103543F00103C1F81035AE
:1013CC00012303FA04F4C5F8044302B070BD0132E2
:1013DC00082A81D19CE70134082CC1D16FF012008E
:1013EC00F3E76A69D4F80037CA4002F00102C2F18F
:1013FC00030223F4403141EA0242C4F80027E4E737
:10140C00006000402DE9F34154490D68002D68D06F
:10141C00534B98681B68D3F808C0D0E903231340DA
:10142C00D0E90624224323EA0203DCF80420D2F894
:10143C0010454269544023EA040401200026002B85
:10144C0039D10B600B680093009B464800230126A2
:10145C001F46D0F8042306FA03F1114213D09A0068
:10146C0002F1804202F5C242116861B103F5A2712A
:10147C0050F82110176012680192C1F3042106FA8A
:10148C0001F1019A0C430133082BE2D15CBB7DB115
:10149C00334B98681B689E68D0E903231340D0E94E
:1014AC0006210A4323EA020301240025002B38D12C
:1014BC0002B0BDE8F081034210D09CF8087006F031
:1014CC001F0242EA4712920002F1A04223EA0003F3
:1014DC00D2F8007727F44037C2F800770136400085
:1014EC00ADE72C46B1E71E4FD7F80880D8F80410AA
:1014FC000029CCD00E68002E38BF0026D8F810304A
:10150C008A682340134203D04B68224638469847DA
:10151C00002EBCD03368002B38BF002331461E464A
:10152C00ECE71C4217D0317A05F01F0242EA411257
:10153C009200416902F1A042E940D2F8007701F033
:10154C000101C1F1030127F4403747EA0141C2F818
:10155C00001723EA040301356400A7E77C6100400F
:10156C00DC13002000600040024BD3F88004C3F869
:10157C00800470470020004030B54B79012B22D1FC
:10158C008B79032B1FD1CA792AB1012A1BD103688D
:10159C009B681B78BBB10C7914B1022C13D10E24AF
:1015AC000B68B3F5164F5FD02BD8B3F5165F5DD033
:1015BC0014D8B3F5966F5BD008D8B3F5967F5AD094
:1015CC00B3F5167F5AD06FF022004CE0B3F5166FCE
:1015DC0057D0B3F5965FF6D1344B39E0B3F5E14F04
:1015EC0052D007D8B3F5615F50D0B3F5964FEAD11E
:1015FC002F4B2DE047F61225AB42E4D14FF40003FC
:10160C0026E0B3F5613F44D011D8B3F5963F42D0F4
:10161C0008D84DF6C025AB423FD0B3F5614FD2D1BF
:10162C00244B15E0B3F5E13FCDD1234B10E0B3F5DE
:10163C00612F35D007D8214DAB4233D0B3F5E12F14
:10164C00C1D11F4B04E01F4DAB42BCD14FF08053B6
:10165C001D4D2243C5F82435C5F86C25836803C994
:10166C0083E80300002030BD184BF1E7184BEFE77F
:10167C004FF49E23ECE74FF4A033E9E74FF41C330F
:10168C00E6E74FF41D23E3E7124BE1E74FF46C134D
:10169C00DEE7114BDCE7114BDAE74FF46503D7E7D4
:1016AC000F4BD5E74FF08063D2E700BF00B01300BB
:1016BC0000A04E0000F0EB0000E0D70190D003003A
:1016CC0000705F0740420F000020004000509D005A
:1016DC000050270000F0750000B0AF0300903A01F5
:1016EC0000D0BE0E084B1A6882B052B100201860B0
:1016FC001B680193019B054BD3F818350B7002B096
:10170C0070474FF0FF30FAE70821004000200040FE
:10171C00094B00221A6082B01A680192019A074A9A
:10172C0001201060C2F814151A68002AFCD0044B72
:10173C0001221A6002B070471C21004008200040B2
:10174C000C2000404FF0A04337B5164C4022C3F894
:10175C000825032100220825C3F81817C3F82027F1
:10176C00C4F814550625C4F80C552025C3F80855A3
:10177C00C3F81417C3F81C270523C4F8083507232E
:10178C008168C4F81035FFF7F7FE48B90423C4F894
:10179C000035054B18601B680193019B01232360E6
:1017AC0003B030BD00200040082100400B4B1B68EB
:1017BC005A1C05BF0A4B0B4A0B4A10680ABF1B7810
:1017CC001068C0F30310062B05D1033803288CBF17
:1017DC000020012070470020704700BF300100102E
:1017EC00E00F00F0E80F00F034010010074B1B78FD
:1017FC00062B09D1064B1B68C3F30313033B032BC6
:10180C0002D8044AD05C704700207047E00F00F00B
:10181C00E80F00F0822E000008B5FFF7C7FF28B1D3
:10182C007E4B7F4A1B68C3F304231360FFF7DEFF74
:10183C0010B17C4B7C4A1A60FFF7B8FF28B17B4B88
:10184C007B4A1B68C3F342331360FFF7CFFF20B111
:10185C00784AD36823F08073D360FFF7A7FF40B1B9
:10186C004FF080430022C3F80C21C3F81021C3F8B9
:10187C003825FFF7BBFF10B16F4B03221A60FFF73F
:10188C00B5FF40B16D4B05221A6001229A67002208
:10189C009A603F225A606A4B1A68511C0BBF694B05
:1018AC00694B1A781B6802BF08331B68C3F3031318
:1018BC00062A4DD1033B032B4AD8644AD35C002B38
:1018CC0046D04FF08052624BD2F80414C3F8201566
:1018DC00D2F80814C3F82415D2F80C14C3F8281540
:1018EC00D2F81014C3F82C15D2F81414C3F8301510
:1018FC00D2F81814C3F83415D2F81C14C3F84015D8
:10190C00D2F82014C3F84415D2F82414C3F848159F
:10191C00D2F82814C3F84C15D2F82C14C3F850156F
:10192C00D2F83014C3F85415D2F83414C3F8601537
:10193C00D2F83814C3F86415D2F83C14C3F86815FF
:10194C00D2F84014C3F86C15D2F84424C3F87025AF
:10195C00FFF72CFF28B13F4B3F4A1B6803F04F03A6
:10196C001360FFF723FF48B14FF08043D3F80024F6
:10197C00D20744BF6FF00102C3F80024304B1B6840
:10198C00062B0CD1304B1B68033B032B07D8334A77
:10199C00D35C23B1324A136843F4806313604FF075
:1019AC001023D3F80022002A03DBD3F80432002BD7
:1019BC002FDA2C4B0122C3F80425D3F80024002A7B
:1019CC00FBD04FF010221521C2F80012D3F80024DE
:1019DC00002AFBD04FF010231522C3F80422214B10
:1019EC001A46D3F800140029FBD00021C3F80415C3
:1019FC00D2F80034002BFBD0BFF34F8F1A491B4B8E
:101A0C00CA6802F4E0621343CB60BFF34F8F00BF90
:101A1C00FDE7174B174A1A6008BD00BF24030010DE
:101A2C004035014074C007400DF0ADBA44020010BF
:101A3C003C050040F0ED00E0A005004010560040D1
:101A4C0030010010E00F00F0340100107A2E00007D
:101A5C0000C0004058020010E40E00407E2E000032
:101A6C003C17004000E0014000ED00E00400FA05E6
:101A7C00701300200090D003094B70B553F8204030
:101A8C000130002653F82050A54200D870BD2368C1
:101A9C0020465B68984700B166600C34F4E700BFE1
:101AAC00202E0000104B70B5104C05461E469C4273
:101ABC0004D10E4CB44209D1002412E062681AB170
:101ACC0022681268AA420CD00C34F0E763680BB998
:101ADC000C34EFE723682846196800F05EFE0028F6
:101AEC00F6D1204670BD00BFE81300207C13002007
:101AFC0008B50B4D4FF02002EFF3118382F31188E0
:101B0C00BFF36F8F01F02CF8012102280446D8BFD7
:101B1C00084601F035F82C62FFF72AF9EAE700BF16
:101B2C00C80100200248034A0021121A00F06CBEC2
:101B3C00000000201C06002008B50648064A07498C
:101B4C00121A00F036FEBDE80840054A0549064861
:101B5C0000F02FBE6013002010140020D42E0000C3
:101B6C0000000000D42E00000000002008B50C4B33
:101B7C00012202201A70FFF77FFF0A4A0A490B481C
:101B8C0000F042FD0320FFF777FF00F08FFBFEF71C
:101B9C001BFC074A137B23F00103137308BD00BF22
:101BAC001B060020C92E0000862E0000A32E00006C
:101BBC005C01002080B5364BA2B083F30888354D0C
:101BCC00354E6B69DFF8ECA0DFF8EC90334F43F443
:101BDC0000736B610024E02385F82230EC772C76BF
:101BEC006C76AC766B6A43F4E0236B62FFF7E2F938
:101BFC00FFF7B8F84FF0FF33AB62EB6207AB6C2228
:101C0C002146184600F000FE4FF00108B060204657
:101C1C008DF82980FFF730FF4046214DFFF72CFF50
:101C2C0000F084FA1F4B75624FF480624946CDE98F
:101C3C00048328465346CDE90244CDE9004400F024
:101C4C00FDFA6B7B23F004036B73284600F016FF40
:101C5C00154B1649CDE904830F23CDE902434FF40C
:101C6C00A072134B3846CDE9004400F0E7FA7B7BB9
:101C7C00F76023F004037B7306F11803C6E90633FF
:101C8C004FF48062534649462846FFF74FF800BF91
:101C9C006013002000ED00E0C8010020F0000020DF
:101CAC005C010020CA2E0000CF2E0000200A00206C
:101CBC00FD1A0000791B00002006002010B5084C0E
:101CCC0023685BB1FEF742FF03462068054A0344D4
:101CDC00BDE810401361002100F052BF10BD00BFE1
:101CEC0000020020C8010020F8B505460C464FF054
:101CFC002003EFF3118683F31188BFF36F8F0D4B25
:101D0C0000224FF4004740F2E73000211A61E7FB54
:101D1C0005014FF47A720023FEF7DAF9064B1860CE
:101D2C00064B1C60FFF7CAFF86F31188BFF36F8F59
:101D3C00F8BD00BFC801002000020020FC010020FB
:101D4C004FF02003EFF3118183F31188BFF36F8FF2
:101D5C00044B9A68D37B013BD37381F31188BFF397
:101D6C006F8F7047C8010020094B03F12802824293
:101D7C0005D19B688B4202D14B7BDB0606D1D1E9A6
:101D8C00003213605A600023C1E90033704700BF72
:101D9C00C801002070B5104C064604F1280000F074
:101DAC0063FEA368597B0546880644BF41F00801D1
:101DBC00597305B9E5684EB95A7BD20606D1AA69A2
:101DCC0022B9DA897F2A01D9636270BDAB4201D096
:101DDC00FFF774FF6562F8E7C801002010B54FF0FB
:101DEC002003EFF3118483F31188BFF36F8F084B3B
:101DFC009A68D37B0133D3730020FFF7CBFF84F3B6
:101E0C001188BFF36F8FBDE8104000F023BE00BFF8
:101E1C00C801002070B4437BDB062AD1836943BB25
:101E2C00154A114651F8284F8C4218BF2346002BF7
:101E3C00D46A38BF0023B3B190F90E6093F90E50F9
:101E4C00AE4203DBA3420ED01B68F4E75A68C0E92C
:101E5C00003210605860437B63F07F03437370BCA7
:101E6C000020FFF797BFC0E90014D36A1860D06256
:101E7C00F1E770BC704700BFC801002010B54FF0EF
:101E8C002002EFF3118482F31188BFF36F8F427B32
:101E9C00510704D484F31188BFF36F8F10BD22F067
:101EAC0004024273FFF7B6FF21460248BDE810401A
:101EBC0000F0B9BD1C060020F8B501464FF0200318
:101ECC00EFF3118483F31188BFF36F8F90F90D300A
:101EDC00002B02DA1948FFF747FF194A1046D56A5A
:101EEC0050F8283F834208BF0023002B38BF002343
:101EFC00EBB191F90E7093F90E60B74203DB9D4282
:101F0C0015D01B68F4E75868C1E9003001605960CE
:101F1C004B7B906863F07F034B73431A58425841D4
:101F2C00FFF738FF84F31188BFF36F8FF8BDC1E959
:101F3C000005D36A1960D162EAE700BFF001002006
:101F4C00C801002038B5154A154B1468014698682D
:101F5C00A0421C4603D1BDE83840FFF7AFBE0025B8
:101F6C001560104A1268B2B1C2897F2A13D80E4A82
:101F7C0090F90E50126895420DDB0C4A90420AD033
:101F8C00826942B91A698A4202DCFFF795FFE2E7DF
:101F9C00521A1A6138BD00232361FBE7F8010020B7
:101FAC00C801002000020020FC010020F0000020ED
:101FBC0070B50446183000F0BDFD4FF02003EFF370
:101FCC00118683F31188BFF36F8F94F90D30002BBA
:101FDC0007DA0F482146FFF7C7FE637B03F07F0348
:101FEC0063730C4D637BA86843F010036373031B8E
:101FFC0058425841FFF7CEFE86F31188BFF36F8F1E
:10200C00AB68A34203D1BDE8704000F023BD70BDA6
:10201C00F0010020C801002038B5036D044603B15F
:10202C00984704F1180000F085FD4FF02003EFF302
:10203C00118583F31188BFF36F8F637BD8061BD197
:10204C00A269CAB9190607D512482146FFF78CFEBA
:10205C00637B03F07F0363730F4B9868021B504242
:10206C005041FFF797FE637B43F00803637385F3DE
:10207C001188BFF36F8F38BD9B07F4D5A06821463C
:10208C00FFF772FE637B23F0020363730023A360EC
:10209C00E9E700BFF0010020C801002008B590F965
:1020AC000D30002B014606DA0748FFF75DFE4B7B2F
:1020BC0003F07F034B73054B9868431A5842584101
:1020CC00BDE80840FFF766BEF0010020C801002003
:1020DC00F8B5451C00F06EFD2C184FF02003EFF303
:1020EC00118783F31188BFF36F8F0D4E0D4BB068C2
:1020FC00186000F0FEFCB0680B492A46183000F05E
:10210C0069F9B268537B43F0100353733846FEF7FA
:10211C0075FD00F04FFD201A20EAE070F8BD00BFFD
:10212C00C8010020F8010020A92A0000044B00215E
:10213C0003F12802C3E90A220846FFF7D5BD00BF08
:10214C00C8010020F8B5244C244BA2689A4230D028
:10215C004FF02003EFF3118583F31188BFF36F8FDA
:10216C00A16804F12800FFF7FFFDA36AA268E16AE9
:10217C00834208BF0023002B38BF00232BB392F9F6
:10218C000E7093F90E60B74203DB8B421DD01B68B7
:10219C00F4E75968C2E900310A605A60537B63F076
:1021AC007F0353730120FFF7F5FD85F31188BFF30F
:1021BC006F8F4FF02003EFF3118083F31188BFF37F
:1021CC006F8FBDE8F840FEF719BDC2E90001E36A64
:1021DC001A60E262E2E700BFC8010020F0000020B4
:1021EC0038B5431C044605D1104B986800F03EF8F6
:1021FC00204638BD4FF4004540F2E7300021E5FBA6
:10220C0004014FF47A720023FDF762FF044648B9CB
:10221C00FFF798FF4FF47A7084FB0001C40B44EA7B
:10222C004144E5E7FFF754FF0446F3E7C8010020FB
:10223C00014B9868704700BFC801002030B587B0CB
:10224C0004460E9D04950D9D03950C9D02950B9DCA
:10225C0001950A9D0095FEF747FD034B9B6803B162
:10226C001B6E236607B030BDC801002038B504468C
:10227C004FF02003EFF3118583F31188BFF36F8FB9
:10228C00FFF796FE074B9B68A34205D129460648EB
:10229C00BDE8384000F0C7BB85F31188BFF36F8FE2
:1022AC0038BD00BFC80100201C0600202DE9F04FEE
:1022BC00284E294D87B0B046B54205F1300410D3F5
:1022CC00FFF73EFD244CDFF894A04FF4004940F298
:1022DC00E7360027444521D307B0BDE8F04FFFF7A0
:1022EC007DBD54F8043C059354F8103C049354F809
:1022FC00143C039354F8183C029354F81C3C01937F
:10230C0054F8203C009354E90A2354E90C01FFF7DC
:10231C0095FF54F8303CDD642546CDE7616A4B1CD3
:10232C0004D0256821B92846FFF7A8FD3034D1E741
:10233C00B346BC46E9FB01BC4FF47A720023584605
:10234C006146FDF7C5FE5146421C05F1180000F030
:10235C0041F8EBE7E8130020E8130020A92A00005D
:10236C00034B1B680BB9FEF7F1BB0020704700BF95
:10237C0004020020036840B1074A5268904204D01E
:10238C001BB19A6881680A449A60426813605A606B
:10239C000023C0E900337047741300200B4B10B5B9
:1023AC001C689C4208BF0024FFF7DAFF54B1A368F5
:1023BC00181A20EAE070064B1B6913B19842A8BFAB
:1023CC00184610BD6FF00040F5E700BF74130020F5
:1023DC00C801002070B504461646C1604FF02003BA
:1023EC00EFF3118583F31188BFF36F8FFFF7B8FFFD
:1023FC00184B1A68012EACBF801901309A42A060AC
:10240C0001D05E6832B95A6862605A682360146001
:10241C005C600AE09068A168884215DD411A916001
:10242C005168C4E900210C6054601A689A4206D0C5
:10243C00944204D1FFF7B2FF0021FEF731FB85F384
:10244C001188BFF36F8F70BD091A9642A160DAD064
:10245C001268D7E7741300202DE9F0470646FFF702
:10246C0071FD4FF02003EFF3118483F31188BFF358
:10247C006F8F204DDFF88080DFF880A02E60C14682
:10248C00DAF800002A685045D8E9006705D020B179
:10249C008368934213DD9B1A8360B61847EBE2778F
:1024AC00C9E9006700262E60FFF778FF3146FEF77A
:1024BC00F7FA84F31188BFF36F8FBDE8F087F61835
:1024CC0047EBE377D31A2B6000238360C8E90067DE
:1024DC00FFF750FF84F31188BFF36F8FC3689847E1
:1024EC004FF02003EFF3118483F31188BFF36F8F48
:1024FC00C6E700BF04020020000000207413002077
:10250C0010B54FF02003EFF3118483F31188BFF360
:10251C006F8FFEF71BFB064BD3E90023121843F118
:10252C00000384F31188BFF36F8F1046194610BD5A
:10253C000000002038B5074C074DAC4201D30020F9
:10254C0038BD04F114032046C4E9053300F006F845
:10255C001C34F2E7E8130020E81300202DE9F04FBB
:10256C0046680789016890F80A80FF2306FB07FC80
:10257C00C3726144324600234FF00C09984505DCC8
:10258C00002319468F4220DCBDE8F08FD0F80CA058
:10259C00BCFBF2F509FB03FE0AEB0E0404F1040B81
:1025AC00202DC4E901BB05D8C372920822F00302A6
:1025BC000133E3E715F11F0448BF05F13E04641134
:1025CC004AF80E1001EB8401EFE7C268056802F1CE
:1025DC00040CEC1845F803C09568656095680131EA
:1025EC002C6033449460CDE70020704770B50446EE
:1025FC000D464520A04729465220A0472946234690
:10260C005220BDE8704018470FB407B504A951F823
:10261C00040B0191FEF7FAF803B05DF804EB04B07B
:10262C007047044608B5084611461A46A047FFF7FE
:10263C00FFFDFEF7D3FC70478368C9B20C2202FB86
:10264C0001314B7A23B9087AB0FA80F0400970470F
:10265C0002207047F8B583680C2404FB0134012375
:10266C0005460E4663724FF02003EFF3118183F39E
:10267C001188BFF36F8F23682BB160681A682260D2
:10268C00834208BF626081F31188BFF36F8F03B977
:10269C00F8BDD3E9017231462846B847E3E700227A
:1026AC0010B5012104461046FEF706FB0020FEF78C
:1026BC00F3FA4FF080430122C3F818250322C3F824
:1026CC000423A3680020C3E90000A368C3E9030046
:1026DC0010BDF7B5026886689768CCB24FF020033E
:1026EC00EFF3118583F31188BFF36F8F0C226243D4
:1026FC00B1180B7A3BB3013BDBB20B7233BBB3505B
:10270C003A444B605368D3B90C2303FB0473012187
:10271C00DA7A1B8902F1804203F1804311600022B6
:10272C001A601B680193019B0C2101FB04640020BF
:10273C00607285F31188BFF36F8F03B0F0BD9847BB
:10274C000028E1D1F0E76FF04400F2E70020F0E759
:10275C000022FEF797B870477047FEF711BA08B51C
:10276C00FFF7FBFF002008BDFEF708BB00F03EB9E9
:10277C000146006800F03AB908B5FEF709FBBDE860
:10278C000840FEF72DBA0139034611F8012F0AB99A
:10279C001A70704703F8012BF7E7431E013913F841
:1027AC00012F11F8010F824201D1002AF7D1101A22
:1027BC007047F0B581EA0004A50703460BD0013B36
:1027CC000A4491421BD1F0BD002AFCD011F8014BF8
:1027DC0003F8014B013A9C07F6D122F003041D1FAC
:1027EC0096080F19B94205D16FF0030505FB0622B7
:1027FC002344E4E751F804CB45F804CFF2E711F891
:10280C00014B03F8014FDCE770B5C9B203469C07D6
:10281C0011D141EA012422F0030644EA04451E4486
:10282C009408B3420DD16FF0030505FB04221A4442
:10283C00934209D170BD002AFCD003F8011B013A68
:10284C00E5E743F8045BECE703F8011BF0E74FF016
:10285C00FF307047FEF7E0BF03689B685B68D3F8F6
:10286C0010350B600020704703689B685B68D3F8D9
:10287C00040542400A404240C3F80425002070473A
:10288C0003689B685B680020C3F8081570470368F1
:10289C009B685B680020C3F80C15704703689B6845
:1028AC005A68D2F804354B40C2F804350020704702
:1028BC008368586830B558B10024814213D1086838
:1028CC005CB99C685860A14200D1986000200860F7
:1028DC0072B9002030BD2846EFE72060986881422D
:1028EC0008BF9C60F2E705680446002DF3D13AB1AD
:1028FC005A680A60986859600028EAD19960E9E73B
:10290C006FF01500E6E7B2F5A03F70B4846812D101
:10291C000568AD682E7A01F01F0545EA461505F5E8
:10292C00E0754FF0A04656F82550ED0707D56FF02F
:10293C00220070BC7047B2F5005FE56826D0E668EF
:10294C0001258D4035432669E56001258D40B2F5A2
:10295C00005F14BF2E43AE432661A669B2F5A03FBB
:10296C00E2690CBF2E43AE43B3F5C02F0CBF2A4314
:10297C00AA43E2616269A661B3F5802F0CBF1543CF
:10298C0022EA0505656170BCFEF798BC01268E40F5
:10299C0025EA0605D7E710B48468012303FA01F28F
:1029AC00236923EA0203236110BCFEF787BC10B431
:1029BC008468012303FA01F223691343236110BCD9
:1029CC00FEF77CBC82680B4692E8030083E80300A8
:1029DC00002070474FF02002EFF3118382F311882F
:1029EC00BFF36F8FFEE708B5FFF7F4FFF8B50546A8
:1029FC000E464FF02003EFF3118783F31188BFF3DA
:102A0C006F8FFFF715FC314604462846FFF7EBFFA6
:102A1C0087F31188BFF36F8F2046BDE8F840FEF7AF
:102A2C00DDBAFFF799BE21B9EFF3058008B9FEF7BF
:102A3C00E5B881F31188BFF36F8F7047034620B957
:102A4C00EFF305820AB9FEF7D9B883F31188BFF307
:102A5C006F8F70474FF02003EFF3118083F31188D1
:102A6C00BFF36F8FFFF7EABF03460068834203D0C2
:102A7C00002838BF002070470020704710B54FF079
:102A8C002003EFF3118483F31188BFF36F8FFFF7EB
:102A9C00C1F984F31188BFF36F8F10BD38B550F8AE
:102AAC00103C0446A0F11801C3B14FF02003EFF322
:102ABC00118583F31188BFF36F8F50F8100CFFF75B
:102ACC0053F914F80B3C23F0020304F80B3C0023DD
:102ADC0044F8103C85F31188BFF36F8F14F80B3C4E
:102AEC0023F0140304F80B3C0846BDE83840FFF70C
:102AFC00C5BF10B54FF02003EFF3118483F3118899
:102B0C00BFF36F8FFFF7CAFA84F31188BFF36F8F8F
:102B1C0010BDFEF753BB10B5029C047383730424E1
:102B2C000023C0E90633C0E91333C0E9161244731D
:102B3C00C37310BD10B54FF02002EFF3118482F374
:102B4C001188BFF36F8F03683BB1FFF713FC0020B4
:102B5C0084F31188BFF36F8F10BD6FF01500F7E78A
:102B6C0010B54FF02003EFF3118483F31188BFF3FA
:102B7C006F8FFFF713FC84F31188BFF36F8F10BDB9
:102B8C0070B504460D464FF02003EFF3118683F326
:102B9C001188BFF36F8FFFF701FC012805DDA04200
:102BAC0003DD29462046FDF77BFF86F31188BFF332
:0E2BBC006F8F70BD08B5FFF7A3FC08BD704712
:022BCA00FFFF0B
:082BCC0040D5FF7F010000006D
:102BD40000000000910900000000000075270000BB
:102BE40000000000752700000000000075270000A9
:102BF4000000000075270000000000007527000099
:102C040000000000111400000000000075270000FF
:102C14000000000075270000000000007527000078
:102C24000000000075270000000000007527000068
:102C34000000000075270000000000007527000058
:102C44000000000075270000000000007527000048
:102C5400000000007527000000000000F9090000D2
:102C64000000000075270000000000007527000028
:102C74000000000075270000000000007527000018
:102C84000000000075270000000000007527000008
:102C940000000000752700000000000075270000F8
:102CA40000000000752700000000000075270000E8
:102CB40000000000752700000000000075270000D8
:102CC40000000000752700000000000075270000C8
:102CD40000000000752700000000000075270000B8
:102CE40000000000752700000000000075270000A8
:102CF4000000000075270000000000007527000098
:082D040000000000752700002B
:102D0C00C92E00007508000000000000462E0000CF
:102D1C00AB2600009C2D00004C2E0000390A000050
:102D2C0000000000C92E00006B270000000000000E
:102D3C00C92E00001D11000000000000C92E00006B
:102D4C009911000000000000382E0000DD11000079
:102D5C00002E00003F2E000051170000792E0000BD
:0C2D6C00C92E00004125000000000000FE
:082D7800FFFFFFFFFFFFFFFF5B
:102D80000338FDD8704700005D270000DF260000F3
:102D9000910800000000000045260000000000002F
:102DA000000000000001000400000000000000001E
:102DB0000401080C02000000BC2D0000000000000F
:102DC0006A2E00002400020700000020722E00007E
:102DD0001E000B110D120000652800007528000070
:102DE0008D2800009B280000A9280000132900005E
:102DF000BD280000BB290000A3290000000000003E
:102E0000FFFFFFFF0000005000000000F11600006F
:102E10001D1700007515000085150000D129000060
:102E20007C130020D0130020DC130020E8130020C6
:102E3000E8130020F5FFFFFF4750494F5F30005572
:102E40004152545F3000434C4F434B007379735FE2
:102E5000636C6F636B005465726D696E616C0052D8
:102E600054540053454747455200464C4153485F30
:102E700030005352414D5F3000010000010100005D
:102E800000010100000076322E322E302D726331A7
:102E90002D3239302D6765343437396532666563D4
:102EA0006565002A2A2A20426F6F74696E67205A6E
:102EB0006570687972204F53206275696C642025B3
:102EC00073202573202A2A2A0A006D61696E006921
:042ED000646C6500C9
:102ED400F52500005B28000000C20100000103008A
:0C2EE4000090D003741300207413002031
:102EF000482D00000000000000000000302D000000
:102F000000000000000000006C2D00000000000028
:102F1000000000003C2D0000000000000000000048
:102F2000182D0000882D00000C000020602D0000EE
:102F30000C2E0000681300200C2D00000000000083
:102F400000000000242D0000000000000000000030
:0C2F5000542D0000D42D0000D000002003
:102F5C00E8130020E813002000000000000000002F
:102F6C000F000000FC130020FC13002000000000E8
:082F7C00000000000F0000003E
:0400000300000E11DA
:00000001FF
