:020000040800F2
:10000000C01000249D120008B52B000871120008D2
:10001000711200087112000871120008000000003F
:10002000000000000000000000000000910F000828
:1000300071120008000000003D0F0008991C000824
:10004000351000083510000835100008351000087C
:10005000351000083510000835100008351000086C
:10006000351000083510000835100008351000085C
:10007000351000083510000835100008351000084C
:1002980053B94AB9002908BF00281CBF4FF0FF31E5
:1002A8004FF0FF3000F00CB8ADF1080C6DE904CE4A
:1002B80000F008F8DDF804E0DDE9022304B0704737
:1002C800704700BF2DE9F04786468C460846089ED1
:1002D800154674461946002B40F0C2808542B2FA92
:1002E80082F245D94AB1C2F1200300FA02FC2EFA83
:1002F80003F3954043EA0C0C94404FEA154EA8B21C
:10030800BCFBFEF8230C0EFB18CC08FB00F943EAF3
:100318000C43994528D9EB1808F1FF3704D29945C1
:1003280002D9A8F102072B44A3EB0903A4B2B3FB3B
:10033800FEFC0EFB1C330CFB00F044EA0344A04215
:1003480014D92C190CF1FF3304D2A04202D9ACF114
:1003580002032C44241A43EA07401EB1D440002368
:1003680034607360BDE8F0874746DDE76346F1E730
:1003780092BB431B01214FEA154EAFB2B3FBFEFC03
:10038800200C0EFB1C330CFB07F840EA034398458E
:1003980062D9EB180CF1FF3004D2984502D9ACF1C0
:1003A80002002B44A3EB0803A4B2B3FBFEFC0EFB34
:1003B8001C330CFB07F744EA0344A7424ED92C1917
:1003C8000CF1FF3304D2A74202D9ACF102032C444A
:1003D800E41B43EA0040C0E7C2F1200320FA03F11E
:1003E800954090402EFA03F303434FEA154EAFB2FF
:1003F800B1FBFEFC0EFB1C10190C0CFB07F841EAC4
:100408000041884504FA02F422D969180CF1FF303A
:1004180004D2884502D9ACF102002944A1EB0801B5
:100428009BB2B1FBFEFC0EFB1C110CFB07F743EA69
:1004380001439F420ED9EB180CF1FF3104D29F42C1
:1004480002D9ACF102012B44DB1B41EA004192E7DF
:100458006046E3E76146F7E76046A3E76346B7E728
:10046800834206D916B9002108467BE7C6E900E0B1
:10047800F9E7B3FA83F78FB9834201D3724508D8F5
:10048800BEEB020460EB030301209C461EB9002169
:1004980068E73846FAE7C6E9004CF8E7C7F1200CE8
:1004A800BB4022FA0CF41C432EFA0CF120FA0CF390
:1004B800B84001434FEA14490EFA07F5B3FBF9F8BF
:1004C8001FFA84FE09FB18300B0C08FB0EFA43EAEE
:1004D80000439A4502FA07F240D9E31808F1FF30C1
:1004E80004D29A4502D9A8F102002344A3EB0A03D7
:1004F80089B2B3FBF9F809FB183308FB0EFE41EA91
:1005080003418E452CD9611808F1FF3304D28E457A
:1005180002D9A8F10203214443EA0040A0FB029853
:10052800A1EB0E014145CE46434602D306D14D45C7
:1005380004D2B9EB020E68EB04030138002EA6D0F2
:10054800B5EB0E0261EB030101FA0CFC22FA07F38A
:100558004CEA0303F940C6E9003198E74046C5E78D
:100568004346D9E738B5104C204602F0FFFDC8B124
:1005780022690021A5682046136823F0010313604F
:100588004FF420222B68984700280BDB01216B6968
:1005980020469847002805DB002142F2107002F03F
:1005A80091F8F3E738BD00BFB8340008014B1B6869
:1005B800184700BF00000024014B1860704700BFB7
:1005C8000000002407B50B460021024603480091AD
:1005D80000F006F803B05DF804FB00BFB50500089D
:1005E8002DE9F04F814695B08B4617461C460025ED
:1005F800387808B9284658E37B1C2528039306D089
:100608005946C8470028C0F250830135FBE118223B
:1006180000210EA802F0ECFA7B78252B7DD0002370
:10062800781C98469E469C461E46014610F8012BAB
:100638002B2A00F0A18000F29880202A00F09F80E9
:10064800232A00F09F802BB19DF8403043F04003EF
:100658008DF84030B8F1000F05D09DF8403043F0D8
:1006680020038DF84030BEF1000F05D09DF84030D2
:1006780043F010038DF84030BCF1000F05D09DF811
:10068800403043F008038DF840302EB19DF84030DB
:1006980043F004038DF840309DF8403003F04400E7
:1006A800442803D16FF386138DF840309DF840300D
:1006B8002A2A43F080038DF840307FD19DF84120ED
:1006C8004B1C42F001028DF841201A782E2A9DF821
:1006D80041200CBF0121002161F341028DF8412026
:1006E80078D15A782A2A6ED0013300224FF00A0CAA
:1006F800194611F8010BA0F13006092E40F2958039
:100708009DF840101292C1F3400040EAD2700A46A8
:1007180060F341028DF840205CE0BA1C8DF843304C
:1007280003929DF84130DA0740F12E8154F8048B8A
:10073800B8F1000F07DA9DF84020C8F1000842F030
:1007480004028DF840205E0740F1278154F804AB7D
:10075800BAF1000F80F226819DF841306FF3410312
:100768008DF841304FF0FF3A1CE12D2A0DD0302A88
:100778007FF469AF012358E74FF0010C55E74FF0BC
:10078800010E52E74FF001084FE701264DE70EFB37
:1007980002620346303A184610F8016BA6F1300C95
:1007A800BCF1090FF3D999428FD09DF840101192EE
:1007B800D20F62F341018DF8401086E70B46002204
:1007C8004FF00A0EE7E79DF84120023342F0040299
:1007D8008DF841201A786C2A47D02BD8682A31D056
:1007E8006A2A4BD04C2A51D01A4612F8013B782B72
:1007F80003928DF843309DF8412000F2BE806D2BA6
:1008080051D8692B00F2B980572B67D8412B03D0F8
:10081800453B022B00F2B1809DF84230042262F37E
:1008280002038DF84230012373E00CFB02020B46F1
:10083800303A5DE7742A25D07A2AD5D19DF841202F
:1008480006210CE05A78682A9DF8412006D101213A
:1008580061F3C60202338DF84120C5E7022161F336
:10086800C6028DF841200133BEE75A786C2A9DF8FC
:10087800412001D10421EBE70321F0E79DF8412055
:100888000521ECE79DF841200721E8E7BDF8402065
:1008980022F4F04222F0020242F4804242F00202C4
:1008A800ADF84020DFE76E3BD9B201238B4040F220
:1008B80082410B4237D113F0240F51D1D8075CD5B0
:1008C8009DF84230032161F302038DF8423002F0B3
:1008D8007803A3F140014B424B411AE0A3F15801C0
:1008E8000120C9B200FA01F111F4624F94D140F627
:1008F800010631421DD111F4043F3ED09DF842302B
:1009080060F3020302F078028DF84230402A34D0B6
:1009180000239DF84020C2F340010B4363F34102DA
:100928008DF84020FDE69DF84230022161F3020374
:10093800E8E79DF84210022002F0780260F3020115
:10094800402A8DF8421002BF9DF8401041F0010185
:100958008DF84010632BDBD1131E18BF0123D8E795
:100968009DF84230032112F0780F61F302038DF8ED
:10097800423014BF01230023CBE79DF8403043F0F9
:1009880001038DF84030C3E79DF94020002AB4BF29
:10099800DDF844804FF0FF38D5E698077FF5E2AEE2
:1009A800DDF848A000239DF84110CDE911339DF8EA
:1009B8004230C1F3C30103F00703012B33D1CB1E2F
:1009C800042B04D8DFE803F02146462121002368E0
:1009D80001294FEAE372CDE90E321CD19DF9383076
:1009E800DA17CDE90E3204349DF8403013F00306CF
:1009F80050D0039B3A465946484602F0B3F80028BF
:100A0800C0F253810544039FF2E554F8043BDA171A
:100A1800CDE90E32E8E70229E5D11AB243F3C03333
:100A2800CDE90E23DFE7022B24D1CB1E042B04D8FB
:100A3800DFE803F0181010181800012954F8043BD7
:100A48004FF0000214D00229CDE90E32CCD19BB26E
:100A58000E93C9E7073424F00704F4E80223CDE92C
:100A68000E23C1E754F8043B0E9300230F93BBE712
:100A7800DBB2CDE7042B08D1073424F00704D4E90E
:100A880000230834CDE90E23AEE7032BACD154F88C
:100A9800043BDDE79DF843007828B4D862281CD8C9
:100AA80025283FF4ADAD5828ADD10DF1360310AA75
:100AB800009308ABDDE90E0102F00EF8BAF1000F61
:100AC800074680F29A80002F9DD00DF13603D81B7F
:100AD800002E00F0C1800130BEE06338152892D89E
:100AE80001A252F820F000BFC50B0008D70B000880
:100AF8000F0A00080F0A00080F0A00080F0A00086A
:100B0800D70B00080F0A00080F0A00080F0A000890
:100B18000F0A0008650C0008FD0B0008230C0008EC
:100B28000F0A00080F0A0008490B00080F0A0008FE
:100B3800FD0B00080F0A00080F0A0008FD0B00084B
:100B4800BAF1000F0E9F35DB5146384602F03CF8EB
:100B580007EB000A002F3FF456AF00269DF84230FD
:100B680013F01002059200F0938002305B06119A90
:100B780048BF129B1044049248BFC018B8F1000F38
:100B880040F39F809DF84020A8EB0008C2F3800343
:100B98005007069300F19580510640F189803EB1D7
:100BA80059463046C84700287FDB069B01351E465C
:100BB80030227EE0384602F000F8C9E70E9B002696
:100BC80008AF0DF1210A01208DF82030C6E719077A
:100BD80056BFC3F300132B265E01DDE90E23002B5D
:100BE800BFF663AF52424FF02D0663EB4303CDE9E6
:100BF8000E235AE7002658E700260DF136039DF824
:100C08004020DB1B6FF386129A458DF840207FF653
:100C18005AAFAAEB0303119355E70E9890B30DF161
:100C2800360310AA0021009308AB01F055FFBDF868
:100C38004230BAF1000F074603F0EF0343F4F043E4
:100C480043F01003ADF84230D6DA00283FF4DBAEAB
:100C58000DF136030026181A9A467FE70E9B0729DE
:100C68003FF6D1AEDFE801F00C04060C08080C0CC6
:100C78001D70C8E61D80C6E6EA17C3E90052C2E641
:100C88001D60C0E62E4F0646052007F1050A65E7F8
:100C98001A0748BF013069E710460793069259467C
:100CA800C8470028DDE9062304DA15B0BDE8F08F4F
:100CB800202243461946013B0029EDDC454498466D
:100CC8006D1A2EB159463046C8470028EDDB01356C
:100CD8009DF84230DA0601D41B0705D55946302065
:100CE800C8470028E1DB0135059B33B159469DF81B
:100CF8004300C8470028D8DB0135049E2E4405E090
:100D080059463020C8470028CFDB0135731B002B1C
:100D1800F6DC53463A465946484601F023FF002878
:100D2800C3DB0544A844A8EB0503002B7FF76BAE93
:100D380059462020C8470028B7DB0135F3E700BF34
:100D4800423C0008F0B54FF01003EFF3118083F335
:100D58001288BFF36F8F344B5A6912F4003211D1E5
:100D6800BFF34F8FBFF36F8FC3F85022BFF34F8F7E
:100D7800BFF36F8F5A6942F400325A61BFF34F8F45
:100D8800BFF36F8F284A5369D90327D4536913F4E3
:100D9800803323D1C2F88430BFF34F8FD2F880302C
:100DA80043F6E075C3F3C904C3F34E335B0103EAAA
:100DB8000507214647EA81760139C2F86062F9D20F
:100DC800203B13F1200FF2D1BFF34F8F536943F447
:100DD80080335361BFF34F8FBFF36F8F80F3118858
:100DE800BFF36F8F114B124A1A60124BDA6822F068
:100DF800070242F00202DA609A6942F440429A61BC
:100E08009A699204FCD50C4B1A6841F20303B3EBC0
:100E1800124F06D1094AD2F8083143F00103C2F84B
:100E280008310020F0BD00BF00ED00E02C000024D8
:100E38000090D003004802580010005C0080005168
:100E4800014910220A60704710ED00E072B6404078
:100E580080F31188BFF36F8FBFF34F8F30BF62B637
:100E6800BFF36F8F704700BF00B2002807DB012374
:100E7800410900F01F00024A834042F821307047C0
:100E880000E100E000B2013100284FEA0111C9B2C7
:100E980006DB00F1604000F5614080F80013704700
:100EA80000F00F00014B1954704700BF14ED00E02B
:100EB80030BFFFF7FDBF00BF0F4A08B522F07F0221
:100EC8000E4B9A60BFF34F8FBFF36F8FD3F8882014
:100ED80022F47002C3F88820EFF3148323F004038C
:100EE80083F31488BFF36F8F01F07EF801F068FC7C
:100EF80000F0C4F901F0C6F80000000800ED00E0B9
:100F0800094A0A49936809685867996708494B6804
:100F180043F080534B60002383F31188BFF36F8F36
:100F28009368986F704700BFC4020024183C0008FB
:100F380000ED00E012498A684FF030001044EFF3EA
:100F4800098C80E8F01F102080F31288BFF36F8FA0
:100F58000C4F4FF000668A698A603E60506F00232C
:100F6800536780F3118804B5104600F0CBF9BDE84B
:100F7800044002F1300090E8F01F8CF309887047B4
:100F8800C402002404ED00E01EF0040F0CBFEFF3D0
:100F98000880EFF30980816911F8021C0229FFD04B
:100FA80001B501F0FBFD01BD42F8203C203A009B51
:100FB80007495360019B21F001019360029B9161F5
:100FC800D3604FF08073D361002302654367704795
:100FD800CD2A0008094A0346906870B113F1160F2C
:100FE800406E05D0A0F140029A4205D8834203D250
:100FF800814228BF0020704700207047C4020024A7
:1010080008B5094B0D461446986000F07BF9204658
:1010180085F30988002163B681F31188BFF36F8FC8
:101028000022002301F04EFDC402002401B5EFF3B5
:101038000580A0F110004FEAC0000449014409C925
:101048009847BDE8014002490847000000350008FC
:101058005D100008044B99689869884203D00349D9
:101068004FF080520A607047C402002404ED00E08B
:101078001D4B70B515469A6A9A6A06469A6A92078F
:1010880022D5586B9A6A14061ED519B19A6A22F0AD
:1010980080029A629A6A9A6A9A6A134C12F0100F3E
:1010A80015D19B6A990712D40020A36A9B0603D521
:1010B800636A23F4005363620B4A936A43F0FF03A5
:1010C800936200232B7070BD6FF01500E2E7636830
:1010D8001A05E9D53146FFF77DFF0028E4D080F3F3
:1010E80009880220E1E700BF00ED00E00D4B9A6A95
:1010F8009A6A9A6A920508D59A6B9A6A120404D574
:1011080018B19A6A22F400429A629A6A9A6AD205D7
:1011180000D49B6A034A0020936A43F47F43936296
:101128000870704700ED00E04A4B70B55B688AB004
:1011380005460026C3F3080386F31188BFF36F8FB3
:1011480002F07F40B0F17F4F11D102F00C00082867
:101158000DD010074CBF0D4601260022033B8DF829
:101168000720032B4DD8DFE803F00465696D354689
:10117800F3E7384BDA6A910743D4DA6A002A40DB8E
:10118800DA6A52003DD55A69A96942F480725A61F7
:10119800BFF34F8FBFF36F8F5A6931F8021C22F4E7
:1011A80080725A61BFF34F8FBFF36F8F4DF6027293
:1011B800914209D09A6AD2B242B10DF107020121D7
:1011C8002846FFF755FF0AE02C681BE09A6A12F4DC
:1011D8007F4F06D00DF107010120FFF787FF044676
:1011E80010E09A6AB2F5803F0BD39A6A9A6A9A6AB3
:1011F8009A6A9A6A9A6A9A6A6FEA02426FEA12428D
:101208009A6200249DF8073093B92022294602A843
:1012180001F0E3FC099BBEB1C3F3080222B96FEAEF
:1012280053236FEA4323099302A9204601F0B4FC33
:101238000AB070BD0DF107020021C1E70DF10701E9
:101248000020CAE7034BD0E723F4FF7323F0010320
:10125800E9E700BF00ED00E0024A536943F01003DC
:101268005361704700ED00E0EFF30880EFF3098168
:1012780001B57246FFF758FF01BD00BF00230448BF
:101288001021C2180133962B82F80013F9D1704748
:1012980000E100E0102080F3118808484FF4046151
:1012A800401880F30988EFF314800221084380F383
:1012B8001488BFF36F8FFFF7FFFD000000030024C1
:1012C800084B9B6883420BD1EFF3058343B1064B70
:1012D8005A6842F080525A605A6A22F400425A62AE
:1012E80001F00EBAC402002400ED00E0024B012117
:1012F800024A034800F070B80000082400000024E7
:10130800743A0008426E4021044B403A18461A606D
:10131800034AC3E90112012100F068B878010024EA
:1013280000000B15F0B500251F4E8D4239DA4468D0
:1013380074B353B104F1FF3C14EA0C0F2FD11F2CE6
:101348002DD907681CEA070F29D1202C5FFA82FEE5
:101358000768D0F808C01ED9B4F1004F1DD8013C69
:10136800B4FA84F4C4F11F046400BEF10F0F4CEA10
:10137800040C14D827F01F04C6F89820144301322F
:1013880044F01004C6F89C404CF00104C6F8A04094
:1013980001350C30C9E70824E7E73E24E5E76FF09C
:1013A80015021046F0BD00BF00ED00E0044B052219
:1013B800C3F89420BFF34F8FBFF36F8F704700BF00
:1013C80000ED00E0BFF35F8F024B0022C3F89420CA
:1013D800704700BF00ED00E010B5034C01232278F0
:1013E800FFF7A0FF207010BDF8020024094A08B5D5
:1013F80000231278FFF796FF10F1160F02D0064A65
:101408000F2800DD08BDC2F898000130C2F8A030EE
:10141800F6E700BFF802002400ED00E01449086870
:10142800102810B521D8FFF7CDFF124C49680022CB
:10143800904201F10C0105D10F4B18700020FFF705
:10144800B5FF10BDC4F8982051F80C3C23F01F03D9
:101458001343013243F01003C4F89C3051F8043CA4
:1014680043F00103C4F8A030E2E74FF0FF30E8E7AB
:101478003C3A000800ED00E0F8020024014B186037
:10148800704700BF040000244FF0B0420123D2F897
:10149800801083400B43C2F88030024B33F91000B0
:1014A800FFF7E2BC1C3C0008074B10B5044653F894
:1014B800300028B943F8341003EBC4035A6010BD58
:1014C8006FF00F00FBE700BF84010024034B0022EC
:1014D80043F8302003EBC0035A60704784010024AE
:1014E800044B05489B6A03F00303022B18BF002036
:1014F800704700BF0044025800127A000A68102A98
:1015080013D80B4BD340DB070FD54968CBB2C1F3D7
:101518000242C1F3042103F1B0438A4003F51133B9
:101528001868024300201A6070476FF08500704702
:101538000E04010008B5084B1A6902F03802102A97
:1015480006D0182A06D1FFF7CBFF5043400808BD44
:101558000248FCE70020FAE70044025800127A002B
:10156800294B10B5186814460B68102B2CD813B9E2
:101578006FF0850035E0013B0F2BF9D801A252F836
:1015880023F000BFF3150008FF150008F315000845
:1015980079150008791500087915000879150008EB
:1015A8007915000879150008CD1500080B160008F4
:1015B80079150008791500087915000879150008CB
:1015C800ED15000811480AE0D42B08D0D83B1C2B95
:1015D800CED84FF0113222FA03F3DB07C8D52060CA
:1015E800002010BDFFF7A6FFF9E7FFF779FF1823E2
:1015F80058434008F3E7FFF773FF18235843800860
:10160800EDE70020EBE700BF2C00002400127A0071
:10161800594B13B5D3F8E02042F00072C3F8E0202C
:10162800D3F8E02002F000720192019A1A6842F49D
:1016380080221A601A6842F480321A601A68940389
:10164800FCD59A6A22F0030242F002029A629A6A70
:1016580022F47C7242F010029A62DA6A22F00C02DA
:1016680042F00802DA62DA6A22F00202DA621A6BDF
:1016780022F4FF7222F0010242F017021A63DA6ABA
:1016880022F00102DA621A6B22F47E4242F40072FE
:101698001A63DA6A42F48032DA621A6B22F4FE02C2
:1016A80042F440321A63DA6A42F40032DA621A6BA0
:1016B80022F0FE4242F080721A63DA6A42F4802213
:1016C800DA621A6842F080721A602B4A136898012D
:1016D800FCD52A4BDA6822F0070242F00202DA60EF
:1016E8009A6942F440429A619A699104FCD5FFF7DD
:1016F80021FF04462248844201D200F0BFFB1E4B62
:101708009A6922F470629A619A6922F00F029A61CA
:10171800DA6922F07002DA61DA6922F4E062DA61E9
:101728009A6922F070029A611A6A22F070021A62AB
:101738001A6922F0070242F003021A611A6902F0DC
:101748003802182AFAD10E48844201D300F096FBD9
:101758000A4BDA6822F0070242F00202DA609A695C
:1017680042F440429A619A699204FCD5054B0020E4
:10177800034A1A6002B010BD0044025800480258DB
:1017880000D8B8052C00002408B5074801F0EEFC85
:1017980038B10648FFF772FE0448FEF70DFF002037
:1017A80008BD6FF01200FBE7E8340008B91700081D
:1017B8000A2838B50446074D04D1AB680D212846E0
:1017C8005B689847AB68E1B202485B689847204677
:1017D80038BD00BFE834000838B5036904465860CE
:1017E800084D284601F0C2FC40B161682846AB6844
:1017F8000C311B68984700EAE07038BD6FF01200A2
:10180800FBE700BFB0330008F7B517460C461D4686
:101818004668B7F5001F026928D101F003030F22BB
:1018280004339B009A4042EA9102374902F00303CD
:10183800023351F82310130C93FAA3F3B3FA83F38A
:1018480001EA124203F01F0322FA03F3B2689A4234
:1018580009D1204601F042FA2046FFF737FE002161
:10186800204601F048FA002003B0F0BDB7F5800F1C
:1018780044D026492046FFF717FE002841D1244AC4
:101888006B46B66892E8030083E8030021481946CE
:10189800826812689047D8B904F003030F21043313
:1018A8009B00994041EA940101F003030A0C92FA63
:1018B800A2F29B00B2FA82F203F1B04302F01F02D7
:1018C800D3F80804964020EA11410E43C3F808648F
:1018D800B5F1806F0ED0B5F1C06F0DD005F17E4324
:1018E800594259414900204601F005FA2046FFF7C0
:1018F800CBFDB8E70121F6E70321F4E76FF0850097
:10190800B2E76FF00F00AFE7000400585B2F000844
:10191800343A0008B0330008F7B50646446807694A
:101928004148786001F022FC002879D07868616825
:1019380083681B6898470546002869D1014601AAB3
:10194800A06901F0FCFB002801DA054660E0019B74
:101958002A461979186800F04BFA0028F5DB226846
:10196800136823F001031360216851E8003F43F036
:101978000C0341E80032002AF7D12369022B4AD030
:10198800012B12BF00204FF480504FF4C062216831
:1019980010430B6823F0805323F4B05303430B60C8
:1019A8004B6823F440534B60237B2BB173681A6850
:1019B800936843F4407393603968304601F022FB22
:1019C800237D23B12268936843F008039360637D05
:1019D80023B12268536843F400435360A37D23B1C5
:1019E8002268536843F480335360E37D23B122684F
:1019F800536843F4003353602268136843F00103CB
:101A080013602368DA699102FCD5DA695202FCD5C1
:101A1800284603B0F0BD4FF480504FF48062B6E71B
:101A28006FF01205F4E700BFB03300082DE9F0416C
:101A38000B790C464568012B066900F09F809A1EB9
:101A480051425141890294F805C094F80680BCF1CE
:101A5800020F96BF6F4A4FF4005732F81C70B8F166
:101A6800020FE27900F08D80B8F1040F00F0B28027
:101A7800002B40F09380012A2CF0020C40F0BB8030
:101A8800BCF1000F00F0A680B8F1010F40F2A2806F
:101A98004FF4407ED5F800C02AB3DFF87C81C445F6
:101AA8001FD0A8F54C48C4451BD008F58068C4452C
:101AB80017D008F58068C44513D008F58068C44578
:101AC8000FD008F54448C4450BD0A8F51C48C445B8
:101AD80007D008F58068C44503D0DFF84081C445C5
:101AE80078D1012A76D1DCF8002022F00102CCF866
:101AF80000204268D2F800C0DCF8002002F4C0627E
:101B0800914206D0DCF8002022F4C0620A43CCF8E7
:101B18000020426811684A6802F44052974204D093
:101B28004A6822F440523A434A60426811680A6897
:101B380002F01022934204D00A6822F010221343C4
:101B48000B6043681A68936803F440739E4505D098
:101B5800936823F4407343EA0E0393602168336863
:101B6800994203D001F04EFA236833602A680020B6
:101B7800136843F001031360BDE8F0814FF4C061BE
:101B880061E70BBB012A2CF0020C2FD1BCF1000F2E
:101B980020D04FF4407E4FF080537BE7033B012A6F
:101BA800DBB20CD1012B15D94FF4407E1CF0FD0F90
:101BB80010D0B8F1010F0DD94FF480536AE7012B0B
:101BC80008D94FF0000EF1E7033B012ADBB204D03D
:101BD800012B19D86FF08500CEE7012BFAD91CF03C
:101BE800FD0FF7D04FF4407E002353E7BCF1000F00
:101BF800F0D09E46CFE7BCF1000FEBD0B8F1010F53
:101C0800E8D99E46734645E71CF0FD0FE2D04FF039
:101C1800000EF7E73C3C000800100140000C00589B
:101C28004FF0E02310B59A691969986911F4803F5B
:101C3800084B094901D1824206D21A680C6822442D
:101C48001A604FF0E02212691B680A681344181AD8
:101C580010BD00BFB4020024C0020024094B1022AA
:101C6800002083F8232042F27F52074B1A60074B6B
:101C780018604FF0E0235A6198611A6942F0070230
:101C88001A61704700ED00E0C0020024B40200248D
:101C980008B5FFF7C5FF0C4B0C4A186811680844D3
:101CA8004FF41651106000221A60094A1368C01ACE
:101CB800B0FBF1F001FB0033136000F073FEBDE8E8
:101CC8000840FFF7C7B900BFB4020024BC020024D3
:101CD800B80200242DE9F041314E002954D0421CAD
:101CE8000AD14FF0E022136923F0010313614FF08A
:101CF8007F433360BDE8F081356801284ADD40F252
:101D0800D268404501DC00F1FF384FF01003EFF3D3
:101D1800118483F31288BFF36F8FFFF781FF214F80
:101D28004FF0E0230021D3F818C03B68C2181E4BBF
:101D380019601E4B1B68D11A2FD44FF416509B1AEA
:101D480000FB081101F515513F31B1FBF0F100FB23
:101D58000133B3F5806F20D915498B4228BF0B4654
:101D680033604FF0E021013B88694B6100238445D3
:101D78008B61ACEB000338BF5B191A443A6084F3FB
:101D88001188BFF36F8FB5E7431C3568B5D140F2B2
:101D9800D260B8E74FF00008B7E74FF48063DFE799
:101DA800C0020024BC020024B4020024B8020024AB
:101DB80000C3FF0010B54FF01003EFF3118483F355
:101DC8001288BFF36F8FFFF72BFF074B074A1B687B
:101DD80012689B1A034484F31188BFF36F8F4FF482
:101DE8001650B3FBF0F010BDBC020024B80200246A
:101DF8002DE9F047044600EBC10600251E4FB4420A
:101E080001D1002014E02268D10602F01F0911D484
:101E1800656845F02005C2F3471AC2F343220A2A2F
:101E280027D857F82280B8F1000F11D16FF01200AF
:101E3800BDE8F087B9F1100F08D0B9F1110FEAD158
:101E480065682B05E7D545F01005E4E73025E2E79E
:101E5800404601F08BF90028E8D04B462A460AF0A4
:101E68000F01404601F08CF8002804F10804C6DA96
:101E7800DEE76FF01500DBE7D83B0008002854D0F8
:101E88002B4A936903F44043B3F5404F1FD1294BC4
:101E9800294A0344934242D9284B294A034493428E
:101EA8003FD9284B984240D80020274A136823F08E
:101EB8000F0303431360136803F00F03984232D0F3
:101EC800136803F00F03C01A18BF01207047936905
:101ED80003F44043B3F5004F0ED11C4A1C4B024497
:101EE8009A421AD91B4A02449A4218D91A4A0244F9
:101EF8009A4216D90133D5E7184A194B02449A4237
:101F080009D9184A02449A4207D9174A02449A4200
:101F180005D9164AEBE70420C7E70320C5E70220E6
:101F2800C3E70120C1E70346CDE70120704700BFA2
:101F380000480258FFC4A7F7FFE0F5057FE2D3FB8E
:101F48007F1D2C04801D2C0400200052BF4C2AF653
:101F5800BF3B47037F8871F93FC4B8FCFF6A45F56A
:101F68003FA5AE023F10F4F77FB5A2FABF5A51FD64
:101F78000F4B70B553F82040013053F82060A6424B
:101F880000D870BDD4E90035284698476DB138B1FE
:101F98000028EB68B8BF4042FF28A8BFFF20187090
:101FA800EA68537843F0010353700834E7E700BF49
:101FB800043C00080122022008B5094B1A70FFF7FB
:101FC800D7FF00F063FD0320FFF7D2FF00F0F0F821
:101FD800FEF7C8FA034A137B23F00103137308BD05
:101FE800F9020024F000002406480021064A08B53A
:101FF800121A01F0ECF80548054A0021121A01F0FE
:10200800E6F808BD70000024FC020024000000204F
:102018000000002070B5002386B00122144E019301
:102028000446144D06EBC0161349CDE904230F22CC
:10203800CDE9023218234FF4A07203FB00554FF488
:10204800C0700E4B00FB04113046009500F07EF87E
:10205800737B0B4A23F00403EE602C7573734FF403
:10206800046304FB033313446B6006B070BD00BF08
:1020780070000024C4020024400B0024DF31000853
:102088000003002480B52A4BA6B083F308880024F7
:10209800284DF023284E294F85F82230EC772C76EE
:1020A8006C76AC7685F820406B6A43F4E0236B626B
:1020B800FFF7D2F8FEF7C4FE4FF0FF33AB62EB62D6
:1020C800FFF7ACF91E4DFFF711F940F20113229406
:1020D800ADF8243006ABB360CDE91F4401F045F8F4
:1020E8002046FFF745FF0120FFF742FF00F05CFAAA
:1020F800144BB5614FF480620593012312492846B9
:102108000094CDE90343CDE901443B4600F01EF8B5
:102118006A7B0646284622F004026A7301F09BF89F
:102128002046FFF777FF3A4631462846FEF768FF14
:10213800400B002400ED00E0C4020024BD1F00088D
:10214800F0000024453D0008C00C00242DE9FF41A3
:102158000E9E00F158050F460446067304264037C4
:1021680046730D9E8673D61D0C9A26F00706C0E9A5
:102178001655002506F1400885608844C573C56674
:10218800C0E90655C0E9197602920B9A01920A9A9B
:1021980000924246FEF708FF044B65659B6803B151
:1021A8001B6F4046236704B0BDE8F081C4020024D9
:1021B800F0B5214C87B0214D26463034AE420BD3C2
:1021C8001D4C0A261E4F00F0BFF9AC4220D307B0C1
:1021D800BDE8F04000F0CCB954F8043C059354F83D
:1021E800103C049354F8143C039354F8183C02939D
:1021F80054F81C3C019354F8203C009354E90A23FA
:1022080054E90C01FFF7A2FF54F8303C5E65D3E7B0
:10221800626A531C09D022EAE272206882FB062314
:1022280052EA030103D100F03FF93034CDE73946D3
:10223800183000F039FBF8E7700000247000002423
:102248001B32000838B5074D2C6854B1FFF7B2FDB2
:10225800054B0444002128681C61BDE8384001F0A2
:1022680036B838BDF0020024C402002438B50D4D3C
:102278002B4653F81C4F9C4200D004B9EC68AB685D
:1022880038B95A7BD20604D1A26912B9DA897F2AF1
:1022980005D89C4202D02046FFF7D4FF2346AB6105
:1022A80038BD00BFC402002470B590F90D20014666
:1022B800437B002A04DA03F07F03437300F097FF9F
:1022C8004B7B154A63F07F0310464B7350F81C3F55
:1022D800146A834208BF002323B9C1E900042160BE
:1022E80011620CE091F90E5093F90E60B5420ED0D0
:1022F800AE420CDD5868C1E9003001605960906851
:10230800431A5842BDE870405841FFF7AFBF9C429E
:10231800E3D01B68E0E700BFC402002470B490F962
:102328000D30427B002B29DBD30627D183692BBBD9
:1023380062F07F02124942730A4652F81C4F9442D7
:1023480018BF23460C6A23B9C0E90024206008623C
:102358000CE090F90E5093F90E60B5420AD0AE42E7
:1023680008DD5A68C0E9003210605860002070BC6F
:10237800FFF77CBFA342E7D01B68E4E770BC704757
:10238800C402002408B590F90D200146437B002AB9
:1023980004DA03F07F03437300F029FF044B9868C5
:1023A800431A58425841BDE80840FFF75FBF00BFD5
:1023B800C402002410B54FF01003EFF3118483F327
:1023C8001288BFF36F8F0A23002800FB03F302DD96
:1023D800022BB8BF0223074A002010610648036099
:1023E800064B90681960FFF72DFF84F31188BFF33F
:1023F8006F8F10BDC4020024F0020024EC020024F8
:1024080038B54FF01003EFF3118583F31288BFF34B
:102418006F8F174B174A9C6811688C4207D120466A
:10242800FFF710FF85F31188BFF36F8F38BD0021C8
:102438001160114A1268C2B1E2897F2A15D8627BFD
:10244800D20612D10D4A94F90E10126891420CDB93
:102458000B4A944209D01A69824203DC2046FFF7EE
:1024680023FFDCE7121A1A61DCE70022FBE700BF52
:10247800C4020024E8020024F0020024EC02002434
:102488007000002449B9EFF3058030B9054B9A690B
:102498009B689A4201D0FEF733BD81F31188BFF3E0
:1024A8006F8F7047C402002410B54FF01002EFF38D
:1024B800118482F31288BFF36F8F427B510704D4D3
:1024C80084F31188BFF36F8F10BD22F004024273AA
:1024D800FFF724FF21460248BDE81040FFF7D2BFAE
:1024E800FA02002470B50446183000F0DAFE4FF006
:1024F8001003EFF3118683F31288BFF36F8F94F9FB
:102508000D20637B002A05DA03F07F0320466373FE
:1025180000F06DFE637B0B4D43F01003A8686373F6
:10252800031B58425841FFF7A1FE86F31188BFF3F9
:102538006F8FAB68A34203D1BDE8704000F0A7BE1F
:1025480070BD00BFC40200244FF01003EFF31181E7
:1025580083F31288BFF36F8F044B9A68D37B013BD8
:10256800D37381F31188BFF36F8F7047C4020024BF
:1025780010B54FF01003EFF3118483F31288BFF303
:102588006F8F084B00209A68D37B0133D373FFF712
:102598006DFE84F31188BFF36F8FBDE8104000F023
:1025A80076BE00BFC4020024044B002103F11C02C4
:1025B8000846C3E90722FFF7FDBE00BFC402002496
:1025C800F8B54FF01003EFF3118583F31288BFF3CA
:1025D8006F8F19498868437B03F07F03437300F0CA
:1025E80006FE8B6808465A7B62F07F025A7350F8E1
:1025F8001C2F0C6A824208BF002222B9C3E90004DA
:1026080023600B620CE093F90E6092F90E70BE42E3
:102618000ED0B7420CDD5168C3E900210B6053604E
:102628000120FFF723FE2846BDE8F840FEF768BC06
:10263800A242E3D01268E0E7C402002450EA010392
:102648002DE9F04105460E4603D1FFF7B9FF0020FA
:102658002CE0831C71F1FF332ADB00F054FE44198F
:102668004FF01003EFF3118883F31288BFF36F8FD5
:10267800114F124BB8681860FFF784FEB8682A46F5
:102688000F493346183000F00FF9BA684046537BBB
:1026980043F010035373FEF733FC00F034FE201AA6
:1026A80063EB0303012873F10003D0DBBDE8F0817D
:1026B8006FF00104241AD3E7C4020024E8020024BE
:1026C8001B320008B1F1FF3F08BFB0F1FF3F08B56A
:1026D80006D1074B9868FFF705FF4FF0FF3008BD9C
:1026E800FFF7ACFF0A220023C117FDF7D1FDF6E77B
:1026F800C4020024014B9868704700BFC40200243C
:102708002DE9F04104464FF01003EFF3118683F3EF
:102718001288BFF36F8F037BD9070BD586F3118817
:10272800BFF36F8F404080F311884FF0040002DF41
:10273800BDE8F081437B1A0704D586F31188BFF3FF
:102748006F8FF5E723F0200242F00801D20920D16B
:102758004173A36813B1204600F051FD04F15807F6
:102768004FF0000804F1180000F09BFDA56DBD4274
:1027780000D0B5B90120FFF779FD104B9B68A34243
:10278800DBD1EFF30583002BD7D13046FEF7B8FB3A
:10279800D3E703F05F0343F00803437300F027FD1A
:1027A800D7E7284600F02BFD05F1180000F079FD69
:1027B8002846C5F87880FFF7B1FDD7E7C4020024A2
:1027C80009480A4A0A49121A08B500F002FD094ADE
:1027D80009490A4800F0FDFC09480A4A0A49121A40
:1027E800BDE8084000F0F5BC00000024700000249B
:1027F800803D000800000000803D00080000002423
:102808000000002000000020F03D0008034B1B687A
:102818000BB9FFF7CFBA0020704700BFF4020024BD
:10282800114B10B51C689C420AD1FFF7EFFF6FF0FF
:1028380000400E4B1B6913B19842A8BF184610BD43
:10284800FFF7E4FF002CF2D0D4E904321B1A62EB44
:10285800E072B3F1004F72F10001E8DA002AACBF70
:1028680018460020E5E700BF30000024C402002419
:1028780030B570B10B4B5B6898420AD0036843B11E
:10288800D3E90421D0E90445121941EB0501C3E954
:102898000421D0E9003213605A600023C0E90033F4
:1028A80030BD00BF30000024B3F1FF3F08BFB2F1D4
:1028B800FF3FF8B504461D46164661D081604FF0CB
:1028C8001003EFF3118783F31288BFF36F8F013280
:1028D80075F1FF3324DA30496FF00103D1E90020A4
:1028E8009B1A4FF0FF3262EB00009E1B60EB050065
:1028F800012E70F1000301DA01260020C4E904600A
:10290800264ED6F800C07568B44508BF4FF0000CD5
:10291800BCF1000F0DD1C4E900652C6074601CE0A7
:10292800FFF774FF013645F10005361845EBE070F6
:10293800E4E7DCE90420D4E90431934271EB000EAA
:102948001FDAD21ADCF8043060EB0100CCE904206D
:10295800C4E900C31C60CCF804403368B3420BD010
:102968009C4209D1FFF75CFF18B10D4B1B698342EC
:1029780002D00021FFF7AEF987F31188BFF36F8FFC
:10298800F8BD9B1A61EB0001AC45C4E90431C2D023
:10299800DCF800C0BCE700BF700100243000002450
:1029A800C40200242DE9F8430446FFF729FD4FF03F
:1029B8001003EFF3118683F31288BFF36F8F234F51
:1029C800DFF88C80D8F80000E117224A40453C60C7
:1029D800D2E9003E0BD050B1D0E9045CAC4271EBB7
:1029E8000C0917DA2D1B6CEB010CC0E9045CE31829
:1029F8004FF000044EEB01013C60C2E90031FFF7E3
:102A08000FFF2146FFF766F986F31188BFF36F8F32
:102A1800BDE8F883EB184EEBE571C2E900310022FE
:102A28000023C0E90423FFF723FF86F31188BFF3CF
:102A38006F8F836898474FF01003EFF3118683F385
:102A48001288BFF36F8F3C68641BBBE7F402002455
:102A5800300000247001002410B54FF01003EFF38C
:102A6800118483F31288BFF36F8FFFF7CFFE064AF6
:102A78000346D2E90001181841EBE37184F3118889
:102A8800BFF36F8F10BD00BF70010024024A0349D5
:102A9800034800F00AB800BF7E3D00084A3D000820
:102AA800583D00087047002070470FB407B504A9C7
:102AB80051F8040B0191FDF785FD03B05DF804EBB7
:102AC80004B070470446084611461A4608B5A047A0
:102AD800FFF710FEFEF7F4FB2DE9F84F9A46D3787E
:102AE80080460F466F2B1546A3F1410B29D024D8F9
:102AF800582B0CBF10260A26DDF8289032460023F2
:102B080040463946FDF7C4FB092AD4B21ED83034F2
:102B1800B045E4B277F1000709F8014D01D3D1457A
:102B280011D82B789B0605D5082E15D1AB7843F024
:102B38000803AB704846BDE8F88F03F0F703702B25
:102B4800D7E70826D8E780460F46D7E7BBF1190F25
:102B580094BF37345734DBE7102EEBD1AB7843F012
:102B68001003E6E72DE9F0410746884615461E465C
:102B78001446B44205D30EB1601B08E02378002B3D
:102B8800FAD0414614F8010BB8470028F1DABDE83D
:102B9800F08170470020704700F0FEBA01460068D7
:102BA80000F0FABA00210120FFF7F6BF08B5FEF7DA
:102BB8007FF9BDE80840FEF74DBA034600201A5CCD
:102BC80002B970470130FAE7034600201A5C0AB1DF
:102BD800884200D170470130F8E7431E0A4410B517
:102BE800914200D110BD11F8014B03F8014FF7E7EE
:102BF800C9B202440346934200D1704703F8011B4F
:102C0800F9E74FF0FF3070470022062008B511465B
:102C1800FEF738F9002207201146FEF733F90022A3
:102C280008201146FEF72EF9002209201146FEF76A
:102C380029F900220A201146FEF724F9002217205C
:102C48001146FEF71FF9002228201146FEF71AF94F
:102C5800002008BD2DE9F84304460E4615464FF0FE
:102C680001084FF0B04702F10409B44201DBBDE8A6
:102C7800F88308FA04F3D7F8882033EA020208D167
:102C8800C7F8883055F834301BB159F8341020464D
:102C980098470134E9E7026910210A20FFF7DABFF3
:102CA80002690A210520FFF7D5BF02690521042022
:102CB800FFF7D0BF026904210320FFF7CBBF0269E9
:102CC80003210220FFF7C6BF026902210120FFF796
:102CD800C1BF026901210020FFF7BCBF1F2809DC22
:102CE8004FF0B0410122D1F88030824023EA02033C
:102CF800C1F88030704703292ED8DFE801F0020FB1
:102D080016224FF0B04301221968824021EA0201DD
:102D18001960596821EA02025A60704701224FF08F
:102D2800B043824019681143F2E74FF0B0430122E3
:102D38005968824011435960196821EA02021A60F1
:102D48007047012303FA00F04FF0B0431A680243BA
:102D58001A605A681043586070470B68A3F1D40290
:102D6800202A09D803F1B0434968002003F511333C
:102D78001A680A431A6070476FF0850070470B683D
:102D8800A3F1D402202A0AD803F1B04349680020ED
:102D980003F511331A6822EA01021A6070476FF0CE
:102DA80085007047436800205B681B690B607047AB
:102DB80043685B68586942400A40424000205A61B3
:102DC8007047436800205B6899617047436809044D
:102DD80000205B6899617047436800205A6853690E
:102DE8004B405361704710B50369986848B18842F1
:102DF80013D1DC680868A142986000D1D86000202F
:102E080008607AB9002010BD814206D108682060A8
:102E1800D8688142F3D1DC60F1E7044600680028F5
:102E2800F2D13AB19A680A60DA689960002AE9D161
:102E3800D960E7E76FF01500E5E72DE9F041446850
:102E48000120C2F38016C2F3C11C676888408E4017
:102E580002F0300527EA0007C2F34122202D46EA96
:102E6800070600FA01F7666007EB470ED4F80880FA
:102E780007FB0CFC07FB02F26FEA0E0628EA0E08B5
:102E88004CEA080CC4F808C0D4F80CC02CEA0E0CA4
:102E980042EA0C02E2600CD1072912DC07FA01F2BF
:102EA800206A8A40C2EB02115A4320EA01010A4310
:102EB800226223682D091E407D4335432560BDE805
:102EC800F081020A616A52435243C2EB02105A432C
:102ED80021EA00010A436262EBE738B50446900331
:102EE8000D46134617D591070ED55A072ED55022F1
:102EF800D8060BD542F4007219031AD5616801236C
:102F08004968AB408B610DE01022F1E79906F3D5D3
:102F180042F48062F0E7DA0313D5D80613D4C3F37A
:102F280040139A02606800232946FFF786FF0020B5
:102F380038BD5B03F6D501212046A940FFF746FFBF
:102F4800F0E73022EEE74FF40072EBE76FF0850010
:102F5800EEE70B4670B5896821B101255E680C68FB
:102F6800854001B970BD8A682A4002D04B68304656
:102F780098471CB1236821461C46F2E72346FAE726
:102F8800F8B51F46044640680E461546FFF755FF3C
:102F9800112F07D101212B0501FA06F104D5636829
:102FA8005B6899610020F8BD2046FFF70FFFF9E73D
:102FB80043681A68D069D169C0F3C000C907D169EC
:102FC80048BF40F002008907D16948BF40F00400BB
:102FD800C90504D54FF4807140F008001162C2079A
:102FE80002D51A6808211162810702D51A680121E1
:102FF8001162420702D51A68022111621B68042275
:103008001A62704737B503690C464568586869689D
:103018008368DB688BB101AA984700280DDB2A6812
:10302800136823F40043136001992B682CB101EB5A
:103038005401B1FBF4F189B2D96003B030BD10B5C9
:1030480040680268D3691B06FCD54FF01002EFF305
:10305800118382F31288BFF36F8F0268D469240644
:1030680004D483F31188BFF36F8FEAE7916283F387
:103078001188BFF36F8F10BD43681A68D0690007C5
:1030880001D5082010621B68DA69920603D55B6ACD
:1030980000200B7070474FF0FF30704703691B68C2
:1030A8000B6043681B681B6803F4C063B3F5806F4B
:1030B80035D0A3F5C06CDCF1000343EB0C030B71B6
:1030C80043681B685B6803F44053B3F5805F28D0FE
:1030D800B3F5405F27D0002B0CBF012303234B71AE
:1030E80043681B681A681B6802F0102203F4C06367
:1030F800B2F5805F19D0B2F1805F1BD1002B14BFED
:10310800012302238B71436800201B689B6803F42A
:103118004073A3F5407253425341CB717047022369
:10312800CDE70023DBE70223D9E7002B14BF0323F5
:103138000423E7E7002B14BF02230323E2E770B55B
:103148006FF060460368136005790468354404EB42
:10315800C504A34202D96FF0010070BD5C798C42AE
:1031680001D00833EFE70020F7E7704738B1C368AC
:103178001888C0F30800A0F580735842584170477A
:103188004FF01002EFF3118382F31288BFF36F8FB1
:10319800FEE708B5FFF7F4FFF8B505460E464FF011
:1031A8001003EFF3118783F31288BFF36F8FFFF7D4
:1031B800A1FA314604462846FFF7EBFF87F311884A
:1031C800BFF36F8F2046BDE8F840FEF779B8FFF7E8
:1031D8000FBDFFF702BD08B54FF01002EFF31183E2
:1031E80082F31288BFF36F8FFDF730FEF4E7D0E962
:1031F800003213605A600023C0E90033704708B5F5
:10320800FFF7F5FF437B23F002034373002383603A
:1032180008BD014610B54FF01003EFF3118483F396
:103228001288BFF36F8F10F80B3C13F0280F0DD1E5
:1032380051F8103C18380BB1FFF7E1FF11F80B3CBF
:1032480023F0140301F80B3CFFF768F884F31188A6
:10325800BFF36F8F10BD10B54FF01003EFF311845B
:1032680083F31288BFF36F8FFFF758F884F3118840
:10327800BFF36F8F10BD034620B9EFF305820AB97B
:10328800FDF73EBE83F31188BFF36F8F70474FF091
:103298001003EFF3118083F31288BFF36F8FFFF7EA
:1032A800EABF10B54FF01002EFF3118482F31288D1
:1032B800BFF36F8F03683BB1FFF7DAFA002084F39E
:1032C8001188BFF36F8F10BD6FF01500F7E770B569
:1032D80004460D464FF01003EFF3118683F312886E
:1032E800BFF36F8FFFF79CFA012807DDA04205DBCB
:1032F800A0422946A8BF2046FEF7ECFC86F31188B9
:10330800BFF36F8F70BD08B5FFF7A6FB08BD0000BF
:08331800B4CFFF7F01000000AB
:103320004D0D0008000000009D2B0008000000006B
:1033300019160008B0330008112C0008C833000823
:10334000E1170008E0330008E1170008F83300082F
:10335000E117000810340008E117000828340008BD
:10336000E117000840340008E1170008583400084D
:10337000E117000870340008E117000888340008DD
:10338000E1170008A0340008E1170008B83400086D
:10339000E1170008D034000821190008E8340008BB
:1033A0009117000800000000651C000800000000E4
:1033B0008E3C000800000000080000243C000024AF
:1033C00000000000163A0008703C000800000000F1
:1033D000000000003800002484010024103A000896
:1033E0009B3C0008803A00085C3B00084000002439
:1033F00004020024083A0008A93C0008943A000896
:103400005C3B00084400002414020024003A000839
:10341000B73C0008A83A00085C3B000848000024BC
:1034200024020024F8390008C53C0008BC3A000812
:103430005C3B00084C00002434020024F0390008F2
:10344000D33C0008D03A00085C3B00085000002440
:1034500044020024E8390008E13C0008E43A00088E
:103460005C3B00085400002454020024E0390008AA
:10347000EF3C0008F83A00085C3B000858000024C4
:1034800064020024D8390008FD3C00080C3B000809
:103490005C3B00085C00002474020024D039000862
:1034A0000B3D0008203B00085C3B00086000002446
:1034B00084020024C8390008193D0008343B000884
:1034C0005C3B00086400002494020024C03900081A
:1034D000273D0008483B00085C3B000868000024CA
:1034E000A4020024B8390008353D0008803B0008DC
:1034F000C43B00086C00002424000024B0390008FC
:1035000000000000AD2B000800000000AD2B0008FB
:1035100000000000AD2B000800000000AD2B0008EB
:1035200000000000AD2B000800000000AD2B0008DB
:10353000C8330008DB2C0008C8330008D12C000871
:10354000C8330008C72C0008C8330008BD2C000889
:10355000C8330008B32C000800000000AD2B0008A1
:1035600000000000AD2B000800000000AD2B00089B
:1035700000000000AD2B000800000000AD2B00088B
:1035800000000000AD2B000800000000AD2B00087B
:1035900000000000AD2B000800000000AD2B00086B
:1035A00000000000AD2B000800000000AD2B00085B
:1035B00000000000AD2B0008C8330008A92C00084B
:1035C00000000000AD2B000800000000AD2B00083B
:1035D00000000000AD2B000800000000AD2B00082B
:1035E00000000000AD2B000800000000AD2B00081B
:1035F00000000000AD2B000800000000AD2B00080B
:1036000000000000AD2B000800000000AD2B0008FA
:1036100000000000AD2B000800000000AD2B0008EA
:1036200000000000AD2B000800000000AD2B0008DA
:1036300000000000AD2B000800000000AD2B0008CA
:10364000C83300089F2C000800000000AD2B0008C4
:1036500000000000AD2B000800000000AD2B0008AA
:1036600000000000AD2B000800000000AD2B00089A
:1036700000000000AD2B000800000000AD2B00088A
:1036800000000000AD2B000800000000AD2B00087A
:1036900000000000AD2B000800000000AD2B00086A
:1036A00000000000AD2B000800000000AD2B00085A
:1036B00000000000AD2B000800000000AD2B00084A
:1036C00000000000AD2B000800000000AD2B00083A
:1036D00000000000AD2B000800000000AD2B00082A
:1036E00000000000AD2B000800000000AD2B00081A
:1036F00000000000AD2B000800000000AD2B00080A
:1037000000000000AD2B000800000000AD2B0008F9
:1037100000000000AD2B000800000000AD2B0008E9
:1037200000000000AD2B000800000000AD2B0008D9
:1037300000000000AD2B000800000000AD2B0008C9
:1037400000000000AD2B000800000000AD2B0008B9
:1037500000000000AD2B000800000000AD2B0008A9
:1037600000000000AD2B000800000000AD2B000899
:1037700000000000AD2B000800000000AD2B000889
:1037800000000000AD2B000800000000AD2B000879
:1037900000000000AD2B000800000000AD2B000869
:1037A00000000000AD2B000800000000AD2B000859
:1037B00000000000AD2B000800000000AD2B000849
:1037C00000000000AD2B000800000000AD2B000839
:1037D00000000000AD2B000800000000AD2B000829
:1037E00000000000AD2B000800000000AD2B000819
:1037F00000000000AD2B000800000000AD2B000809
:1038000000000000AD2B000800000000AD2B0008F8
:1038100000000000AD2B000800000000AD2B0008E8
:1038200000000000AD2B000800000000AD2B0008D8
:1038300000000000AD2B000800000000AD2B0008C8
:1038400000000000AD2B000800000000AD2B0008B8
:1038500000000000AD2B000800000000AD2B0008A8
:1038600000000000AD2B000800000000AD2B000898
:1038700000000000AD2B000800000000AD2B000888
:1038800000000000AD2B000800000000AD2B000878
:1038900000000000AD2B000800000000AD2B000868
:1038A00000000000AD2B000800000000AD2B000858
:1038B00000000000AD2B000800000000AD2B000848
:1038C00000000000AD2B000800000000AD2B000838
:1038D00000000000AD2B000800000000AD2B000828
:1038E00000000000AD2B000800000000AD2B000818
:1038F00000000000AD2B000800000000AD2B000808
:1039000000000000AD2B000800000000AD2B0008F7
:1039100000000000AD2B000800000000AD2B0008E7
:1039200000000000AD2B000800000000AD2B0008D7
:1039300000000000AD2B000800000000AD2B0008C7
:1039400000000000AD2B000800000000AD2B0008B7
:1039500000000000AD2B000800000000AD2B0008A7
:1039600000000000AD2B000800000000AD2B000897
:1039700000000000AD2B000800000000AD2B000887
:1039800000000000AD2B000800000000AD2B000877
:1039900000000000AD2B000800000000AD2B000867
:1039A00000000000AD2B000800000000AD2B000857
:1039B000010000800080FF7F010000800080FF7F09
:1039C000010000800080FF7F010000800080FF7FF9
:1039D000010000800080FF7F010000800080FF7FE9
:1039E000010000800080FF7F010000800080FF7FD9
:1039F000010000800080FF7F010000800080FF7FC9
:103A0000010000800080FF7F010000800080FF7FB8
:103A100000800080FF7F008000800300040005001C
:103A200006000700080009000A000B000C000D004A
:043A30000E00FF7F06
:103A3400F40000000200000004000000443A000802
:103A440000000008483C0008280002070000002489
:103A54004E3C000824000B1100000430533C0008C5
:103A64001A00081100000430613C00080E00040133
:103A7400000000240000000000000B06FFFF00000F
:103A8400002802580A000000E000000000040000C2
:103A9400FFFF00000024025809000000E0000000BD
:103AA40000020000FFFF0000002002580800000090
:103AB400E000000000010000FFFF0000001C0258AD
:103AC40007000000E000000080000000FFFF00008D
:103AD4000018025806000000E0000000400000004A
:103AE400FFFF00000014025805000000E000000081
:103AF40020000000FFFF0000001002580400000036
:103B0400E000000010000000FFFF0000000C02585D
:103B140003000000E000000008000000FFFF0000B8
:103B24000008025802000000E00000000400000049
:103B3400FFFF00000004025801000000E000000044
:103B440002000000FFFF0000000002580000000017
:103B5400E000000001000000E32E0008AD2D000885
:103B6400B92D0008CB2D0008D52D0008E12D000843
:103B740011180008EF2D0008000000000048004064
:103B84009C3B000801000000000000000000000051
:103B940000000000A43B0008E8000000000004004E
:103BA400AC3B000801000000B43B00080200000028
:103BB40007070000000200002707000000000000C3
:103BC4008130000847300008B92F0008351A000872
:103BD400A5300008D0340008B8340008A034000828
:103BE4008834000870340008583400084034000851
:103BF4002834000810340008F8330008E0330008C3
:103C040020330008A8330008B0330008B03300089C
:103C1400B0330008F5FFFFFF0600070008000900A5
:103C24000A001700170017001700170028002800C3
:103C34002800280028002800001000000030286E0A
:103C4400696C2900464C415348005352414D00537E
:103C540052414D335F4554485F42554600535241EB
:103C64004D335F4554485F4445534300696E746562
:103C740072727570742D636F6E74726F6C6C657292
:103C8400403538303030303030007263634035387E
:103C9400303234343030006770696F403538303238
:103CA40032383030006770696F4035383032323422
:103CB4003030006770696F40353830323230303020
:103CC400006770696F4035383032314330300067F7
:103CD40070696F4035383032313830300067706980
:103CE4006F403538303231343030006770696F409E
:103CF4003538303231303030006770696F403538D4
:103D0400303230433030006770696F4035383032BC
:103D140030383030006770696F40353830323034B5
:103D24003030006770696F403538303230303030B1
:103D34000073657269616C4034303030343830302F
:103D4400006D61696E007A65706879722D76332E24
:103D5400322E30002A2A2A20426F6F74696E67203F
:103D64005A6570687972204F53206275696C6420BB
:0C3D74002573202573202A2A2A0A00004B
:103D8000AF2A00080B2C0008632D0008872D0008BF
:103D9000000000006915000800000000000000009D
:103DA0000515000800C20100000000000090D003CB
:083DB000300000243000002463
:103DB80000000000000000000000000000000000FB
:103DC80000000000000000000000000000000000EB
:103DD80000000000000000000000000000000000DB
:083DE8000000000000000000D3
:040000050800129D40
:00000001FF
