:020000040000FA
:0400000041EF00F0DC
:100008004C82FACF0CF0FBCF0DF0F6CF0EF0F7CF05
:100018000FF0F8CF10F0F5CF11F0F2AA16EF00F0BC
:1000280018EF00F023EF00F0F2A41DEF00F01FEF2F
:1000380000F023EF00F0E2EC09F033EF00F0F2A853
:1000480028EF00F02AEF00F033EF00F0F2A22FEFD4
:1000580000F031EF00F033EF00F01AEC0BF011C0B4
:10006800F5FF10C0F8FF0FC0F7FF0EC0F6FF0DC078
:10007800FBFF0CC0FAFF4C921100AEEF0AF044509F
:10008800D8A449EF00F04BEF00F07DEF00F0000E30
:100098008A6E8A82060E416E000E166E000E97EC6E
:1000A80008F0EE0E166E7F0E176EE9EC08F0000EE3
:1000B800166E010E97EC08F0EF0E166E7E0E176E98
:1000C800E9EC08F0000E426E000E3F6E000E3E6E28
:1000D800150E216E4B0E206EBE0EE82EFED7202E7A
:1000E800FCD7212EFAD700F000F057EC0BF0010EE8
:1000F800446E4404D8A483EF00F085EF00F004EFC9
:1001080001F010EC0BF00009D8B48DEF00F08FEF80
:1001180000F085EF00F09E9039EC0BF0422A020EB9
:100128004218D8A49AEF00F09CEF00F0ADEF00F071
:10013800D8908A36412A080E4164A5EF00F0A7EF4F
:1001480000F0AAEF00F08A82060E416E000E426EA1
:100158003E2A020E3E18D8A4B4EF00F0B6EF00F025
:10016800FAEF00F0000E166E010E97EC08F0000E84
:10017800166E7F0E176EE9EC08F0070E166E010E6C
:1001880097EC08F03FC012F0136A000E156E640E6B
:10019800146E7BEC04F01250300F5CEC0AF0000E89
:1001A800156E0A0E146E3FC012F0136A7BEC04F051
:1001B80012C01AF013C01BF0000E1D6E0A0E1C6E42
:1001C800F2EC05F01A50300F5CEC0AF03FC01AF060
:1001D8001B6A000E1D6E0A0E1C6EF2EC05F01A501A
:1001E800300F5CEC0AF0000E3E6E3F2A640E3F644E
:1001F80000EF01F002EF01F004EF01F0000E3F6E96
:100208004550D8B40AEF01F00CEF01F010EF01F0FF
:1002180055EC0BF0000E446E12004450D8A417EFB2
:1002280001F019EF01F02EEF01F0000E8A6E53EC89
:100238000BF0BA50F00B0C09BA6E000E166E000ED9
:1002480097EC08F0110E166E7F0E176EE9EC08F0A9
:10025800010E446E4404D8A434EF01F036EF01F0E7
:10026800BDEF01F0000E78EC09F012C03AF013C0AF
:100278003BF03AC012F03BC013F0B2EC09F0BB50AF
:10028800040DF3CF2BF0F4CF2CF0BA38030B2D6EFE
:100298002D502B26000E2C222BC012F02CC013F050
:1002A800000E13BEFF0E146E156E640E166E000E51
:1002B800176E000E186E000E196EAAEC07F012C029
:1002C8001EF013C01FF014C020F015C021F0CB5051
:1002D8002E6E2F6AD8902E362F36D8902E362F367F
:1002E800040E2E26000E2F222EC022F02FC023F03F
:1002F800000E23BEFF0E246E256EA1EC06F01EC074
:1003080036F01FC037F0000E166E010E97EC08F09D
:10031800220E166E7F0E176EE9EC08F00D0E166EA3
:10032800010E97EC08F0000E156E0A0E146E36C01A
:1003380012F037C013F03AEC07F012C019F013C0EE
:100348001AF0000E1C6E0A0E1B6EDFEC07F0195037
:10035800300F5CEC0AF036C019F037C01AF0000E06
:100368001C6E0A0E1B6EDFEC07F01950300F5CECA8
:100378000AF04550D8B4C3EF01F0C5EF01F0CBEF58
:1003880001F0F00EBA1651EC0BF0000E446E12009C
:100398004450D8A4D2EF01F0D4EF01F0E6EF01F019
:1003A800000E8A6E8A82060E416E000E166E000ED0
:1003B80097EC08F0550E166E7F0E176EE9EC08F0F4
:1003C800010E446E4404D8A4ECEF01F0EEEF01F006
:1003D8006AEF02F0000E78EC09F0D890133212326E
:1003E800D890133212321250406E150E4024386ED7
:1003F800396A000E39220D0E1E6EFC0EE82EFED74D
:100408001E2EFCD70FEF02F0030E1E6E980EE82E7C
:10041800FED71E2EFCD740064028D8A416EF02F0BF
:1004280018EF02F008EF02F0D8908A36412A080E39
:10043800416421EF02F023EF02F026EF02F08A82F6
:10044800060E416E000E166E010E97EC08F0660E51
:10045800166E7F0E176EE9EC08F0090E166E010E87
:1004680097EC08F038C012F039C013F0000E156E82
:10047800640E146E3AEC07F01250300F5CEC0AF080
:10048800000E156E0A0E146E38C012F039C013F043
:100498003AEC07F012C019F013C01AF0000E1C6EE7
:1004A8000A0E1B6EDFEC07F01950300F5CEC0AF0F7
:1004B80038C019F039C01AF0000E1C6E0A0E1B6EF7
:1004C800DFEC07F01950300F5CEC0AF04550D8B457
:1004D80070EF02F072EF02F074EF02F0000E446E5B
:1004E800120038EC0AF04AEC06F0F29AF298F19C05
:1004F800F00EBA16000E166E000E97EC08F0450EB8
:10050800166E7E0E176EE9EC08F0000E166E010EE0
:1005180097EC08F0560E166E7E0E176EE9EC08F092
:1005280040EC08F0C4EF02F074EC07F0FDEF02F0C5
:1005380002EC04F0FDEF02F03EEC05F0FDEF02F0F6
:1005480098EC05F0FDEF02F0CCEC01F0FDEF02F0C5
:1005580088EC03F0FDEF02F011EC01F0FDEF02F082
:1005680043EC00F0FDEF02F0F3EC06F0FDEF02F0D3
:100578000BEC03F0FDEF02F0DDEC04F0FDEF02F010
:100588004650306E316A3150000AD8B4CEEF02F0CE
:10059800FDEF02F03050010AD8B498EF02F0030AD8
:1005A800D8B49CEF02F0010AD8B4A0EF02F0070A11
:1005B800D8B4A4EF02F0010AD8B4A8EF02F0030AF5
:1005C800D8B4ACEF02F0010AD8B4B0EF02F00F0AC9
:1005D800D8B4B4EF02F0010AD8B4B8EF02F0030AB5
:1005E800D8B4BCEF02F0010AD8B4C0EF02F0FDEFB6
:1005F80002F04550D8B403EF03F005EF03F094EF91
:1006080002F0A0EC0AF094EF02F041EF00F0445041
:10061800D8A411EF03F013EF03F066EF03F0000E18
:100628008A6E8A84000E166E000E97EC08F0890E0A
:10063800166E7E0E176EE9EC08F0D180050E226E5C
:10064800000E236E000E166E010E97EC08F0780E61
:10065800166E7E0E176EE9EC08F00D0E166E010E82
:1006680097EC08F022C01AF01B6A000E1D6E0A0EE5
:100678001C6EF2EC05F01A50300F5CEC0AF0220602
:100688000B0E216E260E206E5E0EE82EFED7202E53
:10069800FCD7212EFAD7232A040E236456EF03F041
:1006A80058EF03F026EF03F0000E166E010E97ECDC
:1006B80008F0AB0E166E7E0E176EE9EC08F003001C
:1006C800010E446E4404D8A46CEF03F06EEF03F0FF
:1006D8007DEF03F08A948A868A82000E166E010ED8
:1006E80097EC08F09A0E166E7E0E176EE9EC08F07D
:1006F800D1904550D8B483EF03F085EF03F087EF2E
:1007080003F0000E446E12004450D8A48EEF03F09C
:1007180090EF03F0ADEF03F0000E8A6E8A82060EAA
:10072800416E000E166E000E97EC08F0440E166E21
:100738007F0E176EE9EC08F0000E166E010E97ECAE
:1007480008F0330E166E7F0E176EE9EC08F0010EF6
:10075800446E4404D8A4B3EF03F0B5EF03F0F7EF09
:1007680003F081B0BAEF03F0BCEF03F0F7EF03F04A
:10077800000E1E6E340E1D6EF20EE82EFED71D2ED4
:10078800FCD71E2A050E1E64CCEF03F0CEEF03F053
:10079800BEEF03F081B0D3EF03F0D5EF03F0F7EF2E
:1007A80003F0D8908A36412A080E4164DEEF03F040
:1007B800E0EF03F0E3EF03F08A82060E416E000ECD
:1007C800166E010E97EC08F0AA0E166E7F0E176EC5
:1007D800E9EC08F0070E166E010E97EC08F0415090
:1007E800300F5CEC0AF04550D8B4FDEF03F0FFEF92
:1007F80003F001EF04F0000E446E12004450D8A438
:1008080008EF04F00AEF04F01BEF04F0000E8A6E04
:10081800000E166E000E97EC08F0BB0E166E7F0EDB
:10082800176EE9EC08F057EC0BF0010E446E440427
:10083800D8A421EF04F023EF04F06EEF04F081A6B2
:1008480028EF04F02AEF04F037EF04F0000E166EDC
:10085800010E97EC08F0CC0E166E7F0E176EE9ECC1
:1008680008F042EF04F0000E166E010E97EC08F047
:10087800330E166E7E0E176EE9EC08F010EC0BF0D6
:100888000009D8B44AEF04F04CEF04F042EF04F04A
:100898009E9039EC0BF0422A060E4218D8A457EF66
:1008A80004F059EF04F06EEF04F08AB65EEF04F03E
:1008B80061EF04F0010E62EF04F0000EFF0A1D6EF6
:1008C8001D461D461D468A501D18F70B1D188A6EB9
:1008D800000E426E4550D8B474EF04F076EF04F081
:1008E8007AEF04F055EC0BF0000E446E1200000E87
:1008F800176E15BE84EF04F082EF04F08AEF04F05F
:10090800146C151ED8B0152A010E176E13BE91EF80
:1009180004F08FEF04F097EF04F0126C131ED8B0B8
:10092800132A010E171A000E196E000E186E1450B5
:100938001510D8B4A2EF04F0A4EF04F0CCEF04F043
:10094800010E166EACEF04F0D89014361536162A40
:1009580015AEB1EF04F0B3EF04F0A8EF04F0D890AF
:10096800183619361450125C15501358D8A0BFEF1A
:1009780004F0C1EF04F0C6EF04F01450125E1550F5
:10098800135A1880D89015321432162EB3EF04F08B
:100998001750D8B4D2EF04F0D4EF04F0D8EF04F035
:1009A800186C191ED8B0192A18C012F019C013F003
:1009B80012004450D8A4E3EF04F0E5EF04F002EF8E
:1009C80005F0000E8A6EF28EF28CF288F18CB20E6F
:1009D800126E120E136E4AEC0BF0000E166E000E1D
:1009E80097EC08F01F0E166E7E0E176EE9EC08F0F5
:1009F800000E3B6E000E3A6E010E446E4404D8A4FD
:100A080008EF05F00AEF05F02EEF05F0800E06EC72
:100A18000BF0206E205020248A6E000E166E010EF8
:100A280097EC08F0670E166E7E0E176EE9EC08F06C
:100A38000B0E166E010E97EC08F020C01AF01B6A18
:100A4800000E1D6E0A0E1C6EF2EC05F01A50300FE7
:100A58005CEC0AF04550D8B434EF05F036EF05F0F9
:100A68003DEF05F0F29AF298F19CF29EF29C000E8E
:100A7800446E12004450D8A444EF05F046EF05F048
:100A880058EF05F0000E8A6E8A82060E416E000E3F
:100A9800166E000E97EC08F0990E166E7F0E176E04
:100AA800E9EC08F0010E446E4404D8A45EEF05F0AA
:100AB80060EF05F08DEF05F0060E1E6E130E1D6E2D
:100AC800AE0EE82EFED71D2EFCD71E2EFAD7D890D4
:100AD8008A36412A080E416474EF05F076EF05F076
:100AE80079EF05F08A82060E416E000E166E010E31
:100AF80097EC08F0AA0E166E7F0E176EE9EC08F058
:100B0800070E166E010E97EC08F04150300F5CECA2
:100B18000AF04550D8B493EF05F095EF05F097EF3C
:100B280005F0000E446E12004450D8A49EEF05F064
:100B3800A0EF05F0AFEF05F0000E8A6E000E166EFE
:100B4800000E97EC08F0770E166E7F0E176EE9EC24
:100B580008F0010E446E4404D8A4B5EF05F0B7EFD1
:100B680005F0E7EF05F0000E78EC09F0070E1E6EB1
:100B7800D890133212321E2EBCEF05F012C03AF094
:100B880013C03BF03A503A248A6E000E166E010EDE
:100B980097EC08F0880E166E7F0E176EE9EC08F0D9
:100BA8000E0E166E010E97EC08F03AC019F03BC015
:100BB8001AF0000E1C6E0A0E1B6EDFEC07F01950BF
:100BC800300F5CEC0AF04550D8B4EDEF05F0EFEFCC
:100BD80005F0F1EF05F0000E446E1200000E1F6ED6
:100BE8001BBEFBEF05F0F9EF05F001EF06F01A6CFC
:100BF8001B1ED8B01B2A010E1F6E1DBE08EF06F083
:100C080006EF06F00CEF06F01C6C1D1ED8B01D2A6E
:100C18001C501D10D8B413EF06F015EF06F039EF8D
:100C280006F0010E1E6E1DEF06F0D8901C361D361C
:100C38001E2A1DAE22EF06F024EF06F019EF06F08B
:100C48001C501A5C1D501B58D8A02DEF06F02FEF32
:100C580006F033EF06F01C501A5E1D501B5AD89050
:100C68001D321C321E2E24EF06F01F50D8B43FEF61
:100C780006F041EF06F045EF06F01A6C1B1ED8B0DF
:100C88001B2A1AC01AF01BC01BF01200000E136EAC
:100C9800000EBBEC0AF0000E136E010EBBEC0AF05E
:100CA800200E136E120EBBEC0AF01A0E166EF80E1A
:100CB800E82EFED7162EFCD700F000F03C0E6DECA7
:100CC8000AF01A0E166EF80EE82EFED7162EFCD76E
:100CD80000F000F00C0E6DEC0AF01A0E166EF80E0D
:100CE800E82EFED7162EFCD700F000F0010E6DECB2
:100CF8000AF01A0E166EF80EE82EFED7162EFCD73E
:100D080000F000F00C0E6DEC0AF0020E176E520E99
:100D1800166EA60EE82EFED7162EFCD7172EFAD77B
:100D280000F000F0800E6DEC0AF0030E166E980EBF
:100D3800E82EFED7162EFCD71200000E266E000EE7
:100D4800276E000E286E000E296E225023102410E4
:100D58002510D8B4B2EF06F0B4EF06F0EAEF06F0CB
:100D6800010E2A6EBEEF06F0D890223623362436BE
:100D780025362A2A25AEC3EF06F0C5EF06F0B8EFF0
:100D880006F0D890263627362836293622501E5C9B
:100D980023501F582450205825502158D8A0D7EF49
:100DA80006F0D9EF06F0E2EF06F022501E5E23505F
:100DB8001F5A2450205A2550215A2680D89025326F
:100DC8002432233222322A2EC5EF06F026C01EF026
:100DD80027C01FF028C020F029C021F0120044507D
:100DE800D8A4F9EF06F0FBEF06F02BEF07F0000EA2
:100DF8008A6E8A82F28EF28CF288F18CF28A220E46
:100E0800126E100E136E45EC0BF0D80E126E100E0B
:100E1800136E4AEC0BF0010E3D6E060E3C6E000E92
:100E2800166E000E97EC08F0BC0E166E7E0E176E4E
:100E3800E9EC08F0000E166E010E97EC08F0DE0ED5
:100E4800166E7E0E176EE9EC08F0010E446E4550E2
:100E5800D8B431EF07F033EF07F039EF07F0F29A23
:100E6800F298F29EF29C000E446E1200000E176E6D
:100E7800000E166E14501510D8B445EF07F047EF62
:100E880007F06FEF07F0010E186E4FEF07F0D890DC
:100E980014361536182A15AE54EF07F056EF07F03A
:100EA8004BEF07F0D890163617361450125C1550D1
:100EB8001358D8A062EF07F064EF07F069EF07F066
:100EC8001450125E1550135A1680D89015321432E9
:100ED800182E56EF07F016C012F017C013F01200C4
:100EE8004450D8A47AEF07F07CEF07F08BEF07F0B7
:100EF800000E8A6E000E166E000E97EC08F0DD0EDE
:100F0800166E7F0E176EE9EC08F0010E446E44046D
:100F1800D8A491EF07F093EF07F09FEF07F08A86C8
:100F2800000E166E010E97EC08F0CC0E166E7F0EB2
:100F3800176EE9EC08F04550D8B4A5EF07F0A7EF15
:100F480007F0A9EF07F0000E446E1200000E1A6EAB
:100F5800000E1B6E000E1C6E000E1D6E12A0B7EF69
:100F680007F0B9EF07F0C1EF07F016501A2617502F
:100F78001B2218501C2219501D22D89016361736DD
:100F880018361936D89015321432133212321250DC
:100F9800131014101510D8A4D4EF07F0D6EF07F0EB
:100FA800B2EF07F01AC012F01BC013F01CC014F007
:100FB8001DC015F012001B501C10D8B4E6EF07F046
:100FC800E8EF07F00CEF08F0010E1D6EF0EF07F0E8
:100FD800D8901B361C361D2A1CAEF5EF07F0F7EF2C
:100FE80007F0ECEF07F01B50195C1C501A58D8A0FA
:100FF80000EF08F002EF08F006EF08F01B50195E4A
:101008001C501A5AD8901C321B321D2EF7EF07F0CD
:1010180019C019F01AC01AF012003D04D8A417EF2D
:1010280008F019EF08F029EF08F0D8908A363C2A22
:10103800080E3C6422EF08F024EF08F03FEF08F0B8
:101048008A82060E3C6E3FEF08F03D50D8A42FEF81
:1010580008F031EF08F03FEF08F0D8908A323C06EC
:10106800060E3C603AEF08F03CEF08F03FEF08F05E
:101078008A86080E3C6E12004350D8A446EF08F04A
:1010880048EF08F060EF08F080BA4DEF08F04FEF36
:1010980008F06BEF08F0020E136E040E126EBA0E13
:1010A800E82EFED7122EFCD7132EFAD700F000F048
:1010B800010E436E6BEF08F080AA65EF08F067EF4A
:1010C80008F06BEF08F0000E436E010E456E12003B
:1010D800010E3D1A3D04D8A474EF08F076EF08F02D
:1010E80083EF08F0000E056E010EC0EC08F0DE0E6E
:1010F800056E7E0E066E11EC09F096EF08F03D5075
:10110800D8A489EF08F08BEF08F096EF08F0000EEE
:10111800056E010EC0EC08F0CD0E056E7E0E066E53
:1011280011EC09F012001C6E020E1C609EEF08F014
:10113800A0EF08F0BFEF08F01C50D8B4A6EF08F0F5
:10114800A8EF08F0B2EF08F0C00E16C017F0186A42
:101158001710196E18501A6EBAEF08F0800E16C0E4
:1011680017F0186A1710196E18501A6E19C01BF06C
:101178001B506DEC0AF012000B6E020E0B60C7EFED
:1011880008F0C9EF08F0E8EF08F00B50D8B4CFEF3B
:1011980008F0D1EF08F0DBEF08F0C00E05C006F04C
:1011A800076A0610086E0750096EE3EF08F0800E14
:1011B80005C006F0076A0610086E0750096E08C0D9
:1011C8000AF00A508FEC0AF01200000E1A6EFCEFBB
:1011D80008F01A501624186E000E1720196E18C041
:1011E800F6FF19C0F7FF0800F5505CEC0AF01A2A60
:1011F8001A501624186E000E1720196E18C0F6FF24
:1012080019C0F7FF0800F5500009D8A40EEF09F03F
:1012180010EF09F0EDEF08F01200000E096E24EF50
:1012280009F009500524076E000E0620086E07C055
:10123800F6FF08C0F7FF0800F5507EEC0AF0092A0F
:1012480009500524076E000E0620086E07C0F6FF39
:1012580008C0F7FF0800F5500009D8A436EF09F0D8
:1012680038EF09F015EF09F01200026E000EF2BE19
:10127800010E036E02C0A9FF01C0A8FFA69EA69C8E
:10128800A684F29E550EA76EAA0EA76EA682A6B2D7
:1012980050EF09F052EF09F04BEF09F0A69403B0B4
:1012A80002D0F29E01D0F28E1200340E066EF20EBB
:1012B800E82EFED7062EFCD7000E95EC09F0070E97
:1012C800066ED89002320132062E65EF09F001C091
:1012D8003AF002C03BF03A503A248A6E3AC001F024
:1012E800800E39EC09F01200166E16C014F0144680
:1012F8001446C2501418C30B1418C26EC280C2829E
:10130800C2B289EF09F08BEF09F084EF09F0C450FD
:10131800156E146AC3501424126E000E1520136E35
:101328001200056E05C003F003460346C2500318B9
:10133800C30B0318C26EC280C282C2B2A6EF09F004
:10134800A8EF09F0A1EF09F0C450046E036AC35076
:101358000324016E000E0420026E120012C014F065
:1013680013C015F0D89015321432D89015321432B3
:101378001450BB6E12C014F0030E1416143AF00E7B
:101388001416BA50CF0B1410BA6E12003450351020
:10139800D8B4D1EF09F0D3EF09F0E0EF09F002D8A3
:1013A800E0EF09F00500FA6E3450FD6E3550FE6E20
:1013B800F850FF6EFA501200F2921200F2944BC0ED
:1013C800D6FF324A332A335009E1140E325CD8A0D2
:1013D800F0EF09F0F2EF09F0F8EF09F0F9EC09F095
:1013E800000E336E000E326E120049504A10D8B407
:1013F80000EF0AF002EF0AF00FEF0AF002D80FEF41
:101408000AF00500FA6E4950FD6E4A50FE6EF8501B
:10141800FF6EFA5012001200040E896E000E8A6EDA
:10142800000E8B6EFB0E926EF10E936ED70E946EBD
:10143800080E7F6E0B0E7E6E000E7C6EF18E120013
:10144800CDA429EF0AF02BEF0AF033EF0AF0CD9084
:101458001350CF6E12C0CEFFCD8037EF0AF0135075
:10146800CF6E12C0CEFF12004FEC0BF010EC0AF05A
:1014780040EC0BF02BEC0BF032EC0BF0FBEC0AF031
:1014880024EC0BF0EFEC0AF04BEC0AF01200000E23
:10149800D76E3D0ED66E3D0E4B6EF294F28AB20EAA
:1014A800126E160E136E45EC0BF0D70ED56E1200A9
:1014B800156EE00E136E120EBBEC0AF015C013F099
:1014C800130EBBEC0AF0A00E136E120EBBEC0AF062
:1014D8001200156E600E136E120EBBEC0AF015C0EA
:1014E80013F0130EBBEC0AF0200E136E120EBBECB9
:1014F8000AF01200046EE00E026E120ED5EC0AF02D
:1015080004C002F0130ED5EC0AF0A00E026E120E03
:10151800D5EC0AF01200046E600E026E120ED5ECC5
:101528000AF004C002F0130ED5EC0AF0200E026E89
:10153800120ED5EC0AF01200000E456E462A0B0E6C
:101548004664A9EF0AF0ABEF0AF0ADEF0AF0010E1E
:10155800466E120000EE32F0150EEE6AE806FDE166
:101568004C904C92000EF86E000175EF02F0146E6C
:101578008994400EC8EC0AF01450C8EC0AF01350D5
:10158800C8EC0AF089841200126EC69E12C0C9FF08
:10159800C7A0D1EF0AF0D3EF0AF0CCEF0AF0C95098
:1015A8001200036E8994400EE2EC0AF00350E2EC5C
:1015B8000AF00250E2EC0AF089841200016EC69E1D
:1015C80001C0C9FFC7A0EBEF0AF0EDEF0AF0E6EFA4
:1015D8000AF0C95012000B0ECF6EDC0ECE6ECECFC5
:1015E80047F0CFCF48F09E90310ECD6E1200010E1D
:1015F800C26E000EC16E810EC06E000EC36E000E6C
:10160800C46E1200126E12C0A9FFA69CA69EA680E8
:1016180000F000F0A85012009EB015EF0BF018EF84
:101628000BF0010E19EF0BF0000E1200F2A21FEFE3
:101638000BF021EF0BF023EF0BF0CAEC09F01200CE
:10164800CB68000ECC6E9E92040ECA6E1200400E3D
:10165800C76E220EC66E000EC86E12003C0EBA6E21
:101668007F0EBB6E000EBC6E120047C012F048C061
:1016780013F024EC0AF01200300ED36E000E9B6EAD
:10168800120012C049F013C04AF0120012C034F020
:1016980013C035F01200D09E1200CA941200CA84FA
:0C16A8001200CD901200CD801200120044
:107E1E00002020202020454550524F4D202020206C
:107E2E00202020200020204C45445F4438203D2057
:107E3E004F4646202020002020202057656C636F7F
:107E4E006D652020202020002020746F2045787042
:107E5E006C6F7265722038200020202056616C7580
:107E6E0065203D2020202020200020536C65657069
:107E7E00696E6720696E202020200020536C656596
:107E8E00702F57616B652055702020002049276D9B
:107E9E00206E6F77206177616B65212000576169D5
:107EAE007420666F72203820736563732000202063
:107EBE0020496E7465727275707420202020004403
:107ECE006972656374696F6E3A204C656674200042
:107EDE00446972656374696F6E3A2052696768749B
:107EEE0000202053746172742054696D65722020D5
:107EFE00200054696D65203D20202020207365638D
:107F0E0073200020202020202050574D202020209C
:107F1E002020200044757479204379636C65203DE0
:107F2E0020202025002020202050726573732053BE
:107F3E00312020202000202020204465626F756EA5
:107F4E006365202020200020202020202056535220
:107F5E0020202020202020002044656C6179203DC7
:107F6E0020202020206D7320002020202020204162
:107F7E004443202020202020200020414443205232
:107F8E006573756C74203D20202000202020202059
:107F9E00526F7461746520202020200020204C45F3
:107FAE00445F4420203D204F4E20202000202020E2
:107FBE002020426C696E6B20202020202000202083
:107FCE004C45445F4438203D204F4E202020002059
:107FDE002048656C6C6F20576F726C6420202000F7
:107FEE002020202054696D65722031202020200031
:017FFE000082
:020000040020DA
:08000000FFFFFFFFFFFFFFFF00
:020000040030CA
:0E000000FF021F16FF8A81FF0FC00FE00F40A6
:00000001FF
