:10000000D00600205D150000D528000089150000ED
:100010008915000089150000891500000000000006
:10002000000000000000000000000000E9130000D4
:100030008915000000000000A1130000ED11000070
:100040003515000035150000351500003515000088
:100050003515000035150000351500003515000078
:100060003515000035150000351500003515000068
:100070003515000035150000351500003515000058
:040260003515000050
:04026400FFFFFFFF9A
:1002680053B94AB9002908BF00281CBF4FF0FF3115
:100278004FF0FF3000F06EB9ADF1080C6DE904CE17
:1002880000F006F8DDF804E0DDE9022304B0704769
:100298002DE9F047089D0E4604468C46002B40F099
:1002A80081808A42174645D9B2FA82F24AB1C2F130
:1002B800200106FA02F320FA01F1974041EA030C03
:1002C80094404FEA174E230CBCFBFEF6B9B20EFB66
:1002D80016CC43EA0C4306FB01F0984209D9FB18F7
:1002E80006F1FF3C80F01581984240F21281023EEF
:1002F8003B441B1AA4B2B3FBFEF00EFB103344EAD6
:10030800034400FB01F1A14209D93C1900F1FF3374
:1003180080F00181A14240F2FE8002383C44641A18
:1003280040EA064000211DB1D4400023C5E900433E
:10033800BDE8F08702B9FFDEB2FA82F2002A4FD197
:10034800CB1B4FEA174E1FFA87F80121B3FBFEFCBF
:10035800260C0EFB1C3346EA034608FB0CF3B3429B
:1003680007D9BE190CF1FF3002D2B34200F2EB807C
:100378008446F61AA3B2B6FBFEF00EFB106643EAFB
:10038800064408FB00F8A04507D93C1900F1FF33E3
:1003980002D2A04500F2D2801846A4EB080440EA35
:1003A8000C40C0E78B4208D9002D00F0AF80002137
:1003B800C5E900060846BDE8F087B3FA83F10029CD
:1003C80049D1B34202D3824200F2BB80841A66EB61
:1003D800030301209C46002DAAD0C5E9004CA7E7DD
:1003E800C2F120039740D8409140DE404FEA174EB3
:1003F80008434FEA104CB6FBFEF11FFA87F80EFBD4
:1004080011664CEA064601FB08F3B34204FA02F40B
:1004180009D9BE1901F1FF3C80F08E80B34240F249
:100428008B8002393E44F31A86B2B3FBFEF00EFB12
:10043800103346EA034600FB08F3B34207D9BE1956
:1004480000F1FF3C74D2B34272D902383E44F31A29
:1004580040EA01417AE7C1F1200703FA01F422FAE0
:1004680007F31C4320FA07F906FA01F34FEA144C84
:10047800FE4049EA03094FEA1943B6FBFCFE1FFA9E
:1004880084F80CFB1E6643EA06460EFB08FAB245E2
:1004980002FA01F200FA01F308D9A6190EF1FF30A9
:1004A80048D2B24546D9AEF1020E2644A6EB0A065A
:1004B8001FFA89F9B6FBFCF00CFB106649EA064600
:1004C80000FB08F8B04507D9A61900F1FF3C2DD26A
:1004D800B0452BD90238264440EA0E40A6EB080660
:1004E800A0FB02894E45C446CE4618D315D075B335
:1004F800B3EB0C0266EB0E0606FA07F722FA01F3D5
:10050800CE401F43C5E90076002111E72946284659
:100518000EE76646EDE6184601E74345E7D2B8EB35
:10052800020C69EB04040138A646E0E76046D3E70D
:1005380060468CE78646B9E7614674E702383C4472
:100548002BE7084647E7ACF1020C3E4411E7294681
:10055800EEE600BF704700BF43682DE9F0471C680E
:10056800D0F80C8020460D4602F0B9FA23686FF3E4
:100578004103236002F0B3FACA791AB16FF022007E
:10058800BDE8F08788F807202B79D4F800C06168A7
:10059800012BC1F3403905D0022B05D0002BEDD13A
:1005A800184603E09946FBE79146012088F8043095
:1005B8006B79012B4FD0032BE0D14FF0010A88F85B
:1005C8000530AA79042AD9D860F31B6C88F806206C
:1005D8002046C4F800C002F082FA531D03F0070356
:1005E80021F4015243EA8A1322F0070243EA49330D
:1005F800134363F30F01616002F071FA2B68DFF8AF
:1006080070C0180510EB0C004FEA13314FF00009C9
:1006180015A3D3E9002341EB0901FFF721FE10F1EF
:10062800FF3641F1FF3700234FF6FE72BB4208BF89
:10063800B24213D3404280B2A081204602F04FFA62
:100648002B68C8F80030236843F00203236002F0E7
:1006580046FA484694E74FF0000AB0E76FF02500E5
:100668008EE700BFAFF30080000E270700000000F0
:1006780000879303000000002DE9F04745682E4AE3
:10068800AB8A2C68D0F80CA02033402142F8231004
:10069800EA68296913680B431360BF2323758146F1
:1006A800204602F01CFAAB6843F0C04343F0040351
:1006B800236002F014FA214BCAF804304FF4403397
:1006C800636002F00CFA6B68DFF874C0180510EB71
:1006D8000C004FEA13314FF0000815A3D3E90023AB
:1006E80041EB0801FFF7BCFD10F1FF3641F1FF3780
:1006F80000234FF6FE72BB4208BFB24215D34042F8
:1007080080B2A081204602F0EAF96B688AF80630C8
:10071800AB6948469847236843F0020320462360A4
:1007280002F0DDF94046BDE8F0876FF02500FAE7F2
:10073800000E270700000000001C00400001030015
:100748000087930370B5174801F0BCF9044620B33D
:10075800C568836840F201621B6812219847002827
:100768001AD12B6843F480232B600125E3681B68AA
:1007780085F0010613F4802F18BFF5B275B1A36890
:10078800DB684FF4802120469847F5B2002142F2F9
:10079800107001F03BFDE9E7E7DA70BDA3681B695B
:1007A800EFE700BFD83300002DE9F04F87B00F46C0
:1007B8001946109B9DF844B09DF848A01F4C06466A
:1007C8001425104698464FEAE37950EA010319D1F7
:1007D800142D139C14BF013530232C4408BF8DF809
:1007E8001430152C1BD0153C002C1ADC1DF8050004
:1007F80039460135B047152DF8D1002C19DC07B062
:10080800BDE8F08F42464B46FFF72AFDA25C0DF883
:10081800052084460B4660461946013DD5E700246D
:10082800E4E7BBF1000FE1D039465046B047013C40
:10083800DAE739465046B047013CDEE7DE330000D0
:100848000B6801330B60014B1B6818470000002040
:10085800014B1860704700BF000000202DE9F04FE1
:10086800002687B005468B461C4602F1FF3A4FF03A
:10087800FF3837464FF0000907E0B9F1000F0BD1F8
:10088800252800F00A815946A8471AF8010F0028C0
:10089800F3D107B0BDE8F08F7A280AD8622810D8BB
:1008A800302851D044D8252800F0F5802D2800F0B4
:1008B800FB8059462520A8479AF800005946A847C2
:1008C800D8E7A0F16303172BF3D801A252F823F05D
:1008D800970A000099090000BB080000BB08000047
:1008E800BB0800007B09000099090000BB08000054
:1008F800BB0800007B090000BB080000BB08000023
:10090800BB080000130A0000BB080000BB08000079
:100918005F0A0000BB08000099090000BB0800003E
:10092800BB08000041090000BB0800007B0900006B
:10093800392815D95828BCD19AF80030702B6ED1B7
:1009480054F8042B002375E0B8F1000F0BDA002FE0
:1009580000F0AC80A0F13008002F08BF022794E710
:10096800B8F1000FF6DB0A2303FB0808A8F13008EA
:10097800F2E7682803D1682E06D1482685E76C2857
:1009880002D16C2E00F09480002E92D106467CE7AE
:100998007A2E06D1A14659F8042BD317752823D1EE
:1009A8000FE06C2EF6D04C2E05D1073424F0070941
:1009B800F9E80223F2E77528226804F1040912D144
:1009C8000023F81E18BF0120012F0CBF302420245B
:1009D80001900A20CDE90248009059462846FFF7C1
:1009E800E3FE4C4646E7D317002A73F10001E8DA24
:1009F80059462D20CDE90423A847DDE904235242B6
:100A080063EB430308F1FF38DBE759463020A8477A
:100A180059467820A8474FF0080801278CE76C2E24
:100A28008ED04C2E8CD1E31D23F007031C465B6847
:100A380054F8082BF81E18BF0120012F0CBF3021D5
:100A48002021CDE90218102101900091284659462D
:100A5800FFF7AAFE0EE754F8043B99464A4619F8F0
:100A6800010B78B9032F25D1A2EB0309A8EB0909DB
:100A7800B9F1000F7FF7FEAE59462020A84709F1CB
:100A8800FF39F5E759460493A847049BE6E754F86D
:100A9800040B594613E7594611E74E464F464FF0A7
:100AA800FF384FF00109F0E60327EEE60127ECE6F0
:100AB8004C26EAE68146E8E607B50B4600210246E1
:100AC8000191034801A9FFF7C9FE03B05DF804FBD3
:100AD800490800004FF02003EFF3118183F31188D8
:100AE800BFF36F8F254A936843F001039360244B4B
:100AF80040F24E729A82DA68D207FCD5214B42F254
:100B080005125A62A3F54063A02283F8202002222E
:100B18001A771A69D005FCD593F830206FF3410293
:100B280083F83020184AD36B002BFCD1154B412297
:100B3800C3F88420D3F884205206FBD5124B134AFD
:100B48005A634FF401629A63022283F83020DA6B09
:100B5800002AFCD10C4B1A6C9007FCD51A6CD207F2
:100B6800F9D5084B0A4A1A624FF483729A6281F3E4
:100B78001188BFF36F8F0020704700BF00600041ED
:100B880000140040001C0040001000404D0E0300FF
:100B98000701010010B50748074C00F093FF074B09
:100BA8001860204600F0B0FE2046FFF751FE0020F6
:100BB80010BD00BFEF330000C90B0000E0010020AA
:100BC8000A2838B5074D044604D1286883680D21E2
:100BD8005B68984728688368E1B25B689847204655
:100BE80038BD00BFE0010020024A5368002BFCD149
:100BF800704700BF00280040494A08B5536943F4CC
:100C080080635361474B4022C3F89020002211466D
:100C18000C2000F005FC0C2000F0F2FB002211462D
:100C28000D2000F0FDFB0D2000F0EAFB002211462C
:100C38000E2000F0F5FB0E2000F0E2FB002211462A
:100C48000F2000F0EDFB0F2000F0DAFB0022114628
:100C5800102000F0E5FB102000F0D2FB0022114626
:100C6800112000F0DDFB112000F0CAFB0022114624
:100C7800122000F0D5FB122000F0C2FB0022114622
:100C8800132000F0CDFB132000F0BAFB0022114620
:100C9800142000F0C5FB142000F0B2FB002211461E
:100CA800152000F0BDFB152000F0AAFB002211461C
:100CB800162000F0B5FB162000F0A2FB002211461A
:100CC800172000F0ADFB172000F09AFB0022114618
:100CD800182000F0A5FB182000F092FB0022114616
:100CE800192000F09DFB192000F08AFB0022114614
:100CF8001A2000F095FB1A2000F082FB0022114612
:100D08001B2000F08DFB1B2000F07AFB064A1378AD
:100D180043F002031370FFF767FF002008BD00BF10
:100D280000080040001C004000280040F8B5114BA6
:100D3800C6685C69A4B294FAA4F5B5FA85F55C6155
:100D48002C41A4B2012704B9F8BDE3070ED57319E5
:100D580093F82000C0F3411306EBC30200F01F0014
:100D680056F83330516807FA00F09847640801359F
:100D7800E9E700BF002800402DE9F047434C04EBA9
:100D8800401414F80180B8F1FF0F7BD008F0070475
:100D9800012606FA08F64FEAE80CA4004FF02007EF
:100DA800EFF3118587F31188BFF36F8F384F97F8EA
:100DB80000E06FF3410E87F800E0DFF8D8E00EEBB3
:100DC800080999F920A0BAF1000F17DA99F82090CC
:100DD800C9F3411A824503D109F01F0989450DD08D
:100DE8003B7843F002033B70FFF7FEFE85F3118862
:100DF800BFF36F8F6FF00F00BDE8F087089F4EF8C4
:100E0800307001F01F010EEBC00961F07F0100F0A6
:100E1800030041EA40114FEA8C0000F18040C644CB
:100E280000F52050099FC9F80470C7698EF8201092
:100E38000F21A14027EA0101042A07D8DFE802F0C0
:100E4800031A1C1E20000122A24011431BB10823D3
:100E580003FA04F42143C1610D490B7843F00203FE
:100E68000B70FFF7C1FE4E6185F31188BFF36F8FDA
:100E78000020C1E70222E7E70322E5E70422E3E7CF
:100E88000522E1E76FF02200B6E700BFFB33000060
:100E980000280040E4010020F8B5264B03EB40137E
:100EA8005C5CFF2C43D04FF02003EFF3118583F3F4
:100EB8001188BFF36F8F204E33786FF3410333707F
:100EC800FFF792FE1D4A224492F92030002B21DAC6
:100ED80092F82030C3F34117B8421BD103F01F002A
:100EE800814217D16FF3C71382F82030E3109B00BB
:100EF80003F1804303F520530121A14004F00704C6
:100F0800DA69A4000F2000FA04F422EA0404DC6180
:100F1800F1607161084A137843F002031370FFF718
:100F280063FE85F31188BFF36F8F0020F8BD6FF063
:100F38002200FBE7FB33000000280040E40100200A
:100F4800114B03EB401310B55C5CFF2C16D00F4A15
:100F5800224492F92030002B13DA92F82020C2F3B1
:100F6800411398420DD102F01F02914209D1084A5B
:100F78000123A34053610020136110BD6FF02200CC
:100F8800FBE76FF00F00F8E7FB330000E4010020F7
:100F980000280040114B03EB401310B55C5CFF2C9C
:100FA80016D00F4A224492F92030002B13DA92F817
:100FB8002020C2F3411398420DD102F01F02914242
:100FC80009D1084A0123A340D3600020536110BD12
:100FD8006FF02200FBE76FF00F00F8E7FB3300002B
:100FE800E401002000280040114B1249F0B55D696A
:100FF80000230446A1F120061846012711F9012B08
:10100800002A10DAF21892F82020C2F3411CA445F5
:1010180009D125FA03FC1CF0010F1EBF02F01F02C4
:1010280007FA02F210430133102BE7D1F0BD00BFDD
:101038000028004004020020024A9368002BFCD1DB
:10104800704700BF00200040C368044A1B680121A4
:1010580091710BB100211847704700BF0020004074
:1010680008B50D4BC268187880070BD4127962B1A5
:1010780011F003000CD11A7842F002021A70FFF73F
:10108800DBFF08BD6FF00F00FBE76FF01500F8E716
:101098006FF02200F5E700BF00200040074A08B5BE
:1010A80013789B0707D513786FF341031370FFF785
:1010B800C3FF002008BD6FF00D00FBE700200040D3
:1010C800C3681B792BB1064B986828B9A5221A73F7
:1010D80070476FF0150070476FF00A00704700BF47
:1010E8000020004070B5264EC56833789B0741D470
:1010F8000B7B022B41D14868002838D001F0BDFB9A
:101108000B28044630D80868E0B101F0B6FB0A287D
:101118002AD81B4A1378844298BF441C43F004031E
:101128001370FFF789FF44EA0010154CC0B26070D5
:10113800FFF782FF8A682A60012392B163712B71DD
:10114800002070BD8B683BB1012CB37838BF0124F7
:10115800621E62F30303B370094A13786FF38203C4
:10116800DEE72371A371EAE700232B712B606FF090
:101178001500E6E76FF00F00E3E76FF02200E0E705
:101188000020004008B5074A536943F4807353614F
:10119800002211460A2000F043F90A2000F030F935
:1011A800002008BD000800400B4B9A681968986831
:1011B8000A4B11F4803F10B5094901D1824205D28A
:1011C8001A680C6822441A60034A12681B680A6885
:1011D8001344181A10BD00BF10E000E028020020D8
:1011E8002402002008B5FFF7DFFF0C4B0C4A1868F3
:1011F80011680844106000221A600A4A116842F611
:10120800E063401AB0FBF3F003FB0013136001F036
:1012180073F9BDE8084000F085BA00BF2802002035
:10122800200200201C020020094B202283F82320E2
:10123800084B42F6DF621A60074B00201860074B24
:101248005A6098601A6842F007021A60704700BF37
:1012580000ED00E0240200202802002010E000E059
:1012680070B52B4D044651B1431C0ED1294A136861
:1012780023F0010313604FF07F432B6070BD40F2F1
:101288007553B0F1FF3F08BF1C464FF02003EFF342
:10129800118683F31188BFF36F8FFFF785FF1E4B0D
:1012A8001A68104418601D4B00221A601C4B1B68FA
:1012B800C21A0DD54FF480632B602B68154A013B89
:1012C80053600023936086F31188BFF36F8FD5E7CF
:1012D800013C24EAE47440F275518C4202F53B5219
:1012E800A8BF0C461F3242F6E061181A01FB04241D
:1012F800B4FBF1F401FB0404B4F5806F04D9094B85
:101308009C42D9D82C60D8E74FF48064FAE700BF34
:101318002402002010E000E0200200202802002023
:101328001C02002060CCFF0010B54FF02003EFF343
:10133800118483F31188BFF36F8FFFF735FF074BD5
:10134800074A1B6812689B1A034484F31188BFF389
:101358006F8F42F6E060B3FBF0F010BD2002002072
:101368001C020020094A0A4993680968D967094993
:1013780098674B6843F080534B60002383F31188D0
:10138800BFF36F8F9368D86F704700BF8C0200203F
:10139800D433000000ED00E00F498A684FF03800B0
:1013A8001044EFF3098C80E8F01F202080F31188A7
:1013B800BFF36F8F094F4FF000660A6A8A603E607C
:1013C800906F0023936780F3118802F1380090E84A
:1013D800F01F8CF3098870478C02002004ED00E0B0
:1013E8001EF0040F0CBFEFF30880EFF3098081694A
:1013F80011F8021C0229FFD001B501F063FA01BD02
:1014080003B2002B08DB012200F01F0002FA00F0F3
:101418005B09024A42F82300704700BF00E100E080
:1014280003B2002BA8BF03F1604301F10101B8BF6B
:10143800064B4FEA4111ACBF03F5614300F00F00C2
:10144800C9B2B4BF195483F80013704714ED00E013
:1014580042F8203C009B42F81C3C0A49019B42F898
:10146800183C029B42F8143C21F001014FF08073B4
:1014780042F8043C42F8081C0023203A826583673E
:10148800704700BF4F26000008B506460D461446B3
:1014980000F08EF9074B9E60204685F309880021ED
:1014A80063B681F31188BFF36F8F0022002301F028
:1014B800CAF800BF8C020020014910220A60704758
:1014C80010ED00E072B6404080F31188BFF36F8FD3
:1014D800BFF34F8F30BF62B6BFF36F8F704700BF47
:1014E80030BFFFF7FDBF00BF0E4A08B50E4B22F014
:1014F8007F029A60BFF34F8FBFF36F8FD3F88820B6
:1015080022F47002C3F88820EFF3148323F0040355
:1015180083F3148800F0FEFA00F006FB00F010F9DF
:1015280000F040FB0000000000ED00E001B5EFF323
:101538000580A0F110004FEAC0000449014409C920
:101548009847BDE801400249084700006C2E00009A
:101558002D170000202080F3118808484FF40061FF
:10156800401880F30988EFF314800221084380F3C0
:101578001488BFF36F8FFFF7B7FF00001008002033
:10158800EFF30880EFF3098101B5724600F04EF8D9
:1015980001BD00BF0C4B9A6A9A6A9A6A920708D5ED
:1015A8005A6B9A6A120604D518B19A6A22F0800218
:1015B8009A62054B9A6A9A6A9A6A9A6A002042F075
:1015C800FF029A620870704700ED00E00D4B9A6ABE
:1015D8009A6A9A6A920508D59A6B9A6A120404D58F
:1015E80018B19A6A22F400429A62064B9A6A9A6A79
:1015F800D20558BF9A6A9A6A002042F47F429A62DA
:101608000870704700ED00E0074B9A6A9A6A9A6A78
:101618009A6A9A6A9A6A9A6A6FEA02426FEA124268
:101628009A620020704700BF00ED00E070B5364BAD
:101638005B688AB00E46C3F30803002585F311885A
:10164800BFF36F8F02F07F41B1F17F4F11D102F0EC
:101658000C0108290DD0110701D4064601250022E6
:10166800033B8DF80720032B47D8DFE803F0043E3F
:10167800423B2E46F3E7244BDA6A92073DD4DC6AF4
:1016880014F0804408D028331B78EBB10DF1070122
:101698000120FFF77FFF04469DF8073093B9202209
:1016A800314602A801F025F9099B45B3C3F30802A6
:1016B80022B96FEA53236FEA4323099302A920460C
:1016C80001F0FEF80AB070BD104B1B782BB10DF17C
:1016D80007010120FFF77AFFDDE70D4B188884B278
:1016E800002CD9D0FFF790FFD5E70DF107010020B6
:1016F800CFE70DF107010020ECE70024CCE723F445
:10170800FF7323F00103D8E700ED00E029ED00E0C6
:101718002AED00E0024A536943F010035361704711
:1017280000ED00E0044B9968186A884203D0034929
:101738004FF080520A6070478C02002004ED00E0F0
:10174800044800232021C2180133892B82F8001392
:10175800F9D1704700E100E010B5044600F058FCEC
:10176800114B9B68A34207D1EFF3058383B10F4A5E
:10177800536843F0805353604FF02003EFF3118018
:1017880083F31188BFF36F8FBDE8104001F064BA8E
:101798004FF02003EFF3118083F31188BFF36F8FAD
:1017A800FFF7E0FDE8E700BF8C02002000ED00E055
:1017B8001FB5084B0193084B0293084B039301ABE9
:1017C8000093074A074B0121684600F093F805B0DB
:1017D8005DF804FB000000200000000000000B067C
:1017E8000000002000000420DFF884C0F0B50646A1
:1017F800002710468F4200DBF0BD56F827E0DEF8E0
:10180800044094B343B1651E2C4219D11F2C17D93B
:10181800DEF80020154213D1202CC2B2DEF80050A9
:10182800DEF808000FD9B4F1004F0ED8013CB4FA25
:1018380084F4C4F11F046400072A44EA000406D9AA
:101848006FF01500D8E70824F6E73E24F4E725F002
:101858001F05154345F0100544F00104CCF8082095
:10186800501CCCF80C50CCF810400137C2E700BF30
:1018780090ED00E0034B05225A60BFF34F8FBFF392
:101888006F8F704790ED00E0BFF35F8F014B002230
:101898005A60704790ED00E013490868082810B5B1
:1018A8001ED8FFF7F1FF114C49680022904201F160
:1018B8000C0105D10E4B1870FFF7DCFF002010BD9E
:1018C800A26051F80C3C23F01F03134343F01003AC
:1018D800E36051F8043C43F0010323610132E5E77A
:1018E8004FF0FF30EBE700BFE432000090ED00E07E
:1018F800C802002010B5034C01232278FFF774FFBB
:10190800207010BDC8020020014B1860704700BF4E
:101918000400002010B50D4800F0D4F80C4800F081
:10192800D1F804460B4800F0CDF80B4800F0CAF88F
:10193800A36803221B68182120469847A36803223E
:101948001B68192120469847002010BD96340000D6
:101958008D340000843400007B3400002DE9F3410D
:101968004768D0F80C809C467B685E180C4696F851
:1019780040E0C8F8040022F480305FFA8EFEB0F52B
:10198800804F75461AD0B2F5005F04D06FF015008D
:1019980002B0BDE8F081387AFFF7FCFA10F1100FB9
:1019A8006FF3000501D00028F2D1387A2146FFF7FD
:1019B80073FA0028ECD186F84050E9E71EF0020FD0
:1019C8003DD01968E14011F0010038D103EB540112
:1019D8004EF0010591F8303014F0010E14BF60F399
:1019E80007136EF30303BCF5802F81F830301ED047
:1019F800BCF5C02F21D0BCF5003FC7D1B2F5804F50
:101A08000CBF04220122D8F808300E49387A009118
:101A1800E340CDF8048003F001032146FFF7ACF959
:101A28000028B5D1387A2146FFF78AFAC1E7B2F51E
:101A3800804F0CBF03220022E5E70222E3E76FF0A4
:101A48002200A5E79D290000F8B5104B104F53F868
:101A58002050013053F82060AE4200D8F8BDD5E9D7
:101A680000342046984770B16CB1E41B2411610919
:101A7800084A04F01F0452F82100012303FA04F471
:101A8800044342F821400835E6E700BFC0330000B0
:101A980010000020D0000020084BC01A0011084B8D
:101AA800420900F01F0053F82220012303FA00F036
:101AB80010420CBF18460020704700BF10000020DD
:101AC800D0000020114970B5114C05460E468C42D5
:101AD80004D10F4CB4420AD1002414E02046FFF789
:101AE800DBFF10B12368AB420DD01034EFE720467E
:101AF800FFF7D2FF08B91034ECE72168284600F058
:101B0800ECFE0028F7D1204670BD00BFD0000020B1
:101B1800100000200248034A0021121A00F014BFE6
:101B2800D8000020CC02002008B50648064A07491C
:101B3800121A00F0DEFEBDE80840054A05490648CD
:101B480000F0D7BE00000020D400002010350000AF
:101B580000000000103500000000002008B50C4B04
:101B6800012202201A70FFF76FFF0A4A0A490B4840
:101B780000F05CFD0320FFF767FF00F09DFBFEF718
:101B8800E1FD074A137B23F00103137308BD00BF6F
:101B9800C902002009350000D5340000E3340000F4
:101BA800580100202DE98048DFF8F490A7B089F3A8
:101BB8000888334D334E6B69DFF8E8A0324F43F4A1
:101BC800007300246B61E02385F82230EC772C76D3
:101BD8006C76AC766B6A43F4E0236B62FFF79AFD90
:101BE800FFF76AFC4FF0FF33AB62EB62274D40F220
:101BF8000113ADF8243006ABAB602046CDE9204494
:101C0800FFF722FF0120FFF71FFF4FF0010B00F045
:101C1800A3FA1F4B2E621F4905934FF48062534667
:101C2800CDE9034BCDE901440094304600F014FBA4
:101C3800737B804623F004033046737301F038F851
:101C48000F23CDE902431449144B4FF4A072CDE998
:101C580004B4CDE90044384600F0FEFA7B7BEF601F
:101C680023F004037B7305F11803C5E906332C75CB
:101C7800C5F80490524641463046FFF705FC00BFC0
:101C880000ED00E058010020D80000208C02002060
:101C98000A350000D0020020D0060020A12D000047
:101CA80010100020651B000010B5084C23685BB1BC
:101CB800FFF73AFB03462068054A0344BDE8104095
:101CC8001361002101F04AB810BD00BFC002002016
:101CD8008C02002010B54FF02003EFF3118483F33A
:101CE8001188BFF36F8F084B00221A610A235843EB
:101CF800064B1860064B1960FFF7D6FF84F311886E
:101D0800BFF36F8F10BD00BF8C020020C0020020FF
:101D1800BC02002049B9EFF3058030B9054B1A6AB7
:101D28009B689A4201D0FFF71DBB81F31188BFF36E
:101D38006F8F70478C0200204FF02003EFF3118162
:101D480083F31188BFF36F8F044B9A68D37B013BF1
:101D5800D37381F31188BFF36F8F70478C02002013
:101D6800094B03F12402824205D19B688B4202D1C0
:101D78004B7BDB0606D1D1E9003213605A600023A1
:101D8800C1E90033704700BF8C02002070B5104CC9
:101D9800064604F1240000F081FFA368597B05463C
:101DA800880644BF41F00801597305B9E5684EB982
:101DB8005A7BD20606D1AA6922B9DA897F2A01D9C3
:101DC800236270BDAB4201D0FFF76EFF2562F8E7D2
:101DD8008C02002010B54FF02003EFF3118483F339
:101DE8001188BFF36F8F084B9A68D37B0133D37385
:101DF8000020FFF7CBFF84F31188BFF36F8FBDE896
:101E0800104000F035BF00BF8C02002070B4437B47
:101E1800DB062AD1836943BB154A114651F8244F82
:101E28008C4218BF2346002B946A38BF0023B3B1F5
:101E380090F90E6093F90E50AE4203DBA3420ED028
:101E48001B68F4E75A68C0E9003210605860437BA9
:101E580063F07F03437370BC0020FFF797BFC0E9AE
:101E68000014936A18609062F1E770BC704700BF75
:101E78008C02002010B54FF02002EFF3118482F39A
:101E88001188BFF36F8F427B510704D484F3118804
:101E9800BFF36F8F10BD22F004024273FFF7B6FF45
:101EA80021460248BDE81040FFF734BFCA020020AF
:101EB80070B590F90D30002B014602DA1748FFF78C
:101EC8004FFF174A1046946A50F8243F834208BFD0
:101ED8000023002B38BF0023D3B191F90E6093F98A
:101EE8000E50AE4203DBA34212D01B68F4E75868D9
:101EF800C1E90030016059604B7B906863F07F0353
:101F08004B73431A5842BDE870405841FFF73EBF33
:101F1800C1E90004936A19609162EDE7B0020020FC
:101F28008C02002070B501464FF02003EFF31184B6
:101F380083F31188BFF36F8F164B174A986815689B
:101F4800A8421D4606D1FFF7AFFE84F31188BFF300
:101F58006F8F70BD00261660104A1268BAB1C28928
:101F68007F2A14D8427BD20611D10D4A90F90E600F
:101F7800126896420BDB0B4A904208D01A698A42D3
:101F880002DCFFF795FFDEE7521A1A61DDE700234E
:101F98002B61DAE78C020020B8020020C002002082
:101FA800BC020020D800002070B50446183000F0AC
:101FB800AFFE4FF02003EFF3118683F31188BFF3D0
:101FC8006F8F94F90D30002B07DA0F482146FFF781
:101FD800C7FE637B03F07F0363730C4D637BA868C4
:101FE80043F010036373031B58425841FFF7CEFEBA
:101FF80086F31188BFF36F8FAB68A34203D1BDE8A6
:10200800704000F035BE70BDB00200208C02002088
:10201800036E2DE9F041044603B1984704F1180016
:1020280000F076FE4FF02003EFF3118683F311885A
:10203800BFF36F8F637BD80623D1A2690ABB190649
:1020480007D51F482146FFF78BFE637B03F07F030C
:1020580063731C4B9868021B50425041FFF796FE71
:10206800637B43F00803637304F130080027256B92
:10207800454500D095B986F31188BFF36F8FBDE849
:10208800F0819B07ECD5A0682146FFF769FE637BCA
:1020980023F0020363730023A360E1E705F118004E
:1020A80000F036FEA8682946FFF75AFE6B7BAF6042
:1020B80023F002036B73EF672846FFF7A7FED6E706
:1020C800B00200208C02002008B590F90D30002BDA
:1020D800014606DA0748FFF743FE4B7B03F07F0310
:1020E8004B73054B9868431A58425841BDE808405D
:1020F800FFF74CBEB00200208C020020F8B5054660
:1021080000F046FE2C184FF02003EFF3118783F3FD
:102118001188BFF36F8F0D4E0D4BB0681860FFF735
:10212800D3FFB0680B492A46EB17183000F05CF96A
:10213800B268537B43F0100353733846FFF712F924
:1021480000F026FE201A20EAE070F8BD8C0200207C
:10215800B8020020D92C0000044B002103F124020E
:10216800C3E909220846FFF7B5BD00BF8C0200206D
:10217800F8B5244C244BA2689A4230D04FF0200383
:10218800EFF3118583F31188BFF36F8FA16804F112
:102198002400FFF7E5FD636AA268A16A834208BFCD
:1021A8000023002B38BF00232BB392F90E7093F94C
:1021B8000E60B74203DB8B421DD01B68F4E75968F9
:1021C800C2E900310A605A60537B63F07F0353739E
:1021D8000120FFF7DBFD85F31188BFF36F8F4FF008
:1021E8002003EFF3118083F31188BFF36F8FBDE8ED
:1021F800F840FFF7B7B8C2E90001A36A1A60A26203
:10220800E2E700BF8C020020D80000200B46013313
:1022180008BFB0F1FF3F10B506D10B4B9868FFF728
:10222800C3FE4FF0FF3010BD044640B9FFF7A0FFD2
:102238000A2200232046E117FEF712F8F3E7FFF71A
:102248005DFF0446F4E700BF8C020020014B98684C
:10225800704700BF8C0200202DE9FF4100F13005D6
:10226800C0E90C550E9D057304254573D61D0D9DBB
:1022780085730C9A002526F00706C0E90655C0E9C3
:102288001A16C573056702920B9A019201EB0608AC
:102298000A9A009242460446FFF7DAF8054B9B6813
:1022A800C4E9175503B15B6F6367404604B0BDE8E6
:1022B800F08100BF8C020020F0B5224F224D87B07C
:1022C8003E46BD4205F130040BD3FFF735FD1E4CE9
:1022D8001E4F0A25B44221D307B0BDE8F040FFF7EE
:1022E80079BD54F8043C059354F8103C049354F811
:1022F800143C039354F8183C029354F81C3C019383
:1023080054F8203C009354E90A2354E90C01FFF7E0
:10231800A3FF54F8303CDD652546D2E7626A531CBA
:1023280009D022EAE27282FB052352EA03012068FF
:1023380003D1FFF79FFD3034CCE73946183000F061
:1023480053F8F8E7D4000020D4000020D92C00006E
:10235800034B1B680BB9FEF7E7BF0020704700BFAF
:10236800C402002030B5036868B10A4A5268904236
:1023780009D043B1D3E90421D0E90445121945EB4A
:102388000101C3E90421426813605A600023C0E9CF
:10239800003330BD0800002038B5114B1C689C4242
:1023A80008BF0024FFF7D4FF0546ACB1D4E9040107
:1023B800401B61EBE571B0F1004F71F100030BDADE
:1023C800002871F1000300DA0020064B1B6913B1E5
:1023D8009842A8BF184638BD6FF00040F5E700BF27
:1023E800080000208C0200202DE9F74F01911946C2
:1023F8004B1C08BFB2F1FF3F82466CD0541C6FF0F3
:10240800010341F100054FF0FF3BB3EB04086BEB10
:102418000509B8F1000F79F100030FDBFFF798FF0A
:10242800334AD2E9001C6FF001035B1A6BEB0C0214
:102438001E1B62EB0507341A67EBE075019BCAF8AF
:1024480008304FF02003EFF3118683F31188BFF3B0
:102458006F8FFFF77DFF012C75F10003254BB8BF87
:1024680001241A68B8BF0025241845EBE0759A4284
:10247800CAE9044501D05F6852B95A68CAF804200D
:102488005A68CAF80030C2F800A0C3F804A014E0E3
:10249800D2E90489DAE90445444575EB09011DDAF6
:1024A800B8EB040069EB0501C2E904015168CAE907
:1024B8000021C1F800A0C2F804A01A689A4206D008
:1024C800924504D1FFF768FF0021FEF7C9FE86F3A5
:1024D8001188BFF36F8F03B0BDE8F08FB4EB08002D
:1024E80065EB0901BA42CAE90401C6D01268C3E71C
:1024F800D8010020080000202DE9F74F0646FFF715
:1025080011FD4FF02003EFF3118483F31188BFF31B
:102518006F8F2C4DDFF8B0A0DFF8B0B02E605146B9
:10252800D5F800C0DBF800006246D3175845DAE951
:102538000089CDE900230DD060B1D0E90467B44526
:10254800BB411EDA009BB6EB030C019B67EB03064D
:10255800C0E904C6009B13EB0802019B4FF000067C
:1025680043EB0903C1E900232E60FFF715FF31464D
:10257800FEF776FE84F31188BFF36F8F03B0BDE8D2
:10258800F08F18EB06084FF000024FF0000349EBFC
:10259800E679C0E90423ACEB0606CAE900892E6097
:1025A800FFF7E0FE84F31188BFF36F8F83689847C5
:1025B8004FF02003EFF3118483F31188BFF36F8F7B
:1025C8000149ADE7C4020020D8010020080000201E
:1025D80010B54FF02003EFF3118483F31188BFF394
:1025E8006F8FFEF7A1FE064BD3E90023121843F1C3
:1025F800000384F31188BFF36F8F1046194610BD8E
:10260800D801002038B5064C064DAC4201D3002055
:1026180038BDD4E90112204600F0D2FB1434F4E7A7
:10262800D4000020D4000020002070470FB407B564
:1026380004A951F8040B0191FEF73EFA03B05DF8C6
:1026480004EB04B07047044608B5084611461A461C
:10265800A047FFF7FBFDFFF77FF8836800EBC10198
:10266800B3F5004F2CBF51F8220031F81200704723
:1026780000EBC1018068B0F5004F2CBF41F8223053
:1026880021F81230704708B50122FFF7E6FF40082D
:1026980008BD8368B3F5004F00EBC10108D34B6850
:1026A8001AB143F001034B60704723F00103FAE7C6
:1026B8004B881AB143F001034B80704723F00103A4
:1026C800FAE753000122FFF7D3BF80680131B0F564
:1026D800004F2CBF02200120081AB0FA80F0C0F188
:1026E8001F0070472DE9F04104460D46FFF7CBFF68
:1026F800A368B3F5004F014601D3012835D0204621
:10270800FFF7E3FF04EB800216699EB9012303FA81
:1027180000F0E3680343E360294615612B46022273
:102728002046FFF7A5FF032229462046BDE8F041D1
:10273800FFF79EBF022231462046FFF78EFF022296
:102748000346074629462046FFF792FF33460322F1
:1027580029462046FFF78CFF032239462B462046A0
:10276800FFF786FF02223146DFE7BDE8F081B2F5C8
:10277800802FF8B52CBF08250425551BCC1D0D440A
:1027880024F0070425F00705002200232D1B046010
:10279800ED08C4E9002300232946A560E36020462C
:1027A800FFF793FF86001B36411CF60804F1100260
:1027B80018468B4229DB324620460021FFF781FF6D
:1027C800AF1B204601220021FFF763FF3A4631463E
:1027D800FFF777FF3346314620460022FFF748FFD0
:1027E800294620460022FFF76CFF3B462946204633
:1027F8000022FFF73DFF294620460122FFF749FF47
:102808003146BDE8F840FFF76DBF42F8040B0133CD
:10281800CFE7704743681B6803EB510010B590F889
:10282800304002F00F0211F0010F14BF62F30714D9
:1028380062F303040B4480F8304093F8402042F0E0
:10284800010283F84020002010BD43681B6811F086
:10285800010F03EB51014FF0000091F8303014BF25
:102868001B0903F00F03136070476FF022007047D5
:10287800002070476FF02200704742F22732B2EB17
:10288800802F4FEA802315D24FF47A70B3FBF0F013
:102898000138B0FA80F00122C0F12003203802FA92
:1028A80003F322FA00F018430009B0FA80F0C0F1EF
:1028B80020007047002070470021012000F000B878
:1028C80000F0AFB90146006800F0ABB908B5FEF7F3
:1028D80007FEBDE80840FEF725BF431E013913F87F
:1028E800012F11F8010F824201D1002AF7D1101AE5
:1028F8007047F0B581EA0004A50703460BD0013BF9
:102908000A4491421BD1F0BD002AFCD011F8014BBA
:1029180003F8014B013A9C07F6D122F003041D1F6E
:1029280096080F19B94205D16FF0030505FB062279
:102938002344E4E751F804CB45F804CFF2E711F853
:10294800014B03F8014FDCE770B5C9B203469C0799
:1029580011D141EA012422F0030644EA04451E4449
:102968009408B3420DD16FF0030505FB04221A4405
:10297800934209D170BD002AFCD003F8011B013A2B
:10298800E5E743F8045BECE703F8011BF0E74FF0D9
:10299800FF3070470B46C96870B5054691B10C68A1
:1029A8005E68002C38BF00248A682A4002D04B6831
:1029B8003046984734B12368002B38BF002321469E
:1029C8001C46F1E770BD436870B595075B684FF02A
:1029D800000402D56FF0220070BDD60548BF02245E
:1029E800950502F030061CD5002EF3D101255605B9
:1029F80005FA01F511D55D619D60C66801251203D0
:102A0800B06805FA01F518D5A20716D528430B4476
:102A1800B06083F840400020DEE7160548BF9D619E
:102A2800EAE701258D405D60002EE6D0D60644F029
:102A380004044CBF9D615D61DFE720EA0500E6E71D
:102A480043685B681B6A0B600020704743685B68DB
:102A5800186942400A4042401A61002070474368A2
:102A68005B6800209961704743685B680020596182
:102A7800704743685B680020D9617047C368D868AD
:102A880030B558B10024814213D108685CB91C697B
:102A9800D860A14200D118610020086072B90020F6
:102AA80030BD2846EFE720601869814208BF1C61E5
:102AB800F2E705680446002DF3D13AB1DA680A60F6
:102AC8001869D9600028EAD11961E9E76FF01500A3
:102AD800E6E7002070474368187AFEF785BAC369AD
:102AE800DB06FCD1704743681B681A7E520743BF58
:102AF8009B6A0B7000206FF00F00704743681B68DB
:102B08001A7ED207FCD599627047C26893680BB1E8
:102B1800D1681847704743681B68187E10F0010099
:102B280006D0002A03DD0A789A6201207047002047
:102B3800704743681B6801229A75704743681B6891
:102B480001221A75704743681B68187E00F001005F
:102B5800704743681B6804229A75704743681B686E
:102B680004221A75704743681B68187EC0F38000FA
:102B7800704710B543681B681C7EC4F38000640767
:102B880007D59B6A002ADBB2C6BF0B7001206FF025
:102B9800150010BD43681B689A7D1B7E1A4214BF3E
:102BA80001200020704701207047C368C3E9021262
:102BB800704708B50B460822C1681846FFF799FE0A
:102BC800002008BD002208B511463620FEF728FC73
:102BD8003620FEF715FC002211463720FEF720FCB0
:102BE8003720FEF70DFC002211463820FEF718FCAE
:102BF8003820FEF705FC002239201146FEF710FCAC
:102C0800BDE808403920FEF7FBBB4FF02002EFF388
:102C1800118382F31188BFF36F8FFEE708B5FFF7C2
:102C2800F4FFF8B505460E464FF02003EFF3118781
:102C380083F31188BFF36F8FFFF708FB3146044613
:102C48002846FFF7EBFF87F31188BFF36F8F204605
:102C5800BDE8F840FEF780BD034620B9EFF30582D2
:102C68000AB9FEF77FBB83F31188BFF36F8F7047F4
:102C78004FF02003EFF3118083F31188BFF36F8FB8
:102C8800FFF7EABF014608B58068FFF769F84B7B94
:102C980023F002034B7300238B6008BD03460068D2
:102CA800834203D0002838BF0020704700207047B7
:102CB80010B54FF02003EFF3118483F31188BFF3AD
:102CC8006F8FFFF7A3F884F31188BFF36F8F10BDE0
:102CD80070B504464FF02003EFF3118683F3118893
:102CE800BFF36F8F50F8103CA0F1180513B12846B8
:102CF800FFF7C8FF14F80B3C23F0140304F80B3C4F
:102D08002846FFF783F886F31188BFF36F8F70BDED
:102D180010B54FF02002EFF3118482F31188BFF34E
:102D28006F8F03683BB1FFF71DFB002084F3118808
:102D3800BFF36F8F10BD6FF01500F7E710B54FF0B8
:102D48002003EFF3118483F31188BFF36F8FFFF72C
:102D580023FB84F31188BFF36F8F10BD70B5044651
:102D68000D464FF02003EFF3118683F31188BFF36C
:102D78006F8FFFF711FB012805DDA04203DD29460F
:102D88002046FEF76DFA86F31188BFF36F8F70BD8A
:102D980008B5FFF71DFC08BD08B54FF02002EFF39A
:102DA800118382F31188BFF36F8FFFF7C7FF0121EB
:102DB8000228D8BF0846FFF7D1FFFEF783FBECE7F0
:102DC80010B400F10C04C0E9034410BCFFF7CFBCF9
:022DD800704742
:022DDA00FFFFF9
:082DDC00BCD4FF7F01000000E0
:102DE400DD0A0000000000000D26000000000000C5
:102DF400010C000010000020A118000000000000D9
:102E040079280000200000207928000030000020EC
:102E1400792800004000002079280000500000209C
:102E24001D190000000000008D110000600000204A
:102E340081060000700000209D0B000000000000CF
:102E44003112000080000020DB2A000090000020E6
:102E5400DB2A0000A0000020DB2A0000B0000020D4
:082E6400DB2A0000C000002081
:102E6C0000000000C128000000000000C128000084
:102E7C0000000000C128000000000000C128000074
:102E8C0000000000C128000000000000C128000064
:102E9C0000000000C128000000000000C128000054
:102EAC0000000000C128000000000000C128000044
:102EBC00600000205110000000000000C12800003C
:102ECC0010000020350D000010000020350D000012
:102EDC0010000020350D000010000020350D000002
:102EEC0010000020350D000010000020350D0000F2
:102EFC0010000020350D000010000020350D0000E2
:102F0C0010000020350D000010000020350D0000D1
:102F1C0010000020350D000010000020350D0000C1
:102F2C0010000020350D000010000020350D0000B1
:102F3C0010000020350D000010000020350D0000A1
:102F4C0000000000C128000000000000C1280000A3
:102F5C0000000000C128000000000000C128000093
:102F6C0000000000C128000000000000C128000083
:102F7C0000000000C128000000000000C128000073
:102F8C0000000000C128000000000000C128000063
:102F9C0000000000C128000000000000C128000053
:102FAC0000000000C128000000000000C128000043
:102FBC0000000000C128000000000000C128000033
:102FCC0000000000C128000000000000C128000023
:102FDC0000000000C128000000000000C128000013
:102FEC0000000000C128000000000000C128000003
:102FFC0000000000C128000000000000C1280000F3
:10300C0000000000C128000000000000C1280000E2
:10301C0070000020132B000070000020132B000008
:10302C0070000020132B000070000020132B0000F8
:10303C0000000000C128000000000000C1280000B2
:10304C0000000000C128000000000000C1280000A2
:10305C0000000000C128000000000000C128000092
:10306C0000000000C128000000000000C128000082
:10307C0000000000C128000000000000C128000072
:10308C0000000000C128000000000000C128000062
:10309C0000000000C128000000000000C128000052
:1030AC0000000000C128000000000000C128000042
:1030BC0000000000C128000000000000C128000032
:1030CC0000000000C128000000000000C128000022
:1030DC0000000000C128000000000000C128000012
:1030EC0000000000C128000000000000C128000002
:1030FC0000000000C128000000000000C1280000F2
:10310C0000000000C128000000000000C1280000E1
:10311C0000000000C128000000000000C1280000D1
:10312C0000000000C128000000000000C1280000C1
:10313C0000000000C128000000000000C1280000B1
:10314C0000000000C128000000000000C1280000A1
:10315C0000000000C128000000000000C128000091
:10316C0000000000C128000000000000C128000081
:10317C0000000000C128000000000000C128000071
:10318C0000000000C128000000000000C128000061
:10319C0000000000C128000000000000C128000051
:1031AC0000000000C128000000000000C128000041
:1031BC0000000000C128000000000000C128000031
:1031CC0000000000C128000000000000C128000021
:1031DC0000000000C128000000000000C128000011
:1031EC0000000000C128000000000000C128000001
:1031FC0000000000C128000000000000C1280000F1
:10320C0000000000C128000000000000C1280000E0
:10321C0000000000C128000000000000C1280000D0
:10322C0000000000C128000000000000C1280000C0
:10323C0000000000C128000000000000C1280000B0
:10324C0000000000C128000000000000C1280000A0
:10325C0000000000C128000000000000C128000090
:10326C0000000000C128000000000000C128000080
:10327C0000000000C128000000000000C128000070
:10328C0000000000C128000000000000C128000060
:10329C0000000000C128000000000000C128000050
:0832AC0000000000C128000031
:1032B4001D28000053280000732800007D2800000A
:1032C40000800041808000410081004180810041F4
:1032D40069100000A5100000ED100000C9100000E6
:1032E40002000000EC32000000000000B4340000D2
:1032F4002600020700000020BC34000022000B114D
:10330400CF290000492A0000552A0000672A00003E
:10331400712A00007B2A000065190000852A00003C
:10332400DF2A0000FFFFFFFF0080004100000000D3
:10333400FFFFFFFF8080004101000000FFFFFFFF4F
:103344000081004102000000FFFFFFFF8081004177
:10335400030000000020014100C201000000100031
:10336400180800400002000017000000CD2B0000E8
:10337400EF2A0000052B000000000000610500009A
:10338400BB2B00001F2B00007B2B00003B2B0000FD
:10339400452B00004F2B00005B2B0000652B000029
:1033A400000000006F2B000000000000000000007F
:1033B4009D2B0000AF2B0000B32B0000E42D000078
:1033C400442E00004C2E00006C2E00006C2E0000D9
:1033D400F5FFFFFF504F5254430030313233343540
:1033E4003637383961626364656600534552434F2A
:1033F4004D3200454943000001020304050607FF5E
:10340400090A0B0C0D0E0F00010203040506070840
:1034140009FF0BFFFF0E0F00010203040506070856
:10342400090A0B0C0D0E0F00010203040506070820
:10343400090C0D0E0F0E0F0001020304050609FF0F
:10344400FF0A0B0C0D0E0F0001020304050607080A
:10345400090A0B0CFF0E0F0001FFFFFFFFFFFF0324
:1034640004050607FFFFFFFFFFFFFF0A0BFFFFFF37
:10347400FFFFFFFFFFFFFF50494E4D55585F4400CB
:1034840050494E4D55585F430050494E4D55585F75
:10349400420050494E4D55585F41005741544348EE
:1034A400444F475F30007379735F636C6F636B00E5
:1034B400464C4153485F30005352414D5F300050F9
:1034C4004F52544400504F52544200504F525441B2
:1034D400007A65706879722D76322E342E30002A87
:1034E4002A2A20426F6F74696E67205A6570687962
:1034F40072204F53206275696C64202573202573F4
:0C350400202A2A2A0A006D61696E00006E
:103510003126000097290000080000200800002044
:10352000F73300000000000000000000E40100206C
:103530007B340000D0320000B432000000000000F4
:1035400084340000CC320000B432000000000000DF
:103550008D340000C8320000B432000000000000CA
:1035600096340000C4320000B432000000000000B5
:103570009F34000000000000D4320000140200203C
:10358000EF33000058330000743300007C02002049
:10359000AA3400000000000000000000000000004D
:1035A000C33400004C3300000433000068020020E4
:1035B000D8330000403300000433000054020020E0
:1035C000C9340000343300000433000040020020FE
:1035D000CF34000028330000043300002C02002008
:0435E00000000000E7
:040000030000155D87
:00000001FF
