:020000022000DC
:10600000000001203D650200656502006765020031
:10601000696502006B6502006D650200000000000A
:106020000000000000000000000000006F6502009A
:1060300071650200000000007365020075650200D2
:10604000776502007765020021BD0200A1CA020047
:10605000CDC902007765020077650200776502000E
:1060600077650200776502007765020077650200B8
:1060700077650200776502007765020077650200A8
:106080007765020049A60200776502007765020085
:10609000E9A6020077650200FDB002007765020004
:1060A0007765020077650200776502007765020078
:1060B0007765020077650200000000000000000024
:1060C00077650200776502007765020031CA020039
:1060D0007765020077650200776502000000000026
:1060E00000000000000000000000000000000000B0
:1060F00000000000000000000000000000000000A0
:10610000000000000000000000000000000000008F
:10611000000000000000000000000000000000007F
:10612000000000000000000000000000000000006F
:10613000000000000000000000000000000000005F
:10614000000000000000000000000000000000004F
:10615000000000000000000000000000000000003F
:10616000000000000000000000000000000000002F
:10617000000000000000000000000000000000001F
:10618000000000000000000000000000000000000F
:1061900000000000000000000000000000000000FF
:1061A00000000000000000000000000000000000EF
:1061B00000000000000000000000000000000000DF
:1061C00000000000000000000000000000000000CF
:1061D00000000000000000000000000000000000BF
:1061E00000000000000000000000000000000000AF
:1061F000000000000000000000000000000000009F
:1062000010B5054C237833B9044B13B10448AFF3F0
:1062100000800123237010BDEC2D00200000000041
:106220000CDC02000C4B43B10C480D4910B5AFF328
:1062300000800C48036823B910BD0A48036833B9CD
:106240007047094B002BF7D0BDE810401847064BAC
:10625000002BF5D0184700BF000000000CDC020046
:10626000F02D0020A42D002000000000154B002B75
:1062700008BF134B9D46A3F5803A00218B460F467D
:106280001348144A121A06F0E4FC0F4B002B00D0FE
:1062900098470E4B002B00D09847002000210400A7
:1062A0000D000D48002802D00C48AFF3008006F026
:1062B00067FC2000290000F04BF806F04DFC00BF01
:1062C00000000800000001200000000000000000A5
:1062D000EC2D00207C4600200000000000000000A3
:1062E00034DF704735DF704708B503F045FB002801
:1062F000FBD10A4801F05CFC03F03EFB0028FBD117
:10630000BFF34F8F0649074BCA6802F4E06213439C
:10631000CB60BFF34F8F00BFFDE700BF48D0020046
:1063200000ED00E00400FA0500B583B0064B0092D2
:106330001C8824040B460246044944F0010003F083
:106340003FFDFFF7D1FF00BFBC2D0020F0CF0200C2
:106350002DE9F0414FF400418AB0002003F0A2FA89
:1063600008B104F0A9FC644D0FCD02AC0FC495E850
:106370000F00032584E80F00062600954FF0805497
:10638000082502A9012300225C480296039508947F
:1063900001F0CCF908B104F08FFC594C594A20881F
:1063A0005949000440F0030003F090FC012005F07F
:1063B0000BFA04F089FB08B104F07EFC04F012FE35
:1063C00008B104F079FC002302A80293FFF788FFCC
:1063D00008B104F071FC2088029A4C49000440F096
:1063E000030003F073FC029B3BB92088484900047A
:1063F00040F0030003F0F0FB029BDA0707D520888A
:106400004449000440F0030003F0E6FB029B9F07B1
:1064100007D520884049000440F0030003F0DCFB6E
:10642000029B5E0707D520883C49000440F003002A
:1064300003F0D2FB029B1D0707D5208838490004D2
:1064400040F0030003F0C8FB029BD80307D5208867
:106450003449000440F0030003F0BEFB029B9903A3
:1064600007D520883049000440F0030003F0B4FB56
:10647000029B5A0307D520882C49000440F00300F2
:1064800003F0AAFB029B1B0306D5208828490004C1
:1064900040F0030003F0A0FB03F06EFA0028FBD1EC
:1064A0004FF0FF30FFF71EFF08B104F005FC134862
:1064B000204DDFF88480074602F06CFC002445F094
:1064C0000105264603F058FA384601F071FB05F045
:1064D00065F9204605F056F9013664244FF47A40F8
:1064E000A847013CFAD103F047FA0028FBD106F097
:1064F000030358F82340E5E7D0CF020048D002005C
:10650000BC2D0020ACD00200B8D00200C4D00200E4
:10651000DCD00200E4D00200F0D00200F8D002008B
:1065200000D102000CD1020014D1020020D10200DF
:1065300028D1020040D0020028D002000649074AB4
:10654000074B9B1A03DD043BC858D050FBDC05F019
:10655000EFF9FFF78BFE0000ECDC0200982B002027
:10656000EC2D0020FEE7FEE7FEE7FEE7FEE7FEE794
:10657000FEE7FEE7FEE7FEE700B550E8002F0B461A
:1065800040E8003E9EF0000FF7D110465DF804FB96
:1065900000B550E8003F43EA010240E8002E9EF0BB
:1065A000000FF6D110465DF804FB00BF00B550E8BF
:1065B000003F03EA010240E8002E9EF0000FF6D1F2
:1065C00010465DF804FB00BF00B550E8003F03EB48
:1065D000010240E8002E9EF0000FF6D110465DF853
:1065E00004FB00BF00B550E8003FA3EB010240E808
:1065F000002E9EF0000FF6D110465DF804FB00BFA0
:1066000000B5012350E800EF4EEA030240E8002104
:1066100091F0000FF6D170465DF804FB00B5012340
:1066200050E8002F42EA030E40E800E191F0000F2D
:10663000F6D170465DF804FB00B5002350E800EF8A
:106640000EEA030240E8002191F0000FF6D17046F7
:106650005DF804FB00B5002350E8002F02EA030EAA
:1066600040E800E191F0000FF6D170465DF804FBC0
:10667000B8B130B4416882680468521AD2B2531E6D
:106680002160DBB242B101680A685C1E551C0D60D6
:106690001370E3B2FF2BF6D103680020187130BCF1
:1066A00070470E20704700BFF0B583B002AB0025E5
:1066B00003F8015D0446184604F00EFB2368616888
:1066C0001A688A4210D9511E19602168A3680E68A1
:1066D00012F8015C0A79A78AE0689B1BDBB29A4238
:1066E00007FB050538BF0B719DF8070004F01AFB86
:1066F000284603B0F0BD00BF30B583B002AB002226
:1067000003F8012D054618460C4604F0E5FA2A6800
:106710001368591C1160E968AA8A641AB4FBF2F480
:106720001C709DF8070004F0FDFA03B030BD00BFF7
:1067300030B18A6892F83C3143F0200382F83C3152
:10674000704700BF10B544696068036801219B6809
:106750009847A36810B104221A7010BD03221A7062
:1067600010BD00BF0968006806F0EBBB2DE9F041E1
:1067700005468068484E82B000248022214694302D
:106780008DF8034006F065FA2869444904F0D8FC06
:10679000286904F0C9FC46F001064FF47A7868686D
:1067A000036801221F690DF1030101ABB847019A8B
:1067B000D2B19DF80320AB681B2A04F1010105D07A
:1067C00093F894001B28EAD1522A1CD02344CCB25F
:1067D000092C83F89420E2D9AB68002283F8942036
:1067E000042002B0BDE8F0814FF6C010B047019B15
:1067F000002BD4D108F1FF371FFA87F8B8F1000F4A
:10680000CDD10D20EDE72344002283F89420AE681B
:1068100096F895305B2B05D00B2086F8942002B0BB
:10682000BDE8F08106F19507022304E05FFA8EF3DC
:10683000802B8AB22ED017F8014F02EB8201A4F10F
:1068400030003B2C03F1010E00EB4101EED15FFA69
:106850008EF318061ED4002002E088B2190619D45F
:10686000F41800EB800194F89440013304EB4101EB
:106870003039DBB2002CF0D1FA2828BFFA20307270
:10688000AB68FA2A88BFFA229A72AB68002083F8B4
:106890009400A6E70C20A4E730D2020008D2020040
:1068A000F8B50C4601F1080508B306F05CFBC0B270
:1068B0000146E27C637BA77CA0730A440F4492FBF1
:1068C000F3F603FB162297FBF3F0013203FB107380
:1068D000002162F307010133013663F30F2166F3F0
:1068E0001741013060F31F61A1602846F8BD0146E1
:1068F000DFE700BF2DE9F84F074600200346884632
:10690000144638600646814605E084F8009001345C
:106910003B682F2B2AD8257845B306F055F9284433
:10692000437813F00803F0D13A68511C396048F8F5
:10693000224025781E46002DEAD0EEB9272D2FD013
:106940005C2D04F10106204635D0222D28D006F01A
:106950003BF9284443781B0700F1AE8014F8015F2F
:10696000002DEBD12E463B682F2BD4D9002248F8BE
:1069700023203046BDE8F88FAE4204D05C2D657808
:1069800026D00134D7E7204606F0EDFA611C024616
:10699000204606F044F92578002DE3D0272DCFD1ED
:1069A000204606F0E0FA611C024620462E4606F01C
:1069B00036F92578BFE706F0D6FA3146024620467A
:1069C00006F02DF965783446002DB7D12E46CAE77A
:1069D000AE4224D0302D2FD02B46782BD1D1A278A7
:1069E000A2F13003DBB2092B4ED9A2F16103052BD2
:1069F00064D9A2F14103052BC3D8373AD5B2E27866
:106A0000A2F13003DBB2092B45D843EA0515EDB2FC
:106A10004FF0030A4FF0040B2046A24428E0204622
:106A200006F0A1FA04F1010A02465146204606F09A
:106A3000F6F8657854467EE7A378A3F13001C9B231
:106A40000729CAD8E378303BDBB2072B42D822793A
:106A5000303AD2B243EAC103072A5BB23FD842EAD6
:106A6000C303DDB24FF0050B0423204604EB030AF9
:106A700006F079FA821CA2EB0B025146204606F082
:106A8000CEF8257065787CE71D46E278A2F13003E8
:106A9000DBB2092BB9D9A2F16103052B11D9A2F1FF
:106AA0004103052B20D8373A42EA0515EDB24FF0E5
:106AB000030A4FF0040BAFE7002629E7573AD5B297
:106AC000E3E7573A42EA0515EDB24FF0030A4FF0FB
:106AD000040BA1E70D4602234FF0030BC5E7DDB21F
:106AE0004FF0040B0323C0E74FF0020A4FF0030BF3
:106AF00092E700BF002900F0DA802DE9F04F8B46C5
:106B000085B0924606464C1E002700E0013706F08D
:106B10005BF814F8013F184443781B07F6D45FFA7A
:106B20008AF30193584606F01EFAB36893F80D8075
:106B3000C01BA8EB0A08404560D90BEB07090024ED
:106B400000E0013406F040F819F8013B18440AEB64
:106B500004014278100707EB040502D50A2B07D081
:106B6000A046B3685B7B9942EBD307EB080544462C
:106B7000306904F0D9FAA4B103AB4FF000080095D6
:106B800099467068036807EB0801DD6859444B4675
:106B90002246A847039B9844FBB1E41A002CF0D18D
:106BA000009D0BEB050400E0013506F00DF814F82C
:106BB000013B184443781B07F6D4404A40493069EA
:106BC00004F0BEFA019B0BB92F46ABE71A463D49CC
:106BD000306904F0B5FA2F46A4E7B2681378032BA6
:106BE000DCD0D2F83C319906FBD592F83C316FF3FA
:106BF000451382F83C31002CC3D1D1E70BEB0701E0
:106C000088B11BF807300A2B0BEB070150D00B465D
:106C1000002403E013F8012F0A2A0FD00134A04208
:106C200007EB0405F6D1306904F08AFA3069234A8B
:106C3000234904F085FA05B0BDE8F08F306904F00F
:106C400073FA4FF000080DF10C0AA946706803684A
:106C500007EB0801DD68594453462246A847039BC9
:106C6000A3B19844E41A002CF0D14D46134A1449BC
:106C7000306904F065FA019B013523B11A461149C8
:106C8000306904F05DFA0BEB0501CCE7B2681378CC
:106C9000032BE8D0D2F83C319D06FBD592F83C316D
:106CA0006FF3451382F83C31002CCFD1DDE77047FC
:106CB00030693D4604F038FAD8E700BFE4D102005D
:106CC00058D5020038D202000CB4F0B585B00AAB3A
:106CD000816853F8045B0193D1F83C315B070446AB
:106CE00002D5CB7B082B09D12946206901AA04F0E3
:106CF000C7FA05B0BDE8F04002B0704702220F317C
:106D0000684605F081FFA368DA7B082A0AD02B4A7F
:106D10002B49029208220391DA73206929496A44B7
:106D200004F00EFA01AA2946206904F0A9FA9DF898
:106D30000030A268002B39D0D17B994214D01F4972
:106D400002916D200021332603F12F058DF80E00EE
:106D50008DF80F108DF80C608DF80D50D3732069ED
:106D6000184902AA04F0ECF99DF80130002BC0D0BC
:106D7000A268117C9942BCD01B218DF808105B27BA
:106D8000342603F12F056D2000218DF80C008DF8BD
:106D90000D108DF809708DF80A608DF80B50137482
:106DA0002069084902AA04F0CBF9A2E7D37320694D
:106DB000054A044904F0C4F9D6E700BF1B5B313B28
:106DC00033376D0058D50200E8D102002DE9F047B5
:106DD000804686B0544806F0C6F80446534806F08C
:106DE000C2F8D8F8083052495B68524A1B680091D3
:106DF000241A08214046FFF767FFD8F808305B687F
:106E00001868A4B2002800F08D8006F0ACF885B2B6
:106E1000474806F0A8F8D8F808305B682844596855
:106E200082B24046FFF766FE434A08214046FFF71C
:106E30004BFF3E4806F097F802300444A4B23A4BA8
:106E400000933E4A234608214046FFF73DFFE21CDF
:106E500092B23B494046FFF74DFED8F808305B68D8
:106E60009F68002F54D0002528462E460FE07C68EE
:106E700060592C44B8B106F076F8B04205D92668BE
:106E8000304616B106F06FF886B2103548463B78AA
:106E900000F10109002BEAD07B6802A9984702980B
:106EA00008B102ACE7E7B9F1010F31D0254ADFF8AC
:106EB0008C9008214046FFF707FF3B78B51C002463
:106EC000ADB24FEA041AD3B97B6853F80A209A444A
:106ED000F2B1082100922B464A464046FFF7F4FEE5
:106EE000DAF80430721D1946404692B29BB1FFF7A2
:106EF00001FE3B7801344FEA041A002BE4D002A9CA
:106F00007B6820469847029A12B10DF1080AE0E723
:106F100006B0BDE8F0870C4A0C49D8F8100004F020
:106F20000FF9E6E7054673E740D202007CD5020080
:106F300010D20200A0D4020064D4020070D4020077
:106F400078D402008CD40200E4D1020058D50200AB
:106F5000022910B504460BD020690A4A0A4904F0F8
:106F6000EFF82069094A0849BDE8104004F0E8B884
:106F70008368D3F83C319B07EED5BDE81040FFF79E
:106F800025BF00BFF0D1020058D50200F4D10200A5
:106F9000F8B504460068A668002841D005F0E3FF74
:106FA000C0B20346F17C727BB57CB07319442B44AC
:106FB00091FBF2F002FB101193FBF2F5013102FBA1
:106FC0001533C9B200270133DBB2013061F3070783
:106FD000C0B263F30F276A1C60F31747D2B262F3A3
:106FE0001F679942B76018D0904203D2121A12F06C
:106FF000FF0217D1994207D85B1A13F0FF021AD18A
:10700000A3689A7CDA74F8BDCB1A13F0FF02F7D0AC
:107010000B49206904F094F8F2E79042E4D1F2E7DA
:107020000346BFE70749206904F08AF8317A737A8A
:107030009942E1D9E8E70449206904F081F8DFE7E3
:107040001CD2020014D2020038D20200F8B5054664
:107050000068AC68002843D005F085FFC0B2064642
:1070600000F1010EE37C617BA77CA673034493FBD4
:10707000F1F201FB12333844013390FBF1FCDBB237
:1070800001FB1C010027013163F30707501C61F36A
:107090000F27C1B20CF1010C61F317476CF31F67A6
:1070A0007345A76019D001291ED8B34208D801360C
:1070B000F31A13F0FF021FD1AB680022DA74F8BD97
:1070C000013B9E1B16F0FF02F6D00F49286904F021
:1070D00037F8AB680022DA74F8BD0129E3D1F8BDB6
:1070E00006464FF0010EBDE7D2B20849286904F008
:1070F00027F8237AA67BD8E70549286904F020F809
:10710000AB680022DA74F8BD1CD2020024D202005F
:1071100038D20200F0B585B00025019502958DF8B2
:107120000C500446836871BBD3F83831002B00F053
:1071300088800E46FFF78AFFA26801AFD2F83801B7
:1071400033460922394603F0FFF8A368029AC3F8D0
:107150003821A368D3F838019D7C002833D103F18E
:10716000940005F000FF002840F08F80A368187598
:10717000A36813F1140003D005F0F5FEA368C0B2B4
:107180008DF80C0031E0D3F83811D3F83421914256
:1071900057D0D3F83031002B53D0FFF757FFA368F7
:1071A000D3F8380100285DD001AF2B4609223946BB
:1071B00003F0CAF8A368019AC3F83821A3689DF8C0
:1071C0000C50D3F8380139460023092203F0BCF8EB
:1071D000A1689DF80C20D1F838010923143101323F
:1071E00003F0B2F89DF80C00A368D874A368A84215
:1071F000987431D3A3682E4A204614330821FFF730
:1072000063FDA2682068D57CE8B105F0ACFEA268F9
:10721000537B2844B0FBF3F503FB150060B12068F5
:10722000957C18B105F09FFEA3685B7B2844B0FBFA
:10723000F3F203FB120020B920691E4A1C4903F037
:107240007FFF05B0F0BD537BB5FBF3F103FB115598
:10725000002DF1D0957CE9E7174A1549206903F024
:107260006FFFC7E703F1140005F07DFEA368C5B208
:10727000D3F83021C3F8382175B9A36883F8945046
:10728000A36801AFD3F838019DE7A06800F194012D
:10729000143005F060FE6BE7A06800F11401943033
:1072A00005F059FEA36801AFD3F838018BE700BFA2
:1072B00058D50200E4D10200D8D102002DE9F041F6
:1072C00005460068AC68002878D005F04CFEC0B2D6
:1072D0000146E27C637BA67CA0730A44314492FBA6
:1072E000F3F603FB1622013291FBF3F74FF0000E89
:1072F00003FB171362F3070E01360133F6B263F393
:107300000F2E013766F3174EFFB267F31F6EC4F8F6
:1073100008E0AA68286892F81380002838D005F0A1
:1073200022FEAA68537B4044B0FBF3F803FB18002D
:1073300068B1286892F8128018B105F014FEAB68A5
:107340005B7B4044B0FBF3F203FB120020B91F4A01
:107350001F49286903F0F4FEBE4223D0E27AA37AE3
:10736000D21A12F0FF022BD1237A627A934205D807
:10737000D21A12F0FF021BD1BDE8F0819A1A12F066
:10738000FF02F9D028691349BDE8F04103F0D8BEE7
:10739000537BB8FBF3F103FB11810029D7D092F89E
:1073A0001280CEE7627A237AD21A12F0FF02E3D07B
:1073B00028690949BDE8F04103F0C2BE014688E7EB
:1073C0000649286903F0BCFECEE700BFE4D1020005
:1073D00058D5020038D202001CD2020024D202008A
:1073E000F8B583689E7CB4187F2C00DC02B9F8BD28
:1073F0000F46D97C0446761A8818F6B21430143138
:10740000194415461844721C05F009FCA068C37C99
:107410001433394618442A4605F001FCA76817F1D1
:10742000140002D005F09FFDC0B2B874A1681E4AD6
:10743000CB7C14330B4420460821FFF745FCA3689E
:10744000DA7C2A44DA74A2682068D57C10B305F08F
:107450008AFDA268537B2844B0FBF3F503FB1500BB
:1074600060B12068957C18B105F07DFDA3685B7B59
:107470002844B0FBF3F203FB120020B90B4A0A497F
:10748000206903F05DFE002EB1D02046BDE8F84033
:10749000FFF714BF537BB5FBF3F103FB1155002D30
:1074A000ECD0957CE4E700BF58D50200E4D102009F
:1074B0002DE9F0418368D3F83C619A7C0446D87C7E
:1074C000C6F30006151AF7B28846EDB2002F38D180
:1074D0007E2A34D8002D40F0E08003441975A2685C
:1074E000937C0133DBB2D11893740D754246864903
:1074F000206903F025FEA268D37C0133D374A5680C
:107500002068EE7C00286FD005F02DFDA5686B7B10
:107510003044B0FBF3F603FB1600002800F0B68001
:107520002068AE7C002867D005F01DFDA5686B7B48
:107530003044B0FBF3F603FB1600002864D0BDE82E
:10754000F0817E2A4AD9002D00F09E8003441975EF
:107550002068A668002800F0D28005F004FDC0B2C3
:107560000146F27C737B96F812C0B0730A448C44D7
:1075700092FBF3F003FB102201329CFBF3F14FF07E
:10758000000E03FB11C362F3070E01330130C2B2D8
:1075900063F30F2E4B1CDBB262F3174E63F31F6EC7
:1075A0009A42C6F808E000F097802069574A584987
:1075B00003F0C6FDA168564ACB7C14330B44204629
:1075C0000821FFF781FB2069524A514903F0B8FDB9
:1075D00001225149206903F0B3FD8CE7034419757A
:1075E000002D3FF47CAFB3E76B7BB6FBF3F003FBFE
:1075F0001066002E4AD0AE7CB6FBF3F203FB12629B
:10760000002A9CD1104608E02068002879D005F0B7
:10761000AAFC6B7BAE7CC0B20246E97CA873114425
:10762000164491FBF3F003FB101196FBF3F20131CA
:1076300003FB1266002761F30707431C0136DBB228
:10764000D2B266F30F27511C63F31747D21A61F3C6
:107650001F6712F0FF02AF6039D1304A2C49206910
:1076600003F06EFDEA7AAB7AD21A12F0FF0229D14A
:107670002A7A013A12F0FF023FF461AF20692649ED
:10768000BDE8F04103F05CBDBDE8F0812069234A0C
:107690001F49BDE8F04103F053BD00F1140115305E
:1076A000194418442A4605F0BAFAA368DA7C134450
:1076B00083F81480A268937C0133DBB2D1189374F1
:1076C0000E7545E71649206903F03AFDD0E71549E4
:1076D000206903F035FDC0E7A1680D4ACB7C143367
:1076E0000B4420460821ED1BFFF7EEFA15F0FF02D0
:1076F0003FF401AF0C49206903F022FDFBE601468F
:107700002FE70246AE7C88E7A4D10200DCD102005C
:1077100058D50200E0D1020038D20200E4D10200C4
:1077200024D2020014D202001CD202002DE9F04142
:107730000446C0689DF8187044616068056890460A
:107740002D682E4A1E462346A847054610B12846F6
:10775000BDE8F081606902F03FFD05460028F6D1E2
:10776000A368C3F83001A368C3F834014FF4A072D2
:107770002946A06805F06DFAA068214B90F83C21DD
:10778000204942F0200280F83C21A06890F83C217A
:1077900068F3820280F83C21A06890F83C2142F016
:1077A000080280F83C21A26801201070A2685020D5
:1077B0005073A268C91A1820C90810730ED0124A53
:1077C00003EBC10E58680833006842F8040B9E456D
:1077D000F8D10E4B0C48042205F07CFA002EB6D0EE
:1077E0003946E06802F078FB0028A5BFE368012273
:1077F00004255A722846BDE8F08100BF31670200B7
:10780000BCDC0200E4DC0200D82D00206567020029
:107810004AB32DE9F043054683B088461446002755
:107820000E46686803682246D3F80C90314601ABD7
:10783000C847019B2BB1E41A1F4411D008EB07067F
:10784000EFE7AA681378032BEBD0D2F83C319B0604
:10785000FBD592F83C316FF3451382F83C31E0E7F9
:1078600003B0BDE8F08370470CB4F0B585B00AAB47
:10787000826853F8046B0193D2F83C315B070446ED
:1078800003D5D37B8B420D4609D13146206901AA2D
:1078900003F0F6FC05B0BDE8F04002B0704702F11D
:1078A0000F016846022205F0AFF9A368002D64D0ED
:1078B000DA7BAA4216D0332005F12F016D22002772
:1078C000DFF8C8E08DF80C008DF80D108DF80E2053
:1078D0008DF80F70CDF808E0DD7320692A4902AAFF
:1078E00003F02EFC01AA3146206903F0C9FC9DF883
:1078F0000030A268002B39D0D17B994214D02349A3
:1079000002916D200021332603F12F058DF80E0022
:107910008DF80F108DF80C608DF80D50D373206921
:10792000194902AA03F00CFC9DF80130002BB1D0DC
:10793000A268117C9942ADD01B218DF808105B27FD
:10794000342603F12F056D2000218DF80C008DF8F1
:107950000D108DF809708DF80A608DF80B501374B6
:107960002069094902AA03F0EBFB93E7D37320696E
:10797000074A054903F0E4FBD6E7DD732069044AB2
:10798000014903F0DDFBADE758D502001B5B313B3D
:10799000E8D102002DE9F041C36890B007460C46DB
:1079A000D86803A9002203F0C5FA002840F0AA8095
:1079B000002C78D1BD683868002800F0A78005F059
:1079C000D2FAC0B20646EB7C697B95F812E0A87348
:1079D000334493FBF1F201FB12337644013396FBFF
:1079E000F1FEDBB201FB1E610020013163F30700F1
:1079F000561C61F30F20F1B20EF1010E61F3174036
:107A00006EF31F600129A86005D9D2B247493869D1
:107A100003F096FB2B7A012B7AD8454A4549386901
:107A200003F08EFB002C7AD1A0460AE0039802F006
:107A30003BFCFB680022D86803A903F07BFA00280E
:107A400042D10023082204A9039802F07DFC9DF88E
:107A50001030069805998DF8258003F00302012A5D
:107A60000790089134D0022AE0D1BDF81250C3F338
:107A7000C2038DF82430C5F389150826082D2C463D
:107A800028BF0824334622460AA9039802F05CFC6A
:107A90002D1B21463B6907AA0AA8264402F0EEFAEC
:107AA000002DEBD1C2E7039802F0FEFBBA68D2F8D2
:107AB0002C310133C2F82C31BD68D5F82C3103F0DC
:107AC0000703012B3FF477AF012010B0BDE8F08130
:107AD000BDF81060049C0398C6F38316C3F3C20577
:107AE000B2000AA908238DF82450C4F3952402F0AB
:107AF0002BFC3B6900933246204607AB0AA902F0F3
:107B000017FA93E7002010B0BDE8F08106465AE767
:107B1000013BDAB20849386903F012FB7DE73846C9
:107B2000064A0221FFF7A0FE2046CEE724D202003B
:107B3000D8D1020058D502001CD20200A8D1020000
:107B400010B5034682B00022C0685C6901A903F049
:107B5000F1F918B901462046FFF71CFF02B010BD2D
:107B6000F0B5456983B0AB6801911F78042F17D039
:107B7000044601A9C06803F069F960B1FE1E18BF90
:107B8000012631462846FFF705FF01A9E06803F00A
:107B90005DF90028F5D1019802F082FB032F01D096
:107BA00003B0F0BD28460021FFF7F4FE03B0F0BD9E
:107BB0002DE9F04F82468068CBB0102100F59E7011
:107BC000FEF7E6FCDAF808301B78022B40F08C80D8
:107BD000DFF834B3C34B0DF594780022A3EB0B030D
:107BE00048F8EC2D4FEAD309DAF8040003680122C3
:107BF0001C690DF13B014346A0470F9B002B58D059
:107C00009DF93B30002BEFDB03F0A4F8DAF8080015
:107C10004378012B2AD076D3022B2CD1002343703A
:107C2000DAF80840D4F83C31190742D59DF83B30CA
:107C3000413B0B2BD8D801A252F823F00B80020055
:107C4000158002008B7F02000D7F0200E97B02009D
:107C5000837F0200E97B020003800200E97B0200CF
:107C6000E97B0200E97B02001F8002009DF83B30A7
:107C70005B2B00F0308100234370B5E79A4A9B49A3
:107C8000DAF8100003F05CFADAF80830974A0221BB
:107C90001970DAF8081000230B75DAF80810CB74A5
:107CA000DAF808108B74DAF8003003215046FFF739
:107CB000DBFD00215046FFF76DFEA8B1DAF8003079
:107CC0008A4A03215046FFF7CFFDDAF80830D3F88F
:107CD0003C21120708D550461433844A0821FEF788
:107CE000F3FF5046FFF7EAFADAF8100003F01CFA47
:107CF000DAF808006FF0100100F59E70FEF756FCF0
:107D00004BB0BDE8F08F9DF83B309AF818209A42AE
:107D100000F0B183092B00F0B78178D8002B3FF435
:107D200063AF082B40F08881D0F83C311D077FF508
:107D30005BAF827C002A3FF457AFC37C002B3FF43B
:107D400053AFD21A03F11401D5B213336A1C0144A4
:107D5000184404F064FFDAF80820D37C013BD374A4
:107D6000DAF80820937C013B9374002D00F02886FC
:107D7000DAF810005E49082203F0E2F9DAF80000B0
:107D8000DAF80840002800F0AE8605F0ECF8C0B242
:107D90000146E27C637BA77CA0730A440F4492FBFC
:107DA000F3F603FB1622013297FBF3F1002003FBED
:107DB000117362F3070001330136F2B263F30F204F
:107DC0004B1CDBB262F3174063F31F609A42A06062
:107DD00000F0AF86DAF81000464A444903F0B0F9E3
:107DE000DAF81000444A414903F0AAF9DAF8081019
:107DF0003E4ACB7C14330B4450460821FEF764FF07
:107E00003E4A3A49DAF8100003F09AF9ECE61B2BE7
:107E100064D07F2B40F01081D0F83C311C077FF5F7
:107E2000E3AEC27C837C9B1A13F0FF053FF4DCAE0B
:107E300002F115011432014410442A4604F0EFFE09
:107E4000DAF80820937C013B9374DAF80000DAF842
:107E50000840002800F0CA8505F085F8C0B2014648
:107E6000E27C637BA77CA0730A440F4492FBF3F689
:107E700003FB1622013297FBF3F1002003FB117381
:107E800062F3070001330136F2B263F30F204B1C9B
:107E9000DBB262F3174063F31F609A42A06099D18E
:107EA000DAF80810114ACB7C14330B4450460821F1
:107EB000FEF70AFF124A0D49DAF8100003F040F904
:107EC0006B1E13F0FF023FF48FAE0E49DAF810007C
:107ED00003F036F988E60223437085E601234370F8
:107EE00082E600BFE4DC0200E4D1020058D50200C3
:107EF000A4D10200DCD10200D8D10200E0D10200FE
:107F0000ECD102001CD20200BCDC0200DAF8000056
:107F1000002800F0958305F026F8C1B20E463546DC
:107F20000131E27C637BA77CA6732A4492FBF3F0C9
:107F300003FB10222F440132D2B297FBF3F6002547
:107F400003FB1673013062F307050133C0B263F31C
:107F50000F2560F31745013666F31F659142A56052
:107F600000F06482012A00F06682B0490122DAF84A
:107F7000100003F0E5F8DAF80820D37C013BD37455
:107F800032E65046FFF704F82EE6DAF80000002843
:107F900000F05A8304F0E7FFC0B20546E37C617B42
:107FA000A27CA0732B442A4493FBF1F001FB103315
:107FB00092FBF1F5013301FB1522DBB20026013201
:107FC0000130D2B263F30706C7B262F30F26681C12
:107FD00067F31746C0B260F31F669342A66000F0D5
:107FE000208299424FF0010200F03A829049DAF87B
:107FF000100003F0A5F8DAF80820D37C0133D3741D
:10800000F2E55046FFF722F8EEE501215046FFF772
:1080100081F8E9E500215046FFF77CF8E4E5D4F863
:108020003C3194F83C2103F0010383F0010363F336
:10803000000284F83C21D7E504F0C6FD9DF83B1012
:108040000844437813F0970F3FF4CEADDAF80820D8
:10805000D2F83C31C3F3C00313F0FF0F40F092801D
:10806000907C7E283FF6C0ADD07C14180130D074CF
:108070002175DAF80820D17C0A441375DAF8082053
:10808000937C01339374AFE5D0F83C311B077FF547
:10809000ABAD837CC3F17F0313F0FF0309933FF47F
:1080A000A3AD00F11401C27C943004F0ADFDDAF808
:1080B0000830DA7C1344002483F8944004F084FDF3
:1080C000DAF80830DA7C1A4419A9D27C024410A8E4
:1080D0005578C3F83841DAF8082005F008030C9306
:1080E0009432C5F3C0030B93FEF704FC19980028E3
:1080F00000F0798404F037FFC3B207930022109B8D
:10810000CDF80C8004920A9215460D920892CDF893
:1081100008A09046002B00F007810B9A013A134407
:108120009D4280F001814AAA02EB85020026059556
:10813000334606924546059A5F1C3ABBB14540F26C
:10814000EB803C4BDA46904603EB8604DAF80430C9
:108150002068196804F0F5FE002800F0588108F145
:108160000108C1450AF1080AF0D1DDF808A0DDF8E0
:108170000C80002F7FF438AD2F4A04215046FFF7C2
:1081800073FB31E55046FFF793F92DE5002D00F024
:10819000C3802A78002A40F0598133016C68E15885
:1081A0001C44002900F0B880002F00F02785069BB2
:1081B00053F8C40C04F0C5FE01363B460028BAD182
:1081C000059DD4F80880B8F1000F06D0109B0B9ADB
:1081D0000135EDB21A4495429CD3049B0595474660
:1081E000DDF808A0DDF80C80002B3FF4FDAC089B07
:1081F0000D9A934200F03A84DAF808304FF000020A
:108200005A746ED30D9BCDF80C801A0102921D4654
:10821000059B002B40F0D3824D4580F00B829846A1
:10822000044B5E4603EB85040FE000BF1CD2020046
:1082300038D20200D82D002018D5020008F101081C
:10824000C14506F1080600F0F581736820681968D9
:1082500004F077FE0028F1D173681E68002E00F04C
:10826000F8838A4804F07FFE0A9BDAF808101A188F
:10827000D2B286484C7B0B9204F075FE06903046D5
:1082800004F071FEDAF80830069993F811E00B9AC1
:10829000611AB1FBF2F1C9B2121ABEFBF1F001FB97
:1082A00010E111F0FF0F0EF1010ED4B283F811E0CE
:1082B00040F093820096754B754A07215046FFF7B0
:1082C000D3FA2CB122467349DAF8100002F038FFD5
:1082D000029B10330293089B01359D4298D9DDF82B
:1082E0000C80DAF800306C4A50460321FFF7BCFAE4
:1082F000DAF80830694A143308215046FEF7E4FCE6
:108300005046FEF7DBFF049B099A1968079B50460D
:108310001944FFF765F867E4DDF808A0DDF80C8084
:10832000002F7FF461AC27E70C9B002B40F0858188
:108330004AAB03EB850353F8C40C002800F06A82B3
:1083400004F011FEC3B207934AAB03EB850300248C
:1083500006930594002D2ED1A1457FF63EAF504BDC
:108360005F46AA4603EB840606E00AF1010ACA4505
:1083700007F108073FF431AF7B683068196804F0F3
:10838000E0FD0028F1D17E68002E3FF426AF316871
:10839000069B079A53F8C40C04F0EDFD049BD8B17A
:1083A000002B7FF410AF1E46089B0593059B049697
:1083B00001340893CDE7B8F1000F3FF40EAF98F801
:1083C0000030002B40F0F0812301D8F80460F15810
:1083D0001E440029DCD100E7002B00F00582306844
:1083E00038B104F0C0FD0A9BC0B2834238BF0346D7
:1083F0000A93099B002B40F09981671CD6D1294A2A
:108400000298049604210894FFF72EFADBE6DAF8C6
:108410000440002F00F0F283002C00F0F583216867
:10842000C5E687427FF4DDADFFF7DEBB01287FF4B0
:1084300099ADFFF7D9BB1C49DAF8100002F080FEB5
:10844000627B002A3FF497AD124990E5184611A9C6
:108450006B689847119900293FF45EAF11ACA3E611
:108460001249DAF8100002F06BFE627B002A3FF43A
:10847000C2AD0F49BBE5837C0446002B3FF4FEAB45
:10848000037D002B61D0002419E000BF50D502000D
:1084900054D5020038D2020048D5020058D5020057
:1084A000D82D002018D5020024D2020014D20200D8
:1084B0001CD202000134B4F5807F00F00F8304F079
:1084C00083FBDAF808201319E5B21B7D03445B78BF
:1084D0001907EFD495B1937C02F114005A1C121BBA
:1084E000411904F09CFBDAF80820937C5D1B95741D
:1084F000DAF808309A7CDA74DAF80820947C1334BD
:108500001444274604F060FB3B780344E51B5B788A
:1085100013F008033E46EDB207F1FF37F2D1DAF867
:108520000840A27C02F1130121448E420DD0521B5F
:1085300014442375DAF80820937C5D1B9574DAF8EF
:1085400008309A7CDA74DAF8084014F1140000F06C
:10855000258204F008FDDAF808300027C5B2C3F818
:108560003871002D00F01C82DAF80830D3F83001A1
:1085700019AE48B131463B46092201F0E5FE9DF8AF
:108580006C40AC4200F0B2820A354FF0080811E0AE
:1085900023460922314601F0D7FEDAF80820199463
:1085A000D2F8340123460922314601F09FFEB8F18A
:1085B00001087AD02946DAF8140001F00FFEDAF843
:1085C00008300446002841D1D3F83471002FEED092
:1085D000034609223146384601F0B6FEDAF8083083
:1085E0001A9AC3F8342121460922304604F031FB9F
:1085F000234609223146384601F078FE384601F01C
:1086000035FEDAF80830D3F834010028C0D1C3F8B9
:108610003001CCE7B8F1000F0CD098F80030002BF7
:1086200040F07D82089BD8F804201B01D058002818
:1086300040F09F8000231B68FFDE0023079383E642
:108640000546064601216CE40546A7E4D3F830014F
:10865000002800F0A68200230922314601F074FEB2
:10866000DAF808301A94D3F8300109220023314691
:1086700001F03CFEDAF8083000221A92D3F83021DB
:1086800019929A7C8DF86C20C3F83041002309229E
:108690003146204601F02AFEDAF808108A7C20468E
:1086A00001321431092301F021FE5046FEF770FC1F
:1086B000DAF80820DAF80000D47C18B104F053FC92
:1086C000DAF80820517B2044B0FBF1F301FB1300E2
:1086D000002840F07F811432314611A8FEF70AF9D4
:1086E000119A0346002A3FF4C9AA002840F081816C
:1086F000B9F1000F10D0AB4D04466B68199819689A
:1087000004F01FFC002800F0888001344C4500F282
:10871000848005F10805F0D1A34A0092199BA34A71
:1087200002215046FFF7A0F8FFF7AEBA002D7FF404
:1087300071AF089A4A45BFF47DAF9D49049501EB9E
:10874000820A2A4627465D46144605E001344C4518
:1087500005F108053FF46EAF6A68DAF800001168A9
:1087600004F0EFFB0028F1D13C462F46049D7B68C6
:108770001868D6F800E0DDF81CC0002307E0415C73
:1087800091420BD10133B3F5807F3FF436AE0CEB51
:108790000301DFB21EF80120002AF0D1099BBB4281
:1087A00028BF3B46099328E611A9D8F80430204693
:1087B0009847119900293FF410AD11AEE8E5002F5C
:1087C0003FF438AF3B78002B40F047817B68029A3A
:1087D0009E58002E7FF445AD2CE73346754A07219D
:1087E0005046FFF741F86CE53368002B00F0168126
:1087F000184604F0B8FBC3B20A931846079B099ABF
:10880000C01A824240F3E4800A9A0D94D31ADBB274
:108810000993F2E50C9B079396E56B68DA680A9278
:108820001AB1DAF8082053606B689B68059300233F
:108830000693079308931F460BEBC9030993012581
:10884000CDF80890CDF80CA00496119BAB422BD923
:10885000AC004AAB1E19584956F8C40C04F071FB21
:10886000002800F0CD8056F8C40C544904F069FB90
:10887000002800F0C58007F10109002D4FD1029BAF
:108880009F426FD24A4BDDF8248003EB8706DA461D
:10889000DAF804303068196804F053FB002866D019
:1088A0000AF1080AC245F3D1DDF80890DDF80CA002
:1088B000049E069B002B00F0C380089B002B40F019
:1088C000AF80079A4A4580F0B980394D354C05EBA9
:1088D000820504E0099B0834A34200F0AF8063687E
:1088E0002868196804F02DFB0028F3D16368DAF8D2
:1088F000082008985360DAF8083011995B6806EB95
:108900008002091ADB6850469847DAF8082092F886
:108910003C316FF3410382F83C31FFF7B5B9059B59
:10892000002BC1D01B785BBB059A3B015668F15800
:108930001E440029B8D0B9F1000FB5D04AAB1C4491
:1089400054F8C40C04F0FDFA50B9F36813B3059B56
:1089500008950693B3680593013507974FF0000912
:108960004F4672E79946DDF80CA0049EA1E7B9F1E5
:10897000000F99D0DAF80460002E95D03168DDE759
:10898000059B15A95B6838469847159900298BD037
:1089900015AED0E7069B0593079FDAE7C4F83801C8
:1089A00019AE82E6BCDC0200C0D40200B8D40200DA
:1089B000D82D002058D50200ECD40200F0D40200DB
:1089C000A84AA949DAF8100002F0BAFBFFF70CB97F
:1089D0000D9412E5A54AA449DAF8100002F0B0FBA4
:1089E000DAF8082077E60790FFF788BB0146FFF723
:1089F00037BA9F4A02215046FEF736FFFFF744B9C7
:108A0000DDF80CA0DDF80890DAF80820049E92F852
:108A10003C3143F0020382F83C314AE70A90EDE62C
:108A2000069B1B78002B40F0DB80079B1A01069BFE
:108A30005B689958134400297FF459AF002356E727
:108A40000A9B002B00F0C680324611995046984789
:108A50005BE7DAF8082056743AE47B6811A92846E7
:108A60009847119E002E7FF4FCABE3E53B78002B8A
:108A700077D1049B186808B104F075FA079C84420A
:108A800006D0049B099A196850462144FEF7A8FCB9
:108A900004F09AF8DAF80810CC7C0B191B7D03441B
:108AA0005B7813F0080240F0BB80D1F83C31DE0760
:108AB00040F1B08091F83C3162F3000381F83C3121
:108AC00050462021FEF7F4FCDAF8082092F83C31F9
:108AD00043F0010382F83C31FFF786B80023137599
:108AE000DAF8084031E50146FFF753B9DAF8082013
:108AF000092302F19401D2F83001621C01F024FC38
:108B0000DAF8080000F19401143004F01AFA25464E
:108B1000DAF8083000286ED083F8947034E50898AD
:108B2000D8F8043015A99847159800287FF421AE8D
:108B300080E5DAF808104C4ACB7C14330B445046DD
:108B40000821FEF7C1F8DAF810004A4A464902F057
:108B5000F7FA2A464849DAF8100002F0F1FAFFF76E
:108B600043B8059B5BBB089989457FF663ADB9F1B6
:108B7000000F3FF45FAD41481D4600EB81065C46A7
:108B800005E00135A94504F108043FF453AD6368DD
:108B90003068196804F0D5F90028F2D163680493AD
:108BA00067E7C3F83041DAF80830C3F83441DAF83F
:108BB000083019901A909B7C8DF86C3066E5089807
:108BC0007B6811A99847119800283FF433AD11AB89
:108BD000049351E72A4A02215046FEF745FE94E6E7
:108BE000069B07985B6815A99847159B002B3FF4D7
:108BF00025AF15AB7BE683F8940056E5DDF808A0B9
:108C0000DDF80C80FFF7B8BADDF808A0DDF80C80BD
:108C1000FEF7EABF20215046FEF74AFCFEF7E4BF0C
:108C20008B7CA3427EF6E0AFDAF80000FDF738FE59
:108C3000DAF808208478D37C0133D374DAF808108A
:108C4000DAF80000FDF72CFE8378DAF81000A34272
:108C500007BF01220B49054A034902F071FAFEF7EA
:108C6000C3BF00BF04D2020058D50200E4D1020005
:108C7000D4D40200D8D102001CD20200D82D00208A
:108C8000F8D4020038D2020001290AD0022903D008
:108C9000054A0221FEF7E8BD8368D3F83C319B0703
:108CA000F6D5FEF793B800BFF8D40200F0B501295D
:108CB00083B004461AD08368D3F83C41A40727D474
:108CC00002290AD8516813682A4A019100920221A8
:108CD000294AFEF7C9FD03B0F0BD5B68274A1B684F
:108CE000022103B0BDE8F040FEF7BEBD8568FDF788
:108CF0003DFD90B1A368224A50215973A368182101
:108D000019732046042103B0BDE8F040FEF7ACBD66
:108D100003B0BDE8F040FEF759B8A36819492069CF
:108D20001F7A9E7AFA2202F00BFA20691649FA227B
:108D300002F006FA2046FDF719FD0028DAD1A368F3
:108D40001A7A6A73A368D21B9B7A2B7312F0FF0204
:108D50000AD19B1B13F0FF02BDD020690B4903B061
:108D6000BDE8F04002F0ECB90949206902F0E8F9E9
:108D70002B7BEEE74CD4020040D40200E8D3020083
:108D800004D4020038D2020014D2020024D202001D
:108D90001CD20200F0B583681B78012B83B018BF8A
:108DA000082502D0284603B0F0BD04464068036899
:108DB00000219B68984705460028F3D1A368DA7B19
:108DC000082A0BD01E4A00921E4901910822DA732C
:108DD00020691D496A4602F0B3F9A3681A7C012A8A
:108DE00018D01B215B226D208DF800108DF801201A
:108DF00000210122342730268DF804008DF805105B
:108E00008DF802708DF803601A7420690E496A4665
:108E100002F096F920690D4902F092F9A3680A4A16
:108E200002211970A16800230B75A168CB74A16899
:108E30008B74236820460321FEF716FDB2E700BFBE
:108E40001B5B313B33376D0058D502006CD50200F7
:108E50008268D2F83C31C3F3400383B9012908D1B9
:108E600010B4C2F82C31C3685DF8044BD86802F026
:108E7000B3B85368034A1B680221FEF7F5BCFDF73F
:108E8000A5BF00BFE8D3020010B58268D2F83C410C
:108E9000A30716D401290CD104460C4A0C490069D9
:108EA00002F04EF9A36850225A73A36818221A736D
:108EB00010BD5368074A1B680221BDE81040FEF749
:108EC000D3BCBDE81040FDF781BF00BFFCD102005C
:108ED00058D50200E8D302008268D2F83C31C3F3CF
:108EE000400373B9012906D192F83C1163F3820162
:108EF00082F83C1170475368034A1B680221FEF751
:108F0000B3BCFDF763BF00BFE8D302008368D3F8AA
:108F10003C2192070ED4012906D193F83C2142F05E
:108F2000040283F83C2170475B68034A1B680221F6
:108F3000FEF79ABCFDF74ABFE8D302008268D2F878
:108F40003C31C3F3400373B9012906D192F83C11B7
:108F500063F3C30182F83C1170475368034A1B68EE
:108F60000221FEF781BCFDF731BF00BFE8D302004C
:108F70008368D3F83C2192070ED4012906D193F8D7
:108F80003C2142F0080283F83C2170475B68034AA9
:108F90001B680221FEF768BCFDF718BFE8D302008A
:108FA000F0B58368D3F83C41C4F3400487B08CBB70
:108FB000012927D1D3F83451FDB1184F0646284670
:108FC0000023092203A901F0BFF99DF81420B1681C
:108FD000284601329431092301F0B6F9B368049DA3
:108FE000943300933A462346082130460134FDF776
:108FF0006BFE0DB1082CE2D1B368002283F89420F7
:1090000007B0F0BD5B68064A1B680221FEF72CFC26
:1090100007B0F0BDFDF7DAFE07B0F0BDDCD302000B
:10902000E8D3020010B58268D2F83C41A30784B0AF
:1090300026D401291BD1C3680446D86801F0C8FFB3
:10904000E268A368D268D3F82C3191680291C0B26B
:10905000642202FB00F2B2FBF1F2D2B20190009264
:1090600020460A4A0821FDF72FFE04B010BD5368C0
:10907000074A1B68022104B0BDE81040FEF7F4BBAC
:1090800004B0BDE81040FDF7A1BE00BF84D30200CC
:10909000E8D3020030B58368D3F83C41A40783B01D
:1090A0001AD402290FD81CD0D3F83C411249134BD3
:1090B000134A14F0080F18BF0B46082103B0BDE88F
:1090C0003040FDF701BE5B680E4A1B68022103B009
:1090D000BDE83040FEF7C8BB03B0BDE83040FDF747
:1090E00075BE92E81800084A8DE81400074AFEF79A
:1090F000BBFB03B030BD00BFC0D30200C4D302002D
:10910000C8D30200E8D302004CD4020040D40200CD
:1091100070B5012982B0044619D08568D5F83C6144
:10912000B30714D4022909D192E818000B4A8DE83C
:1091300014000B4AFEF798FB02B070BD6B68094A39
:109140001B68022102B0BDE87040FEF78DBB2046CF
:1091500002B0BDE87040FDF739BE00BF4CD402003C
:1091600040D40200E8D3020010B5012982B00446C1
:1091700014D002290B4617D08268D2F83C11890717
:109180000CD4022B01D802B010BD53680B4A1B68E7
:10919000022102B0BDE81040FEF766BB204602B0D7
:1091A000BDE81040FDF712BE92E81800044A8DE8B1
:1091B0001400044AFEF758FB02B010BDE8D30200C9
:1091C0004CD4020040D402002DE9F04F064689B08D
:1091D000AF480D46174603F0C6FE0446AD4803F0FF
:1091E000C2FEB368AC495B68AC4A1B680091241AA4
:1091F00008213046FDF768FDB3685B681868A4B2C3
:10920000002800F05F8103F0AEFE1FFA80F8A2484C
:1092100003F0A9FEB3685B68404482B259683046E7
:10922000FDF768FC9E4A08213046FDF74DFD97B3D7
:109230008DB305F104084FF0000922E0184603F051
:1092400092FE824658F8040C08B103F08CFE50449C
:10925000A0420FD9D8F80000002800F0178103F0D1
:1092600082FE84B258F8040C10B103F07CFE80B288
:109270000444A4B209F101094F4508F10C0800F0BB
:109280008A80D8F80030002BD8D158F8040C002878
:10929000F0D09A46D9E77F4803F065FE02300444D7
:1092A000A4B27B4B00937F4A082130462346FDF74A
:1092B0000BFDE21C92B27C493046FDF71BFCB36803
:1092C0005B68D3F80880B8F1000F5BD00025284612
:1092D0002F4610E0D8F8044060592C44C8B103F080
:1092E00042FE874205D22768384617B103F03BFE9D
:1092F00087B21035484698F8003000F10109002B7C
:10930000E8D0D8F8043004A99847049808B104AC10
:10931000E5E7B9F1010F35D0644ADFF888910821FB
:109320003046FDF7D1FC98F80030BD1C0024ADB2EA
:109330004FEA041AE3B9D8F8043053F80A209A44E3
:1093400002B3082100922B464A463046FDF7BCFC8A
:10935000DAF804307A1D1946304692B2ABB1FDF707
:10936000C9FB98F8003001344FEA041A002BE2D010
:1093700004A9D8F8043020469847049A12B10DF198
:10938000100ADEE709B0BDE8F08F494A4949306963
:1093900001F0D6FEE5E73F4803F0E5FD00F1020BE2
:1093A000A3441FFA8BFB3A4B00930BF1030A5B4675
:1093B0003C4A082130461FFA8AFAFDF785FC5246DE
:1093C00039493046FDF796FB0BF10203DBB2023B55
:1093D000039300276B68002B37D02A68002A37D008
:1093E0002C4930468DE80600334A0821FDF76CFC15
:1093F0006868002843D003F0B6FDC4B2286800288E
:109400003BD003F0B0FD5FFA80F8224803F0ABFDDB
:10941000039B1C1BA4EB0808A8EB000010F0FF0244
:109420002FD13A222549306901F08AFEA968013717
:10943000C9B152463046FDF75DFBB94505F10C0553
:109440003FF43DAF6B68002BC7D12B68002BEDD0EC
:10945000009308215B46134A3046FDF735FCA968A6
:1094600001370029E5D1124A1249306901F068FE3E
:10947000B94505F10C05ADD121E78046C5E70446A5
:10948000BCE70F49306901F05BFECAE70446E9E634
:1094900040D202007CD5020010D20200A0D402000B
:1094A00064D4020070D4020078D402008CD402008C
:1094B000E4D1020058D502009CD40200A4D10200DD
:1094C00038D202008046A2E61A60C0681A4601F04F
:1094D0004FB800BF70B51A6082B005461A460069E1
:1094E00000F0CEFF044610B1204602B070BD68699E
:1094F0001A4E0378F35C33BB0C3002F0C1FE002837
:10950000F2D102AAFF2342F8043D694601232869EB
:1095100000F0F4FF0028E7D16869019A0378009908
:10952000F35CD2B2ABB90C3002F046FE04466B6875
:1095300093F82930002BD7D0002CD5D12869019978
:1095400001F058F8D0E7043003F098F90028CBD1A7
:10955000D7E7043003F044F90446E8E778460020F2
:109560004069054A0378D35C13B90C3002F040BF60
:10957000043003F027BA00BF7846002038B504460F
:10958000002065682A6062685360636883F8280079
:10959000636883F8290060680D462022083003F0D4
:1095A00033FB2C6129466069064A02F06FF90546D3
:1095B00028B9E06800F0F6FE206900F0F3FE2846C6
:1095C00038BD00BFD996020010B5044640690B4A69
:1095D0000378D35C43B90C3002F088FDA368BDE882
:1095E0001040186801F02CBB043003F091F8A36818
:1095F000BDE81040186801F023BB00BF784600208A
:1096000030B5436893F8283083B004460D46ABB9B3
:10961000002946D060692E4A0378D35C002B3CD1E8
:109620000C3002F063FD616860690831002202F0CD
:109630002DF9002842D0062003B030BD8368186899
:1096400001F0FEFA30F00803F6D1002DE2D1636894
:1096500093F828302BB302AAFF2342F8083D01A952
:109660000123E06800F0ACFE0028E5D1009A002A52
:10967000E2D06069164D03780199EB5CD2B213BB5E
:109680000C3002F009FE0028D6D1A36822461868E3
:1096900040F6CD4101F07EFACEE7043003F038F811
:1096A000C1E70C4AA068002101F062FA6368012258
:1096B00083F828200028CED003B030BD6368012293
:1096C00083F82920B8E7043003F0E6F8DBE700BFB1
:1096D000784600206195020070B5037884B0FF26BB
:1096E000012B054601960C462AD013D3022B0FD12D
:1096F000017AE06800F0AAFE04AA012342F8086D8E
:1097000003A9E06800F05CFE10B9029A002A2BD190
:1097100004B070BD017A206900F06CFF04AA012337
:1097200042F80C6D03A9206900F0E8FE019A002AB6
:1097300034D1636801201A685968904704B070BD3D
:10974000017AE06800F082FE2B7A0BBB04AAFF23AB
:1097500042F8083D03A90123E06800F031FE00282B
:10976000D6D1029A002AD3D06069174D03780399A5
:10977000EB5CD2B20BBB0C3002F08EFD0028C7D1DF
:10978000A3682246186840F6CD4101F003FABFE70E
:10979000636800201A6859689047D7E760690A4DE6
:1097A00003780399EB5CD2B21BB90C3002F004FDD4
:1097B000BFE7043003F014F8BBE7043003F06CF8A3
:1097C0000028A5D1DCE700BF78460020F0B5334D76
:1097D00085B005F58360FCF721FF05F21440FCF726
:1097E0001DFF6A68AF6802EA0701CB1C05EB830323
:1097F000541C187810F0030F00F003060ED010F080
:10980000040016D0012E37D0022E02F10200ECD156
:109810005A8800EB921202EA0701E6E74007F1D40A
:1098200059881A8804EB911404EB921202EA07019A
:10983000DBE705EB8101531CC96801913B4005EB57
:10984000830301F00301DB680293012902F10204A2
:109850001CD0022918D1BDF80630BDF80A60C3F348
:109860008913033304EB93040D48FCF7E5FE00B1C4
:109870006C60304605B0F0BD1B880232C3F3831321
:109880001A4402EA0701B0E70646EDE7BDF80430E6
:10989000BDF80A60C3F383131C44E5E74C40002085
:1098A0006044002008B50E4B0E480022FF21C3F88B
:1098B000182499601A605A60C3F8142483F820248D
:1098C00000F08AFC58B9084A084BD21AD20806D0D0
:1098D0000749034621F8233001339A42FAD108BDE3
:1098E0004C40002088DC020070DC020010DC02002A
:1098F000A82D002021B9124A02EBC0000068704771
:1099000030B410490E4D491BC9080ED00E4B5A8871
:10991000824218BF002205D10FE0DC88844203F1A7
:10992000040305D001329142F7D1002030BC7047CA
:1099300005EBC200006830BC70472846FAE700BF5C
:1099400010DC020070DC0200A82D0020094B013958
:1099500003EBC00003290BD8DFE801F0020806047E
:1099600002207047407970470079704704207047A3
:109970000020704710DC02002DE9F047914C94E87C
:109980000C009A4284B061D00023C4F81834BFF3AD
:109990004F8F6368A56827680EE011F0040623D096
:1099A00001F0030101294BD0022903D1528802336F
:1099B00003EB92139F4212D903EA0500C21C04EB89
:1099C000820211788E07E8D14807E9D451881288BD
:1099D000013303EB911303EB92139F42ECD8002069
:1099E000676004B0BDE8F08704EB80005A1CC168D2
:1099F00001912A4004EB820201F00301D268029235
:109A0000022903F1020825D0012978D0D4F8105496
:109A100035B12B6828469B6898476D68002DF8D1B2
:109A2000694B6A491888000440F0020000F0D4F83D
:109A300060682368C01A18BF012004B0BDE8F08731
:109A400012880233C2F383121344B3E7002004B038
:109A5000BDE8F087BDF806305D48C3F3891ABAF552
:109A6000207FD146A8BF4FF4207969F38F1309F105
:109A70000801ADF8063000F0B1FB07460028C5D05C
:109A800000F00EFC3346082201A9384600F02EFCF7
:109A900025EA080301339B00994540F28680002B9C
:109AA0006DD15FFA89F208234A49384600F01EFC5E
:109AB0000AF1030608EB9606D4F81834002B5AD1A5
:109AC000D4F810544DB16B7A3946284613B12B683F
:109AD0001B6898476D68002DF5D1384600F0E4FB0F
:109AE00004A8002300F80D3D01F0F6F8D4F818346E
:109AF00003B966609DF8030001F014F998E7BDF81A
:109B000004303348C3F38312062A28BF0622911C6F
:109B100062F389138900ADF8043000F05FFB07465B
:109B200000283FF473AF00F0BBFB3346082201A9C5
:109B3000384600F0DBFBBDF8043013F4707F3FD0F3
:109B4000B2464FF0080905EA080103314B4604EB21
:109B500081010422384600F0C9FBBDF804300AF147
:109B6000010AC3F3831308F10106534509F10409FF
:109B7000B046E8D8A0E7384600F096FB58E705EA7B
:109B80000801A9EB0306DDB2033104EB81012A468B
:109B90003846F6B2082300F0A9FB324605F1080367
:109BA0000C49384600F0A2FB82E705EA08010331C0
:109BB00004EB81014A460823384600F097FB77E71B
:109BC000464679E74C400020BC2D00204CD80200CE
:109BD00088DC0200584000202DE9F04383B002AB3E
:109BE000002203F8012DDFF8E0900746184688466A
:109BF000D9F8085001F070F8D9F80820D9F80430E5
:109C0000D9F80060134401339B1B012B57D809F28C
:109C10001C4401212046FCF7D7FCFFF7D7FD014685
:109C20002046FCF7D1FC99E80A00D9F80820134433
:109C300001335B1A012BECD901240A40033244F0B2
:109C400004036FF3891302319DF8070049F82230AD
:109C5000C9F8001001F066F800211A48FCF78CFCE6
:109C600080F3100033192B4009EB830300043540C7
:109C7000033540EA1740D86019F8253067F3C5036B
:109C800009F8253039F825306FF3891329F8253084
:109C900059F8252068F39F22134664F301036FF3FC
:109CA000820349F8252009F8253099F820341BB1A2
:109CB000FFF762FE0028FBD103B0BDE8F083314618
:109CC000BAE700BF684400204C4000202DE9F0476F
:109CD00082B002AB002403F8014D374C8046184691
:109CE00092468946A56800F0F7FFA2686368276876
:109CF00013440133DB1B022B5BD804F21C46012109
:109D00003046FCF761FCFFF761FD01463046FCF789
:109D10005BFC94E80A00A268134401335B1A022B2F
:109D2000EDD901260A40033246F0040366F3891395
:109D300044F8223003319DF80700216000F0F2FF63
:109D4000BB1C2B4004EB830300211C48C3F80CA070
:109D5000FCF712FC80F31000BB192B4004EB8303CB
:109D600000043D40033540EA1840D86014F825301F
:109D700068F3C50304F8253034F8253066F38913F9
:109D800024F8253054F8252069F39F22134666F302
:109D900001036FF3820344F8252004F8253094F87A
:109DA00020341BB1FFF7E8FD0028FBD102B0BDE86D
:109DB000F0873946B5E700BF4C40002068440020DA
:109DC0002DE9F04F85B004AD002405F8014D404C5D
:109DD0000193804628468946A668934600F07CFF9A
:109DE000A168636827680B440133DB1B042B6CD824
:109DF00004F21C4501212846FCF7E6FBFFF7E6FCD0
:109E000001462846FCF7E0FB94E80C00A1680B44EF
:109E100001339B1A042BEDD9012511404FF0030AA1
:109E2000033145F004036AF3891344F82130053205
:109E30009DF80F00226000F075FFB81C07EB0A0EBA
:109E400030400EEA060E3A1D324004EB800004EB6F
:109E50008E0E04EB8202019BC0F80CB00021CEF8FC
:109E60000C301C480E9BD360FCF786FB80F310007F
:109E70007A19324004EB820200043E40564440EA24
:109E80001840D06014F8262068F3C50204F8262094
:109E900034F826206AF3891224F8262054F8262064
:109EA00069F39F22134665F301036FF3820344F8BD
:109EB000262004F8263094F820341BB1FFF75CFD0F
:109EC0000028FBD105B0BDE8F08F3A46A4E700BFFB
:109ED0004C4000206844002030B4144DD5F81044A4
:109EE000002154B1237A8B4213D0234602E01A7A20
:109EF0008A420ED05B68002BF9D10172D5F810347C
:109F00007BB15B684360D5F810345860084630BCBC
:109F1000704701310A29E4D14FF0FF31084630BCC7
:109F20007047C5F810044360F0E700BF4C400020C4
:109F30002DE9F04784B01D460C9C002394F80C805A
:109F40002373EB8881460E461746002B3BD1297AB6
:109F500005290FD06B7A002B3DD1404BA88853F8D0
:109F600021A00021FFF7C6FC524603463C4920468B
:109F700001F0E6F8062F0FD8DFE807F0484D535AF6
:109F800004633900F168B06896E80C000191009014
:109F90004946204601F0D4F82B7A052B05D06B7A80
:109FA0005BB93049204601F0CBF8204601F0BCF8FF
:109FB00084F80C8004B0BDE8F0872B4A2B4920467A
:109FC00001F0BEF8EDE7284A00922949294A2046C7
:109FD00001F0B6F8BBE7A888FFF7B8FC264B234989
:109FE00053F82020204601F0ABF8297AB5E77069D4
:109FF000316996E80C000390B068F76802918DE82B
:10A0000081004946204601F09BF8C5E749462046B5
:10A0100001F096F8C0E732684946204601F090F812
:10A02000BAE7494696E80C00204601F089F8B3E704
:10A03000B16896E80C0020460091494601F080F88E
:10A04000AAE7B068F768316996E80C0002918DE8DC
:10A0500081004946204601F073F89DE7E0D80200F0
:10A06000D4D8020014D50200CCD8020058D5020082
:10A07000B4D80200ACD8020078D80200082900D970
:10A0800070472DE9F04F1D46904600232A7B2B7325
:10A0900085B0B8F80630039207460E46002B6BD108
:10A0A00098F80810052911D098F80930002B6BD1C9
:10A0B0003C4BB8F8040053F821400021FFF71AFC8C
:10A0C000224603463849284601F03AF8DFF8F8B04E
:10A0D000DFF8F8900024A642494628463ED93A5D6A
:10A0E000013401F02DF8082CF5D13049DFF8E0906B
:10A0F000DFF8E0B0284601F023F8002411E017F85B
:10A1000004A002F061FD50445946437813F0970FC4
:10A1100014BF52462E222846013401F011F8082CB3
:10A1200008D0A64249462846E9D8013401F008F88B
:10A13000082CF6D198F80830052B02D098F8093091
:10A14000A3B91B49284600F0FBFF284600F0ECFFAE
:10A150009DF80C302B7305B0BDE8F08F01345946E3
:10A16000284600F0EDFF082CB5D1BEE7114A124990
:10A17000284600F0E5FFE4E70E4A00920F49104A36
:10A18000284600F0DDFF8BE7B8F80400FFF7DEFBA0
:10A190000C4B094953F82020284600F0D1FF98F8CD
:10A1A000081085E7E0D80200D4D80200A8D8020041
:10A1B00014D50200CCD8020058D50200B4D8020051
:10A1C000ACD8020078D80200A4D802009CD80200C3
:10A1D000DCD80200A4D10200FCF74ABA2DE9F04114
:10A1E000B0F81480CF1CA8F1040847440646B7FB1A
:10A1F000F8F7FCF759FA80B3FFB200250123013FBD
:10A200000446A0F8068006600571437128D0804698
:10A2100009E06379AF4203F101036371C8F80000FC
:10A22000066080461CD03046FCF73EFA0135002817
:10A23000EFD16679721E16D02346013082421B6828
:10A24000FBD81F684EB1214600250C680135384601
:10A25000FCF752FAAE422146F7D10020BDE8F0816A
:10A260002046BDE8F0812768EDE700BFF8B54679E4
:10A27000711E13D002460023013399421268FBD8A5
:10A28000176856B1014600240D6801343846FCF7C2
:10A2900033FAA6422946F7D1F8BDF8BD0768F1E7C1
:10A2A00004300121FCF790B9F8B5012104460430CF
:10A2B000FCF798F9C0B200B1F8BD6679721E12D0F1
:10A2C0002346013082421B68FBD81F68002EF3D062
:10A2D000214600240D6801343846FCF70DFAA642E9
:10A2E0002946F7D1F8BD2768F2E700BF2DE9F8430A
:10A2F000C68804330F46B3FBF6F5904606FB1533CC
:10A30000044615B1013D2468FCD1F51A454528BF26
:10A310004546B8F1000F15D04FF000090433E0189E
:10A32000A8EB05082A4607EB090102F06DFC46453B
:10A33000A944246835464FF0000328BF4546B8F1CC
:10A34000000FEBD1BDE8F8832DE9F843C68804334C
:10A350000F46B3FBF6F5904606FB1531044615B1E2
:10A36000013D2468FCD1751A454528BF4546B8F122
:10A37000000F15D04FF0000904312144A8EB050867
:10A380002A4607EB090002F03FFC4645A944246831
:10A3900035464FF0000128BF4546B8F1000FEBD11C
:10A3A000BDE8F88382680023936082681361826845
:10A3B00053618268D360826853608268136070471B
:10A3C0002DE9F04105468846174613BB8168406871
:10A3D000CA680E6900F1010E911B8E4531D002EA68
:10A3E00000013040814238BFB31A3E6828BFAEEB4F
:10A3F00001039E4228BF1E463E602B680B44C8F8EE
:10A400000030AA683968D3680B44D3600020BDE8E7
:10A41000F0818068FCF7F4F8044610B11120BDE823
:10A42000F081AB686868DA681E6900F1010E931B61
:10A430007345D4D13C60A868FCF70CF92046BDE810
:10A44000F0813B601846BDE8F08100BF38B58268F6
:10A4500043681569946801332B441B1B8B4201D25E
:10A46000042038BD0C44946083689A68DA60806880
:10A47000FCF7E2F800280CBF0820002038BD00BF20
:10A480002DE9F8430546806888461746FCF7B8F87A
:10A4900010B11120BDE8F883AA686B68116994684F
:10A4A0003A6801330B441C1B944228BF14463C609D
:10A4B000AB686A689B6813400132A2EB03094C4504
:10A4C00010D8224628684146184402F09DFBAA682D
:10A4D000396893680B449360A868FCF7BBF80020C8
:10A4E000BDE8F883064628684A461844414602F00B
:10A4F0008BFBC844A4EB09023346E3E7F8B50546F5
:10A500000F461646E3B9836898685B69C41A14D08D
:10A510006A6813401040834219D331680132D21A5D
:10A520008A4238BF32602A6813443B60AA683168A7
:10A5300053690B4453610020F8BD34602046F8BDD8
:10A5400080680430FCF75CF830B11120F8BD326847
:10A55000A242E8D93460E6E7AB6898685B69C41A40
:10A56000D6D13460A8680430FCF774F82046F8BDF2
:10A570002DE9F0410446806804300F469046FCF710
:10A580003FF810B11120BDE8F081A168D8F8002093
:10A590008B680D695D1B954228BF1546C8F80050B1
:10A5A000A26863681169966819401E40B1422ABFCB
:10A5B0000133761A5E1AAE4212D32A462368384611
:10A5C000194402F021FBA268D8F8001013690B446B
:10A5D0001361A0680430FCF73DF80020BDE8F0816D
:10A5E000206832460844394602F00EFB3744AA1B65
:10A5F0000021E3E710B58268146993681B1B8B4246
:10A6000001D2042010BD0C44146183681A695A6198
:10A6100080680430FCF71EF8002010BD01600B6854
:10A6200043604A68934204BF00234360704700BF01
:10A63000436843B1026891680B4443605268934297
:10A6400004BF002343607047F8B5204A204B002523
:10A65000C2F84051C2F84451C2F84851C2F84C51B6
:10A66000C2F80051C2F804511B6813B31949D2F85B
:10A6700004450A68A41A1A6824F07F44A2422F46AF
:10A6800009D8197CDE69A41A154499B91EB133465C
:10A690001A68A242F5D91049104A0B7812789A42EA
:10A6A0000DD00F490F4A41F823504FF48013C2F8E0
:10A6B0000031F8BD1F745A6998699047E6E7531C4A
:10A6C000DBB2022B08BF00230B70EAE70010014049
:10A6D000904500208C4500208945002088450020B9
:10A6E0008045002000E100E02DE9F04FB74AB8496D
:10A6F00013780978994285B033D00133DBB2022B4D
:10A7000008BF0023B3481370B34A0768DFF8E0823C
:10A7100052F82320D8F80010BB18002423F07F4300
:10A72000036025462046A646A9B10B68934200F275
:10A730007D81CC68C1F800E0D21A1844CB6934B1ED
:10A740003E1826F07F46CD618C604E600D4619465E
:10A7500001240029E9D1002C40F0A5814FF0010B24
:10A7600005E0DFF88C820025D8F80010AB469B4B43
:10A770009B4FDFF8809243F0010300930E464FF0A9
:10A78000000A002D2DD0D5F804E0D5F808C02C46DD
:10A79000ED69904B93481B68AEEB030222F07F42B9
:10A7A000824255D802EB0C03236000220120626034
:10A7B000A260E2612074002E6BD03068834261D9C0
:10A7C000B64603E0106898424CD29646DEF81C204C
:10A7D0001B1A002AF6D12360E261CEF81C40002D3E
:10A7E000D1D197F801C097F800E0F44571D07346D5
:10A7F00003EB43030EF10100BA7807EBC3035FFAE2
:10A8000080FE7245187987F800E004BF4FF0000E13
:10A8100087F800E002289A684CD003283DD0012830
:10A82000E3D1107C0028E0D1D3F80CE0C2F804E0BA
:10A83000D3F810C0C2F808C014465A69E26099F80B
:10A8400000209B69A361002AA3D060608646A0E730
:10A85000A3EB0E0323F07F4363450AD2ACEB030363
:10A860002360A2E7C01A10602360E261CEF81C40AA
:10A87000B5E70023012223606360A360E3612274D3
:10A880003EB13068C8F80040C31A3360E66126461E
:10A8900077E7C8F80040264673E7002EA5D00022CF
:10A8A00000E01E46F3693274002BFAD1C8F800307C
:10A8B0001E4696E74EB1B242344603D1BDE09A42FD
:10A8C00060D01C46E369002BF9D100231374F445D2
:10A8D0008DD1BAF1000F02D18E4200F09D80002E82
:10A8E00000F0C5803B4B404A1C68D2F80475DFF885
:10A8F0000881D6F800A098F800103B1B23F07F4396
:10A90000DD1CA9B93949354B4FF48030C2F84403F6
:10A910000126C2F804034FF40030C1F8800143F06F
:10A920000103086016604FF43C60984788F80060A7
:10A93000AA452CBF04EB0A0363192B4923F07F437C
:10A94000C1F84035D1F80425D21BDB1B22F07F4231
:10A9500023F07F4303329A420ED9204BD1F80425CD
:10A96000C1F8402543F001034FF43C6098471F4B6A
:10A970004FF40032C3F80021002389F8003005B0FD
:10A98000BDE8F08FA24239D0D2F81CE01368C4F8B9
:10A990001CE0BEF1000F11D03046DEF80040234429
:10A9A000CEF80030864209D0002397F800E097F8EF
:10A9B00001C0137406464FF0010A88E7002397F898
:10A9C00000E097F801C0137481E700BF88450020BC
:10A9D000894500208C4500208045002050D9020088
:10A9E00070440020FEFF7F000010014000E100E005
:10A9F000904500207C4500207D4500201346F069ED
:10AA0000C8F80000D8B1D3F81CE01B68C4F81CE0FB
:10AA1000BEF1000FC1D1C5E7BBF1000F7FF45FAFFE
:10AA2000002389F8003005B0BDE8F08F002C3DD13F
:10AA30009B1A0B604FF0010B99E63346DFE7019359
:10AA40001C4BDFF87CC003924FF0010E0291C3F85B
:10AA500008E0009BCCF8000089F800E04FF43C606F
:10AA60009847D8F80000019B0299039ACBE7114D53
:10AA7000114A124C4FF480334FF400310127C2F8D1
:10AA800080103C43C5F848334FF43C60C5F80833A8
:10AA90006F60A0470A4BAF604FF43C601E60A04758
:10AAA000084B1E7068E7C8F8001057E6C8F8001099
:10AAB000BEE700BF0010014000E100E050D90200F5
:10AAC0008C4500207D4500202DE9F8431F4D204E88
:10AAD000204FDFF898804FF480334FF400324FF06E
:10AAE00001090024C6F8802047EA0907C5F8483361
:10AAF0004FF43C60C5F80833C5F80490B847C5F872
:10AB000008904FF43C60C8F80040B847124B134817
:10AB10001349144A1C70144B04600C7014704FF4E9
:10AB20008011E0220B2098701C705C70C6F88011B8
:10AB300086F814233160C5F8084586F81123D5F846
:10AB40000435C8F800302046BDE8F8830010014005
:10AB500000E100E050D902007D4500209045002032
:10AB60008845002089450020704400208C45002045
:10AB7000074B9B780BB9082070473AB130B1036896
:10AB8000187C0028F7D159745A6170470720704724
:10AB9000704400202DE9F043264CA37883B01BB904
:10ABA000082003B0BDE8F0830028F9D0042903D8B9
:10ABB000072003B0BDE8F0834369002BF0D00646C0
:10ABC00002A8737C0025012B00F8015D0CBF8946AB
:10ABD000A94690460F4600F07FF86378A078217868
:10ABE0005A1CD2B2904208BF2A4691421BD003EBB6
:10ABF000430304EBC30301200F4918719E60D1F891
:10AC000004159DF80700D9601F61C3F81490C3F8BC
:10AC10001880627000F086F8084B4FF480122846C6
:10AC2000C3F80021BDE79DF8070000F07BF8042081
:10AC3000B7E700BF704400200010014000E100E0D1
:10AC400070B51B4CA37882B013B9082002B070BD58
:10AC50000028FAD04369002BF7D0064602A8002549
:10AC600000F8015D357400F037F86278A07821783B
:10AC7000531CDBB2984208BF2B46994212D002EB1C
:10AC8000420204EBC20202219DF807009660117196
:10AC9000637000F047F8074B4FF480122846C3F862
:10ACA0000021D3E79DF8070000F03CF80420CDE731
:10ACB0007044002000E100E000B585B0002303905F
:10ACC000194601AA44F2010001930293FBF72CFB01
:10ACD00005B05DF804FB00BF70B4EFF3108472B6EA
:10ACE0000D4B9A68AAB90D490D4E01259D60D1F80A
:10ACF000805035401D60C1F88060D1F884505D609F
:10AD00004FF0FF33C1F88430027004B962B670BCF2
:10AD1000704701230370F8E76C46002000E100E073
:10AD2000FC06FFBD094B9A6872B168B910B4EFF325
:10AD3000108272B606491C680C605C684C609860B2
:10AD400002B962B65DF8044B704700BF6C46002044
:10AD500000E100E0704700BF2DE9F04F8368D3F8B1
:10AD60003C319B078DB05BD4012952D8304C314E19
:10AD7000314B361BB608A3FB0636002E4DD0C6EB72
:10AD8000C60604EB86038046DFF8B8B0DFF8B8A04B
:10AD900009932BE0A16801310144A1EB02099DF860
:10ADA0002F00FFF7BFFF94F810E00595BEF1000FEC
:10ADB0000CBF58465046642101FB09F201FB05F522
:10ADC000B2FBF6F2B5FBF6F30192049307906369C8
:10ADD00006960396CDF808900097184A0821404639
:10ADE000FCF742FD099B1C349C4216D02368E7689F
:10ADF0009D68A66800220DF12F008DF82F20FFF727
:10AE00006BFF21680A6848688242C3D8A0EB020938
:10AE1000C5E70B4A0221FCF727FD0DB0BDE8F08F16
:10AE200000221146FEF7D0F90DB0BDE8F08F00BF4B
:10AE3000A0DC0200BCDC020025499224C8D9020033
:10AE4000B4D902009CD90200A8D90200F0B583B0A1
:10AE500002AB002503F8015D044618460E46FFF7D5
:10AE60003BFF2368A26819685868904238BF451CA8
:10AE7000A94212D058685D68AA420BD800225A60D5
:10AE8000E268531E072B4CD8DFE803F033374B251D
:10AE90004B4B4B1201355D60F2E7217C002931D02C
:10AEA00004249DF80700FFF73DFF204603B0F0BDE6
:10AEB0006368D6E9006703EBC000C0E90067226859
:10AEC0001368506883420FD8C31A9168994238BFFB
:10AED00093600024E5E76368326843F82020226825
:10AEE000136850688342EFD9A16801310144CB1A3D
:10AEF000EBE7636832781A54E1E76368328823F835
:10AF00001020DCE758685D68AA4211D901355D6000
:10AF10002268A16813688B4234BF01330023136099
:10AF2000AEE76368314600FB023001F06DFEC6E714
:10AF30005960EDE770B582B002AB002403F8014D13
:10AF4000044618460E461546FFF7C6FE23681968E4
:10AF50005A68914211D019682DB91A68A0688242C6
:10AF600038BF551C1D60E268531E072B27D8DFE849
:10AF700003F0151A26202626260C05249DF8070026
:10AF8000FFF7D0FE204602B070BD636803EBC1013D
:10AF9000D1E900230024C6E90023EFE763685B5C86
:10AFA00033700024EAE7636833F8113033800024FB
:10AFB000E4E7636853F8213033600024DEE7636818
:10AFC000304602FB013101F01FFE0024D6E700BF2E
:10AFD00003689868704700BF036800229A60704752
:10AFE00010DF704770B53C4D2B7884B01BB108243E
:10AFF000204604B070BD394E3949012302A8337090
:10B00000FFF70CFB039B2BB90CE002A8FFF710FB2A
:10B01000039B3BB11A685968002090470028F4D17F
:10B020000446E5E72F4902A8FFF7F8FA039B4BB166
:10B030001A6859680020904702A8FFF7F9FA039BA5
:10B04000002BF5D1284A002312688DF8083002A899
:10B050000192FFF741FE254901A8FFF7C1FFB0FAB1
:10B0600080F304465B099DF808002B70FFF75AFE39
:10B07000002CBDD11E4A1F493470E0230C7082F8A9
:10B08000163382F8153392F816335B09012B19D960
:10B09000042B17D0184B9968C9B94FF4800313607B
:10B0A000104902A8FFF7BAFA039B002BA0D01A6838
:10B0B00059680120904702A8FFF7BAFA039B002BBA
:10B0C000F5D195E742F20200FFF7F6FDE8E71A68CE
:10B0D00042F480021A60E3E7954500209445002081
:10B0E0009CDA0200B4DA020098DA02002963020056
:10B0F00000E100E0964500206C46002000B583B0DA
:10B1000068460849FFF78AFA019B43B158681A68F4
:10B1100090476846FFF78CFA019B002BF6D103B0ED
:10B120005DF804FBA8DA0200826802B9704710B526
:10B13000044643690168006998470023A36010BD75
:10B140000EB400B582B0039929B102AA04AB42F84B
:10B15000043D00F095F802B05DF804EB03B07047D1
:10B160002DE9F84F1746B942884606461D46DDF8D8
:10B1700028B00B9A7DD30B464FF00109B3FBF7F3D0
:10B180009F4209F10109F9D9A94538BFA94612F032
:10B19000010A02D1BBF1000F49D1B268012402E0DB
:10B1A000013D07FB04F4012DFAD8B8FBF4F18F42FE
:10B1B000F7D9324D05E0B4FBF7F4A4B1B8FBF4F1D4
:10B1C000B268685C531CB36033689854B2687368A3
:10B1D0009A4204FB1188EED33046FFF7A5FFB4FB7B
:10B1E000F7F4002CEAD1BAF1000F16D0BBF1000F32
:10B1F00033D0CB4588BF20243ED9B3683268591C70
:10B20000B160D454B26873689A420BF1FF3B06D226
:10B21000BBF1000F09D0D945EFD1BDE8F88F30461A
:10B22000FFF782FFBBF1000FF5D1BDE8F88F930760
:10B230001AD42024CB45B0D9B2683368511CB16010
:10B240009C54B26873689A420BF1FF3B07D2BBF182
:10B25000000FA3D0CB45F0D1A0E7BDE8F88F304672
:10B26000FFF762FFB268F2E7002D0CBF3024202404
:10B27000E0E74FF0010987E7BDE8F88FC8DA020080
:10B28000002900F06F822DE9F04F064685B0934605
:10B290000C460B780DE0B2683168501CB0608B54DE
:10B2A000B26873689A4280F0D3802378002B00F054
:10B2B000BA800134002B00F0B680252BEBD14FF083
:10B2C0000008234614F8012B2D2A00F0BB80302AF9
:10B2D00000F0BB802B2A00F0AD802A2A00F0BC8051
:10B2E000A2F13005E9B2092998BF013302D9A9E1D9
:10B2F000A1F130051C4613F8012BA2F1300005EB3B
:10B300008501092802EB4101F2D92E2A00F0B08014
:10B31000002701E014F8012F02F0FB03682BF9D09D
:10B32000253A532A7AD8DFE812F07A0179007900B9
:10B330007900790079007900790079007900790045
:10B340007900790079007900790079007900790035
:10B350007900790079007900790079007900790025
:10B360007900790079007900790079007900790015
:10B370007900790079007900790079007900790005
:10B3800079007900790079007900790079007900F5
:10B390006A017900790079007900790079007900F3
:10B3A0007900790079005501FC0079007900790075
:10B3B0007900FC0079007900790079007900790042
:10B3C000540079007900CA007900BA007900790048
:10B3D0006A01DBF80020131DCBF80030B368156854
:10B3E00031685A1CB2604FF03002CA54B3687268B8
:10B3F000934280F0A0813268581C7821B060D1540B
:10B40000B26873689A4280F0928100220823019208
:10B410002946009310223046FFF7A2FE013423781C
:10B42000002B7FF446AF337B002B40F0058105B045
:10B43000BDE8F08F234614F8012B2D2A48F00408AC
:10B440007FF445AF48F001083BE748F0020838E7D1
:10B450003046FFF769FE28E7DBF80020111DCBF826
:10B46000001015685A782E2A03F101047FF450AFBA
:10B470006278A2F13003092B04F101044FF00007B8
:10B480003FF64AAF07EB870702EB470714F8012F97
:10B49000A2F13003092BA7F13007F3D93CE7DBF821
:10B4A00000301A1DCBF800201968CDF804803B4607
:10B4B00000950A223046FFF753FE0134AFE7DBF870
:10B4C00000301A1DCBF8002018F0010FD3F80090BF
:10B4D00040F0BB80B9F1000F00F04781484601F011
:10B4E00042FD0746BD4240F2F180002D00F0EE80A3
:10B4F0004FF0200805E0BD4200F0E880002D00F08C
:10B50000E580B3683268591CB16002F80380B26804
:10B5100073689A4205F1FF35EDD33046FFF704FE1C
:10B52000E9E7DBF800301A1DCBF80020D3F80090D3
:10B5300089EAE973A3EBE973092B4FF0010A09DDEE
:10B540008F4A82FB0312DB17C3EBA203092B0AF11C
:10B55000010AF5DCBA4538BFBA462DB3B9F1000F80
:10B5600002DB18F0040F00D0013D18F0020F40F08C
:10B57000F58018F0010F17D1002D00F0FE80AA45CC
:10B5800038BF202110D2B2683368501CB060995483
:10B59000B26873689A4205F1FF3580F0E880002DAB
:10B5A00000F0EB80AA45EED1B9F1000FC0F2C880DF
:10B5B00018F0040F7BD108F00303022B00F09A80EF
:10B5C0008DE820013B4649460A223046FFF7C8FD78
:10B5D000013424E7DBF80020131DCBF80030B368FA
:10B5E00031681278581CB060CA54B26873689A42C5
:10B5F000FFF414AF3046FFF797FD01340FE7DBF897
:10B6000000301A1DCBF800201968CDF804803B46A5
:10B61000009510223046FFF7A3FD0134FFE6B36822
:10B620003268591CB1604FF02501D154B26873687B
:10B630009A42DFD20134F2E6304605B0BDE8F04F61
:10B64000FFF772BD1C4600255FE64F46A7EB0908D1
:10B6500017F8013B8BB1B2683168501CB0608B5455
:10B66000B26873689A42F1D33046FFF75DFDA7EBED
:10B67000090817F8013B002BEDD145457FF6CEAE0A
:10B68000202705E045453FF4C9AE002D3FF4C6AE86
:10B69000B3683268591CB160D754B26873689A4273
:10B6A00005F1FF35EED33046FFF73EFDEAE7B2681D
:10B6B0003368501C2B21B0609954B26873689A4269
:10B6C000FFF479AF3046FFF72FFD74E709F1FF393A
:10B6D00019F8013F002B3FF4A1AEB2683168501C4D
:10B6E000B0608B54B26873689A42F1D33046FFF76A
:10B6F0001BFDEDE7002F7FF463AF002D33D0AA458B
:10B70000BFF45EAFB2683368511CB1604FF03001D6
:10B710009954B26873689A4205F1FF3503D215B3A4
:10B72000AA45EFD14CE73046FFF7FEFCF7E730467D
:10B73000FFF7FAFC69E63046FFF7F6FCB3685AE615
:10B74000B2683368501C2D21B0609954B268736898
:10B750009A42C9F10009FFF42EAFB3E7002F3FF47E
:10B7600023AF06E7704700252AE74F46BAE6304682
:10B770000391FFF7D9FC039911E7002514E700BFF7
:10B7800067666666044B195C4FF0A04201238B404C
:10B79000C2F80835704700BFD8DA02004FF0A04366
:10B7A00010B44FF480204FF400344FF400214FF4D4
:10B7B0008012C3F80C45C3F80C05C3F80C15C3F888
:10B7C0000C255DF8044B7047C20770B41AD54FF0D2
:10B7D000A04303224FF400364FF480254FF4002499
:10B7E0004FF48011C3F84427C3F84827C3F84C2707
:10B7F000C3F85027C3F80865C3F80855C3F80845CF
:10B80000C3F8081583070AD54FF0A0430C22C3F8EC
:10B810003427C3F83827C3F83C27C3F8402770BC47
:10B82000704700BF70B50A4A0A4B06784568047A2B
:10B83000C06853F8213052F8211084B003908DF87D
:10B84000006001958DF808406846984704B070BDC7
:10B85000984500209C45002070B50A4A0A4B06789E
:10B8600045688468C06853F8213052F8211084B0CC
:10B8700003908DF8006001958DF808406846984760
:10B8800004B070BD984500209C450020F0B51A4BCF
:10B8900006781A4D0C6991F81DC045F826400746F8
:10B8A000174803F806C040F826200C4696460FCCF1
:10B8B00089B06D460FC594E80F0085E80F00049627
:10B8C000BCF1000F0BD0BEF1000F0E4A694607F124
:10B8D000040008BF002200F02FFE09B0F0BDBEF149
:10B8E000000F094A694607F10C0008BF002200F06A
:10B8F00031FB09B0F0BD00BF78460020984500201C
:10B900009C45002025B8020059B80200BFF34F8FB4
:10B910000549064BCA6802F4E0621343CB60BFF3EB
:10B920004F8F00BFFDE700BF00ED00E00400FA0507
:10B93000F8B5B64B1A78062A24D0B54B1B68062BEF
:10B9400000F08F80B34AD2F8883043F47003C2F815
:10B950008830BFF34F8FBFF36F8F4FF01023D3F8B2
:10B960000C22D00700F1B481D3F80022002AC0F2E3
:10B970008981D3F80432002BC0F28481A64BA74AF8
:10B980001A60F8BD04331B681C07D6D1A44B1B6892
:10B9900003F0F002302A00F0658103F0E003402B51
:10B9A00000F060819E4B1B6803F0F003302B00F029
:10B9B0001F819B4B1B6803F0F002302A00F00881C6
:10B9C00003F0E003402B00F00381954B1B6803F06C
:10B9D000F003302B00F0EC80914B1B6803F0F00279
:10B9E000302A00F0D18003F0E003402B00F0CC803F
:10B9F0008B4B1B6803F0F003302B00F0B780884BB3
:10BA00001B6803F0F003302B00F09980844B1B6817
:10BA100003F0F003502B40D0814B1B6803F0F00281
:10BA2000302A29D003F0E003402B25D07C4B1B6843
:10BA300003F0F002302A04D003F0E003402B7FF43F
:10BA40007CAF4FF08043D3F80024D2077FF575AF69
:10BA50006FF00102C3F800246D4B1B68062B7FF4C6
:10BA600071AF704B1B68062B7FF46CAF6E4A136886
:10BA700043F48063136065E76C4B6D4A1B6803F009
:10BA80004F031360614B1B78062B7FF456AF694B55
:10BA90001B681C077FF451AFC8E74FF08052664B1C
:10BAA000D2F80414C3F82015D2F80814C3F82415EA
:10BAB000D2F80C14C3F82815D2F81014C3F82C15BA
:10BAC000D2F81414C3F83015D2F81814C3F834158A
:10BAD000D2F81C14C3F84015D2F82014C3F844154A
