:020000040800F2
:10000000C80600206D1000080D290008FD0F00082B
:10001000FD0F0008FD0F0008FD0F0008FD0F000890
:10002000FD0F0008FD0F0008FD0F0008F90E000885
:10003000FD0F0008FD0F0008B10E0008E10C0008DC
:10004000451000084510000845100008451000083C
:10005000451000084510000845100008451000082C
:10006000451000084510000845100008451000081C
:10007000451000084510000845100008451000080C
:1000800045100008451000084510000845100008FC
:1000900045100008451000084510000845100008EC
:1000A00045100008451000084510000845100008DC
:1000B00045100008451000084510000845100008CC
:1000C00045100008451000084510000845100008BC
:1000D00045100008451000084510000845100008AC
:1000E000451000084510000845100008451000089C
:1000F000451000084510000845100008451000088C
:10010000451000084510000845100008451000087B
:10011000451000084510000845100008451000086B
:10012000451000084510000845100008451000085B
:10013000451000084510000845100008451000084B
:10014000451000084510000845100008451000083B
:10015000451000084510000845100008451000082B
:10016000451000084510000845100008451000081B
:10017000451000084510000845100008451000080B
:080180004510000845100008BD
:1001880053B94AB9002908BF00281CBF4FF0FF31F6
:100198004FF0FF3000F06EB9ADF1080C6DE904CEF8
:1001A80000F006F8DDF804E0DDE9022304B070474A
:1001B8002DE9F047089D0E4604468C46002B40F07A
:1001C80081808A42174645D9B2FA82F24AB1C2F111
:1001D800200106FA02F320FA01F1974041EA030CE4
:1001E80094404FEA174E230CBCFBFEF6B9B20EFB47
:1001F80016CC43EA0C4306FB01F0984209D9FB18D8
:1002080006F1FF3C80F01581984240F21281023ECF
:100218003B441B1AA4B2B3FBFEF00EFB103344EAB6
:10022800034400FB01F1A14209D93C1900F1FF3355
:1002380080F00181A14240F2FE8002383C44641AF9
:1002480040EA064000211DB1D4400023C5E900431F
:10025800BDE8F08702B9FFDEB2FA82F2002A4FD178
:10026800CB1B4FEA174E1FFA87F80121B3FBFEFCA0
:10027800260C0EFB1C3346EA034608FB0CF3B3427C
:1002880007D9BE190CF1FF3002D2B34200F2EB805D
:100298008446F61AA3B2B6FBFEF00EFB106643EADC
:1002A800064408FB00F8A04507D93C1900F1FF33C4
:1002B80002D2A04500F2D2801846A4EB080440EA16
:1002C8000C40C0E78B4208D9002D00F0AF80002118
:1002D800C5E900060846BDE8F087B3FA83F10029AE
:1002E80049D1B34202D3824200F2BB80841A66EB42
:1002F800030301209C46002DAAD0C5E9004CA7E7BE
:10030800C2F120039740D8409140DE404FEA174E93
:1003180008434FEA104CB6FBFEF11FFA87F80EFBB4
:1003280011664CEA064601FB08F3B34204FA02F4EC
:1003380009D9BE1901F1FF3C80F08E80B34240F22A
:100348008B8002393E44F31A86B2B3FBFEF00EFBF3
:10035800103346EA034600FB08F3B34207D9BE1937
:1003680000F1FF3C74D2B34272D902383E44F31A0A
:1003780040EA01417AE7C1F1200703FA01F422FAC1
:1003880007F31C4320FA07F906FA01F34FEA144C65
:10039800FE4049EA03094FEA1943B6FBFCFE1FFA7F
:1003A80084F80CFB1E6643EA06460EFB08FAB245C3
:1003B80002FA01F200FA01F308D9A6190EF1FF308A
:1003C80048D2B24546D9AEF1020E2644A6EB0A063B
:1003D8001FFA89F9B6FBFCF00CFB106649EA0646E1
:1003E80000FB08F8B04507D9A61900F1FF3C2DD24B
:1003F800B0452BD90238264440EA0E40A6EB080641
:10040800A0FB02894E45C446CE4618D315D075B315
:10041800B3EB0C0266EB0E0606FA07F722FA01F3B5
:10042800CE401F43C5E90076002111E7294628463A
:100438000EE76646EDE6184601E74345E7D2B8EB16
:10044800020C69EB04040138A646E0E76046D3E7EE
:1004580060468CE78646B9E7614674E702383C4453
:100468002BE7084647E7ACF1020C3E4411E7294662
:10047800EEE600BF704700BF70B5164801F01EFCDD
:10048800044610B3856843684FF4D0521B680C21AA
:100498009847002818D12B6823F480532B60012536
:1004A800A3681B6885F0010613F4805F18BFF5B2D6
:1004B80065B16368DB684FF4805120469847F5B210
:1004C800C82001F08DFFEBE7E9DA70BD63681B69AE
:1004D800F1E700BF1A3600080B6801330B60014BC7
:1004E8001B681847081000202DE9F04F85B09B467F
:1004F8000E9CDFF89090012CB8BF0124012B0CBF93
:1005080030232023154606468A46029301274FF0DA
:100518000A080022B5FBF9F301930AB9A9451FD8C7
:10052800019B514603F13000B04701370122019B7E
:1005380008F1FF38B8F1010F09FB13554FF00A0312
:10054800B9FBF3F9E6D1514605F13000B047BBF1EC
:10055800030F02D1E41B002C0EDC05B0BDE8F08FC0
:100568004445E4DBBBF1020FE1D8029803925146FF
:10057800B0470137039ADAE751462020B047013CDB
:10058800E9E700BF00CA9A3B014B1860704700BFFB
:10059800081000202DE9F04F8DB01C460027531E8F
:1005A80005468B4603934FF0FF39B846002605E011
:1005B8006EB9252800F071815946A847039B13F8A6
:1005C800010F03930028F3D10DB0BDE8F08F7A280E
:1005D8000AD8622810D8302854D045D8252800F0E9
:1005E8005A812D2800F05F8159462520A847039B92
:1005F80018785946A847D9E7A0F16303172BF3D811
:1006080001A252F823F000BF97080008DB06000893
:10061800F1050008F1050008F1050008BD0600080D
:10062800DB060008F1050008F1050008BD06000812
:10063800F1050008F1050008F10500087D0700082C
:10064800F1050008F105000867080008F105000831
:100658004B070008F1050008F105000879060008B5
:10066800F1050008BD06000839281AD95828BBD159
:10067800039B1B78702B40F0888054F8043B06934A
:10068800002290E0B9F1000F0EDAB8F1000F00F087
:100698000D81A0F13009B8F1000F08BF4FF0020832
:1006A8008CE7B9F1000FF4DB0A2303FB0909A9F170
:1006B8003009F0E7682803D1682F06D148277DE77D
:1006C8006C2802D16C2F00F0F480002F8CD10746E3
:1006D80074E77A2F02D154F8046B21E06C2FFAD01A
:1006E8004C2FF8D1073424F00704F4E80223CDE9AD
:1006F8000423049B13F10041059B089143F1000179
:100708000991DDE9082300214FF0FF30994208BF25
:10071800904204D25946284602F04CF846E7049E17
:10072800002E05DA59462D20A847764209F1FF39EF
:10073800CDF800904346324659462846FFF7D4FE86
:1007480034E77A2F02D154F8042B0FE06C2FFAD03B
:100758004C2FF8D1073424F00704F4E802230021D1
:100768004FF0FF30994208BF9042D3D3CDF80090A4
:100778004346E1E759463020A84759467820A8471C
:100788004FF008094FF0010872E76C2F3FF475AF7E
:100798004C2F7FF472AFE31D23F007031C4654F877
:1007A800082B06925A6800211023049107914FF0F4
:1007B800400AAAF1040A0699CAF1200EAAF1200CEF
:1007C80021FA0AF002FA0EFE40EA0E0022FA0CFCA8
:1007D80040EA0C0010F00F0007D1079911B9BAF1DF
:1007E800000F25D14FF0300C05E009288CBF4FF0E1
:1007F800570C4FF0300C6044594640B20A920793A8
:10080800A847049B0A9A01330493079BBAF1000F87
:1008180023D1B8F1030F7FF4C9AE049BC3EB49069B
:10082800002E7FF7C3AE59462020A847013EF7E7C0
:10083800591E99450A9107DBB8F1010F06D10B92B1
:1008480059463020A8470B9A0A9BB2E7B8F1020F25
:10085800FAD10B9259462020F4E70796A9E754F8F5
:10086800046BB24653461AF8010B68B9B8F1030F86
:1008780021D19E1BA9EB0606002E7FF797AE59469D
:100888002020A847013EF7E75946A847EAE754F869
:10089800040B5946AEE65946ACE63746B0464FF02B
:1008A800FF3901268AE64FF0030887E64FF0010872
:1008B80084E64C2782E6064680E600BF07B50B466D
:1008C800002102460191034801A9FFF763FE03B026
:1008D8005DF804FBE10400084FF01002EFF3118308
:1008E80082F31188BFF36F8F83F31188BFF36F8F83
:1008F800024B034A1A600020704700BF2C100020EA
:100908000024F4000A2838B5074D044604D12868A5
:1009180043680D215B68984728684368E1B25B68C3
:100928009847204638BD00BF0800002010B5044C89
:10093800204600F053FD2046BDE81040FFF724BED6
:100948000D09000808B5044801F0B8F9034B186010
:10095800FFF7ECFF002008BD203600080800002043
:100968002DE9F84396680D4F04460D464FF00108EF
:1009780006F10409AC4201DBBDE8F8837A6908FA9C
:1009880004F333EA020207D17B6156F834301BB115
:1009980059F83410204698470134EBE7003C0140F1
:1009A800044A0123116883400B431360024B185615
:1009B80000F0AEBA003C0140323600081F2807DCC0
:1009C800044901220B6802FA00F023EA00000860DB
:1009D800704700BF003C014003290FD8DFE801F051
:1009E800020F1723154B0122996802FA00F021EA39
:1009F80000019960DA6822EA0000D8607047012394
:100A080003FA00F00D4B9A6802439A60F2E701235B
:100A180003FA00F0094BDA680243DA609A6822EABE
:100A2800000098607047012303FA00F0034B9A68AE
:100A380002439A60DA681043DFE700BF003C0140D8
:100A48000346074830B5846854F8330004EBC305FF
:100A580018B944F833106A6030BD6FF00F00FBE737
:100A680074100020044B9A6802EBC001002342F87E
:100A780030304B60704700BF741000200B6884B0A2
:100A8800032B2DD8DFE803F0020E1822164A4B6814
:100A9800116B19431163126B13400093009B0020E4
:100AA80004B07047104A4B68516B19435163526B3D
:100AB80013400193019BF2E70B4A4B68116C1943F1
:100AC8001164126C13400293029BE8E7064A4B68D4
:100AD800516C19435164526C13400393039BDEE736
:100AE8006FF02200DCE700BF003802400B68032BE0
:100AF80020D8DFE803F0020A1118104A4968136B7E
:100B080023EA01031363002070470C4A4968536BBA
:100B180023EA01035363F6E7084A4968136C23EA9A
:100B280001031364EFE7054A4968536C23EA01039C
:100B38005364E8E76FF02200704700BF00380240B6
:100B48000968084B02291B6805D005D9032906D076
:100B58006FF0220070479B081360002070475B0805
:100B6800FAE700BF2C10002030B5002187B04FF401
:100B7800A053CDE900134FF40043029300F038F876
:100B880003A801F0AEFE184B1A68900706D41A683D
:100B980042F001021A601A689207FCD5124CA36849
:100BA80023F00303A360A36823F0F003A360A56800
:100BB80015F00C05FBD123680C4823F080732360E3
:100BC800636823F0706343F0E063636003AA6B46D5
:100BD800294601F013F8236823F00103236001F08C
:100BE80088FE284607B030BD0038024000127A005F
:100BF800064B1A6C42F080521A641B6C82B003F0E8
:100C080080530193019B02B0704700BF0038024037
:100C180073B5044606090D46104612B9114801F08D
:100C28004DF800230093104B53F8263001930133FD
:100C380002D16FF0040012E0436869461B689847C8
:100C48000028F6D12011800200F1804005F00F0342
:100C58002A4604F00F0100F5003001F039FF02B018
:100C680070BD00BF493600087C340008F8B504465A
:100C78000D46094801F022F800260746AE4204F165
:100C8800080400D1F8BD54F8041C14F8080C3A46BE
:100C9800FFF7BEFF0136F1E7493600080B4B9A68AB
:100CA800196898680A4B11F4803F10B5094901D1B9
:100CB800824205D21A680C6822441A60034A1268F4
:100CC8001B680A681344181A10BD00BF10E000E042
:100CD800D0000020CC00002008B5FFF7DFFF0C4B48
:100CE8000C4A186811680844106000221A600A4A01
:100CF800116844F2A013401AB0FBF3F003FB001391
:100D0800136001F08DFCBDE8084000F0A5B800BFF5
:100D1800D0000020C8000020C4000020094B102289
:100D280083F82320084B44F29F121A60074B0020D7
:100D38001860074B5A6098601A6842F007021A60F8
:100D4800704700BF00ED00E0CC000020D00000207C
:100D580010E000E070B52B4D044651B1431C0ED194
:100D6800294A136823F0010313604FF07F432B6077
:100D780070BD40F2E533B0F1FF3F08BF1C464FF0AD
:100D88001003EFF3118683F31188BFF36F8FFFF71A
:100D980085FF1E4B1A68104418601D4B00221A600C
:100DA8001C4B1B68C21A0DD540F21A432B602B68E6
:100DB800154A013B53600023936086F31188BFF303
:100DC8006F8FD5E7013C24EAE47440F2E5318C42A8
:100DD80002F58342A8BF0C46181A44F2A0111F322C
:100DE80001FB042440F21A43B4FBF1F401FB0404B0
:100DF8009C4204D9084B9C42D8D82C60D7E71C46A3
:100E0800FBE700BFCC00002010E000E0C800002095
:100E1800D0000020C40000202094FF0010B54FF03F
:100E28001003EFF3118483F31188BFF36F8FFFF77B
:100E380035FF074B074A1B6812689B1A034484F363
:100E48001188BFF36F8F44F2A010B3FBF0F010BD10
:100E5800C8000020C400002004488168006A884255
:100E680003D003494FF080520A6070478402002083
:100E780004ED00E0094A0A49936809689966094936
:100E880058664B6843F080534B60002383F3118806
:100E9800BFF36F8F9368986E704700BF840200207D
:100EA8001036000800ED00E00F498A684FF028006E
:100EB8001044EFF3098C80E8F01F102080F31188AC
:100EC800BFF36F8F094F4FF000660A6A8A603E6071
:100ED800506E0023536680F3118802F1280090E8D1
:100EE800F01F8CF3098870478402002004ED00E0AD
:100EF8001EF0040F0CBFEFF30880EFF3098081693F
:100F080011F8021C0229FFD001B501F0F7FC01BD60
:100F180043B2002B08DB012200F01F0002FA00F0A8
:100F28005B09024A42F82300704700BF00E100E075
:100F380043B2002BA8BF03F1604301F10101B8BF20
:100F4800064B4FEA0111ACBF03F5614300F00F00F7
:100F5800C9B2B4BF195483F80013704714ED00E008
:100F680073B51E460A9B00938C18099B054602F030
:100F780056F8A4F120020A4B22F0070223F00103DD
:100F88009361069B5360079B9360089BD3604FF067
:100F98008073D36100231660AA646B6602B070BDCB
:100FA800F3270008F8B506460C4617461D4600F01C
:100FB80069F9094B3C4424F007049E60284684F3F1
:100FC8000988002163B681F31188BFF36F8F00226F
:100FD800002301F00AFC00BF84020020014910220E
:100FE8000A60704710ED00E0404080F3118830BF80
:100FF800704700BFEFF30880EFF30981724601B52F
:1010080000F092F801BD00BF30BFFFF7FDBF00BF81
:1010180008B5084B084A23F07F039360BFF34F8F4E
:10102800BFF36F8F00F070FE00F086FE00F0F8F856
:1010380000F0CCFE0000000800ED00E001B5EFF381
:101048000580A0F110004FEAC0000449014409C915
:101058009847BDE8014002490847000000310008F0
:10106800610E0008102080F3118808484FF40061D1
:10107800401880F30988EFF314800221084380F3B5
:101088001488BFF36F8FFFF7C3FF00000808002024
:101098000C4B9A6A9A6A9A6A920708D55A6B9A6AA6
:1010A800120604D518B19A6A22F080029A62054B9A
:1010B8009A6A9A6A9A6A9A6A002042F0FF029A62C9
:1010C8000870704700ED00E00D4B9A6A9A6A9A6AB8
:1010D800920508D59A6B9A6A120404D518B19A6ACF
:1010E80022F400429A62064B9A6A9A6AD20558BF5D
:1010F8009A6A9A6A002042F47F429A62087070479E
:1011080000ED00E0074B9A6A9A6A9A6A9A6A9A6AA4
:101118009A6A9A6A6FEA02426FEA12429A62002059
:10112800704700BF00ED00E070B5364B5B688AB0D1
:101138000E46C3F30803002585F31188BFF36F8FAC
:1011480002F07F41B1F17F4F11D102F00C01082963
:101158000DD0110701D4064601250022033B8DF866
:101168000720032B47D8DFE803F0043E423B2E4616
:10117800F3E7244BDA6A92073DD4DC6A14F0804422
:1011880008D028331B78EBB10DF107010120FFF7D8
:101198007FFF04469DF8073093B92022314602A804
:1011A80001F0C3FB099B45B3C3F3080222B96FEAF8
:1011B80053236FEA4323099302A9204601F09CFBBD
:1011C8000AB070BD104B1B782BB10DF1070101203F
:1011D800FFF77AFFDDE70D4B188884B2002CD9D0D1
:1011E800FFF790FFD5E70DF107010020CFE70DF1DC
:1011F80007010020ECE70024CCE723F4FF7323F079
:101208000103D8E700ED00E029ED00E02AED00E059
:10121800024A536943F010035361704700ED00E040
:10122800044800231021C2180133522B82F80013FE
:10123800F9D1704700E100E038B504464FF01003DB
:10124800EFF3118583F31188BFF36F8F00F0E4FF8C
:101258000A4B9B68A3420BD1094B5A68C2F3080298
:1012680012B92846FFF706FE5A6842F080525A60C3
:101278002846BDE8384001F067BE00BF8402002060
:1012880000ED00E01FB5084B0193084B0293084B93
:10129800039301AB0093074A074B0121684600F00E
:1012A80093F805B05DF804FB000000200000000082
:1012B80000000B060000002000000220DFF884C0B8
:1012C800F0B50646002710468F4200DBF0BD56F801
:1012D80027E0DEF8044094B343B1651E2C4219D1CF
:1012E8001F2C17D9DEF80020154213D1202CC2B2CA
:1012F800DEF80050DEF808000FD9B4F1004F0ED820
:10130800013CB4FA84F4C4F11F046400072A44EAD7
:10131800000406D96FF01500D8E70824F6E73E2444
:10132800F4E725F01F05154345F0100544F00104C6
:10133800CCF80820501CCCF80C50CCF810400137E1
:10134800C2E700BF90ED00E0034B05225A60BFF3EF
:101358004F8FBFF36F8F704790ED00E0BFF35F8F43
:10136800014B00225A60704790ED00E0134908686D
:10137800082810B51ED8FFF7F1FF114C4968002264
:10138800904201F10C0105D10E4B1870FFF7DCFFFC
:10139800002010BDA26051F80C3C23F01F0313433A
:1013A80043F01003E36051F8043C43F00103236168
:1013B8000132E5E74FF0FF30EBE700BFA834000843
:1013C80090ED00E0C002002010B5034C0123227804
:1013D800FFF774FF207010BDC0020020014B186099
:1013E800704700BF2010002008B503480321FFF70D
:1013F8003DFC002008BD00BFC83400082DE9F341BA
:101408001E4603688768D3F80880B2F5005F0C466B
:101418002BD101F0030304339A000F23934043EACE
:101428009103DAB23E49023251F82220190C02EA3D
:10143800134391FAA1F2B2FA82F2D340D8F8082005
:101448009A4210D12046FFF7B9FA2046FFF70AFB67
:1014580020460021FFF7C0FA012303FA04F47B6851
:1014680023EA04037B6000254BE0B2F5804F50D09F
:1014780002462C492046FFF7E3FA054600284BD1DF
:10148800012303FA04F27B6813437B60D8F80870E1
:10149800254800F013FC2549034603C96A4682E83B
:1014A800030059681846D1F800801146C04704F077
:1014B800030104318B000F21994041EA9401CAB21B
:1014C800920002F1804202F59C320B0C906820EAEF
:1014D800114193FAA3F3B3FA83F39F400F43B6F590
:1014E800802F976011D0B6F5C02F10D0B6F5003F09
:1014F80014BF002102212046FFF76EFA2046FFF7AD
:101508004FFA284602B0BDE8F0810121F3E7032134
:10151800F1E76FF02205F4E76FF00F05F1E700BF80
:1015280000380140D52900084936000874340008FD
:10153800036810B59C68064800F0C0FB436804F1D6
:101548000C011B689847002818BF6FF0040010BDF5
:1015580049360008F0B589B01F4686689DF83830CE
:1015680092B3BA4230D363BB03689B6801398C00DD
:101578001968324B99425ED0B1F1804F27D030487C
:1015880021F40063834253D021F4805500F5806034
:1015980085424DD021F4806500F50060854247D032
:1015A80021F4804500F57440854241D000F5705023
:1015B80083423DD0234B99423DD003F58063994245
:1015C80039D06FF0220031E06FF015002EE084B1C1
:1015D80024F00803042B03D0082C01D03C2CF0D1B4
:1015E800B1F1804F05D0184B994202D0B2F5803F37
:1015F800E7D80025336C3160013A7360F2603561D9
:10160800B5607561304601F0E3FB602301A922460D
:101618003046CDE90455CDE9065501930395029767
:1016280001F0F0FB2146304601F05AFC09B0F0BD4C
:10163800002CCDD1D7E7002CCAD1D7E70000014054
:1016480000040040001C0040000C004038B503684E
:1016580085689C68064800F031FB436868641B682D
:10166800211D9847002818BF6FF0040038BD00BF3F
:10167800493600082DE9F84303680A799B688668AB
:101688001C68012A0D4675D0022A0CBF4FF48061F0
:10169800002195F8058095F80690EF79B8F1020FCA
:1016A80096BF374B4FF4005E33F818E0B9F1040FDA
:1016B8000CBF4FF480530023033A012F14BF4FF09F
:1016C800000C4FF4407C012A57D918F0FD0F54D074
:1016D800B9F1020F51D987B12A4A94420BD0A2F529
:1016E8004C42944207D002F58062944203D002F53E
:1016F8004C42944241D1012F3FD1E26822F400527A
:10170800E260E26802F4C06291421FBFE76827F412
:10171800C0670F43E760226902F4405296451FBF35
:10172800216921F4405141EA0E012161E2682968EA
:1017380002F4805293421FBFE26822F480521A4397
:10174800E260636903F440739C451FBF636923F437
:10175800407343EA0C0363613368994203D001F094
:10176800DDFA2B683360E36843F40053E36000203C
:10177800BDE8F8834FF4C0618BE76FF02200F7E70C
:10178800143600080010014003682DE9F041D3F831
:10179800088087684646054656F8084B184800F002
:1017A8008DFA4368786031461B689847064620BB27
:1017B800E36823F40053E360E36843F00C03E36059
:1017C800E36823F4B053E360236923F440532361AF
:1017D80098F8103033B12B689B681A68536943F442
:1017E800407353613968284601F098FAE36843F476
:1017F8000053E3603046BDE8F0816FF00406F9E776
:1018080049360008036A23F001030362036A70B5CE
:10181800446882690D6822F073022A438D6823F0B8
:1018280002032B430E4DA84202D00E4EB04210D1F7
:10183800CE6823F008033343A84223F0040302D000
:10184800084DA84205D1D1E9055624F44074354322
:101858002C43446082614A684263036270BD00BFE2
:101868000000014000040140036A23F4807303620E
:10187800036A70B54468C2690D6822F073022A438E
:101888008D6823F4007343EA0523114DA84203D061
:1018980005F58065A84214D1CD6823F4006343EAB6
:1018A80005230B4DA84223F4806303D005F580651A
:1018B800A84206D1D1E9055624F44054354344EAF8
:1018C80005144460C2614A68C263036270BD00BF08
:1018D80000000140036A23F480530362036A30B5B1
:1018E8004468C2690D6822F4E64242EA05228D681E
:1018F80023F4005343EA0533084DA84203D005F505
:101908008065A84204D14D6924F4804444EA8514D2
:101918004460C2614A680264036230BD000001404D
:10192800304A0368904212D0B0F1804F0FD0A2F530
:101938007C4290420BD002F58062904207D002F5BB
:101948008062904203D002F57842904219D14A68E9
:1019580023F070031343234A904229D0B0F1804FFB
:1019680026D0A2F57C42904222D002F580629042B5
:101978001ED002F5806290421AD002F57842904259
:1019880016D0194A904213D002F5806290420FD0C7
:1019980002F5806290420BD0A2F59832904207D0AF
:1019A80002F58062904203D002F58062904203D132
:1019B800CA6823F4407313434A6923F0800313432E
:1019C80003608B68C3620B688362064B984203D03E
:1019D80003F58063984201D10B69036301234361D6
:1019E800704700BF0000014000400140036A23F037
:1019F80010030362036A70B5446882690D6822F4B3
:101A0800E64242EA05228D6823F0200343EA0513E3
:101A1800104DA84203D005F58065A84214D1CD68C1
:101A280023F0800343EA05130A4DA84223F040033C
:101A380003D005F58065A84206D1D1E9055624F4FE
:101A48004064354344EA8504446082614A6882639D
:101A5800036270BD0000014010B504460122006811
:101A680001F030FA23680B4A934203D002F58062F2
:101A7800934203D15A6C42F400425A649A6802F0C5
:101A88000702062A1EBF1A6842F001021A600020E7
:101A980010BD00BF00000140054B1A681B6802F02A
:101AA800007203F00063134314BF01200020704745
:101AB80000380240214B1B6813F480431BD0204B95
:101AC800984209D81F4B984201D9042305E01E4BC0
:101AD800984206D9032300E00523012B38BF0123D0
:101AE80009E01A4B984201D9022304E0184B9842A6
:101AF8004FF00003F1D8114A1268520411D4154A64
:101B0800904208D9104A002B08BF0423904205D8F8
:101B18000E4A904202D80E4A904202D9012B38BF91
:101B280001230D490A6822F00F021A430A60086867
:101B380000F00F00C01A18BF012070470070004065
:101B480080D1F008000E2707804A5D0500879303BF
:101B580080C3C901001BB700003C02400B68244A3F
:101B6800C3F3031370B5D35C224E20FA03F4336831
:101B7800A3420D4627D3204B1A6842F080721A60A0
:101B88001A689201FCD59A68296822F0F0020A4383
:101B98009A609A6822F0030242F002029A60164B99
:101BA8009A6802F00C02082AFAD19A68696822F445
:101BB800E0520A439A609A68A96822F460420A438C
:101BC8009A60002005E074B12046FFF773FF0028F3
:101BD800D1D03368A34203D93CB12046FFF76AFF4E
:101BE80000B9346070BD0120F3E70120FAE700BFB7
:101BF800A13600082C100020003802402DE9F041E1
:101C08000D46044690461946FFF746FF002838D18E
:101C1800D8F80060D8F80470D8F8083006F03F000B
:101C2800B4FBF0F4C7F308004443180C013040003B
:101C3800B4FBF0F0144C226892030FD42268012DF3
:101C48000CBF42F4802222F480222260226842F4EF
:101C5800803222600C4C22689203FCD50A4C0B4A55
:101C680065682A4042EA8712324342F48002626081
:101C7800626822F440321A436260BDE8F041FFF71F
:101C88006DBF0120BDE8F081003802400080BFFF31
:101C9800094B70B553F820400130002653F8205006
:101CA800A54200D870BD236820465B68984700B1FC
:101CB80066600C34F4E700BFFC350008104B70B5C3
:101CC800104C05461E469C4204D10E4CB44209D124
:101CD800002412E062681AB122681268AA420CD085
:101CE8000C34F0E763680BB90C34EFE72368284637
:101CF800196800F00EFE0028F6D1204670BD00BF1E
:101D08001C1100203810002008B50748074A002198
:101D1800121A00F035FE0648064ABDE80840121AB5
:101D2800002100F02DBE00BF00000020C4020020EA
:101D3800000000100000001009480A4A0A4908B5C6
:101D4800121A00F0F2FD094A09490A4800F0EDFDAF
:101D580009480A4A0A49BDE80840121A00F0E5BDD8
:101D68000810002030110020003700080000000093
:101D780000370008000000200000001000000010DC
:101D88002838000808B50C4B012202201A70FFF70A
:101D98007FFF0A4A0A490B4800F01AFD0320FFF7A3
:101DA80077FF00F079FBFEF767FB074A137B23F008
:101DB8000103137308BD00BFC1020020F4360008F8
:101DC800B1360008CE3600081802002080B5364B20
:101DD800A2B083F30888354D354E6B69DFF8ECA067
:101DE800DFF8EC90334F43F400736B610024F02369
:101DF80085F82230EC772C766C76AC766B6A43F4F7
:101E0800E0236B62FFF704FAFFF7E8F84FF0FF33BF
:101E1800AB62EB6207AB6C222146184600F0B0FDBE
:101E28004FF00108B06020468DF82980FFF730FF99
:101E38004046214DFFF72CFF00F078FA1F4B356222
:101E48004FF480624946CDE9048328465346CDE9DC
:101E58000244CDE9004400F0E7FA6B7B23F0040369
:101E68006B73284601F090F8154B1649CDE90483A9
:101E78000F23CDE902434FF4A072134B3846CDE946
:101E8800004400F0D1FA7B7BF76023F004037B73F6
:101E980006F11803C6E906334FF4806253464946F3
:101EA8002846FFF77FF800BF0810002000ED00E08B
:101EB80084020020AC01002018020020F53600083A
:101EC800FA360008C8060020CD3000088D1D00082D
:101ED800C802002010B5084C23685BB1FEF79EFFCE
:101EE80003462068054A0344BDE8104013610021F9
:101EF80001F0CAB810BD00BFB8020020840200205B
:101F080010B54FF01003EFF3118483F31188BFF37A
:101F18006F8F084B00221A610A235843064B18603A
:101F2800064B1960FFF7D6FF84F31188BFF36F8F54
:101F380010BD00BF84020020B8020020B4020020B7
:101F48004FF01003EFF3118183F31188BFF36F8F04
:101F5800044B9A68D37B013BD37381F31188BFF399
:101F68006F8F704784020020094B03F124028242DC
:101F780005D19B688B4202D14B7BDB0606D1D1E9A8
:101F8800003213605A600023C1E90033704700BF74
:101F98008402002070B5104C064604F1240000F0BD
:101FA800E9FFA368597B0546880644BF41F008014C
:101FB800597305B9E5684EB95A7BD20606D1AA69A4
:101FC80022B9DA897F2A01D9236270BDAB4201D0D8
:101FD800FFF780FF2562F8E78402002010B54FF074
:101FE8001003EFF3118483F31188BFF36F8F084B4D
:101FF8009A68D37B0133D3730020FFF7CBFF84F3B8
:102008001188BFF36F8FBDE8104000F0A9BF00BF73
:102018008402002070B4437BDB062AD1836943BB6A
:10202800154A114651F8244F8C4218BF2346002BFD
:10203800946A38BF0023B3B190F90E6093F90E503B
:10204800AE4203DBA3420ED01B68F4E75A68C0E92E
:10205800003210605860437B63F07F03437370BCA9
:102068000020FFF797BFC0E90014936A18609062D8
:10207800F1E770BC704700BF8402002010B54FF034
:102088001002EFF3118482F31188BFF36F8F427B44
:10209800510704D484F31188BFF36F8F10BD22F069
:1020A80004024273FFF7B6FF21460248BDE810401C
:1020B80000F03FBFC2020020F8B501464FF0100300
:1020C800EFF3118483F31188BFF36F8F90F90D300C
:1020D800002B02DA1948FFF747FF194A1046956A9C
:1020E80050F8243F834208BF0023002B38BF002349
:1020F800EBB191F90E7093F90E60B74203DB9D4284
:1021080015D01B68F4E75868C1E9003001605960D0
:102118004B7B906863F07F034B73431A58425841D6
:10212800FFF738FF84F31188BFF36F8FF8BDC1E95B
:102138000005936A19609162EAE700BFA8020020CF
:102148008402002038B5154A154B14680146986872
:10215800A0421C4603D1BDE83840FFF7BBBE0025AE
:102168001560104A1268B2B1C2897F2A13D80E4A84
:1021780090F90E50126895420DDB0C4A90420AD035
:10218800826942B91A698A4202DCFFF795FFE2E7E1
:10219800521A1A6138BD00232361FBE7B002002000
:1021A80084020020B8020020B4020020AC01002004
:1021B80070B50446183000F041FF4FF01003EFF3FC
:1021C800118683F31188BFF36F8F94F90D30002BBC
:1021D80007DA0F482146FFF7C7FE637B03F07F034A
:1021E80063730C4D637BA86843F010036373031B90
:1021F80058425841FFF7CEFE86F31188BFF36F8F20
:10220800AB68A34203D1BDE8704000F0A9BE70BD21
:10221800A80200208402002038B5036D044603B1EB
:10222800984704F1180000F009FF4FF01003EFF38E
:10223800118583F31188BFF36F8F637BD8061BD199
:10224800A269CAB9190607D512482146FFF78CFEBC
:10225800637B03F07F0363730F4B9868021B504244
:102268005041FFF797FE637B43F00803637385F3E0
:102278001188BFF36F8F38BD9B07F4D5A06821463E
:10228800FFF772FE637B23F0020363730023A360EE
:10229800E9E700BFA80200208402002008B590F9F1
:1022A8000D30002B014606DA0748FFF75DFE4B7B31
:1022B80003F07F034B73054B9868431A5842584103
:1022C800BDE80840FFF766BEA8020020840200208F
:1022D800F8B5451C00F0F2FE2C184FF01003EFF390
:1022E800118783F31188BFF36F8F0D4E0D4BB068C4
:1022F800186000F084FEB0680B492A46183000F0D8
:102308004DF9B268537B43F0100353733846FEF718
:10231800B1FD00F0D3FE201A20EAE070F8BD00BF3E
:1023280084020020B0020020B12F0008044B0021D5
:1023380003F12402C3E909220846FFF7E1BD00BF03
:1023480084020020F8B5244C244BA2689A4230D06D
:102358004FF01003EFF3118583F31188BFF36F8FEC
:10236800A16804F12400FFF7FFFD636AA268A16A6F
:10237800834208BF0023002B38BF00232BB392F9F8
:102388000E7093F90E60B74203DB8B421DD01B68B9
:10239800F4E75968C2E900310A605A60537B63F078
:1023A8007F0353730120FFF7F5FD85F31188BFF311
:1023B8006F8F4FF01003EFF3118083F31188BFF391
:1023C8006F8FBDE8F840FEF755BDC2E90001A36A6A
:1023D8001A60A262E2E700BF84020020AC0100207C
:1023E800431C10B5044605D10B4B986800F034F82F
:1023F800204610BD0A20444309D1FFF7A3FF204619
:10240800E1170A220023FDF7BBFE0446F0E7204649
:10241800FFF75EFF0446F2E784020020014B98684C
:10242800704700BF8402002030B587B004460E9D77
:1024380004950D9D03950C9D02950B9D01950A9D94
:102448000095FEF78DFD034B9B6803B11B6E236659
:1024580007B030BD8402002038B504464FF01003A1
:10246800EFF3118583F31188BFF36F8FFFF7A0FE99
:10247800074B9B68A34205D129460648BDE838406A
:1024880000F057BD85F31188BFF36F8F38BD00BFCB
:1024980084020020C2020020F0B5204E204D87B0F3
:1024A8003746B54205F130040BD3FFF749FD1C4C04
:1024B8001C4E0A25BC4221D307B0BDE8F040FFF707
:1024C8008DBD54F8043C059354F8103C049354F81B
:1024D800143C039354F8183C029354F81C3C0193A1
:1024E80054F8203C009354E90A2354E90C01FFF7FF
:1024F8009BFF54F8303CDD642546D2E7626A531CE2
:1025080003D020681AB9FFF7B9FD3034D2E76A431F
:1025180001323146183000F041F8F6E71C1100206E
:102528001C110020B12F0008034B1B680BB9FEF7E4
:1025380075BC0020704700BFBC020020036840B192
:10254800074A5268904204D01BB19A6881680A44CD
:102558009A60426813605A600023C0E900337047EC
:10256800301000200B4B10B51C689C4208BF00249B
:10257800FFF7DAFF54B1A368181A20EAE070064B97
:102588001B6913B19842A8BF184610BD6FF00040F0
:10259800F5E700BF301000208402002070B5044623
:1025A8001646C1604FF01003EFF3118583F31188CD
:1025B800BFF36F8FFFF7B8FF184B1A68012EACBF37
:1025C800801901309A42A06001D05E6832B95A6819
:1025D80062605A68236014605C600AE09068A168D1
:1025E800884215DD411A91605168C4E900210C60E8
:1025F80054601A689A4206D0944204D1FFF7B2FF99
:102608000021FEF7A7FB85F31188BFF36F8F70BD1C
:10261800091A9642A160DAD01268D7E73010002074
:102628002DE9F0470646FFF78DFD4FF01003EFF355
:10263800118483F31188BFF36F8F204DDFF88080FA
:10264800DFF880A02E60C146DAF800002A685045FD
:10265800D8E9006705D020B18368934213DD9B1A3F
:102668008360B61847EBE277C9E9006700262E6059
:10267800FFF778FF3146FEF76DFB84F31188BFF34F
:102688006F8FBDE8F087F61847EBE377D31A2B6016
:1026980000238360C8E90067FFF750FF84F31188BF
:1026A800BFF36F8FC36898474FF01003EFF311849F
:1026B80083F31188BFF36F8FC6E700BFBC02002009
:1026C800000000203010002010B54FF01003EFF389
:1026D800118483F31188BFF36F8FFEF79FFB064BBE
:1026E800D3E90023121843F1000384F31188BFF3E0
:1026F8006F8F1046194610BD0000002038B5074CF2
:10270800074DAC4201D3002038BD04F11403204624
:10271800C4E9053300F006F81C34F2E71C11002068
:102728001C1100202DE9F04F46680789016890F8D0
:102738000A80FF2306FB07FCC3726144324600236C
:102748004FF00C09984505DC002319468F4220DC20
:10275800BDE8F08FD0F80CA0BCFBF2F509FB03FE36
:102768000AEB0E0404F1040B202DC4E901BB05D8C3
:10277800C372920822F003020133E3E715F11F0444
:1027880048BF05F13E0464114AF80E1001EB8401BC
:10279800EFE7C268056802F1040CEC1845F803C0BD
:1027A80095686560956801312C6033449460CDE785
:1027B8000020704770B504460D464520A0472946BD
:1027C8005220A047294623465220BDE870401847AA
:1027D8000FB407B504A951F8040B0191FEF76EF880
:1027E80003B05DF804EB04B07047044608B508462A
:1027F80011461A46A047FFF711FEFEF71DFD704768
:10280800024601210020FEF7ABB802460221012052
:10281800FEF7A6B8024603210220FEF7A1B8024639
:1028280004210320FEF79CB8024605210420FEF788
:1028380097B802460A210520FEF792B802461021F1
:102848000A20FEF78DB8024611211020FEF788B83D
:10285800024613211220FEF783B8024616211520DE
:10286800FEF77EB8024617211620FEF779B8002237
:1028780008B511460620FEF75BFB0022114607202B
:10288800FEF756FB002211460820FEF751FB0022F6
:1028980011460920FEF74CFB002211460A20FEF7DC
:1028A80047FB002211461720FEF742FB0022114683
:1028B8002820FEF73DFB002211460120FEF738FBD9
:1028C800002211462A20FEF733FB0022114602207F
:1028D800FEF72EFB002211460320FEF729FB0020FD
:1028E80008BD4FF4A8730822C0E9002300238360C1
:1028F80070477047FEF77EBB00F000BB01460068DA
:1029080000F0FCBA08B5FEF77FFBBDE80840FEF70B
:10291800A3BA431E013913F8012F11F8010F82429F
:1029280001D1002AF7D1101A7047F0B581EA0004E6
:10293800A50703460BD0013B0A4491421BD1F0BDC9
:10294800002AFCD011F8014B03F8014B013A9C070F
:10295800F6D122F003041D1F96080F19B94205D1BC
:102968006FF0030505FB06222344E4E751F804CB86
:1029780045F804CFF2E711F8014B03F8014FDCE703
:1029880070B5C9B203469C0711D141EA012422F06F
:10299800030644EA04451E449408B3420DD16FF07F
:1029A800030505FB04221A44934209D170BD002A8D
:1029B800FCD003F8011B013AE5E743F8045BECE7B8
:1029C80003F8011BF0E74FF0FF3070478A6853683F
:1029D800C340DB0770B50E4615D5916899B10C68F0
:1029E8000125002C38BF002485408A682A4002D07F
:1029F8004B683046984734B12368002B38BF002312
:102A080021461C46F1E770BD03689B685B681B693B
:102A18000B600020704703689B685B6858694240F8
:102A28000A4042405A610020704703689B685B680F
:102A380000209961704703689B685B680904996185
:102A48000020704703689B685A6853694B4053617C
:102A5800002070478368986830B558B100248142D7
:102A680013D108685CB9DC689860A14200D1D860CD
:102A78000020086072B9002030BD2846EFE72060CA
:102A8800D868814208BFDC60F2E705680446002D7B
:102A9800F3D13AB19A680A60D86899600028EAD1F7
:102AA800D960E9E76FF01500E6E78268012303FAC9
:102AB80001F153680B43536000207047826801237B
:102AC80003FA01F1536823EA0103536000207047B9
:102AD800F0B50124D0F800C08C4002F03006C2F3F3
:102AE800011594FAA4F7B7FA87F74FF0030E7F00A1
:102AF8000EFA07F72CEA070C94FAA4F7B7FA87F747
:102B08007F00BD4045EA0C05202E056015D1072938
:102B180048DC076A94FAA4F50DB1B5FA85F60F25D5
:102B2800B60005FA06F627EA060694FAA4F5B5FAF9
:102B380085F5AD00AB40334303624568C2F38013AB
:102B480003FA01F125EA040319434160C2F3C113F2
:102B5800856894FAA4F1B1FA81F10326490006FACE
:102B680001F125EA010594FAA4F1B1FA81F14900CD
:102B78008B402B438360C2F34122C16894FAA4F3CB
:102B8800B3FA83F35B0006FA03F321EA030394FA2A
:102B9800A4F4B4FA84F4640002FA04F41C43C46094
:102BA8000020F0BD476A250A95FAA5FCBCF1000F84
:102BB80001D0BCFA8CF64FF00F0CB6000CFA06F6F2
:102BC80027EA060695FAA5F5B5FA85F5AD00AB40F6
:102BD80033434362B1E738B51346026895689A05EE
:102BE8000C4616D599070DD55A072ED55022D90669
:102BF8000AD542F4007219051BD50121A140FFF73F
:102C080014FF0FE01022F2E79906F4D542F480622F
:102C1800F1E7D90514D5DA0614D413F0200218BF49
:102C28004FF48062686800232146FFF751FF0020B7
:102C380038BD5B05F6D50121A140FFF7FCFEF1E7A1
:102C48003022EFE74FF40072ECE76FF02200EFE775
:102C5800036837B599688568144692B1686C43680B
:102C680001AADB680431984700280DDB2A6C019B18
:102C780000205B000132B3FBF2F3C4E9003003B07B
:102C880030BD6FF01500FAE76FF00400F7E782B087
:102C980003680193019B43680193019B02B070474D
:102CA80008B503689B68186803681A0701D5FFF719
:102CB800EEFF03689B0643BF43680B7000204FF08C
:102CC800FF3008BD03689B681B681A681206FCD5AC
:102CD8006FF040021A605960704708B503689B6836
:102CE800186802680368DB070368C2F3C00248BFBC
:102CF80042F00202990748BF42F00402D30701D507
:102D0800FFF7C5FF910701D5FFF7C1FF530701D5AD
:102D1800FFF7BDFFFFF7BBFF104608BD036837B5D7
:102D28000D469968836851F8084B5868436801AAAA
:102D3800DB689847002812DB0199642219234B436A
:102D4800A900B3FBF1F1B1FBF2F002FB10131B0178
:102D58003233B3FBF2F303EB00139BB2A36003B06F
:102D680030BD83681B680B6003689B681A68D3686A
:102D780003F4C063B3F5806F23D0A3F5C06043426A
:102D880043410B71136903F44053B3F5805F1AD0C4
:102D9800B3F5405F19D0002B14BF032301234B71F7
:102DA800D36813F4805F14BF042303238B71536922
:102DB80003F44073A3F5407253425341CB71002092
:102DC80070470223DDE70023E9E70223E7E77047BE
:102DD80010B50446A0B190F83D3003F0FF021BB9CE
:102DE80080F83C20FFF7F3FF0223206884F83D3089
:102DF800211DFEF795FD012384F83D30002010BD0C
:102E08000120FCE738B590F83C30012B04464FF020
:102E1800020010D00123082A84F83C3084F83D00D1
:102E28003FD009D8DAB1042A2AD00123002084F837
:102E38003D3084F83C0038BD0C2AF6D12068FEF7F6
:102E480049FD23680969DA6942F40062DA61DA69DE
:102E580022F48062DA61DA6942EA012230E020680D
:102E6800FEF7D0FC236809699A6942F008029A6162
:102E78009A6922F004029A619A690A439A61D4E72E
:102E88002068FEF7B3FD236809699A6942F4006275
:102E98009A619A6922F480629A619A6942EA0122E7
:102EA800ECE72068FEF7E0FC23680969DA6942F07C
:102EB8000802DA61DA6922F00402DA61DA690A439F
:102EC800DA61B2E7036A01F01F0110B501248C40F2
:102ED80023EA04030362036A8A401A43026210BDAC
:102EE800FEF7BABD4FF01002EFF3118382F3118899
:102EF800BFF36F8FFEE708B5FFF7F4FFF8B5054697
:102F08000E464FF01003EFF3118783F31188BFF3D8
:102F18006F8FFFF783FA314604462846FFF7EBFF29
:102F280087F31188BFF36F8F2046BDE8F840FEF79E
:102F380083B921B9EFF3058008B9FDF79BBF81F389
:102F48001188BFF36F8F7047034620B9EFF30582EE
:102F58000AB9FDF78FBF83F31188BFF36F8F7047EE
:102F68004FF01003EFF3118083F31188BFF36F8FD5
:102F7800FFF7EABF03460068834203D0002838BF42
:102F8800002070470020704710B54FF01003EFF392
:102F9800118483F31188BFF36F8FFFF73BF884F335
:102FA8001188BFF36F8F10BD38B550F8103C044638
:102FB800A0F11801C3B14FF01003EFF3118583F3AB
:102FC8001188BFF36F8F50F8100CFEF7CDFF14F87F
:102FD8000B3C23F0020304F80B3C002344F8103C9C
:102FE80085F31188BFF36F8F14F80B3C23F014039B
:102FF80004F80B3C0846BDE83840FFF7C5BF10B5DC
:103008004FF01003EFF3118483F31188BFF36F8F30
:10301800FFF744F984F31188BFF36F8F10BD10B523
:10302800029C0473837304240023C0E90633C0E9B7
:103038001333C0E916124473C37310BD10B54FF0B3
:103048001002EFF3118482F31188BFF36F8F0368C6
:103058003BB1FFF773FA002084F31188BFF36F8F39
:1030680010BD6FF01500F7E710B54FF01003EFF340
:10307800118483F31188BFF36F8FFFF773FA84F31A
:103088001188BFF36F8F10BD70B504460D464FF021
:103098001003EFF3118683F31188BFF36F8FFFF7E7
:1030A80061FA012805DDA04203DD29462046FDF727
:1030B80051FE86F31188BFF36F8F70BD08B5FFF717
:1030C80003FB08BD08B54FF01002EFF3118382F33C
:1030D8001188BFF36F8FFFF7C7FF01210228D8BF00
:0E30E8000846FFF7D1FFFDF77FFFECE77047CA
:0230F600FFFFDA
:0830F800C0D0FF7F01000000C1
:1031000000000000FD280008741000204F2800086F
:103110007410002063280008741000206D28000837
:1031200000000000FD28000800000000FD28000845
:1031300074100020092800087410002013280008CB
:10314000741000201D280008741000202728000893
:10315000741000203128000800000000FD2800083D
:1031600000000000FD28000800000000FD28000805
:1031700000000000FD28000800000000FD280008F5
:1031800000000000FD28000800000000FD280008E5
:1031900000000000FD28000800000000FD280008D5
:1031A00000000000FD28000800000000FD280008C5
:1031B00000000000FD280008741000203B280008D3
:1031C00000000000FD28000800000000FD280008A5
:1031D00000000000FD28000800000000FD28000895
:1031E00000000000FD28000800000000FD28000885
:1031F00000000000FD28000800000000FD28000875
:1032000000000000FD28000800000000FD28000864
:1032100000000000FD28000800000000FD28000854
:1032200000000000FD28000800000000FD28000844
:1032300000000000FD28000800000000FD28000834
:10324000741000204528000800000000FD28000838
:10325000741000205928000800000000FD28000814
:1032600000000000FD28000800000000FD28000804
:1032700000000000FD28000800000000FD280008F4
:1032800000000000FD28000800000000FD280008E4
:1032900000000000FD28000800000000FD280008D4
:1032A00000000000FD28000800000000FD280008C4
:1032B00000000000FD28000800000000FD280008B4
:1032C00000000000FD28000800000000FD280008A4
:1032D00000000000FD28000800000000FD28000894
:1032E00000000000FD28000800000000FD28000884
:1032F00000000000FD28000800000000FD28000874
:1033000000000000FD28000800000000FD28000863
:1033100000000000FD28000800000000FD28000853
:1033200000000000FD28000800000000FD28000843
:1033300000000000FD28000800000000FD28000833
:1033400000000000FD28000800000000FD28000823
:1033500000000000FD28000800000000FD28000813
:1033600000000000FD28000800000000FD28000803
:1033700000000000FD28000800000000FD280008F3
:1033800000000000FD28000800000000FD280008E3
:10339000F4360008E108000800000000F4360008D8
:1033A0004D090008000000002736000877280008B3
:1033B0000000000049360008710B00080000000002
:1033C00052360008250D000800000000F436000801
:1033D0007513000800000000F4360008F11300081F
:1033E000000000006B360008391500088035000821
:1033F00071360008391500086C350008773600086A
:1034000039150008583500087D36000839150008C0
:1034100044350008833600083915000830350008A7
:103420001A360008391500081C35000889360008CE
:1034300039150008083500088F36000839150008CE
:10344000F43400089536000839150008E034000807
:103450009B36000855160008C035000820360008C5
:1034600091170008D4350008F43600080527000835
:043470000000000058
:103474000300000000400000010000000200000002
:1034840004000000080000001000000020000000FC
:10349400400000008000000000010000FFFFFFFF6B
:1034A400FFFFFFFF02000000B03400080000000826
:1034B4005C3600082600020700000020643600087D
:1034C40020000B110200000027020000030000008E
:1034D400270000000000000021020000FFFF0000A0
:1034E4000000024000000000000000000100000095
:1034F400FFFF000000040240010000000000000083
:1035040002000000FFFF000000080240020000006B
:103514000000000004000000FFFF0000000C024057
:10352400030000000000000008000000FFFF00008E
:103534000010024004000000000000001000000021
:10354400FFFF00000014024005000000000000001E
:1035540020000000FFFF00000018024006000000E9
:103564000000000040000000FFFF0000001C0240BB
:10357400070000000000000080000000FFFF0000C2
:1035840000200240080000000000000000010000CC
:10359400DF2B0008112A00081F2A0008332A00081C
:1035A4003F2A00084D2A0008051400085D2A000877
:1035B400B32A0008C52A00080000000000000040EB
:1035C40002000000010000005D150008592C0008ED
:1035D400004400400000000002000000000002005F
:1035E40000000000A92C0008CD2C0008E32C0008E2
:1035F4007D1600086B2D000838100020981000205C
:10360400A41000201C1100201C110020F5FFFFFF56
:103614000010000000304750494F440055415254B7
:103624005F320073746D33322D6578746900060758
:1036340008090A171717171728282828282801FF08
:103644002AFFFF020373746D33322D6363007379B1
:10365400735F636C6F636B00464C4153485F30008B
:103664005352414D5F30004750494F49004750493C
:103674004F48004750494F47004750494F4600477D
:1036840050494F45004750494F43004750494F4226
:10369400004750494F410050574D5F320000000031
:1036A4000000000000010203040607080976322E18
:1036B400322E302D7263312D3234372D6766363415
:1036C400636431613564626232002A2A2A20426FBF
:1036D4006F74696E67205A6570687972204F532041
:1036E4006275696C64202573202573202A2A2A0AAE
:0C36F400006D61696E0069646C65000087
:10370000B9270008850A0008F50A00080000000033
:10371000490B000800000000CF29000800C201008A
:10372000000000000024F4003010002030100020C1
:10373000903300080000000000000000B4330008CF
:103740000C10002000000000D8330008000000002A
:1037500000000000683400080000000000000000C5
:10376000CC3300080000000000000000A83300086F
:10377000000000000C0000205C340008E835000860
:10378000241000209C33000800000000000000000E
:10379000C03300080000000000000000E43300080F
:1037A0009435000854010020F033000894350008D7
:1037B00044010020FC330008943500083401002047
:1037C000083400089435000824010020143400084F
:1037D00094350008140100202034000894350008B6
:1037E000040100202C34000894350008F400002067
:1037F0003834000894350008E40000204434000800
:1038000094350008D400002050340008CC3500085E
:04381000640100202F
:103814001C1100201C11002000000000000000000A
:043824000F00000091
:040000050800106D72
:00000001FF
